{
  "_format": "hh-sol-artifact-1",
  "contractName": "InvestorShareToken",
  "sourceName": "contracts/InvestorShareToken.sol",
  "abi": [
    {
      "inputs": [
        {
          "internalType": "uint256",
          "name": "_assetId",
          "type": "uint256"
        },
        {
          "internalType": "string",
          "name": "_name",
          "type": "string"
        },
        {
          "internalType": "string",
          "name": "_symbol",
          "type": "string"
        },
        {
          "internalType": "uint256",
          "name": "_maxSupply",
          "type": "uint256"
        },
        {
          "internalType": "address",
          "name": "_registry",
          "type": "address"
        },
        {
          "internalType": "address",
          "name": "_vault",
          "type": "address"
        }
      ],
      "stateMutability": "nonpayable",
      "type": "constructor"
    },
    {
      "inputs": [],
      "name": "AccessControlBadConfirmation",
      "type": "error"
    },
    {
      "inputs": [
        {
          "internalType": "address",
          "name": "account",
          "type": "address"
        },
        {
          "internalType": "bytes32",
          "name": "neededRole",
          "type": "bytes32"
        }
      ],
      "name": "AccessControlUnauthorizedAccount",
      "type": "error"
    },
    {
      "inputs": [
        {
          "internalType": "address",
          "name": "spender",
          "type": "address"
        },
        {
          "internalType": "uint256",
          "name": "allowance",
          "type": "uint256"
        },
        {
          "internalType": "uint256",
          "name": "needed",
          "type": "uint256"
        }
      ],
      "name": "ERC20InsufficientAllowance",
      "type": "error"
    },
    {
      "inputs": [
        {
          "internalType": "address",
          "name": "sender",
          "type": "address"
        },
        {
          "internalType": "uint256",
          "name": "balance",
          "type": "uint256"
        },
        {
          "internalType": "uint256",
          "name": "needed",
          "type": "uint256"
        }
      ],
      "name": "ERC20InsufficientBalance",
      "type": "error"
    },
    {
      "inputs": [
        {
          "internalType": "address",
          "name": "approver",
          "type": "address"
        }
      ],
      "name": "ERC20InvalidApprover",
      "type": "error"
    },
    {
      "inputs": [
        {
          "internalType": "address",
          "name": "receiver",
          "type": "address"
        }
      ],
      "name": "ERC20InvalidReceiver",
      "type": "error"
    },
    {
      "inputs": [
        {
          "internalType": "address",
          "name": "sender",
          "type": "address"
        }
      ],
      "name": "ERC20InvalidSender",
      "type": "error"
    },
    {
      "inputs": [
        {
          "internalType": "address",
          "name": "spender",
          "type": "address"
        }
      ],
      "name": "ERC20InvalidSpender",
      "type": "error"
    },
    {
      "anonymous": false,
      "inputs": [
        {
          "indexed": true,
          "internalType": "address",
          "name": "owner",
          "type": "address"
        },
        {
          "indexed": true,
          "internalType": "address",
          "name": "spender",
          "type": "address"
        },
        {
          "indexed": false,
          "internalType": "uint256",
          "name": "value",
          "type": "uint256"
        }
      ],
      "name": "Approval",
      "type": "event"
    },
    {
      "anonymous": false,
      "inputs": [
        {
          "indexed": true,
          "internalType": "bytes32",
          "name": "role",
          "type": "bytes32"
        },
        {
          "indexed": true,
          "internalType": "bytes32",
          "name": "previousAdminRole",
          "type": "bytes32"
        },
        {
          "indexed": true,
          "internalType": "bytes32",
          "name": "newAdminRole",
          "type": "bytes32"
        }
      ],
      "name": "RoleAdminChanged",
      "type": "event"
    },
    {
      "anonymous": false,
      "inputs": [
        {
          "indexed": true,
          "internalType": "bytes32",
          "name": "role",
          "type": "bytes32"
        },
        {
          "indexed": true,
          "internalType": "address",
          "name": "account",
          "type": "address"
        },
        {
          "indexed": true,
          "internalType": "address",
          "name": "sender",
          "type": "address"
        }
      ],
      "name": "RoleGranted",
      "type": "event"
    },
    {
      "anonymous": false,
      "inputs": [
        {
          "indexed": true,
          "internalType": "bytes32",
          "name": "role",
          "type": "bytes32"
        },
        {
          "indexed": true,
          "internalType": "address",
          "name": "account",
          "type": "address"
        },
        {
          "indexed": true,
          "internalType": "address",
          "name": "sender",
          "type": "address"
        }
      ],
      "name": "RoleRevoked",
      "type": "event"
    },
    {
      "anonymous": false,
      "inputs": [
        {
          "indexed": true,
          "internalType": "address",
          "name": "from",
          "type": "address"
        },
        {
          "indexed": false,
          "internalType": "uint256",
          "name": "amount",
          "type": "uint256"
        }
      ],
      "name": "TokenBurned",
      "type": "event"
    },
    {
      "anonymous": false,
      "inputs": [
        {
          "indexed": true,
          "internalType": "address",
          "name": "to",
          "type": "address"
        },
        {
          "indexed": false,
          "internalType": "uint256",
          "name": "amount",
          "type": "uint256"
        }
      ],
      "name": "TokenMinted",
      "type": "event"
    },
    {
      "anonymous": false,
      "inputs": [
        {
          "indexed": true,
          "internalType": "address",
          "name": "from",
          "type": "address"
        },
        {
          "indexed": true,
          "internalType": "address",
          "name": "to",
          "type": "address"
        },
        {
          "indexed": false,
          "internalType": "uint256",
          "name": "value",
          "type": "uint256"
        }
      ],
      "name": "Transfer",
      "type": "event"
    },
    {
      "inputs": [],
      "name": "DEFAULT_ADMIN_ROLE",
      "outputs": [
        {
          "internalType": "bytes32",
          "name": "",
          "type": "bytes32"
        }
      ],
      "stateMutability": "view",
      "type": "function"
    },
    {
      "inputs": [],
      "name": "VAULT_ROLE",
      "outputs": [
        {
          "internalType": "bytes32",
          "name": "",
          "type": "bytes32"
        }
      ],
      "stateMutability": "view",
      "type": "function"
    },
    {
      "inputs": [
        {
          "internalType": "address",
          "name": "owner",
          "type": "address"
        },
        {
          "internalType": "address",
          "name": "spender",
          "type": "address"
        }
      ],
      "name": "allowance",
      "outputs": [
        {
          "internalType": "uint256",
          "name": "",
          "type": "uint256"
        }
      ],
      "stateMutability": "view",
      "type": "function"
    },
    {
      "inputs": [
        {
          "internalType": "address",
          "name": "spender",
          "type": "address"
        },
        {
          "internalType": "uint256",
          "name": "value",
          "type": "uint256"
        }
      ],
      "name": "approve",
      "outputs": [
        {
          "internalType": "bool",
          "name": "",
          "type": "bool"
        }
      ],
      "stateMutability": "nonpayable",
      "type": "function"
    },
    {
      "inputs": [],
      "name": "assetId",
      "outputs": [
        {
          "internalType": "uint256",
          "name": "",
          "type": "uint256"
        }
      ],
      "stateMutability": "view",
      "type": "function"
    },
    {
      "inputs": [
        {
          "internalType": "address",
          "name": "account",
          "type": "address"
        }
      ],
      "name": "balanceOf",
      "outputs": [
        {
          "internalType": "uint256",
          "name": "",
          "type": "uint256"
        }
      ],
      "stateMutability": "view",
      "type": "function"
    },
    {
      "inputs": [
        {
          "internalType": "address",
          "name": "from",
          "type": "address"
        },
        {
          "internalType": "uint256",
          "name": "amount",
          "type": "uint256"
        }
      ],
      "name": "burn",
      "outputs": [],
      "stateMutability": "nonpayable",
      "type": "function"
    },
    {
      "inputs": [],
      "name": "decimals",
      "outputs": [
        {
          "internalType": "uint8",
          "name": "",
          "type": "uint8"
        }
      ],
      "stateMutability": "view",
      "type": "function"
    },
    {
      "inputs": [
        {
          "internalType": "bytes32",
          "name": "role",
          "type": "bytes32"
        }
      ],
      "name": "getRoleAdmin",
      "outputs": [
        {
          "internalType": "bytes32",
          "name": "",
          "type": "bytes32"
        }
      ],
      "stateMutability": "view",
      "type": "function"
    },
    {
      "inputs": [
        {
          "internalType": "bytes32",
          "name": "role",
          "type": "bytes32"
        },
        {
          "internalType": "address",
          "name": "account",
          "type": "address"
        }
      ],
      "name": "grantRole",
      "outputs": [],
      "stateMutability": "nonpayable",
      "type": "function"
    },
    {
      "inputs": [
        {
          "internalType": "bytes32",
          "name": "role",
          "type": "bytes32"
        },
        {
          "internalType": "address",
          "name": "account",
          "type": "address"
        }
      ],
      "name": "hasRole",
      "outputs": [
        {
          "internalType": "bool",
          "name": "",
          "type": "bool"
        }
      ],
      "stateMutability": "view",
      "type": "function"
    },
    {
      "inputs": [],
      "name": "maxSupply",
      "outputs": [
        {
          "internalType": "uint256",
          "name": "",
          "type": "uint256"
        }
      ],
      "stateMutability": "view",
      "type": "function"
    },
    {
      "inputs": [
        {
          "internalType": "address",
          "name": "to",
          "type": "address"
        },
        {
          "internalType": "uint256",
          "name": "amount",
          "type": "uint256"
        }
      ],
      "name": "mint",
      "outputs": [],
      "stateMutability": "nonpayable",
      "type": "function"
    },
    {
      "inputs": [],
      "name": "name",
      "outputs": [
        {
          "internalType": "string",
          "name": "",
          "type": "string"
        }
      ],
      "stateMutability": "view",
      "type": "function"
    },
    {
      "inputs": [
        {
          "internalType": "address",
          "name": "investor",
          "type": "address"
        }
      ],
      "name": "ownershipBps",
      "outputs": [
        {
          "internalType": "uint256",
          "name": "",
          "type": "uint256"
        }
      ],
      "stateMutability": "view",
      "type": "function"
    },
    {
      "inputs": [],
      "name": "registry",
      "outputs": [
        {
          "internalType": "address",
          "name": "",
          "type": "address"
        }
      ],
      "stateMutability": "view",
      "type": "function"
    },
    {
      "inputs": [
        {
          "internalType": "bytes32",
          "name": "role",
          "type": "bytes32"
        },
        {
          "internalType": "address",
          "name": "callerConfirmation",
          "type": "address"
        }
      ],
      "name": "renounceRole",
      "outputs": [],
      "stateMutability": "nonpayable",
      "type": "function"
    },
    {
      "inputs": [
        {
          "internalType": "bytes32",
          "name": "role",
          "type": "bytes32"
        },
        {
          "internalType": "address",
          "name": "account",
          "type": "address"
        }
      ],
      "name": "revokeRole",
      "outputs": [],
      "stateMutability": "nonpayable",
      "type": "function"
    },
    {
      "inputs": [
        {
          "internalType": "bytes4",
          "name": "interfaceId",
          "type": "bytes4"
        }
      ],
      "name": "supportsInterface",
      "outputs": [
        {
          "internalType": "bool",
          "name": "",
          "type": "bool"
        }
      ],
      "stateMutability": "view",
      "type": "function"
    },
    {
      "inputs": [],
      "name": "symbol",
      "outputs": [
        {
          "internalType": "string",
          "name": "",
          "type": "string"
        }
      ],
      "stateMutability": "view",
      "type": "function"
    },
    {
      "inputs": [],
      "name": "totalSupply",
      "outputs": [
        {
          "internalType": "uint256",
          "name": "",
          "type": "uint256"
        }
      ],
      "stateMutability": "view",
      "type": "function"
    },
    {
      "inputs": [
        {
          "internalType": "address",
          "name": "to",
          "type": "address"
        },
        {
          "internalType": "uint256",
          "name": "value",
          "type": "uint256"
        }
      ],
      "name": "transfer",
      "outputs": [
        {
          "internalType": "bool",
          "name": "",
          "type": "bool"
        }
      ],
      "stateMutability": "nonpayable",
      "type": "function"
    },
    {
      "inputs": [
        {
          "internalType": "address",
          "name": "from",
          "type": "address"
        },
        {
          "internalType": "address",
          "name": "to",
          "type": "address"
        },
        {
          "internalType": "uint256",
          "name": "value",
          "type": "uint256"
        }
      ],
      "name": "transferFrom",
      "outputs": [
        {
          "internalType": "bool",
          "name": "",
          "type": "bool"
        }
      ],
      "stateMutability": "nonpayable",
      "type": "function"
    },
    {
      "inputs": [],
      "name": "vault",
      "outputs": [
        {
          "internalType": "address",
          "name": "",
          "type": "address"
        }
      ],
      "stateMutability": "view",
      "type": "function"
    }
  ],
  "bytecode": "0x6040610100815234620004c2576200190a90813803806200002081620004c7565b938439820160c083820312620004c257825160208085015190946001600160401b0393929091848111620004c257836200005c918401620004ed565b928583015190858211620004c25762000077918401620004ed565b956060830151936200009a60a062000092608087016200055f565b95016200055f565b958151818111620003c2576003908154906001948583811c93168015620004b7575b87841014620004a1578190601f938481116200044b575b508790848311600114620003e457600092620003d8575b505060001982851b1c191690851b1782555b8a51928311620003c25760049a8b548581811c91168015620003b7575b87821014620003a25782811162000357575b5085918411600114620002ec57938394918492600095620002e0575b50501b92600019911b1c19161787555b8115620002ac5783156200026a576001600160a01b03838116156200023457851615620002025750620001a594955060805260a0528160c05260e0526200019e8162000574565b50620005f5565b505161125190816200069982396080518181816106290152610e69015260a0518181816105ab0152610e47015260c051818181610140015281816102cb015281816106910152610f33015260e0518181816101d201526106dd0152f35b8660649187519162461bcd60e51b8352820152600d60248201526c125b9d985b1a59081d985d5b1d609a1b6044820152fd5b865162461bcd60e51b8152808901839052601060248201526f496e76616c696420726567697374727960801b6044820152606490fd5b8660649187519162461bcd60e51b8352820152601660248201527f4d617820737570706c79206d757374206265203e2030000000000000000000006044820152fd5b8660649187519162461bcd60e51b8352820152600f60248201526e125b9d985b1a5908185cdcd95d1259608a1b6044820152fd5b01519350388062000147565b9190601f198416928c60005284876000209460005b89898383106200033f575050501062000324575b50505050811b01875562000157565b01519060f884600019921b161c191690553880808062000315565b86860151895590970196948501948893500162000301565b8c600052866000208380870160051c82019289881062000398575b0160051c019086905b8281106200038b5750506200012b565b600081550186906200037b565b9250819262000372565b60228d634e487b7160e01b6000525260246000fd5b90607f169062000119565b634e487b7160e01b600052604160045260246000fd5b015190503880620000ea565b90879350601f1983169186600052896000209260005b8b8282106200043457505084116200041b575b505050811b018255620000fc565b015160001983871b60f8161c191690553880806200040d565b8385015186558b97909501949384019301620003fa565b90915084600052876000208480850160051c8201928a861062000497575b918991869594930160051c01915b82811062000487575050620000d3565b6000815585945089910162000477565b9250819262000469565b634e487b7160e01b600052602260045260246000fd5b92607f1692620000bc565b600080fd5b6040519190601f01601f191682016001600160401b03811183821017620003c257604052565b919080601f84011215620004c25782516001600160401b038111620003c25760209062000523601f8201601f19168301620004c7565b92818452828287010111620004c25760005b8181106200054b57508260009394955001015290565b858101830151848201840152820162000535565b51906001600160a01b0382168203620004c257565b6001600160a01b031660008181527f05b8ccbb9d4d8fb16ea74ce3c29a41f1b461fbdaff4714a0d9a8eb05499746bc602052604081205490919060ff16620005f15781805260056020526040822081835260205260408220600160ff198254161790553391600080516020620018ea8339815191528180a4600190565b5090565b6001600160a01b031660008181527f87c2ee2c36dfdcfbf8c67c09d653b243ec5dd6151f83e87090208d36e7af7e3560205260408120549091907f31e0210044b4f6757ce6aa31f9c6e8d4896d24a755014887391a926c5224d9599060ff16620006935780835260056020526040832082845260205260408320600160ff19825416179055600080516020620018ea833981519152339380a4600190565b50509056fe608060408181526004918236101561001657600080fd5b600092833560e01c91826301ffc9a714610b8c5750816306fdde0314610a97578163095ea7b3146109ed57816318160ddd146109ce57816319d48729146109a157816323b872dd146108aa578163248a9ca31461087f5781632f2ff15d14610855578163313ce5671461083957816336568abe146107f357816340c10f191461064c57816344de240a1461061157816370a08231146105da5781637b1039991461059657816391d148541461054f57816395d89b411461044c57816398c4f1ac146104115781639dc29fac14610285578163a217fddf1461026a578163a9059cbb14610239578163d547741f146101f557508063d5abeb01146101bb578063dd62ed3e146101735763fbfa77cf1461012d57600080fd5b3461016f578160031936011261016f57517f00000000000000000000000000000000000000000000000000000000000000006001600160a01b03168152602090f35b5080fd5b503461016f578060031936011261016f5780602092610190610c28565b610198610c43565b6001600160a01b0391821683526001865283832091168252845220549051908152f35b503461016f578160031936011261016f57602090517f00000000000000000000000000000000000000000000000000000000000000008152f35b91905034610235578060031936011261023557610231913561022c600161021a610c43565b93838752600560205286200154610cd3565b610d79565b5080f35b8280fd5b50503461016f578060031936011261016f57602090610263610259610c28565b6024359033610e28565b5160018152f35b50503461016f578160031936011261016f5751908152602090f35b90503461023557816003193601126102355761029f610c28565b91602435906102ac610c59565b805163042eaa1160e31b8152602093906001600160a01b0390858184817f000000000000000000000000000000000000000000000000000000000000000086165afa90811561040757906103089189916103da575b501561117d565b85169485156103c457858752868552828720549184831061039057505090827f1af5163f80e79b5e554f61e1d052084d3a3fe1166e42a265798c4e2ddce8ffa29493928688528785520381872055816002540360025585857fddf252ad1be2c89b69c2b068fc378daa952ba7f163c4a11628f55a4df523b3ef858451868152a351908152a280f35b835163391434e360e21b81526001600160a01b03909216908201908152602081018390526040810185905281906060010390fd5b50856024925191634b637e8f60e11b8352820152fd5b6103fa9150873d8911610400575b6103f28183610df0565b810190611165565b38610301565b503d6103e8565b84513d8a823e3d90fd5b50503461016f578160031936011261016f57602090517f31e0210044b4f6757ce6aa31f9c6e8d4896d24a755014887391a926c5224d9598152f35b83833461016f578160031936011261016f57805191809380549160019083821c92828516948515610545575b60209586861081146105325785895290811561050e57506001146104b6575b6104b287876104a8828c0383610df0565b5191829182610bdf565b0390f35b81529295507f8a35acfbc15ff81a39ae7d344fd709f28e8600b4aa8c65c6b64bfe7fe36bd19b5b8284106104fb57505050826104b2946104a892820101948680610497565b80548685018801529286019281016104dd565b60ff19168887015250505050151560051b83010192506104a8826104b28680610497565b634e487b7160e01b845260228352602484fd5b93607f1693610478565b9050346102355781600319360112610235578160209360ff92610570610c43565b90358252600586528282206001600160a01b039091168252855220549151911615158152f35b50503461016f578160031936011261016f57517f00000000000000000000000000000000000000000000000000000000000000006001600160a01b03168152602090f35b50503461016f57602036600319011261016f5760209181906001600160a01b03610602610c28565b16815280845220549051908152f35b50503461016f578160031936011261016f57602090517f00000000000000000000000000000000000000000000000000000000000000008152f35b8391503461016f578260031936011261016f57610667610c28565b602435610672610c59565b845163042eaa1160e31b8152602092906001600160a01b0390848187817f000000000000000000000000000000000000000000000000000000000000000086165afa9081156107e957906106cd9188916107cc57501561117d565b600254916106db84846111b9565b7f000000000000000000000000000000000000000000000000000000000000000010610793571693841561077c575094610738827fb9144c96c86541f6fa89c9f2f02495cccf4b08cd6643e26d34ee00aa586558a89596976111b9565b60025584865285835280862082815401905584867fddf252ad1be2c89b69c2b068fc378daa952ba7f163c4a11628f55a4df523b3ef858451868152a351908152a280f35b865163ec442f0560e01b8152908101869052602490fd5b875162461bcd60e51b8152808701869052601360248201527213585e081cdd5c1c1b1e48195e18d959591959606a1b6044820152606490fd5b6107e39150863d8811610400576103f28183610df0565b89610301565b88513d89823e3d90fd5b83833461016f578060031936011261016f5761080d610c43565b90336001600160a01b0383160361082a5750610231919235610d79565b5163334bd91960e11b81528390fd5b50503461016f578160031936011261016f576020905160128152f35b91905034610235578060031936011261023557610231913561087a600161021a610c43565b610cf9565b9050346102355760203660031901126102355781602093600192358152600585522001549051908152f35b9050823461099e57606036600319011261099e576108c6610c28565b6108ce610c43565b916044359360018060a01b03831680835260016020528683203384526020528683205491600019831061090a575b602088610263898989610e28565b86831061097257811561095b57331561094457508252600160209081528683203384528152918690209085900390558290610263876108fc565b8751634a1406b160e11b8152908101849052602490fd5b875163e602df0560e01b8152908101849052602490fd5b8751637dc7a0d960e11b8152339181019182526020820193909352604081018790528291506060010390fd5b80fd5b50503461016f57602036600319011261016f576020906109c76109c2610c28565b6111dc565b9051908152f35b50503461016f578160031936011261016f576020906002549051908152f35b905034610235578160031936011261023557610a07610c28565b602435903315610a80576001600160a01b0316918215610a6957508083602095338152600187528181208582528752205582519081527f8c5be1e5ebec7d5bd14f71427d1e84f3dd0314c0f7b2291e5b200ac8c7c3b925843392a35160018152f35b8351634a1406b160e11b8152908101859052602490fd5b835163e602df0560e01b8152808401869052602490fd5b91905034610235578260031936011261023557805191836003549060019082821c928281168015610b82575b6020958686108214610b6f5750848852908115610b4d5750600114610af4575b6104b286866104a8828b0383610df0565b929550600383527fc2575a0e9e593c00f959f8c92f12db2869c3395a3b0502d05e2516446f71f85b5b828410610b3a57505050826104b2946104a8928201019438610ae3565b8054868501880152928601928101610b1d565b60ff191687860152505050151560051b83010192506104a8826104b238610ae3565b634e487b7160e01b845260229052602483fd5b93607f1693610ac3565b849134610235576020366003190112610235573563ffffffff60e01b81168091036102355760209250637965db0b60e01b8114908115610bce575b5015158152f35b6301ffc9a760e01b14905083610bc7565b6020808252825181830181905290939260005b828110610c1457505060409293506000838284010152601f8019910116010190565b818101860151848201604001528501610bf2565b600435906001600160a01b0382168203610c3e57565b600080fd5b602435906001600160a01b0382168203610c3e57565b3360009081527f87c2ee2c36dfdcfbf8c67c09d653b243ec5dd6151f83e87090208d36e7af7e3560205260409020547f31e0210044b4f6757ce6aa31f9c6e8d4896d24a755014887391a926c5224d9599060ff1615610cb55750565b6044906040519063e2517d3f60e01b82523360048301526024820152fd5b80600052600560205260406000203360005260205260ff6040600020541615610cb55750565b906000918083526005602052604083209160018060a01b03169182845260205260ff60408420541615600014610d745780835260056020526040832082845260205260408320600160ff198254161790557f2f8788117e7eff1d82e926ec794901d17c78024a50270940304540a733656f0d339380a4600190565b505090565b906000918083526005602052604083209160018060a01b03169182845260205260ff604084205416600014610d74578083526005602052604083208284526020526040832060ff1981541690557ff6391f5c32d9c69d2a47ea670b442974b53935d1edc7fd64eb21e047a839171b339380a4600190565b90601f8019910116810190811067ffffffffffffffff821117610e1257604052565b634e487b7160e01b600052604160045260246000fd5b6001600160a01b039281841692831561114c57841693841561113357807f0000000000000000000000000000000000000000000000000000000000000000167f000000000000000000000000000000000000000000000000000000000000000093604092835190631174806160e11b8252600493878584015260209760249389818681865afa9081156110d657600091611116575b50156110e1578651631f50b2cb60e01b815286810182905289818681865afa9081156110d6576000916110b9575b5061108857889084885180948193633a8d816160e11b83528a8301525afa90811561107d57600091611060575b50156110265786849186519283809263042eaa1160e31b82527f0000000000000000000000000000000000000000000000000000000000000000165afa90811561101b57600091610ffe575b50610fca5750856000526000855282600020549184831061039057505090827fddf252ad1be2c89b69c2b068fc378daa952ba7f163c4a11628f55a4df523b3ef9493928660005260008552038160002055856000528060002082815401905551908152a3565b6010915085606494519362461bcd60e51b85528401528201526f151c985b9cd9995c9cc81b1bd8dad95960821b6044820152fd5b6110159150873d8911610400576103f28183610df0565b38610f64565b85513d6000823e3d90fd5b845162461bcd60e51b815280850188905260158184015274105cdcd95d081b9bdd081dda1a5d195b1a5cdd1959605a1b6044820152606490fd5b6110779150883d8a11610400576103f28183610df0565b38610f18565b86513d6000823e3d90fd5b865162461bcd60e51b81528087018a9052600c818601526b105cdcd95d081c185d5cd95960a21b6044820152606490fd5b6110d091508a3d8c11610400576103f28183610df0565b38610eeb565b88513d6000823e3d90fd5b865162461bcd60e51b81528087018a90526010818601526f4173736574206e6f742061637469766560801b6044820152606490fd5b61112d91508a3d8c11610400576103f28183610df0565b38610ebd565b60405163ec442f0560e01b815260006004820152602490fd5b604051634b637e8f60e11b815260006004820152602490fd5b90816020910312610c3e57518015158103610c3e5790565b1561118457565b60405162461bcd60e51b815260206004820152600d60248201526c14dd5c1c1b1e481b1bd8dad959609a1b6044820152606490fd5b919082018092116111c657565b634e487b7160e01b600052601160045260246000fd5b6002549081156112145760018060a01b03166000526000602052604060002054612710908181029181830414901517156111c6570490565b505060009056fea2646970667358221220d92d139dc394a967f562c6f89e35b2f659b3dbea6f3094276770877eba6d800f64736f6c634300081400332f8788117e7eff1d82e926ec794901d17c78024a50270940304540a733656f0d",
  "linkReferences": {},
  "deployedLinkReferences": {}
}