{
  "_format": "hh-sol-artifact-1",
  "contractName": "MockERC20",
  "sourceName": "contracts/mocks/MockERC20.sol",
  "abi": [
    {
      "inputs": [
        {
          "internalType": "string",
          "name": "name",
          "type": "string"
        },
        {
          "internalType": "string",
          "name": "symbol",
          "type": "string"
        }
      ],
      "stateMutability": "nonpayable",
      "type": "constructor"
    },
    {
      "inputs": [
        {
          "internalType": "address",
          "name": "spender",
          "type": "address"
        },
        {
          "internalType": "uint256",
          "name": "allowance",
          "type": "uint256"
        },
        {
          "internalType": "uint256",
          "name": "needed",
          "type": "uint256"
        }
      ],
      "name": "ERC20InsufficientAllowance",
      "type": "error"
    },
    {
      "inputs": [
        {
          "internalType": "address",
          "name": "sender",
          "type": "address"
        },
        {
          "internalType": "uint256",
          "name": "balance",
          "type": "uint256"
        },
        {
          "internalType": "uint256",
          "name": "needed",
          "type": "uint256"
        }
      ],
      "name": "ERC20InsufficientBalance",
      "type": "error"
    },
    {
      "inputs": [
        {
          "internalType": "address",
          "name": "approver",
          "type": "address"
        }
      ],
      "name": "ERC20InvalidApprover",
      "type": "error"
    },
    {
      "inputs": [
        {
          "internalType": "address",
          "name": "receiver",
          "type": "address"
        }
      ],
      "name": "ERC20InvalidReceiver",
      "type": "error"
    },
    {
      "inputs": [
        {
          "internalType": "address",
          "name": "sender",
          "type": "address"
        }
      ],
      "name": "ERC20InvalidSender",
      "type": "error"
    },
    {
      "inputs": [
        {
          "internalType": "address",
          "name": "spender",
          "type": "address"
        }
      ],
      "name": "ERC20InvalidSpender",
      "type": "error"
    },
    {
      "anonymous": false,
      "inputs": [
        {
          "indexed": true,
          "internalType": "address",
          "name": "owner",
          "type": "address"
        },
        {
          "indexed": true,
          "internalType": "address",
          "name": "spender",
          "type": "address"
        },
        {
          "indexed": false,
          "internalType": "uint256",
          "name": "value",
          "type": "uint256"
        }
      ],
      "name": "Approval",
      "type": "event"
    },
    {
      "anonymous": false,
      "inputs": [
        {
          "indexed": true,
          "internalType": "address",
          "name": "from",
          "type": "address"
        },
        {
          "indexed": true,
          "internalType": "address",
          "name": "to",
          "type": "address"
        },
        {
          "indexed": false,
          "internalType": "uint256",
          "name": "value",
          "type": "uint256"
        }
      ],
      "name": "Transfer",
      "type": "event"
    },
    {
      "inputs": [
        {
          "internalType": "address",
          "name": "owner",
          "type": "address"
        },
        {
          "internalType": "address",
          "name": "spender",
          "type": "address"
        }
      ],
      "name": "allowance",
      "outputs": [
        {
          "internalType": "uint256",
          "name": "",
          "type": "uint256"
        }
      ],
      "stateMutability": "view",
      "type": "function"
    },
    {
      "inputs": [
        {
          "internalType": "address",
          "name": "spender",
          "type": "address"
        },
        {
          "internalType": "uint256",
          "name": "value",
          "type": "uint256"
        }
      ],
      "name": "approve",
      "outputs": [
        {
          "internalType": "bool",
          "name": "",
          "type": "bool"
        }
      ],
      "stateMutability": "nonpayable",
      "type": "function"
    },
    {
      "inputs": [
        {
          "internalType": "address",
          "name": "account",
          "type": "address"
        }
      ],
      "name": "balanceOf",
      "outputs": [
        {
          "internalType": "uint256",
          "name": "",
          "type": "uint256"
        }
      ],
      "stateMutability": "view",
      "type": "function"
    },
    {
      "inputs": [
        {
          "internalType": "uint256",
          "name": "amount",
          "type": "uint256"
        }
      ],
      "name": "burn",
      "outputs": [],
      "stateMutability": "nonpayable",
      "type": "function"
    },
    {
      "inputs": [
        {
          "internalType": "address",
          "name": "from",
          "type": "address"
        },
        {
          "internalType": "uint256",
          "name": "amount",
          "type": "uint256"
        }
      ],
      "name": "burnFrom",
      "outputs": [],
      "stateMutability": "nonpayable",
      "type": "function"
    },
    {
      "inputs": [],
      "name": "decimals",
      "outputs": [
        {
          "internalType": "uint8",
          "name": "",
          "type": "uint8"
        }
      ],
      "stateMutability": "view",
      "type": "function"
    },
    {
      "inputs": [
        {
          "internalType": "address",
          "name": "to",
          "type": "address"
        },
        {
          "internalType": "uint256",
          "name": "amount",
          "type": "uint256"
        }
      ],
      "name": "mint",
      "outputs": [],
      "stateMutability": "nonpayable",
      "type": "function"
    },
    {
      "inputs": [],
      "name": "name",
      "outputs": [
        {
          "internalType": "string",
          "name": "",
          "type": "string"
        }
      ],
      "stateMutability": "view",
      "type": "function"
    },
    {
      "inputs": [],
      "name": "symbol",
      "outputs": [
        {
          "internalType": "string",
          "name": "",
          "type": "string"
        }
      ],
      "stateMutability": "view",
      "type": "function"
    },
    {
      "inputs": [],
      "name": "totalSupply",
      "outputs": [
        {
          "internalType": "uint256",
          "name": "",
          "type": "uint256"
        }
      ],
      "stateMutability": "view",
      "type": "function"
    },
    {
      "inputs": [
        {
          "internalType": "address",
          "name": "to",
          "type": "address"
        },
        {
          "internalType": "uint256",
          "name": "value",
          "type": "uint256"
        }
      ],
      "name": "transfer",
      "outputs": [
        {
          "internalType": "bool",
          "name": "",
          "type": "bool"
        }
      ],
      "stateMutability": "nonpayable",
      "type": "function"
    },
    {
      "inputs": [
        {
          "internalType": "address",
          "name": "from",
          "type": "address"
        },
        {
          "internalType": "address",
          "name": "to",
          "type": "address"
        },
        {
          "internalType": "uint256",
          "name": "value",
          "type": "uint256"
        }
      ],
      "name": "transferFrom",
      "outputs": [
        {
          "internalType": "bool",
          "name": "",
          "type": "bool"
        }
      ],
      "stateMutability": "nonpayable",
      "type": "function"
    }
  ],
  "bytecode": "0x6080604052346200031d5762000ca2803803806200001d8162000322565b9283398101906040818303126200031d5780516001600160401b03908181116200031d57836200004f91840162000348565b91602093848201518381116200031d576200006b920162000348565b82518281116200021d576003918254916001958684811c9416801562000312575b88851014620002fc578190601f94858111620002a6575b5088908583116001146200023f5760009262000233575b505060001982861b1c191690861b1783555b80519384116200021d5760049586548681811c9116801562000212575b82821014620001fd57838111620001b2575b508092851160011462000144575093839491849260009562000138575b50501b92600019911b1c19161790555b6040516108e79081620003bb8239f35b01519350388062000118565b92919084601f1981168860005285600020956000905b898383106200019757505050106200017c575b50505050811b01905562000128565b01519060f884600019921b161c19169055388080806200016d565b8587015189559097019694850194889350908101906200015a565b87600052816000208480880160051c820192848910620001f3575b0160051c019087905b828110620001e6575050620000fb565b60008155018790620001d6565b92508192620001cd565b602288634e487b7160e01b6000525260246000fd5b90607f1690620000e9565b634e487b7160e01b600052604160045260246000fd5b015190503880620000ba565b90889350601f19831691876000528a6000209260005b8c8282106200028f575050841162000276575b505050811b018355620000cc565b015160001983881b60f8161c1916905538808062000268565b8385015186558c9790950194938401930162000255565b90915085600052886000208580850160051c8201928b8610620002f2575b918a91869594930160051c01915b828110620002e2575050620000a3565b600081558594508a9101620002d2565b92508192620002c4565b634e487b7160e01b600052602260045260246000fd5b93607f16936200008c565b600080fd5b6040519190601f01601f191682016001600160401b038111838210176200021d57604052565b919080601f840112156200031d5782516001600160401b0381116200021d576020906200037e601f8201601f1916830162000322565b928184528282870101116200031d5760005b818110620003a657508260009394955001015290565b85810183015184820184015282016200039056fe608060408181526004918236101561001657600080fd5b600092833560e01c91826306fdde031461054f57508163095ea7b31461052557816318160ddd1461050657816323b872dd1461040f578163313ce567146103f357816340c10f191461034757816342966c681461032957816370a08231146102f257816379cc67901461024357816395d89b411461012457508063a9059cbb146100f45763dd62ed3e146100a957600080fd5b346100f057806003193601126100f057806020926100c5610670565b6100cd61068b565b6001600160a01b0391821683526001865283832091168252845220549051908152f35b5080fd5b50346100f057806003193601126100f05760209061011d610113610670565b60243590336106a1565b5160018152f35b8383346100f057816003193601126100f057805190828454600181811c90808316928315610239575b60209384841081146102265783885290811561020a57506001146101b5575b505050829003601f01601f191682019267ffffffffffffffff8411838510176101a2575082918261019e925282610627565b0390f35b634e487b7160e01b815260418552602490fd5b8787529192508591837f8a35acfbc15ff81a39ae7d344fd709f28e8600b4aa8c65c6b64bfe7fe36bd19b5b8385106101f6575050505083010185808061016c565b8054888601830152930192849082016101e0565b60ff1916878501525050151560051b840101905085808061016c565b634e487b7160e01b895260228a52602489fd5b91607f169161014d565b839150346100f057826003193601126100f05761025e610670565b6001600160a01b038116835260016020908152848420338552905283832054602435928382106102a357509061029b836102a0949303338361077f565b610812565b80f35b608490602087519162461bcd60e51b83528201526024808201527f45524332303a206275726e20616d6f756e74206578636565647320616c6c6f77604482015263616e636560e01b6064820152fd5b5050346100f05760203660031901126100f05760209181906001600160a01b0361031a610670565b16815280845220549051908152f35b8390346100f05760203660031901126100f0576102a0903533610812565b919050346103ef57806003193601126103ef57610362610670565b6001600160a01b031691602435919083156103da57600254908382018092116103c7575084927fddf252ad1be2c89b69c2b068fc378daa952ba7f163c4a11628f55a4df523b3ef9260209260025585855284835280852082815401905551908152a380f35b634e487b7160e01b865260119052602485fd5b84602492519163ec442f0560e01b8352820152fd5b8280fd5b5050346100f057816003193601126100f0576020905160128152f35b905082346105035760603660031901126105035761042b610670565b61043361068b565b916044359360018060a01b03831680835260016020528683203384526020528683205491600019831061046f575b60208861011d8989896106a1565b8683106104d75781156104c05733156104a95750825260016020908152868320338452815291869020908590039055829061011d87610461565b8751634a1406b160e11b8152908101849052602490fd5b875163e602df0560e01b8152908101849052602490fd5b8751637dc7a0d960e11b8152339181019182526020820193909352604081018790528291506060010390fd5b80fd5b5050346100f057816003193601126100f0576020906002549051908152f35b5050346100f057806003193601126100f05760209061011d610545610670565b602435903361077f565b849084346103ef57826003193601126103ef5782600354600181811c9080831692831561061d575b60209384841081146102265783885290811561020a57506001146105c757505050829003601f01601f191682019267ffffffffffffffff8411838510176101a2575082918261019e925282610627565b600387529192508591837fc2575a0e9e593c00f959f8c92f12db2869c3395a3b0502d05e2516446f71f85b5b838510610609575050505083010185808061016c565b8054888601830152930192849082016105f3565b91607f1691610577565b6020808252825181830181905290939260005b82811061065c57505060409293506000838284010152601f8019910116010190565b81810186015184820160400152850161063a565b600435906001600160a01b038216820361068657565b600080fd5b602435906001600160a01b038216820361068657565b916001600160a01b03808416928315610766571692831561074d576000908382528160205260408220549083821061071b575091604082827fddf252ad1be2c89b69c2b068fc378daa952ba7f163c4a11628f55a4df523b3ef958760209652828652038282205586815220818154019055604051908152a3565b60405163391434e360e21b81526001600160a01b03919091166004820152602481019190915260448101839052606490fd5b60405163ec442f0560e01b815260006004820152602490fd5b604051634b637e8f60e11b815260006004820152602490fd5b6001600160a01b039081169182156107f957169182156107e05760207f8c5be1e5ebec7d5bd14f71427d1e84f3dd0314c0f7b2291e5b200ac8c7c3b925918360005260018252604060002085600052825280604060002055604051908152a3565b604051634a1406b160e11b815260006004820152602490fd5b60405163e602df0560e01b815260006004820152602490fd5b906001600160a01b038216908115610766576000928284528360205260408420549082821061087f5750817fddf252ad1be2c89b69c2b068fc378daa952ba7f163c4a11628f55a4df523b3ef926020928587528684520360408620558060025403600255604051908152a3565b60405163391434e360e21b81526001600160a01b03919091166004820152602481019190915260448101829052606490fdfea2646970667358221220f3c9b87d5cd1a07c02b150e09d020ac7f13ad081a908267c052bd51b87cc92ae64736f6c63430008140033",
  "linkReferences": {},
  "deployedLinkReferences": {}
}