{
  "_format": "hh-sol-artifact-1",
  "contractName": "RentalCashFlowLogic",
  "sourceName": "contracts/RentalCashFlowLogic.sol",
  "abi": [
    {
      "anonymous": false,
      "inputs": [
        {
          "indexed": false,
          "internalType": "uint256",
          "name": "daysPastDue",
          "type": "uint256"
        },
        {
          "indexed": false,
          "internalType": "bool",
          "name": "defaultTriggered",
          "type": "bool"
        },
        {
          "indexed": false,
          "internalType": "uint256",
          "name": "timestamp",
          "type": "uint256"
        }
      ],
      "name": "CashflowDefaultEvaluated",
      "type": "event"
    },
    {
      "anonymous": false,
      "inputs": [
        {
          "indexed": false,
          "internalType": "enum CashflowHealth",
          "name": "newHealth",
          "type": "uint8"
        }
      ],
      "name": "CashflowHealthUpdated",
      "type": "event"
    },
    {
      "anonymous": false,
      "inputs": [
        {
          "indexed": true,
          "internalType": "address",
          "name": "logic",
          "type": "address"
        },
        {
          "indexed": false,
          "internalType": "bytes",
          "name": "data",
          "type": "bytes"
        }
      ],
      "name": "CashflowInitialized",
      "type": "event"
    },
    {
      "anonymous": false,
      "inputs": [
        {
          "indexed": false,
          "internalType": "uint256",
          "name": "timestamp",
          "type": "uint256"
        }
      ],
      "name": "CashflowMatured",
      "type": "event"
    },
    {
      "anonymous": false,
      "inputs": [
        {
          "indexed": false,
          "internalType": "uint256",
          "name": "amount",
          "type": "uint256"
        },
        {
          "indexed": false,
          "internalType": "uint256",
          "name": "timestamp",
          "type": "uint256"
        },
        {
          "indexed": false,
          "internalType": "enum RWACommonTypes.AssetStatus",
          "name": "newStatus",
          "type": "uint8"
        },
        {
          "indexed": false,
          "internalType": "enum CashflowHealth",
          "name": "health",
          "type": "uint8"
        }
      ],
      "name": "CashflowPaymentProcessed",
      "type": "event"
    },
    {
      "anonymous": false,
      "inputs": [
        {
          "indexed": false,
          "internalType": "enum RWACommonTypes.AssetStatus",
          "name": "oldStatus",
          "type": "uint8"
        },
        {
          "indexed": false,
          "internalType": "enum RWACommonTypes.AssetStatus",
          "name": "newStatus",
          "type": "uint8"
        },
        {
          "indexed": false,
          "internalType": "enum CashflowHealth",
          "name": "health",
          "type": "uint8"
        },
        {
          "indexed": false,
          "internalType": "uint256",
          "name": "timestamp",
          "type": "uint256"
        }
      ],
      "name": "CashflowStatusUpdated",
      "type": "event"
    },
    {
      "anonymous": false,
      "inputs": [
        {
          "indexed": false,
          "internalType": "uint256",
          "name": "rentAmount",
          "type": "uint256"
        },
        {
          "indexed": false,
          "internalType": "uint256",
          "name": "paymentInterval",
          "type": "uint256"
        },
        {
          "indexed": false,
          "internalType": "uint256",
          "name": "firstPaymentDueDate",
          "type": "uint256"
        },
        {
          "indexed": false,
          "internalType": "uint256",
          "name": "gracePeriodDays",
          "type": "uint256"
        },
        {
          "indexed": false,
          "internalType": "uint256",
          "name": "leaseEndDate",
          "type": "uint256"
        }
      ],
      "name": "LeaseInitialized",
      "type": "event"
    },
    {
      "anonymous": false,
      "inputs": [
        {
          "indexed": true,
          "internalType": "uint256",
          "name": "period",
          "type": "uint256"
        },
        {
          "indexed": false,
          "internalType": "uint256",
          "name": "amount",
          "type": "uint256"
        },
        {
          "indexed": false,
          "internalType": "uint256",
          "name": "timestamp",
          "type": "uint256"
        }
      ],
      "name": "RentPaid",
      "type": "event"
    },
    {
      "inputs": [
        {
          "internalType": "uint256",
          "name": "timestamp",
          "type": "uint256"
        }
      ],
      "name": "evaluateDefault",
      "outputs": [
        {
          "internalType": "enum RWACommonTypes.AssetStatus",
          "name": "",
          "type": "uint8"
        },
        {
          "internalType": "enum CashflowHealth",
          "name": "",
          "type": "uint8"
        }
      ],
      "stateMutability": "nonpayable",
      "type": "function"
    },
    {
      "inputs": [],
      "name": "forceDefault",
      "outputs": [
        {
          "internalType": "bool",
          "name": "",
          "type": "bool"
        }
      ],
      "stateMutability": "nonpayable",
      "type": "function"
    },
    {
      "inputs": [],
      "name": "getAssetStatus",
      "outputs": [
        {
          "internalType": "enum RWACommonTypes.AssetStatus",
          "name": "",
          "type": "uint8"
        }
      ],
      "stateMutability": "view",
      "type": "function"
    },
    {
      "inputs": [],
      "name": "getCashflowHealth",
      "outputs": [
        {
          "internalType": "enum CashflowHealth",
          "name": "",
          "type": "uint8"
        }
      ],
      "stateMutability": "view",
      "type": "function"
    },
    {
      "inputs": [
        {
          "internalType": "uint256",
          "name": "timestamp",
          "type": "uint256"
        }
      ],
      "name": "getExpectedPayment",
      "outputs": [
        {
          "components": [
            {
              "internalType": "uint256",
              "name": "expectedAmount",
              "type": "uint256"
            },
            {
              "internalType": "uint256",
              "name": "dueDate",
              "type": "uint256"
            },
            {
              "internalType": "uint256",
              "name": "gracePeriodEnd",
              "type": "uint256"
            },
            {
              "internalType": "uint256",
              "name": "amountPaidThisPeriod",
              "type": "uint256"
            },
            {
              "internalType": "uint256",
              "name": "penaltyAmount",
              "type": "uint256"
            },
            {
              "internalType": "uint256",
              "name": "daysPastDue",
              "type": "uint256"
            },
            {
              "internalType": "bool",
              "name": "isDue",
              "type": "bool"
            },
            {
              "internalType": "bool",
              "name": "isPastDue",
              "type": "bool"
            }
          ],
          "internalType": "struct PaymentStatus",
          "name": "",
          "type": "tuple"
        }
      ],
      "stateMutability": "view",
      "type": "function"
    },
    {
      "inputs": [],
      "name": "getRemainingPrincipal",
      "outputs": [
        {
          "internalType": "uint256",
          "name": "",
          "type": "uint256"
        }
      ],
      "stateMutability": "pure",
      "type": "function"
    },
    {
      "inputs": [],
      "name": "getSchedule",
      "outputs": [
        {
          "internalType": "uint256",
          "name": "nextDueDate",
          "type": "uint256"
        },
        {
          "internalType": "uint256",
          "name": "expectedPeriodicPayment",
          "type": "uint256"
        },
        {
          "internalType": "uint256",
          "name": "maturityDate",
          "type": "uint256"
        }
      ],
      "stateMutability": "view",
      "type": "function"
    },
    {
      "inputs": [],
      "name": "getTotalReceived",
      "outputs": [
        {
          "internalType": "uint256",
          "name": "",
          "type": "uint256"
        }
      ],
      "stateMutability": "view",
      "type": "function"
    },
    {
      "inputs": [],
      "name": "gracePeriodDays",
      "outputs": [
        {
          "internalType": "uint256",
          "name": "",
          "type": "uint256"
        }
      ],
      "stateMutability": "view",
      "type": "function"
    },
    {
      "inputs": [],
      "name": "health",
      "outputs": [
        {
          "internalType": "enum CashflowHealth",
          "name": "",
          "type": "uint8"
        }
      ],
      "stateMutability": "view",
      "type": "function"
    },
    {
      "inputs": [
        {
          "internalType": "bytes",
          "name": "data",
          "type": "bytes"
        }
      ],
      "name": "initialize",
      "outputs": [],
      "stateMutability": "nonpayable",
      "type": "function"
    },
    {
      "inputs": [],
      "name": "initialized",
      "outputs": [
        {
          "internalType": "bool",
          "name": "",
          "type": "bool"
        }
      ],
      "stateMutability": "view",
      "type": "function"
    },
    {
      "inputs": [],
      "name": "lastMissedPeriod",
      "outputs": [
        {
          "internalType": "uint256",
          "name": "",
          "type": "uint256"
        }
      ],
      "stateMutability": "view",
      "type": "function"
    },
    {
      "inputs": [],
      "name": "lastPaidPeriod",
      "outputs": [
        {
          "internalType": "uint256",
          "name": "",
          "type": "uint256"
        }
      ],
      "stateMutability": "view",
      "type": "function"
    },
    {
      "inputs": [],
      "name": "leaseEndDate",
      "outputs": [
        {
          "internalType": "uint256",
          "name": "",
          "type": "uint256"
        }
      ],
      "stateMutability": "view",
      "type": "function"
    },
    {
      "inputs": [
        {
          "internalType": "uint256",
          "name": "",
          "type": "uint256"
        }
      ],
      "name": "markMatured",
      "outputs": [],
      "stateMutability": "nonpayable",
      "type": "function"
    },
    {
      "inputs": [],
      "name": "missedPeriods",
      "outputs": [
        {
          "internalType": "uint256",
          "name": "",
          "type": "uint256"
        }
      ],
      "stateMutability": "view",
      "type": "function"
    },
    {
      "inputs": [],
      "name": "paymentInterval",
      "outputs": [
        {
          "internalType": "uint256",
          "name": "",
          "type": "uint256"
        }
      ],
      "stateMutability": "view",
      "type": "function"
    },
    {
      "inputs": [
        {
          "internalType": "uint256",
          "name": "",
          "type": "uint256"
        }
      ],
      "name": "periodPaid",
      "outputs": [
        {
          "internalType": "bool",
          "name": "",
          "type": "bool"
        }
      ],
      "stateMutability": "view",
      "type": "function"
    },
    {
      "inputs": [
        {
          "internalType": "uint256",
          "name": "timestamp",
          "type": "uint256"
        }
      ],
      "name": "previewDefault",
      "outputs": [
        {
          "internalType": "enum RWACommonTypes.AssetStatus",
          "name": "newStatus",
          "type": "uint8"
        },
        {
          "internalType": "enum CashflowHealth",
          "name": "newHealth",
          "type": "uint8"
        },
        {
          "internalType": "uint256",
          "name": "daysPastDue",
          "type": "uint256"
        },
        {
          "internalType": "uint256",
          "name": "period",
          "type": "uint256"
        }
      ],
      "stateMutability": "view",
      "type": "function"
    },
    {
      "inputs": [
        {
          "internalType": "uint256",
          "name": "amount",
          "type": "uint256"
        },
        {
          "internalType": "uint256",
          "name": "timestamp",
          "type": "uint256"
        }
      ],
      "name": "processPayment",
      "outputs": [
        {
          "internalType": "enum RWACommonTypes.AssetStatus",
          "name": "",
          "type": "uint8"
        }
      ],
      "stateMutability": "nonpayable",
      "type": "function"
    },
    {
      "inputs": [],
      "name": "registry",
      "outputs": [
        {
          "internalType": "address",
          "name": "",
          "type": "address"
        }
      ],
      "stateMutability": "view",
      "type": "function"
    },
    {
      "inputs": [],
      "name": "rentAmount",
      "outputs": [
        {
          "internalType": "uint256",
          "name": "",
          "type": "uint256"
        }
      ],
      "stateMutability": "view",
      "type": "function"
    },
    {
      "inputs": [],
      "name": "startTimestamp",
      "outputs": [
        {
          "internalType": "uint256",
          "name": "",
          "type": "uint256"
        }
      ],
      "stateMutability": "view",
      "type": "function"
    },
    {
      "inputs": [],
      "name": "totalAmountPaid",
      "outputs": [
        {
          "internalType": "uint256",
          "name": "",
          "type": "uint256"
        }
      ],
      "stateMutability": "view",
      "type": "function"
    }
  ],
  "bytecode": "0x6080806040523461001657610fad908161001c8239f35b600080fdfe608060408181526004918236101561001657600080fd5b600092833560e01c9182630592a61214610c7f5750816307c47e6414610c605781631348ed5e14610c41578163158ef93e14610c1d5781631cc1cf4614610bfe5781631ebf1a5514610bb457816326d3325d14610a3457816326fadbe2146109e657816338f417ca146109b9578163439fab91146106ec57816345615716146106cc5781634e7c13fe1461068d5781637633a22c1461063a5781637b103999146106605781638acdca5e1461063a5781638c2281b01461044f578163b42b2da514610430578163be03250b14610411578163d2fa0a08146103d8578163df9d58ff146101cb57508063e2957dd1146101ad578063e6fd48bc1461018f578063e8c300ee14610175578063f41cb5d1146101575763f8ef1e131461013857600080fd5b34610153578160031936011261015357602091549051908152f35b5080fd5b50346101535781600319360112610153576020906008549051908152f35b503461015357816003193601126101535751908152602090f35b50346101535781600319360112610153576020906006549051908152f35b50346101535781600319360112610153576020906009549051908152f35b9050346103d457816003193601126103d45780356024938435906101f360ff600b5416610d6f565b60ff84541660058110156103c25760031461038c57600354821161035a57805483106103215761022282610e74565b8082526020966005885260ff87842054166102ea575091818388969487969452600586527fa62c35dfc0ff11d3713608ebcdc5c5d1952c7702620f2c46c22950f7b70d57978880842060ff19906001828254161790558360075561028887600854610ccb565b6008558754169586885581519081528589820152a28651908152600080516020610f58833981519152958691a160035411156102d7575b82856102d56102cc610cee565b91518092610c9b565bf35b811781558351908152a1388281806102bf565b8560136064928a8a519362461bcd60e51b85528401528201527214195c9a5bd908185b1c9958591e481c185a59606a1b6044820152fd5b845162461bcd60e51b815260208186015260148188015273125b9cdd59999a58da595b9d081c185e5b595b9d60621b6044820152606490fd5b845162461bcd60e51b8152602081860152600d818801526c1319585cd948195e1c1a5c9959609a1b6044820152606490fd5b845162461bcd60e51b815260208186015260118188015270105b1c9958591e48191959985d5b1d1959607a1b6044820152606490fd5b634e487b7160e01b8252602185528682fd5b8280fd5b919050346103d45760203660031901126103d457815460ff19168217825551908152600080516020610f5883398151915290602090a180f35b5050346101535781600319360112610153576020906007549051908152f35b5050346101535781600319360112610153576020906003549051908152f35b905082346105de5760203660031901126105de57600b548235929060081c6001600160a01b03163303610607578351631ebf1a5560e01b815281810184905291608083602481305afa9182156105fb57819482948394610579575b5081549360ff85169460058710156105665760ff191660ff87161783558391600287148015610559575b610542575b505061052f57600583101561052f57505090806102d5920361050c575b61050284518094610c9b565b6020830190610cbe565b600080516020610f58833981519152602085516105298185610cbe565ba16104f6565b634e487b7160e01b825260219052602490fd5b61054c9082610ec1565b600955600a5587806104d9565b50849250600387146104d4565b634e487b7160e01b855260218452602485fd5b95509250925060803d81116105f4575b601f8101601f1916850167ffffffffffffffff8111868210176105e15760809186918852810103126105de5783519260098410156101535760208501519460058610156103d4576060015193949392876104aa565b80fd5b634e487b7160e01b835260418552602483fd5b503d610589565b508451903d90823e3d90fd5b606490602085519162461bcd60e51b8352820152600d60248201526c4f6e6c7920726567697374727960981b6044820152fd5b8284346105de57806003193601126105de57506102d560ff602093541691518092610cbe565b505034610153578160031936011261015357600b54905160089190911c6001600160a01b03168152602090f35b9050346103d457826003193601126103d45760209250600360ff19825416179055600080516020610f5883398151915282825160038152a15160018152f35b5050346101535781600319360112610153576020906102d56102cc610cee565b919050346103d457602091826003193601126109b55780359167ffffffffffffffff8084116109b157366023850112156109b157838301359081116109b157830190602492368484011161097657600b549260ff841661097a578560c09103126109765783850135958760449485880135936064808a01359760848b01359960c460a48d01359c013560018060a01b03908181168103610972578d978f91610100600160a81b039060081b16986003558d6002558a600155558d15610944576224ea00891061091057610100600160a81b03198616871760081c16156108df5761012c8a01808b116108cd57421161088f57898c111561085157508c7fc20a846a45ddad517008be57a77685ca59d2c0dbde4d3782941aec592db85a0f60a08e8e8e8e8e8e8e60018f8f8f8760065560ff1981541690556affffffffffffffffffffff60a81b161717600b55825196875286015284015260608301526080820152a180f35b8391601a7f4c6561736520656e64206265666f72652066697273742064756500000000000092898c519562461bcd60e51b8752860152840152820152fd5b8391601e7f466972737420647565206461746520746f6f2066617220696e2070617374000092898c519562461bcd60e51b8752860152840152820152fd5b50634e487b7160e01b8e52601184528dfd5b839160106f496e76616c696420726567697374727960801b92898c519562461bcd60e51b8752860152840152820152fd5b508391601271125b9d195c9d985b081d1bdbc81cda1bdc9d60721b92898c519562461bcd60e51b8752860152840152820152fd5b508391600c6b125b9d985b1a59081c995b9d60a21b92898c519562461bcd60e51b8752860152840152820152fd5b8780fd5b8680fd5b5060138487606494519362461bcd60e51b855284015282015272105b1c9958591e481a5b9a5d1a585b1a5e9959606a1b6044820152fd5b8580fd5b8380fd5b9050346103d45760203660031901126103d4578160209360ff923581526005855220541690519015158152f35b50503461015357816003193601126101535790606091610a1e610a0842610e74565b610a186006549160015490610d5c565b90610ccb565b9154906003549181519384526020840152820152f35b838334610153576020366003190112610153578235908260e08251610a5881610d1c565b82815282602082015282848201528260608201528260808201528260a08201528260c08201520152610a8982610e74565b610a9b600654610a1860015484610d5c565b908452600560205260ff8285205416938093851593848095610bab575b610b94575b8254966002549462015180808702908782041487151715610b81576101009a50610ae79082610ccb565b9115610b79578089945b10159687610b71575b50825195610b0787610d1c565b89875260208701918252838701928352606087019485526080870195865260e060a08801978a895260c081019915158a520198118852825198895251602089015251908701525160608601525160808501525160a084015251151560c083015251151560e0820152f35b96508a610afa565b808594610af1565b634e487b7160e01b865260118b52602486fd5b945062015180610ba48483610d4f565b0494610abd565b50838211610ab8565b905082346105de5760203660031901126105de576080610bf484610bd88535610dad565b9391610bea8396929496518097610c9b565b6020860190610cbe565b8301526060820152f35b5050346101535781600319360112610153576020906001549051908152f35b50503461015357816003193601126101535760209060ff600b541690519015158152f35b5050346101535781600319360112610153576020906002549051908152f35b505034610153578160031936011261015357602090600a549051908152f35b8490346101535781600319360112610153576020906008548152f35b906009821015610ca85752565b634e487b7160e01b600052602160045260246000fd5b906005821015610ca85752565b91908201809211610cd857565b634e487b7160e01b600052601160045260246000fd5b60ff600454166005811015610ca85760038114610d1657600414610d1157600290565b600890565b50600490565b610100810190811067ffffffffffffffff821117610d3957604052565b634e487b7160e01b600052604160045260246000fd5b91908203918211610cd857565b81810292918115918404141715610cd857565b15610d7657565b60405162461bcd60e51b815260206004820152600f60248201526e139bdd081a5b9a5d1a585b1a5e9959608a1b6044820152606490fd5b610dbb60ff600b5416610d6f565b600354811015610e6057610dce81610e74565b610de0600654610a1860015484610d5c565b6000828152600560205260ff604082205416610e555781841115610e4d5750610e0d620151809184610d4f565b04915b826002548110610e405750610e2760029183610ec1565b1015610e365760029283929190565b6004926003929190565b9250506002926001929190565b905091610e10565b925050600292829190565b610e6990610e74565b600891600491600091565b600654808210610eab57610e8791610d4f565b600154908115610e95570490565b634e487b7160e01b600052601260045260246000fd5b5050600090565b6000198114610cd85760010190565b600254600654600154600095948692909190835b86811115610ee65750505050505050565b808552600560205260ff604086205416610f2d5785610f0e610f088584610d5c565b84610ccb565b80861115610f5057610f24620151809187610d4f565b045b1015610f3b575b610f3690610eb2565b610ed5565b97610f48610f3691610eb2565b989050610f2d565b5085610f2656fe784218e19c0007f03f5c1f12e90bda7d4631acfbd176a7d385530c4b1f494b47a2646970667358221220f92d4bf87f831bdea1bc00cb032bcf8e0b8d4d6db5e824e8b288ae16557bd89064736f6c63430008140033",
  "linkReferences": {},
  "deployedLinkReferences": {}
}