{
  "_format": "hh-sol-artifact-1",
  "contractName": "RentalCashFlowLogic",
  "sourceName": "contracts/RentalCashFlowLogic.sol",
  "abi": [
    {
      "anonymous": false,
      "inputs": [
        {
          "indexed": false,
          "internalType": "uint256",
          "name": "daysPastDue",
          "type": "uint256"
        },
        {
          "indexed": false,
          "internalType": "bool",
          "name": "defaultTriggered",
          "type": "bool"
        },
        {
          "indexed": false,
          "internalType": "uint256",
          "name": "timestamp",
          "type": "uint256"
        }
      ],
      "name": "CashflowDefaultEvaluated",
      "type": "event"
    },
    {
      "anonymous": false,
      "inputs": [
        {
          "indexed": false,
          "internalType": "enum CashflowHealth",
          "name": "newHealth",
          "type": "uint8"
        }
      ],
      "name": "CashflowHealthUpdated",
      "type": "event"
    },
    {
      "anonymous": false,
      "inputs": [
        {
          "indexed": true,
          "internalType": "address",
          "name": "logic",
          "type": "address"
        },
        {
          "indexed": false,
          "internalType": "bytes",
          "name": "data",
          "type": "bytes"
        }
      ],
      "name": "CashflowInitialized",
      "type": "event"
    },
    {
      "anonymous": false,
      "inputs": [
        {
          "indexed": false,
          "internalType": "uint256",
          "name": "timestamp",
          "type": "uint256"
        }
      ],
      "name": "CashflowMatured",
      "type": "event"
    },
    {
      "anonymous": false,
      "inputs": [
        {
          "indexed": false,
          "internalType": "uint256",
          "name": "amount",
          "type": "uint256"
        },
        {
          "indexed": false,
          "internalType": "uint256",
          "name": "timestamp",
          "type": "uint256"
        },
        {
          "indexed": false,
          "internalType": "enum RWACommonTypes.AssetStatus",
          "name": "newStatus",
          "type": "uint8"
        },
        {
          "indexed": false,
          "internalType": "enum CashflowHealth",
          "name": "health",
          "type": "uint8"
        }
      ],
      "name": "CashflowPaymentProcessed",
      "type": "event"
    },
    {
      "anonymous": false,
      "inputs": [
        {
          "indexed": false,
          "internalType": "enum RWACommonTypes.AssetStatus",
          "name": "oldStatus",
          "type": "uint8"
        },
        {
          "indexed": false,
          "internalType": "enum RWACommonTypes.AssetStatus",
          "name": "newStatus",
          "type": "uint8"
        },
        {
          "indexed": false,
          "internalType": "enum CashflowHealth",
          "name": "health",
          "type": "uint8"
        },
        {
          "indexed": false,
          "internalType": "uint256",
          "name": "timestamp",
          "type": "uint256"
        }
      ],
      "name": "CashflowStatusUpdated",
      "type": "event"
    },
    {
      "anonymous": false,
      "inputs": [
        {
          "indexed": false,
          "internalType": "uint256",
          "name": "rentAmount",
          "type": "uint256"
        },
        {
          "indexed": false,
          "internalType": "uint256",
          "name": "paymentInterval",
          "type": "uint256"
        },
        {
          "indexed": false,
          "internalType": "uint256",
          "name": "firstPaymentDueDate",
          "type": "uint256"
        },
        {
          "indexed": false,
          "internalType": "uint256",
          "name": "gracePeriodUnits",
          "type": "uint256"
        },
        {
          "indexed": false,
          "internalType": "uint256",
          "name": "leaseEndDate",
          "type": "uint256"
        },
        {
          "indexed": false,
          "internalType": "uint256",
          "name": "timeUnit",
          "type": "uint256"
        }
      ],
      "name": "LeaseInitialized",
      "type": "event"
    },
    {
      "anonymous": false,
      "inputs": [
        {
          "indexed": true,
          "internalType": "uint256",
          "name": "period",
          "type": "uint256"
        },
        {
          "indexed": false,
          "internalType": "uint256",
          "name": "amount",
          "type": "uint256"
        },
        {
          "indexed": false,
          "internalType": "uint256",
          "name": "timestamp",
          "type": "uint256"
        }
      ],
      "name": "RentPaid",
      "type": "event"
    },
    {
      "inputs": [
        {
          "internalType": "uint256",
          "name": "timestamp",
          "type": "uint256"
        }
      ],
      "name": "evaluateDefault",
      "outputs": [
        {
          "internalType": "enum RWACommonTypes.AssetStatus",
          "name": "",
          "type": "uint8"
        },
        {
          "internalType": "enum CashflowHealth",
          "name": "",
          "type": "uint8"
        }
      ],
      "stateMutability": "nonpayable",
      "type": "function"
    },
    {
      "inputs": [],
      "name": "forceDefault",
      "outputs": [
        {
          "internalType": "bool",
          "name": "",
          "type": "bool"
        }
      ],
      "stateMutability": "nonpayable",
      "type": "function"
    },
    {
      "inputs": [],
      "name": "getAssetStatus",
      "outputs": [
        {
          "internalType": "enum RWACommonTypes.AssetStatus",
          "name": "",
          "type": "uint8"
        }
      ],
      "stateMutability": "view",
      "type": "function"
    },
    {
      "inputs": [],
      "name": "getCashflowHealth",
      "outputs": [
        {
          "internalType": "enum CashflowHealth",
          "name": "",
          "type": "uint8"
        }
      ],
      "stateMutability": "view",
      "type": "function"
    },
    {
      "inputs": [
        {
          "internalType": "uint256",
          "name": "timestamp",
          "type": "uint256"
        }
      ],
      "name": "getExpectedPayment",
      "outputs": [
        {
          "components": [
            {
              "internalType": "uint256",
              "name": "expectedAmount",
              "type": "uint256"
            },
            {
              "internalType": "uint256",
              "name": "dueDate",
              "type": "uint256"
            },
            {
              "internalType": "uint256",
              "name": "gracePeriodEnd",
              "type": "uint256"
            },
            {
              "internalType": "uint256",
              "name": "amountPaidThisPeriod",
              "type": "uint256"
            },
            {
              "internalType": "uint256",
              "name": "penaltyAmount",
              "type": "uint256"
            },
            {
              "internalType": "uint256",
              "name": "daysPastDue",
              "type": "uint256"
            },
            {
              "internalType": "bool",
              "name": "isDue",
              "type": "bool"
            },
            {
              "internalType": "bool",
              "name": "isPastDue",
              "type": "bool"
            }
          ],
          "internalType": "struct PaymentStatus",
          "name": "",
          "type": "tuple"
        }
      ],
      "stateMutability": "view",
      "type": "function"
    },
    {
      "inputs": [],
      "name": "getRemainingPrincipal",
      "outputs": [
        {
          "internalType": "uint256",
          "name": "",
          "type": "uint256"
        }
      ],
      "stateMutability": "pure",
      "type": "function"
    },
    {
      "inputs": [],
      "name": "getSchedule",
      "outputs": [
        {
          "internalType": "uint256",
          "name": "nextDueDate",
          "type": "uint256"
        },
        {
          "internalType": "uint256",
          "name": "expectedPeriodicPayment",
          "type": "uint256"
        },
        {
          "internalType": "uint256",
          "name": "maturityDate",
          "type": "uint256"
        }
      ],
      "stateMutability": "view",
      "type": "function"
    },
    {
      "inputs": [],
      "name": "getTotalReceived",
      "outputs": [
        {
          "internalType": "uint256",
          "name": "",
          "type": "uint256"
        }
      ],
      "stateMutability": "view",
      "type": "function"
    },
    {
      "inputs": [],
      "name": "gracePeriodUnits",
      "outputs": [
        {
          "internalType": "uint256",
          "name": "",
          "type": "uint256"
        }
      ],
      "stateMutability": "view",
      "type": "function"
    },
    {
      "inputs": [],
      "name": "health",
      "outputs": [
        {
          "internalType": "enum CashflowHealth",
          "name": "",
          "type": "uint8"
        }
      ],
      "stateMutability": "view",
      "type": "function"
    },
    {
      "inputs": [
        {
          "internalType": "bytes",
          "name": "data",
          "type": "bytes"
        }
      ],
      "name": "initialize",
      "outputs": [],
      "stateMutability": "nonpayable",
      "type": "function"
    },
    {
      "inputs": [],
      "name": "initialized",
      "outputs": [
        {
          "internalType": "bool",
          "name": "",
          "type": "bool"
        }
      ],
      "stateMutability": "view",
      "type": "function"
    },
    {
      "inputs": [],
      "name": "lastMissedPeriod",
      "outputs": [
        {
          "internalType": "uint256",
          "name": "",
          "type": "uint256"
        }
      ],
      "stateMutability": "view",
      "type": "function"
    },
    {
      "inputs": [],
      "name": "lastPaidPeriod",
      "outputs": [
        {
          "internalType": "uint256",
          "name": "",
          "type": "uint256"
        }
      ],
      "stateMutability": "view",
      "type": "function"
    },
    {
      "inputs": [],
      "name": "leaseEndDate",
      "outputs": [
        {
          "internalType": "uint256",
          "name": "",
          "type": "uint256"
        }
      ],
      "stateMutability": "view",
      "type": "function"
    },
    {
      "inputs": [
        {
          "internalType": "uint256",
          "name": "",
          "type": "uint256"
        }
      ],
      "name": "markMatured",
      "outputs": [],
      "stateMutability": "nonpayable",
      "type": "function"
    },
    {
      "inputs": [],
      "name": "missedPeriods",
      "outputs": [
        {
          "internalType": "uint256",
          "name": "",
          "type": "uint256"
        }
      ],
      "stateMutability": "view",
      "type": "function"
    },
    {
      "inputs": [],
      "name": "paymentInterval",
      "outputs": [
        {
          "internalType": "uint256",
          "name": "",
          "type": "uint256"
        }
      ],
      "stateMutability": "view",
      "type": "function"
    },
    {
      "inputs": [
        {
          "internalType": "uint256",
          "name": "",
          "type": "uint256"
        }
      ],
      "name": "periodPaid",
      "outputs": [
        {
          "internalType": "bool",
          "name": "",
          "type": "bool"
        }
      ],
      "stateMutability": "view",
      "type": "function"
    },
    {
      "inputs": [
        {
          "internalType": "uint256",
          "name": "timestamp",
          "type": "uint256"
        }
      ],
      "name": "previewDefault",
      "outputs": [
        {
          "internalType": "enum RWACommonTypes.AssetStatus",
          "name": "newStatus",
          "type": "uint8"
        },
        {
          "internalType": "enum CashflowHealth",
          "name": "newHealth",
          "type": "uint8"
        },
        {
          "internalType": "uint256",
          "name": "daysPastDue",
          "type": "uint256"
        },
        {
          "internalType": "uint256",
          "name": "period",
          "type": "uint256"
        }
      ],
      "stateMutability": "view",
      "type": "function"
    },
    {
      "inputs": [
        {
          "internalType": "uint256",
          "name": "amount",
          "type": "uint256"
        },
        {
          "internalType": "uint256",
          "name": "timestamp",
          "type": "uint256"
        }
      ],
      "name": "processPayment",
      "outputs": [
        {
          "internalType": "enum RWACommonTypes.AssetStatus",
          "name": "",
          "type": "uint8"
        }
      ],
      "stateMutability": "nonpayable",
      "type": "function"
    },
    {
      "inputs": [],
      "name": "registry",
      "outputs": [
        {
          "internalType": "address",
          "name": "",
          "type": "address"
        }
      ],
      "stateMutability": "view",
      "type": "function"
    },
    {
      "inputs": [],
      "name": "rentAmount",
      "outputs": [
        {
          "internalType": "uint256",
          "name": "",
          "type": "uint256"
        }
      ],
      "stateMutability": "view",
      "type": "function"
    },
    {
      "inputs": [],
      "name": "startTimestamp",
      "outputs": [
        {
          "internalType": "uint256",
          "name": "",
          "type": "uint256"
        }
      ],
      "stateMutability": "view",
      "type": "function"
    },
    {
      "inputs": [],
      "name": "timeUnit",
      "outputs": [
        {
          "internalType": "uint256",
          "name": "",
          "type": "uint256"
        }
      ],
      "stateMutability": "view",
      "type": "function"
    },
    {
      "inputs": [],
      "name": "totalAmountPaid",
      "outputs": [
        {
          "internalType": "uint256",
          "name": "",
          "type": "uint256"
        }
      ],
      "stateMutability": "view",
      "type": "function"
    }
  ],
  "bytecode": "0x608080604052346100165761107e908161001c8239f35b600080fdfe608060408181526004918236101561001657600080fd5b600092833560e01c9182630592a61214610d035750816307c47e6414610ce4578163158ef93e14610cc05781631cc1cf4614610ca15781631ebf1a5514610c5757816326d3325d14610aef57816326fadbe214610aa157816338f417ca14610a745781633c6a7f9b14610a56578163439fab911461071d57816345615716146106fd5781634e7c13fe146106a55781637633a22c146106325781637b103999146106785781637e8b06c1146106595781638acdca5e146106325781638c2281b014610476578163b42b2da514610457578163be03250b14610438578163d2fa0a08146103fd578163df9d58ff146101d657508063e2957dd1146101b8578063e6fd48bc1461019a578063e8c300ee14610180578063f41cb5d1146101625763f8ef1e131461014357600080fd5b3461015e578160031936011261015e57602091549051908152f35b5080fd5b503461015e578160031936011261015e576020906009549051908152f35b503461015e578160031936011261015e5751908152602090f35b503461015e578160031936011261015e576020906007549051908152f35b503461015e578160031936011261015e57602090600a549051908152f35b9050346103f957816003193601126103f957803560249384359061021460ff600c5461020e60018060a01b038260081c163314610e13565b16610e4f565b60ff6005541660058110156103e7576003146103b157600354821161037f57805483106103465761024482610f5b565b8082526020966006885260ff878420541661030f575091818388969487969452600686527fa62c35dfc0ff11d3713608ebcdc5c5d1952c7702620f2c46c22950f7b70d57978880842060ff1990600182825416179055836008556102aa87600954610d78565b60095560055416958660055581519081528589820152a28651908152600080516020611029833981519152958691a160035411156102fb575b82856102f96102f0610d85565b91518092610d1f565bf35b81176005558351908152a1388281806102e3565b8560136064928a8a519362461bcd60e51b85528401528201527214195c9a5bd908185b1c9958591e481c185a59606a1b6044820152fd5b845162461bcd60e51b815260208186015260148188015273125b9cdd59999a58da595b9d081c185e5b595b9d60621b6044820152606490fd5b845162461bcd60e51b8152602081860152600d818801526c1319585cd948195e1c1a5c9959609a1b6044820152606490fd5b845162461bcd60e51b815260208186015260118188015270105b1c9958591e48191959985d5b1d1959607a1b6044820152606490fd5b634e487b7160e01b8252602185528682fd5b8280fd5b919050346103f95760203660031901126103f957816020916000805160206110298339815191529360ff19600554161760055551908152a180f35b50503461015e578160031936011261015e576020906008549051908152f35b50503461015e578160031936011261015e576020906003549051908152f35b90508234610609576020366003190112610609578135916104a560018060a01b03600c5460081c163314610e13565b8351631ebf1a5560e01b815281810184905291608083602481305afa918215610626578194829483946105a4575b506005549360ff85169460058710156105915760ff191660ff8716176005558391600287148015610584575b61056d575b505061055a57600583101561055a57505090806102f99203610537575b61052d84518094610d1f565b6020830190610d42565b600080516020611029833981519152602085516105548185610d42565ba1610521565b634e487b7160e01b825260219052602490fd5b6105779082610f95565b600a55600b558780610504565b50849250600387146104ff565b634e487b7160e01b855260218452602485fd5b95509250925060803d811161061f575b601f8101601f1916850167ffffffffffffffff81118682101761060c57608091869188528101031261060957835192600984101561015e5760208501519460058610156103f9576060015193949392876104d3565b80fd5b634e487b7160e01b835260418552602483fd5b503d6105b4565b508451903d90823e3d90fd5b50503461015e578160031936011261015e576020906102f960ff6005541691518092610d42565b50503461015e578160031936011261015e576020906002549051908152f35b50503461015e578160031936011261015e57600c54905160089190911c6001600160a01b03168152602090f35b50503461015e578160031936011261015e576020906106d260018060a01b03600c5460081c163314610e13565b600360ff19600554161760055560008051602061102983398151915282825160038152a15160018152f35b50503461015e578160031936011261015e576020906102f96102f0610d85565b919050346103f957602080600319360112610a125782359167ffffffffffffffff808411610a525736602385011215610a525783850135908111610a525783019060243681840111610a4e57600c549260ff8416610a16579060e086899594930312610a12578594859485948386013599866044808201359660e460c460a460846064809701359d01359d01359d01359d01359560018060a01b039081881688036106095760038e905560028d905560018a90558f905560089690961b610100600160a81b0316958e156109e4578d156109b2578d80601c0290601c82040361099f57891061096b57610100600160a81b03198616871760081c161561093a578c6005028d600582040361092857610835908b610d78565b42116108ea57898c11156108ac5750505060078790558990556005805460ff191690556001600160a81b03191617600117600c5582519788528701528501526060840152608083015260a08201527ff9942075be21ecf4573e3db2ac4f77f2d4f78f089a1b02b79062dcede6b956279060c090a180f35b8391601a7f4c6561736520656e64206265666f72652066697273742064756500000000000092898c519562461bcd60e51b8752860152840152820152fd5b8391601e7f466972737420647565206461746520746f6f2066617220696e2070617374000092898c519562461bcd60e51b8752860152840152820152fd5b50634e487b7160e01b8f52601184528efd5b839160106f496e76616c696420726567697374727960801b92898c519562461bcd60e51b8752860152840152820152fd5b508391601271125b9d195c9d985b081d1bdbc81cda1bdc9d60721b92898c519562461bcd60e51b8752860152840152820152fd5b5050634e487b7160e01b8f52601184528efd5b50839160106f125b9d985b1a59081d1a5b59555b9a5d60821b92898c519562461bcd60e51b8752860152840152820152fd5b508391600c6b125b9d985b1a59081c995b9d60a21b92898c519562461bcd60e51b8752860152840152820152fd5b8380fd5b825162461bcd60e51b815280880186905260138184015272105b1c9958591e481a5b9a5d1a585b1a5e9959606a1b6044820152606490fd5b8680fd5b8580fd5b9050346103f957826003193601126103f95760209250549051908152f35b9050346103f95760203660031901126103f9578160209360ff923581526006855220541690519015158152f35b50503461015e578160031936011261015e5790606091610ad9610ac342610f5b565b610ad36007549160015490610d4f565b90610d78565b9154906003549181519384526020840152820152f35b83833461015e57602036600319011261015e57826101009335908360e08451610b1781610db3565b82815282602082015282868201528260608201528260808201528260a08201528260c08201520152610b4882610f5b565b93610b5b600754610ad360015488610d4f565b948152600660205260ff8482205416928194841594858096610c4e575b610c31575b835497610b97610b91600254975488610d4f565b82610d78565b9115610c29578089945b10159687610c21575b50825195610bb787610db3565b89875260208701918252838701928352606087019485526080870195865260e060a08801978a895260c081019915158a520198118852825198895251602089015251908701525160608601525160808501525160a084015251151560c083015251151560e0820152f35b96508a610baa565b808594610ba1565b9550610c48610c408884610de6565b855490610df3565b95610b7d565b50878311610b78565b90508234610609576020366003190112610609576080610c9784610c7b8535610e8d565b9391610c8d8396929496518097610d1f565b6020860190610d42565b8301526060820152f35b50503461015e578160031936011261015e576020906001549051908152f35b50503461015e578160031936011261015e5760209060ff600c541690519015158152f35b50503461015e578160031936011261015e57602090600b549051908152f35b84903461015e578160031936011261015e576020906009548152f35b906009821015610d2c5752565b634e487b7160e01b600052602160045260246000fd5b906005821015610d2c5752565b81810292918115918404141715610d6257565b634e487b7160e01b600052601160045260246000fd5b91908201809211610d6257565b60ff600554166005811015610d2c5760038114610dad57600414610da857600290565b600890565b50600490565b610100810190811067ffffffffffffffff821117610dd057604052565b634e487b7160e01b600052604160045260246000fd5b91908203918211610d6257565b8115610dfd570490565b634e487b7160e01b600052601260045260246000fd5b15610e1a57565b60405162461bcd60e51b815260206004820152600d60248201526c4f6e6c7920726567697374727960981b6044820152606490fd5b15610e5657565b60405162461bcd60e51b815260206004820152600f60248201526e139bdd081a5b9a5d1a585b1a5e9959608a1b6044820152606490fd5b610e9b60ff600c5416610e4f565b600354811015610f4757610eae81610f5b565b610ec0600754610ad360015484610d4f565b6000828152600660205260ff604082205416610f3c5781841115610f345750610eec610ef59184610de6565b60045490610df3565b915b826002548110610f275750610f0e60029183610f95565b1015610f1d5760029283929190565b6004926003929190565b9250506002926001929190565b905091610ef7565b925050600292829190565b610f5090610f5b565b600891600491600091565b60075490818110610f7f57610f7c91610f7391610de6565b60015490610df3565b90565b5050600090565b6000198114610d625760010190565b600254600754600154600095948692909190835b86811115610fba5750505050505050565b808552600660205260ff604086205416610ffe5785610fe2610fdc8584610d4f565b84610d78565b8086111561102157610eec610ff79187610de6565b101561100c575b61100790610f86565b610fa9565b9761101961100791610f86565b989050610ffe565b5085610ff756fe784218e19c0007f03f5c1f12e90bda7d4631acfbd176a7d385530c4b1f494b47a2646970667358221220530025ddcb124e6ea3fa01b60b162494d260d61f842ceb03c7e2ba7b7a6a9aaa64736f6c63430008140033",
  "linkReferences": {},
  "deployedLinkReferences": {}
}