{
  "_format": "hh-sol-artifact-1",
  "contractName": "RWARevenueVault",
  "sourceName": "contracts/RWARevenueVault.sol",
  "abi": [
    {
      "inputs": [],
      "stateMutability": "nonpayable",
      "type": "constructor"
    },
    {
      "inputs": [],
      "name": "AccessControlBadConfirmation",
      "type": "error"
    },
    {
      "inputs": [
        {
          "internalType": "address",
          "name": "account",
          "type": "address"
        },
        {
          "internalType": "bytes32",
          "name": "neededRole",
          "type": "bytes32"
        }
      ],
      "name": "AccessControlUnauthorizedAccount",
      "type": "error"
    },
    {
      "inputs": [],
      "name": "ReentrancyGuardReentrantCall",
      "type": "error"
    },
    {
      "anonymous": false,
      "inputs": [
        {
          "indexed": false,
          "internalType": "uint256",
          "name": "amount",
          "type": "uint256"
        },
        {
          "indexed": false,
          "internalType": "string",
          "name": "strategyId",
          "type": "string"
        }
      ],
      "name": "CapitalDeployed",
      "type": "event"
    },
    {
      "anonymous": false,
      "inputs": [
        {
          "indexed": false,
          "internalType": "uint256",
          "name": "totalAmount",
          "type": "uint256"
        }
      ],
      "name": "DistributionCommitted",
      "type": "event"
    },
    {
      "anonymous": false,
      "inputs": [
        {
          "indexed": false,
          "internalType": "uint256",
          "name": "amount",
          "type": "uint256"
        }
      ],
      "name": "FeeCollected",
      "type": "event"
    },
    {
      "anonymous": false,
      "inputs": [
        {
          "indexed": false,
          "internalType": "uint256",
          "name": "amount",
          "type": "uint256"
        },
        {
          "indexed": false,
          "internalType": "uint256",
          "name": "timestamp",
          "type": "uint256"
        }
      ],
      "name": "RevenueReceived",
      "type": "event"
    },
    {
      "anonymous": false,
      "inputs": [
        {
          "indexed": true,
          "internalType": "bytes32",
          "name": "role",
          "type": "bytes32"
        },
        {
          "indexed": true,
          "internalType": "bytes32",
          "name": "previousAdminRole",
          "type": "bytes32"
        },
        {
          "indexed": true,
          "internalType": "bytes32",
          "name": "newAdminRole",
          "type": "bytes32"
        }
      ],
      "name": "RoleAdminChanged",
      "type": "event"
    },
    {
      "anonymous": false,
      "inputs": [
        {
          "indexed": true,
          "internalType": "bytes32",
          "name": "role",
          "type": "bytes32"
        },
        {
          "indexed": true,
          "internalType": "address",
          "name": "account",
          "type": "address"
        },
        {
          "indexed": true,
          "internalType": "address",
          "name": "sender",
          "type": "address"
        }
      ],
      "name": "RoleGranted",
      "type": "event"
    },
    {
      "anonymous": false,
      "inputs": [
        {
          "indexed": true,
          "internalType": "bytes32",
          "name": "role",
          "type": "bytes32"
        },
        {
          "indexed": true,
          "internalType": "address",
          "name": "account",
          "type": "address"
        },
        {
          "indexed": true,
          "internalType": "address",
          "name": "sender",
          "type": "address"
        }
      ],
      "name": "RoleRevoked",
      "type": "event"
    },
    {
      "anonymous": false,
      "inputs": [
        {
          "indexed": true,
          "internalType": "address",
          "name": "investor",
          "type": "address"
        },
        {
          "indexed": false,
          "internalType": "uint256",
          "name": "amount",
          "type": "uint256"
        },
        {
          "indexed": false,
          "internalType": "uint256",
          "name": "timestamp",
          "type": "uint256"
        }
      ],
      "name": "YieldClaimed",
      "type": "event"
    },
    {
      "inputs": [],
      "name": "DEFAULT_ADMIN_ROLE",
      "outputs": [
        {
          "internalType": "bytes32",
          "name": "",
          "type": "bytes32"
        }
      ],
      "stateMutability": "view",
      "type": "function"
    },
    {
      "inputs": [],
      "name": "PAYMENT_ROLE",
      "outputs": [
        {
          "internalType": "bytes32",
          "name": "",
          "type": "bytes32"
        }
      ],
      "stateMutability": "view",
      "type": "function"
    },
    {
      "inputs": [],
      "name": "STRATEGY_ROLE",
      "outputs": [
        {
          "internalType": "bytes32",
          "name": "",
          "type": "bytes32"
        }
      ],
      "stateMutability": "view",
      "type": "function"
    },
    {
      "inputs": [],
      "name": "accumulatedFees",
      "outputs": [
        {
          "internalType": "uint256",
          "name": "",
          "type": "uint256"
        }
      ],
      "stateMutability": "view",
      "type": "function"
    },
    {
      "inputs": [],
      "name": "assetId",
      "outputs": [
        {
          "internalType": "uint256",
          "name": "",
          "type": "uint256"
        }
      ],
      "stateMutability": "view",
      "type": "function"
    },
    {
      "inputs": [],
      "name": "claimYield",
      "outputs": [],
      "stateMutability": "nonpayable",
      "type": "function"
    },
    {
      "inputs": [
        {
          "internalType": "uint256",
          "name": "monthlyExpectedPayment",
          "type": "uint256"
        }
      ],
      "name": "commitToDistribution",
      "outputs": [],
      "stateMutability": "nonpayable",
      "type": "function"
    },
    {
      "inputs": [],
      "name": "cumulativeRewardPerToken",
      "outputs": [
        {
          "internalType": "uint256",
          "name": "",
          "type": "uint256"
        }
      ],
      "stateMutability": "view",
      "type": "function"
    },
    {
      "inputs": [
        {
          "internalType": "string",
          "name": "strategyId",
          "type": "string"
        },
        {
          "internalType": "uint256",
          "name": "amount",
          "type": "uint256"
        }
      ],
      "name": "deployCapital",
      "outputs": [],
      "stateMutability": "nonpayable",
      "type": "function"
    },
    {
      "inputs": [
        {
          "internalType": "address",
          "name": "_from",
          "type": "address"
        },
        {
          "internalType": "uint256",
          "name": "amount",
          "type": "uint256"
        }
      ],
      "name": "depositRevenue",
      "outputs": [],
      "stateMutability": "nonpayable",
      "type": "function"
    },
    {
      "inputs": [],
      "name": "distributionStarted",
      "outputs": [
        {
          "internalType": "bool",
          "name": "",
          "type": "bool"
        }
      ],
      "stateMutability": "view",
      "type": "function"
    },
    {
      "inputs": [],
      "name": "feeRecipient",
      "outputs": [
        {
          "internalType": "address",
          "name": "",
          "type": "address"
        }
      ],
      "stateMutability": "view",
      "type": "function"
    },
    {
      "inputs": [],
      "name": "getAvailableForDeployment",
      "outputs": [
        {
          "internalType": "uint256",
          "name": "",
          "type": "uint256"
        }
      ],
      "stateMutability": "view",
      "type": "function"
    },
    {
      "inputs": [],
      "name": "getAvailableForInvestors",
      "outputs": [
        {
          "internalType": "uint256",
          "name": "",
          "type": "uint256"
        }
      ],
      "stateMutability": "view",
      "type": "function"
    },
    {
      "inputs": [],
      "name": "getBalance",
      "outputs": [
        {
          "internalType": "uint256",
          "name": "",
          "type": "uint256"
        }
      ],
      "stateMutability": "view",
      "type": "function"
    },
    {
      "inputs": [
        {
          "internalType": "bytes32",
          "name": "role",
          "type": "bytes32"
        }
      ],
      "name": "getRoleAdmin",
      "outputs": [
        {
          "internalType": "bytes32",
          "name": "",
          "type": "bytes32"
        }
      ],
      "stateMutability": "view",
      "type": "function"
    },
    {
      "inputs": [
        {
          "internalType": "bytes32",
          "name": "role",
          "type": "bytes32"
        },
        {
          "internalType": "address",
          "name": "account",
          "type": "address"
        }
      ],
      "name": "grantRole",
      "outputs": [],
      "stateMutability": "nonpayable",
      "type": "function"
    },
    {
      "inputs": [
        {
          "internalType": "bytes32",
          "name": "role",
          "type": "bytes32"
        },
        {
          "internalType": "address",
          "name": "account",
          "type": "address"
        }
      ],
      "name": "hasRole",
      "outputs": [
        {
          "internalType": "bool",
          "name": "",
          "type": "bool"
        }
      ],
      "stateMutability": "view",
      "type": "function"
    },
    {
      "inputs": [
        {
          "internalType": "address",
          "name": "_owner",
          "type": "address"
        },
        {
          "internalType": "address",
          "name": "_logic",
          "type": "address"
        },
        {
          "internalType": "address",
          "name": "_paymentToken",
          "type": "address"
        },
        {
          "internalType": "address",
          "name": "_registry",
          "type": "address"
        },
        {
          "internalType": "uint256",
          "name": "_assetId",
          "type": "uint256"
        }
      ],
      "name": "initialize",
      "outputs": [],
      "stateMutability": "nonpayable",
      "type": "function"
    },
    {
      "inputs": [
        {
          "internalType": "address",
          "name": "",
          "type": "address"
        }
      ],
      "name": "lastClaimedAt",
      "outputs": [
        {
          "internalType": "uint256",
          "name": "",
          "type": "uint256"
        }
      ],
      "stateMutability": "view",
      "type": "function"
    },
    {
      "inputs": [],
      "name": "logicContract",
      "outputs": [
        {
          "internalType": "contract ICashFlowLogic",
          "name": "",
          "type": "address"
        }
      ],
      "stateMutability": "view",
      "type": "function"
    },
    {
      "inputs": [
        {
          "internalType": "address",
          "name": "to",
          "type": "address"
        },
        {
          "internalType": "uint256",
          "name": "amount",
          "type": "uint256"
        }
      ],
      "name": "mintShares",
      "outputs": [],
      "stateMutability": "nonpayable",
      "type": "function"
    },
    {
      "inputs": [],
      "name": "paymentToken",
      "outputs": [
        {
          "internalType": "contract IERC20",
          "name": "",
          "type": "address"
        }
      ],
      "stateMutability": "view",
      "type": "function"
    },
    {
      "inputs": [],
      "name": "protocolFeeBps",
      "outputs": [
        {
          "internalType": "uint256",
          "name": "",
          "type": "uint256"
        }
      ],
      "stateMutability": "view",
      "type": "function"
    },
    {
      "inputs": [],
      "name": "registry",
      "outputs": [
        {
          "internalType": "contract IRWAAssetRegistry",
          "name": "",
          "type": "address"
        }
      ],
      "stateMutability": "view",
      "type": "function"
    },
    {
      "inputs": [
        {
          "internalType": "bytes32",
          "name": "role",
          "type": "bytes32"
        },
        {
          "internalType": "address",
          "name": "callerConfirmation",
          "type": "address"
        }
      ],
      "name": "renounceRole",
      "outputs": [],
      "stateMutability": "nonpayable",
      "type": "function"
    },
    {
      "inputs": [
        {
          "internalType": "bytes32",
          "name": "role",
          "type": "bytes32"
        },
        {
          "internalType": "address",
          "name": "account",
          "type": "address"
        }
      ],
      "name": "revokeRole",
      "outputs": [],
      "stateMutability": "nonpayable",
      "type": "function"
    },
    {
      "inputs": [
        {
          "internalType": "address",
          "name": "",
          "type": "address"
        }
      ],
      "name": "rewardDebt",
      "outputs": [
        {
          "internalType": "uint256",
          "name": "",
          "type": "uint256"
        }
      ],
      "stateMutability": "view",
      "type": "function"
    },
    {
      "inputs": [
        {
          "internalType": "address",
          "name": "_token",
          "type": "address"
        }
      ],
      "name": "setTokenContracts",
      "outputs": [],
      "stateMutability": "nonpayable",
      "type": "function"
    },
    {
      "inputs": [
        {
          "internalType": "bytes4",
          "name": "interfaceId",
          "type": "bytes4"
        }
      ],
      "name": "supportsInterface",
      "outputs": [
        {
          "internalType": "bool",
          "name": "",
          "type": "bool"
        }
      ],
      "stateMutability": "view",
      "type": "function"
    },
    {
      "inputs": [],
      "name": "token",
      "outputs": [
        {
          "internalType": "contract InvestorShareToken",
          "name": "",
          "type": "address"
        }
      ],
      "stateMutability": "view",
      "type": "function"
    },
    {
      "inputs": [],
      "name": "totalDistributable",
      "outputs": [
        {
          "internalType": "uint256",
          "name": "",
          "type": "uint256"
        }
      ],
      "stateMutability": "view",
      "type": "function"
    },
    {
      "inputs": [],
      "name": "totalIdle",
      "outputs": [
        {
          "internalType": "uint256",
          "name": "",
          "type": "uint256"
        }
      ],
      "stateMutability": "view",
      "type": "function"
    },
    {
      "inputs": [],
      "name": "withdrawFees",
      "outputs": [],
      "stateMutability": "nonpayable",
      "type": "function"
    },
    {
      "inputs": [
        {
          "internalType": "address",
          "name": "",
          "type": "address"
        }
      ],
      "name": "withdrawn",
      "outputs": [
        {
          "internalType": "uint256",
          "name": "",
          "type": "uint256"
        }
      ],
      "stateMutability": "view",
      "type": "function"
    }
  ],
  "bytecode": "0x60806040523461003557600180556000600a5560fa600e556000600f556100253361003a565b5060405161175190816100cb8239f35b600080fd5b6001600160a01b031660008181527fad3228b676f7d3cd4284a5443f17f1962b36e491b30a40b2405849e597ba5fb5602052604081205490919060ff166100c657818052816020526040822081835260205260408220600160ff1982541617905533917f2f8788117e7eff1d82e926ec794901d17c78024a50270940304540a733656f0d8180a4600190565b509056fe608060408181526004918236101561001657600080fd5b600092833560e01c91826301ffc9a71461118e57508163022b557b14610ffc5781630df4dc6f1461084357816312065fe014610f645781632175508814610f3d578163248a9ca314610f1357816326a40c9914610edb5781632f2ff15d14610eb15781633013ce2914610e8857816335659fb814610e6957816336568abe14610e23578163406cf22914610b6657816344de240a14610b475781634690484014610b1e578163476343ee14610a1b57838263528c198a1461096d57508163580b7c2e146109325781635873eb9b146108fa578163587f5ed7146108db578163651d95e51461089a5781636ef610921461086257816372cec034146108435781637b1039991461081a578163855bde3e146106e157816391d148541461069c5781639aa7df9414610211578163a217fddf14610681578163cc0e97c914610658578163d547741f1461061d578163e139178214610350578163f5fc507614610331578163f7013ef614610230578163f752494214610211578163fc0c546a146101e5575063fc3b624e146101a857600080fd5b346101e157816003193601126101e157602090517fe2f2c6ec490c385a19982d62c2eab738afebfd5de935a92469733daed358fe588152f35b5080fd5b90503461020d578260031936011261020d575490516001600160a01b03909116815260209150f35b8280fd5b5050346101e157816003193601126101e1576020906008549051908152f35b839150346101e15760a03660031901126101e15761024c6111e1565b906102556111f7565b6001600160a01b03604435818116939084900361032c576064359082821680920361032c576007549060ff82166102f357506102ef96975060019060ff191617600755816bffffffffffffffffffffffff60a01b9316836003541617600355826005541617600555608435600655831681601054161760105560025416176002556102df816112e7565b506102e981611365565b50611405565b5080f35b60649060208a519162461bcd60e51b83528201526013602482015272105b1c9958591e481a5b9a5d1a585b1a5e9959606a1b6044820152fd5b600080fd5b5050346101e157816003193601126101e157602090600a549051908152f35b8383346101e1576020908160031936011261020d5783908135610371611265565b61037961162d565b600354825163137d6df160e11b8152936001600160a01b0392916060918691829086165afa9384156106135786946105da575b50600854936103bd82861015611650565b8103610597578160055416856006546024865180948193631174806160e11b83528d8301525afa90811561058d5786926104048a9593610432938b91610560575b5061169c565b61042c612710610416600e54846116db565b0461042381600f5461160a565b600f55826116ee565b966116ee565b6008556104418560095461160a565b6009558254168351978880926318160ddd60e01b82525afa958615610556578596610527575b50851590811561047a575b856001805580f35b60075460ff8160081c1615610515575b50670de0b6b3a764000091828502928584041485151715610502576104ed57507f69074786425c52f0a5747ada3a45a8aeff05c00e5fcd4b1c87a2a70f432218c194956104da9104600a5461160a565b600a5551908152a1808280808080610472565b601290634e487b7160e01b6000525260246000fd5b634e487b7160e01b875260118252602487fd5b61ff001916610100176007558761048a565b9095508381813d831161054f575b61053f818361157c565b8101031261032c57519486610467565b503d610535565b82513d87823e3d90fd5b6105809150863d8811610586575b610578818361157c565b8101906115b4565b8c6103fe565b503d61056e565b84513d89823e3d90fd5b825162461bcd60e51b8152808801869052601960248201527f4578706563746564207061796d656e74206d69736d61746368000000000000006044820152606490fd5b9093506060813d821161060b575b816105f56060938361157c565b810103126106075784015192876103ac565b8580fd5b3d91506105e8565b83513d88823e3d90fd5b9190503461020d578060031936011261020d576102ef913561065360016106426111f7565b9383875286602052862001546112c1565b611507565b5050346101e157816003193601126101e15760035490516001600160a01b039091168152602090f35b5050346101e157816003193601126101e15751908152602090f35b90503461020d578160031936011261020d57816020936106ba6111f7565b92358152808552209060018060a01b0316600052825260ff81600020541690519015158152f35b9190503461020d578060031936011261020d576106fc6111e1565b60243590610708611265565b61071061162d565b81156107d75760025483516323b872dd60e01b81526001600160a01b039283169581019590955230602486015260448501839052602091859160649183918991165af19283156107cd577ff213ae9678e29ddf71cfd6bb58204207ac2f5a37f62a198ca6bc86737f0158689361078d9186916107af575b506115cc565b6107998160085461160a565b6008558151908152426020820152a16001805580f35b6107c7915060203d811161058657610578818361157c565b38610787565b82513d86823e3d90fd5b825162461bcd60e51b8152602081860152601760248201527f416d6f756e74206d75737420626520706f7369746976650000000000000000006044820152606490fd5b5050346101e157816003193601126101e15760055490516001600160a01b039091168152602090f35b5050346101e157816003193601126101e1576020906009549051908152f35b5050346101e15760203660031901126101e15760209181906001600160a01b0361088a6111e1565b168152600c845220549051908152f35b8390346101e15760203660031901126101e1576108b56111e1565b6108bd61120d565b81546001600160a01b0319166001600160a01b039190911617905580f35b5050346101e157816003193601126101e157602090600f549051908152f35b5050346101e15760203660031901126101e15760209181906001600160a01b036109226111e1565b168152600d845220549051908152f35b5050346101e157816003193601126101e157602090517f1893e1a169e79f2fe8aa327b1bceb2fede7a1b76a54824f95ea0e737720954ae8152f35b92915034610a175781600319360112610a17576109886111e1565b61099061120d565b81546001600160a01b031690813b15610a135783516340c10f1960e01b81526001600160a01b039091168382019081526024356020820152909491859182908490829060400103925af180156107cd576109e8578380f35b67ffffffffffffffff8311610a005750523880808380f35b634e487b7160e01b845260419052602483fd5b8480fd5b5050fd5b90503461020d578260031936011261020d57610a3561162d565b600f54908115610af157600f849055600254601054845163a9059cbb60e01b81526001600160a01b039182169381019384526020848101869052909390928492169082908890829060400103925af1908115610ae45792610ac1602093927fc472cb3a7a659a876494d66b3063145f279701771d6150b9329c31611ed6405c958791610acd57506115cc565b51908152a16001805580f35b6107c79150853d811161058657610578818361157c565b50505051903d90823e3d90fd5b606490602084519162461bcd60e51b835282015260076024820152664e6f206665657360c81b6044820152fd5b5050346101e157816003193601126101e15760105490516001600160a01b039091168152602090f35b5050346101e157816003193601126101e1576020906006549051908152f35b8383346101e157816003193601126101e157610b8061162d565b60018060a01b039081600554166006548251918291631174806160e11b83528783015281602460209485935afa908115610dfc5790610bc5918691610e06575061169c565b602481848754168451928380926370a0823160e01b8252338b8301525afa908115610dfc578591610dcf575b508015610d9a57610c0e670de0b6b3a764000091600a54906116db565b0492338552600d8252610c2483862054856116ee565b938415610d62576009548511610d1f57610cb0959683928692338a52600d8552868a2055610c54836009546116ee565b600955338952600c8452858920610c6c84825461160a565b9055338952600b845242868a2055600254169088865180998195829463a9059cbb60e01b84523390840160209093929193604081019460018060a01b031681520152565b03925af1938415610556577f10d8dedfc0745b8c25ba10b06e304138b251c18dcaadf2d71c7f3214719dc4d19394610cee918791610d0257506115cc565b815193845242908401523392a26001805580f35b610d199150833d851161058657610578818361157c565b87610787565b835162461bcd60e51b8152808801849052601a60248201527f496e73756666696369656e742064697374726962757461626c650000000000006044820152606490fd5b835162461bcd60e51b815280880184905260126024820152714e6f2070656e64696e67207265776172647360701b6044820152606490fd5b825162461bcd60e51b8152808701839052600f60248201526e139bc81cda185c995cc81bdddb9959608a1b6044820152606490fd5b90508181813d8311610df5575b610de6818361157c565b81010312610a13575186610bf1565b503d610ddc565b83513d87823e3d90fd5b610e1d9150833d851161058657610578818361157c565b876103fe565b8383346101e157806003193601126101e157610e3d6111f7565b90336001600160a01b03831603610e5a57506102ef919235611507565b5163334bd91960e11b81528390fd5b5050346101e157816003193601126101e157602090600e549051908152f35b5050346101e157816003193601126101e15760025490516001600160a01b039091168152602090f35b9190503461020d578060031936011261020d576102ef9135610ed660016106426111f7565b6114a0565b5050346101e15760203660031901126101e15760209181906001600160a01b03610f036111e1565b168152600b845220549051908152f35b90503461020d57602036600319011261020d57816020936001923581528085522001549051908152f35b5050346101e157816003193601126101e15760209060ff60075460081c1690519015158152f35b9190503461020d578260031936011261020d5760025481516370a0823160e01b81523093810193909352602090839060249082906001600160a01b03165afa918215610ff2578392610fbb575b6020838351908152f35b9091506020813d8211610fea575b81610fd66020938361157c565b8101031261020d5760209250519038610fb1565b3d9150610fc9565b81513d85823e3d90fd5b90503461020d578160031936011261020d5767ffffffffffffffff8135818111610a135736602382011215610a135780830135918211610a13573660248383010111610a1357602435937f1893e1a169e79f2fe8aa327b1bceb2fede7a1b76a54824f95ea0e737720954ae93848752602094878652828820338952865260ff838920541615611173575061108e61162d565b6008549061109e82881115611650565b6005546006548451631174806160e11b8152928301528690829060249082906001600160a01b03165afa90888215611168579580946111198a83966111146024977fec2715248f93daa810498c051f7f418783deff1e5184eba4ccf20d57789fdbb79e9b978e60609e9261114b575b505061169c565b6116ee565b600855808051998a98895288015286015201848401378181018301869052601f01601f19168101030190a16001805580f35b6111619250803d1061058657610578818361157c565b388e61110d565b8451903d90823e3d90fd5b604492519163e2517d3f60e01b835233908301526024820152fd5b84913461020d57602036600319011261020d573563ffffffff60e01b811680910361020d5760209250637965db0b60e01b81149081156111d0575b5015158152f35b6301ffc9a760e01b149050836111c9565b600435906001600160a01b038216820361032c57565b602435906001600160a01b038216820361032c57565b3360009081527fad3228b676f7d3cd4284a5443f17f1962b36e491b30a40b2405849e597ba5fb5602052604081205460ff16156112475750565b6044906040519063e2517d3f60e01b82523360048301526024820152fd5b3360009081527f1f0c3aa234c717819ca003165ea9e795021a753e97c75b32bb79cc90cbbf5cfa60205260409020547fe2f2c6ec490c385a19982d62c2eab738afebfd5de935a92469733daed358fe589060ff16156112475750565b80600052600060205260406000203360005260205260ff60406000205416156112475750565b6001600160a01b031660008181527fad3228b676f7d3cd4284a5443f17f1962b36e491b30a40b2405849e597ba5fb5602052604081205490919060ff1661136157818052816020526040822081835260205260408220600160ff1982541617905533916000805160206116fc8339815191528180a4600190565b5090565b6001600160a01b031660008181527f1f0c3aa234c717819ca003165ea9e795021a753e97c75b32bb79cc90cbbf5cfa60205260408120549091907fe2f2c6ec490c385a19982d62c2eab738afebfd5de935a92469733daed358fe589060ff1661140057808352826020526040832082845260205260408320600160ff198254161790556000805160206116fc833981519152339380a4600190565b505090565b6001600160a01b031660008181527ff7a24d9db6a7a77b0ca72c680cb6234311400aad48c64d3d9b11dafd3cc5e8a860205260408120549091907f1893e1a169e79f2fe8aa327b1bceb2fede7a1b76a54824f95ea0e737720954ae9060ff1661140057808352826020526040832082845260205260408320600160ff198254161790556000805160206116fc833981519152339380a4600190565b9060009180835282602052604083209160018060a01b03169182845260205260ff6040842054161560001461140057808352826020526040832082845260205260408320600160ff198254161790556000805160206116fc833981519152339380a4600190565b9060009180835282602052604083209160018060a01b03169182845260205260ff6040842054166000146114005780835282602052604083208284526020526040832060ff1981541690557ff6391f5c32d9c69d2a47ea670b442974b53935d1edc7fd64eb21e047a839171b339380a4600190565b90601f8019910116810190811067ffffffffffffffff82111761159e57604052565b634e487b7160e01b600052604160045260246000fd5b9081602091031261032c5751801515810361032c5790565b156115d357565b60405162461bcd60e51b815260206004820152600f60248201526e151c985b9cd9995c8819985a5b1959608a1b6044820152606490fd5b9190820180921161161757565b634e487b7160e01b600052601160045260246000fd5b60026001541461163e576002600155565b604051633ee5aeb560e01b8152600490fd5b1561165757565b60405162461bcd60e51b815260206004820152601760248201527f496e73756666696369656e742069646c652066756e64730000000000000000006044820152606490fd5b156116a357565b60405162461bcd60e51b815260206004820152601060248201526f4173736574206e6f742061637469766560801b6044820152606490fd5b8181029291811591840414171561161757565b919082039182116116175756fe2f8788117e7eff1d82e926ec794901d17c78024a50270940304540a733656f0da264697066735822122077648244c9566d2aa33e3788858aa2e439bd6eaddf59a5163626843b5eb5e1e464736f6c63430008140033",
  "linkReferences": {},
  "deployedLinkReferences": {}
}