{
  "_format": "hh-sol-artifact-1",
  "contractName": "RWAAssetRegistry",
  "sourceName": "contracts/RWAAssetRegistry.sol",
  "abi": [
    {
      "inputs": [
        {
          "internalType": "address",
          "name": "admin",
          "type": "address"
        }
      ],
      "stateMutability": "nonpayable",
      "type": "constructor"
    },
    {
      "inputs": [],
      "name": "AccessControlBadConfirmation",
      "type": "error"
    },
    {
      "inputs": [
        {
          "internalType": "address",
          "name": "account",
          "type": "address"
        },
        {
          "internalType": "bytes32",
          "name": "neededRole",
          "type": "bytes32"
        }
      ],
      "name": "AccessControlUnauthorizedAccount",
      "type": "error"
    },
    {
      "inputs": [],
      "name": "EnforcedPause",
      "type": "error"
    },
    {
      "inputs": [],
      "name": "ExpectedPause",
      "type": "error"
    },
    {
      "inputs": [],
      "name": "ReentrancyGuardReentrantCall",
      "type": "error"
    },
    {
      "anonymous": false,
      "inputs": [
        {
          "indexed": true,
          "internalType": "uint256",
          "name": "assetId",
          "type": "uint256"
        },
        {
          "indexed": false,
          "internalType": "uint256",
          "name": "activationDate",
          "type": "uint256"
        }
      ],
      "name": "AssetActivated",
      "type": "event"
    },
    {
      "anonymous": false,
      "inputs": [
        {
          "indexed": true,
          "internalType": "uint256",
          "name": "assetId",
          "type": "uint256"
        },
        {
          "indexed": true,
          "internalType": "address",
          "name": "by",
          "type": "address"
        },
        {
          "indexed": false,
          "internalType": "uint256",
          "name": "timestamp",
          "type": "uint256"
        }
      ],
      "name": "AssetPaused",
      "type": "event"
    },
    {
      "anonymous": false,
      "inputs": [
        {
          "indexed": true,
          "internalType": "uint256",
          "name": "assetId",
          "type": "uint256"
        },
        {
          "indexed": false,
          "internalType": "enum RWACommonTypes.AssetType",
          "name": "assetType",
          "type": "uint8"
        },
        {
          "indexed": true,
          "internalType": "address",
          "name": "originator",
          "type": "address"
        },
        {
          "indexed": false,
          "internalType": "uint256",
          "name": "assetValue",
          "type": "uint256"
        }
      ],
      "name": "AssetRegistered",
      "type": "event"
    },
    {
      "anonymous": false,
      "inputs": [
        {
          "indexed": true,
          "internalType": "uint256",
          "name": "assetId",
          "type": "uint256"
        },
        {
          "indexed": true,
          "internalType": "address",
          "name": "by",
          "type": "address"
        },
        {
          "indexed": false,
          "internalType": "uint256",
          "name": "timestamp",
          "type": "uint256"
        }
      ],
      "name": "AssetUnpaused",
      "type": "event"
    },
    {
      "anonymous": false,
      "inputs": [
        {
          "indexed": true,
          "internalType": "uint256",
          "name": "assetId",
          "type": "uint256"
        },
        {
          "indexed": false,
          "internalType": "address",
          "name": "logicContract",
          "type": "address"
        },
        {
          "indexed": false,
          "internalType": "address",
          "name": "vaultContract",
          "type": "address"
        },
        {
          "indexed": false,
          "internalType": "address",
          "name": "tokenContract",
          "type": "address"
        }
      ],
      "name": "ContractsLinked",
      "type": "event"
    },
    {
      "anonymous": false,
      "inputs": [
        {
          "indexed": true,
          "internalType": "uint256",
          "name": "assetId",
          "type": "uint256"
        },
        {
          "indexed": false,
          "internalType": "uint256",
          "name": "missedPayments",
          "type": "uint256"
        },
        {
          "indexed": false,
          "internalType": "uint256",
          "name": "daysInDefault",
          "type": "uint256"
        },
        {
          "indexed": false,
          "internalType": "uint256",
          "name": "timestamp",
          "type": "uint256"
        }
      ],
      "name": "DefaultTriggered",
      "type": "event"
    },
    {
      "anonymous": false,
      "inputs": [
        {
          "indexed": true,
          "internalType": "address",
          "name": "entity",
          "type": "address"
        }
      ],
      "name": "KYCVerified",
      "type": "event"
    },
    {
      "anonymous": false,
      "inputs": [
        {
          "indexed": true,
          "internalType": "uint256",
          "name": "assetId",
          "type": "uint256"
        },
        {
          "indexed": false,
          "internalType": "uint256",
          "name": "timestamp",
          "type": "uint256"
        }
      ],
      "name": "LiquidationCompleted",
      "type": "event"
    },
    {
      "anonymous": false,
      "inputs": [
        {
          "indexed": true,
          "internalType": "uint256",
          "name": "assetId",
          "type": "uint256"
        },
        {
          "indexed": false,
          "internalType": "uint256",
          "name": "daysInDefault",
          "type": "uint256"
        },
        {
          "indexed": false,
          "internalType": "uint256",
          "name": "timestamp",
          "type": "uint256"
        }
      ],
      "name": "LiquidationInitiated",
      "type": "event"
    },
    {
      "anonymous": false,
      "inputs": [
        {
          "indexed": true,
          "internalType": "address",
          "name": "oracle",
          "type": "address"
        }
      ],
      "name": "OracleAdded",
      "type": "event"
    },
    {
      "anonymous": false,
      "inputs": [
        {
          "indexed": false,
          "internalType": "address",
          "name": "account",
          "type": "address"
        }
      ],
      "name": "Paused",
      "type": "event"
    },
    {
      "anonymous": false,
      "inputs": [
        {
          "indexed": true,
          "internalType": "uint256",
          "name": "assetId",
          "type": "uint256"
        },
        {
          "indexed": false,
          "internalType": "uint256",
          "name": "paymentAmount",
          "type": "uint256"
        },
        {
          "indexed": false,
          "internalType": "uint256",
          "name": "accumulatedYield",
          "type": "uint256"
        },
        {
          "indexed": false,
          "internalType": "uint256",
          "name": "timestamp",
          "type": "uint256"
        }
      ],
      "name": "PaymentRecorded",
      "type": "event"
    },
    {
      "anonymous": false,
      "inputs": [
        {
          "indexed": true,
          "internalType": "address",
          "name": "recipient",
          "type": "address"
        }
      ],
      "name": "RecipientUnwhitelisted",
      "type": "event"
    },
    {
      "anonymous": false,
      "inputs": [
        {
          "indexed": true,
          "internalType": "address",
          "name": "recipient",
          "type": "address"
        }
      ],
      "name": "RecipientWhitelisted",
      "type": "event"
    },
    {
      "anonymous": false,
      "inputs": [
        {
          "indexed": true,
          "internalType": "bytes32",
          "name": "role",
          "type": "bytes32"
        },
        {
          "indexed": true,
          "internalType": "bytes32",
          "name": "previousAdminRole",
          "type": "bytes32"
        },
        {
          "indexed": true,
          "internalType": "bytes32",
          "name": "newAdminRole",
          "type": "bytes32"
        }
      ],
      "name": "RoleAdminChanged",
      "type": "event"
    },
    {
      "anonymous": false,
      "inputs": [
        {
          "indexed": true,
          "internalType": "bytes32",
          "name": "role",
          "type": "bytes32"
        },
        {
          "indexed": true,
          "internalType": "address",
          "name": "account",
          "type": "address"
        },
        {
          "indexed": true,
          "internalType": "address",
          "name": "sender",
          "type": "address"
        }
      ],
      "name": "RoleGranted",
      "type": "event"
    },
    {
      "anonymous": false,
      "inputs": [
        {
          "indexed": true,
          "internalType": "bytes32",
          "name": "role",
          "type": "bytes32"
        },
        {
          "indexed": true,
          "internalType": "address",
          "name": "account",
          "type": "address"
        },
        {
          "indexed": true,
          "internalType": "address",
          "name": "sender",
          "type": "address"
        }
      ],
      "name": "RoleRevoked",
      "type": "event"
    },
    {
      "anonymous": false,
      "inputs": [
        {
          "indexed": false,
          "internalType": "address",
          "name": "account",
          "type": "address"
        }
      ],
      "name": "Unpaused",
      "type": "event"
    },
    {
      "anonymous": false,
      "inputs": [
        {
          "indexed": true,
          "internalType": "uint256",
          "name": "assetId",
          "type": "uint256"
        },
        {
          "indexed": false,
          "internalType": "uint256",
          "name": "oldValuation",
          "type": "uint256"
        },
        {
          "indexed": false,
          "internalType": "uint256",
          "name": "newValuation",
          "type": "uint256"
        },
        {
          "indexed": true,
          "internalType": "address",
          "name": "oracle",
          "type": "address"
        }
      ],
      "name": "ValuationUpdated",
      "type": "event"
    },
    {
      "anonymous": false,
      "inputs": [
        {
          "indexed": true,
          "internalType": "uint256",
          "name": "assetId",
          "type": "uint256"
        },
        {
          "indexed": false,
          "internalType": "uint256",
          "name": "yieldAmount",
          "type": "uint256"
        },
        {
          "indexed": false,
          "internalType": "uint256",
          "name": "timestamp",
          "type": "uint256"
        }
      ],
      "name": "YieldDistributed",
      "type": "event"
    },
    {
      "inputs": [],
      "name": "ASSET_FACTORY_ROLE",
      "outputs": [
        {
          "internalType": "bytes32",
          "name": "",
          "type": "bytes32"
        }
      ],
      "stateMutability": "view",
      "type": "function"
    },
    {
      "inputs": [],
      "name": "ASSET_MANAGER_ROLE",
      "outputs": [
        {
          "internalType": "bytes32",
          "name": "",
          "type": "bytes32"
        }
      ],
      "stateMutability": "view",
      "type": "function"
    },
    {
      "inputs": [],
      "name": "COMPLIANCE_ROLE",
      "outputs": [
        {
          "internalType": "bytes32",
          "name": "",
          "type": "bytes32"
        }
      ],
      "stateMutability": "view",
      "type": "function"
    },
    {
      "inputs": [],
      "name": "DEFAULT_ADMIN_ROLE",
      "outputs": [
        {
          "internalType": "bytes32",
          "name": "",
          "type": "bytes32"
        }
      ],
      "stateMutability": "view",
      "type": "function"
    },
    {
      "inputs": [],
      "name": "EMERGENCY_ADMIN_ROLE",
      "outputs": [
        {
          "internalType": "bytes32",
          "name": "",
          "type": "bytes32"
        }
      ],
      "stateMutability": "view",
      "type": "function"
    },
    {
      "inputs": [],
      "name": "PAYMENT_COLLECTOR_ROLE",
      "outputs": [
        {
          "internalType": "bytes32",
          "name": "",
          "type": "bytes32"
        }
      ],
      "stateMutability": "view",
      "type": "function"
    },
    {
      "inputs": [
        {
          "internalType": "uint256",
          "name": "_assetId",
          "type": "uint256"
        }
      ],
      "name": "activateAsset",
      "outputs": [],
      "stateMutability": "nonpayable",
      "type": "function"
    },
    {
      "inputs": [
        {
          "internalType": "address",
          "name": "_oracle",
          "type": "address"
        }
      ],
      "name": "addTrustedOracle",
      "outputs": [],
      "stateMutability": "nonpayable",
      "type": "function"
    },
    {
      "inputs": [],
      "name": "assetCounter",
      "outputs": [
        {
          "internalType": "uint256",
          "name": "",
          "type": "uint256"
        }
      ],
      "stateMutability": "view",
      "type": "function"
    },
    {
      "inputs": [
        {
          "internalType": "uint256",
          "name": "",
          "type": "uint256"
        }
      ],
      "name": "assets",
      "outputs": [
        {
          "internalType": "uint256",
          "name": "assetId",
          "type": "uint256"
        },
        {
          "internalType": "enum RWACommonTypes.AssetType",
          "name": "assetType",
          "type": "uint8"
        },
        {
          "internalType": "address",
          "name": "originator",
          "type": "address"
        },
        {
          "internalType": "address",
          "name": "logicContract",
          "type": "address"
        },
        {
          "internalType": "address",
          "name": "vaultContract",
          "type": "address"
        },
        {
          "internalType": "address",
          "name": "tokenContract",
          "type": "address"
        },
        {
          "internalType": "bool",
          "name": "isKYCVerified",
          "type": "bool"
        },
        {
          "internalType": "bool",
          "name": "isPaused",
          "type": "bool"
        },
        {
          "internalType": "uint256",
          "name": "assetValue",
          "type": "uint256"
        },
        {
          "internalType": "uint256",
          "name": "accumulatedYield",
          "type": "uint256"
        },
        {
          "internalType": "uint256",
          "name": "lastValuationDate",
          "type": "uint256"
        },
        {
          "internalType": "uint256",
          "name": "lastPaymentDate",
          "type": "uint256"
        },
        {
          "internalType": "uint256",
          "name": "missedPayments",
          "type": "uint256"
        },
        {
          "internalType": "uint256",
          "name": "daysInDefault",
          "type": "uint256"
        },
        {
          "internalType": "uint256",
          "name": "lastYieldDistributionDate",
          "type": "uint256"
        },
        {
          "internalType": "uint256",
          "name": "totalYieldDistributed",
          "type": "uint256"
        },
        {
          "internalType": "uint256",
          "name": "nextPaymentDueDate",
          "type": "uint256"
        },
        {
          "internalType": "uint256",
          "name": "expectedMonthlyPayment",
          "type": "uint256"
        },
        {
          "internalType": "uint256",
          "name": "expectedMaturityDate",
          "type": "uint256"
        },
        {
          "internalType": "address",
          "name": "valuationOracle",
          "type": "address"
        },
        {
          "internalType": "enum RWACommonTypes.AssetStatus",
          "name": "currentStatus",
          "type": "uint8"
        },
        {
          "internalType": "enum RWACommonTypes.AssetStatus",
          "name": "statusBeforePause",
          "type": "uint8"
        },
        {
          "internalType": "uint256",
          "name": "registrationDate",
          "type": "uint256"
        },
        {
          "internalType": "uint256",
          "name": "activationDate",
          "type": "uint256"
        },
        {
          "internalType": "string",
          "name": "ipfsMetadataHash",
          "type": "string"
        }
      ],
      "stateMutability": "view",
      "type": "function"
    },
    {
      "inputs": [
        {
          "internalType": "uint256",
          "name": "_assetId",
          "type": "uint256"
        }
      ],
      "name": "checkAndTriggerDefault",
      "outputs": [
        {
          "internalType": "bool",
          "name": "triggered",
          "type": "bool"
        }
      ],
      "stateMutability": "nonpayable",
      "type": "function"
    },
    {
      "inputs": [
        {
          "internalType": "uint256",
          "name": "_assetId",
          "type": "uint256"
        }
      ],
      "name": "completeLiquidation",
      "outputs": [],
      "stateMutability": "nonpayable",
      "type": "function"
    },
    {
      "inputs": [],
      "name": "defaultThresholdDays",
      "outputs": [
        {
          "internalType": "uint256",
          "name": "",
          "type": "uint256"
        }
      ],
      "stateMutability": "view",
      "type": "function"
    },
    {
      "inputs": [
        {
          "internalType": "bytes32",
          "name": "role",
          "type": "bytes32"
        }
      ],
      "name": "getRoleAdmin",
      "outputs": [
        {
          "internalType": "bytes32",
          "name": "",
          "type": "bytes32"
        }
      ],
      "stateMutability": "view",
      "type": "function"
    },
    {
      "inputs": [
        {
          "internalType": "bytes32",
          "name": "role",
          "type": "bytes32"
        },
        {
          "internalType": "address",
          "name": "account",
          "type": "address"
        }
      ],
      "name": "grantRole",
      "outputs": [],
      "stateMutability": "nonpayable",
      "type": "function"
    },
    {
      "inputs": [
        {
          "internalType": "bytes32",
          "name": "role",
          "type": "bytes32"
        },
        {
          "internalType": "address",
          "name": "account",
          "type": "address"
        }
      ],
      "name": "hasRole",
      "outputs": [
        {
          "internalType": "bool",
          "name": "",
          "type": "bool"
        }
      ],
      "stateMutability": "view",
      "type": "function"
    },
    {
      "inputs": [
        {
          "internalType": "uint256",
          "name": "_assetId",
          "type": "uint256"
        }
      ],
      "name": "isAssetActive",
      "outputs": [
        {
          "internalType": "bool",
          "name": "",
          "type": "bool"
        }
      ],
      "stateMutability": "view",
      "type": "function"
    },
    {
      "inputs": [
        {
          "internalType": "uint256",
          "name": "_assetId",
          "type": "uint256"
        }
      ],
      "name": "isAssetPaused",
      "outputs": [
        {
          "internalType": "bool",
          "name": "",
          "type": "bool"
        }
      ],
      "stateMutability": "view",
      "type": "function"
    },
    {
      "inputs": [
        {
          "internalType": "address",
          "name": "_recipient",
          "type": "address"
        }
      ],
      "name": "isWhitelisted",
      "outputs": [
        {
          "internalType": "bool",
          "name": "",
          "type": "bool"
        }
      ],
      "stateMutability": "view",
      "type": "function"
    },
    {
      "inputs": [
        {
          "internalType": "address",
          "name": "",
          "type": "address"
        }
      ],
      "name": "kycVerified",
      "outputs": [
        {
          "internalType": "bool",
          "name": "",
          "type": "bool"
        }
      ],
      "stateMutability": "view",
      "type": "function"
    },
    {
      "inputs": [
        {
          "internalType": "uint256",
          "name": "_assetId",
          "type": "uint256"
        },
        {
          "internalType": "address",
          "name": "_logicContract",
          "type": "address"
        },
        {
          "internalType": "address",
          "name": "_vaultContract",
          "type": "address"
        },
        {
          "internalType": "address",
          "name": "_token",
          "type": "address"
        }
      ],
      "name": "linkContracts",
      "outputs": [],
      "stateMutability": "nonpayable",
      "type": "function"
    },
    {
      "inputs": [],
      "name": "liquidationThresholdDays",
      "outputs": [
        {
          "internalType": "uint256",
          "name": "",
          "type": "uint256"
        }
      ],
      "stateMutability": "view",
      "type": "function"
    },
    {
      "inputs": [
        {
          "internalType": "uint256",
          "name": "_assetId",
          "type": "uint256"
        }
      ],
      "name": "pauseAsset",
      "outputs": [],
      "stateMutability": "nonpayable",
      "type": "function"
    },
    {
      "inputs": [],
      "name": "paused",
      "outputs": [
        {
          "internalType": "bool",
          "name": "",
          "type": "bool"
        }
      ],
      "stateMutability": "view",
      "type": "function"
    },
    {
      "inputs": [
        {
          "internalType": "uint256",
          "name": "_assetId",
          "type": "uint256"
        },
        {
          "internalType": "uint256",
          "name": "_paymentAmount",
          "type": "uint256"
        }
      ],
      "name": "recordPayment",
      "outputs": [],
      "stateMutability": "nonpayable",
      "type": "function"
    },
    {
      "inputs": [
        {
          "internalType": "uint256",
          "name": "_assetId",
          "type": "uint256"
        },
        {
          "internalType": "uint256",
          "name": "_yield",
          "type": "uint256"
        }
      ],
      "name": "recordYieldDistribution",
      "outputs": [],
      "stateMutability": "nonpayable",
      "type": "function"
    },
    {
      "inputs": [
        {
          "internalType": "enum RWACommonTypes.AssetType",
          "name": "_assetType",
          "type": "uint8"
        },
        {
          "internalType": "address",
          "name": "_originator",
          "type": "address"
        },
        {
          "internalType": "uint256",
          "name": "_assetValue",
          "type": "uint256"
        },
        {
          "internalType": "string",
          "name": "_ipfsMetadataHash",
          "type": "string"
        }
      ],
      "name": "registerAsset",
      "outputs": [
        {
          "internalType": "uint256",
          "name": "assetId",
          "type": "uint256"
        }
      ],
      "stateMutability": "nonpayable",
      "type": "function"
    },
    {
      "inputs": [
        {
          "internalType": "bytes32",
          "name": "role",
          "type": "bytes32"
        },
        {
          "internalType": "address",
          "name": "callerConfirmation",
          "type": "address"
        }
      ],
      "name": "renounceRole",
      "outputs": [],
      "stateMutability": "nonpayable",
      "type": "function"
    },
    {
      "inputs": [
        {
          "internalType": "bytes32",
          "name": "role",
          "type": "bytes32"
        },
        {
          "internalType": "address",
          "name": "account",
          "type": "address"
        }
      ],
      "name": "revokeRole",
      "outputs": [],
      "stateMutability": "nonpayable",
      "type": "function"
    },
    {
      "inputs": [
        {
          "internalType": "bytes4",
          "name": "interfaceId",
          "type": "bytes4"
        }
      ],
      "name": "supportsInterface",
      "outputs": [
        {
          "internalType": "bool",
          "name": "",
          "type": "bool"
        }
      ],
      "stateMutability": "view",
      "type": "function"
    },
    {
      "inputs": [
        {
          "internalType": "address",
          "name": "",
          "type": "address"
        }
      ],
      "name": "trustedOracles",
      "outputs": [
        {
          "internalType": "bool",
          "name": "",
          "type": "bool"
        }
      ],
      "stateMutability": "view",
      "type": "function"
    },
    {
      "inputs": [
        {
          "internalType": "uint256",
          "name": "_assetId",
          "type": "uint256"
        }
      ],
      "name": "unpauseAsset",
      "outputs": [],
      "stateMutability": "nonpayable",
      "type": "function"
    },
    {
      "inputs": [
        {
          "internalType": "address",
          "name": "recipient",
          "type": "address"
        }
      ],
      "name": "unwhitelistRecipient",
      "outputs": [],
      "stateMutability": "nonpayable",
      "type": "function"
    },
    {
      "inputs": [
        {
          "internalType": "uint256",
          "name": "_assetId",
          "type": "uint256"
        },
        {
          "internalType": "uint256",
          "name": "_newValuation",
          "type": "uint256"
        }
      ],
      "name": "updateValuation",
      "outputs": [],
      "stateMutability": "nonpayable",
      "type": "function"
    },
    {
      "inputs": [
        {
          "internalType": "address",
          "name": "_address",
          "type": "address"
        }
      ],
      "name": "verifyKYC",
      "outputs": [],
      "stateMutability": "nonpayable",
      "type": "function"
    },
    {
      "inputs": [
        {
          "internalType": "address",
          "name": "recipient",
          "type": "address"
        }
      ],
      "name": "whitelistRecipient",
      "outputs": [],
      "stateMutability": "nonpayable",
      "type": "function"
    },
    {
      "inputs": [
        {
          "internalType": "address",
          "name": "",
          "type": "address"
        }
      ],
      "name": "whitelistedRecipients",
      "outputs": [
        {
          "internalType": "bool",
          "name": "",
          "type": "bool"
        }
      ],
      "stateMutability": "view",
      "type": "function"
    }
  ],
  "bytecode": "0x608034620000c757601f6200261a38819003918201601f19168301916001600160401b03831184841017620000cc57808492602094604052833981010312620000c757516001600160a01b038116808203620000c7576001600255601e600855603c600955156200009257806200007a6200008192620000e2565b5062000162565b506040516123f59081620002058239f35b60405162461bcd60e51b815260206004820152600d60248201526c24b73b30b634b21030b236b4b760991b6044820152606490fd5b600080fd5b634e487b7160e01b600052604160045260246000fd5b6001600160a01b031660008181527fad3228b676f7d3cd4284a5443f17f1962b36e491b30a40b2405849e597ba5fb5602052604081205490919060ff166200015e57818052816020526040822081835260205260408220600160ff198254161790553391600080516020620025fa8339815191528180a4600190565b5090565b6001600160a01b031660008181527fac55d60145c2b1e72232130507b090ddd2cd26daa31eeab1e3e64b89140e668d60205260408120549091907f5c91514091af31f62f596a314af7d5be40146b2f2355969392f055e12e0982fb9060ff16620001ff57808352826020526040832082845260205260408320600160ff19825416179055600080516020620025fa833981519152339380a4600190565b50509056fe6101c080604052600436101561001457600080fd5b60003560e01c90816301ffc9a714611bdf57508063041024a414611baa578063062d3bd714611b6f57806306345a0214611b345780630b879bc21461187e57806313c5d252146114cb57806317f85f85146117d95780631f50b2cb1461179657806320d138471461177857806322e900c214611736578063248a9ca31461170757806327312771146116375780632f2ff15d146115f857806336568abe146115b157806338d160111461150a5780633af32abf146114cb5780634b918786146114ad57806351b204ed146112a55780635847ddbe146112875780635c975abb1461126457806367125aa5146111f25780636cdbf1f9146110f75780636dc0fc6b14610f365780636e76fc8f14610efb57806391d1485414610eae578063a217fddf14610e92578063a4b32de814610e57578063a5410a6614610e18578063b4c3dbc514610cc2578063cf35bdd0146109a7578063d547741f14610966578063db29660214610927578063f47cc9b3146108ec578063f78fe9781461081b578063fa1b751c14610752578063ffba205f1461053f5763ffddd9cd146101b757600080fd5b3461053a57608036600319011261053a5760048035101561053a576101da611c5e565b67ffffffffffffffff806064351161053a5736602360643501121561053a57606435600401351161053a573660246064356004013560643501011161053a57610221611db8565b604435156104f5576001600160a01b03811660009081526005602052604090205460ff16156104b057600454600019811461049a5760018101600455600181016000526003602052604060002091600182018355600183018054610100600160a81b038360081b169060ff60043516906affffffffffffffffffffff60a81b161717905560443560058401556102ba6013840154611c74565b92601f8411610447575b602093506000601f60643560040135116001146103b457600091600a918390606435600401356103a4575b506064356004013560011b9084196064356004013560031b1c19161760138201555b4260118201556010810160ff60a01b19908181541690556004820190600160a01b9082541617905542600882015542600782015582600982015501556040519061035d82600435611ce6565b604435828501526001600160a01b03169060018301907fdad99ad75033a16b370048f551c6da57e13c63c93a73343a1bfa85736cb9ee6790604090a3600160405191018152f35b60249150606435010135386102ef565b60138201600052846000209060005b60046064350135601f1916811061042b5750600092600a92909160046064350135601f19811610610407575b5050600160643560040135811b016013820155610311565b6024851960f86064356004013560031b161c199160643501013516905538806103ef565b90918660018192602486606435010135815501930191016103c3565b601381016000526020600020601f606435600401350160051c810160206064356004013510610493575b601f860160051c820181106104875750506102c4565b60008155600101610471565b5080610471565b634e487b7160e01b600052601160045260246000fd5b60405162461bcd60e51b815260206004820152601e60248201527f4173736574206f726967696e61746f72206d7573742070617373204b594300006044820152606490fd5b60405162461bcd60e51b815260206004820152601c60248201527f41737365742076616c7565206d75737420626520706f736974697665000000006044820152606490fd5b600080fd5b3461053a5760208060031936011261053a5760043561055c611d5c565b806000526003825260406000209161057683541515611f50565b60048301549261058c60ff8560a81c1615611fb4565b6010810180549460ff8660a01c16600981101561073c576001036107045760ff8160a01c16156106cc5760028301546001600160a01b039190821615610690578160038501541615610658571615610620577f0790c8d81a0cc3bfed1b6e0f29e489b9c93cffb85cf2164ecc769a79464370569394600160a11b9060ff60a01b1916179055601242910155604051428152a2005b60405162461bcd60e51b815260048101849052601060248201526f151bdad95b881b9bdd081b1a5b9ad95960821b6044820152606490fd5b60405162461bcd60e51b815260048101869052601060248201526f15985d5b1d081b9bdd081b1a5b9ad95960821b6044820152606490fd5b60405162461bcd60e51b815260048101869052601460248201527310dbdb9d1c9858dd1cc81b9bdd081b1a5b9ad95960621b6044820152606490fd5b60405162461bcd60e51b815260048101859052601060248201526f12d650c81b9bdd081d995c9a599a595960821b6044820152606490fd5b60405162461bcd60e51b815260048101859052601060248201526f105cdcd95d081b9bdd081b1a5b9ad95960821b6044820152606490fd5b634e487b7160e01b600052602160045260246000fd5b3461053a57602036600319011261053a5760043561076e611d00565b8060005260036020526010604060002061078a81541515611f50565b01805460ff8160a01c16600981101561073c576005036107e15760ff60a01b1916600360a11b1790556040514281527fe7c730f80a7f2d6b0121221fd9eaff1edb01f79ded84d7b808c27bad1b7a771690602090a2005b60405162461bcd60e51b81526020600482015260126024820152712737ba1034b7103634b8bab4b230ba34b7b760711b6044820152606490fd5b3461053a57602036600319011261053a57610834611c48565b61083c611d5c565b6001600160a01b031661085081151561237f565b80600052600560205260ff60406000205416156108a7578060005260066020526040600020600160ff198254161790557f633dd34c2a254e3303a95404f346347f8e94d94b507ffb6d2db4b9ea051dc1e8600080a2005b60405162461bcd60e51b815260206004820152601e60248201527f526563697069656e74206d757374206265204b594320766572696669656400006044820152606490fd5b3461053a57600036600319011261053a5760206040517f3d33495e820c7b42f4af3e5c6ee4fd25ea79ce9435fe48ce8a6a3343dba332408152f35b3461053a57602036600319011261053a576001600160a01b03610948611c48565b166000526007602052602060ff604060002054166040519015158152f35b3461053a57604036600319011261053a576109a5600435610985611c5e565b908060005260006020526109a0600160406000200154611e13565b611eb7565b005b3461053a57602036600319011261053a57600435600052600360205260406000208061014052805460018201546101a05260018060a01b0360028301541660c05260018060a01b036003830154166004830154600584015460068501546007860154600887015491600988015493600a89015495600b8a015497600c8b015499600d8c01549b600e81015460a052600f81015461010052601081015460e05260118101546101805260128101546101605260405160805260136000910154610a6e81611c74565b908160805152600181169081600014610c985750600114610c41575b5090610aa060ff94939260805180910390611cae565b604051806101205252610abe60206101205101846101a05116611ce6565b60018060a01b036101a05160081c16604061012051015260c0516060610120510152608061012051015260018060a01b03811660a0610120510152818160a01c16151560c061012051015260a81c16151560e0610120510152610100610120510152610120805101526101406101205101526101606101205101526101806101205101526101a06101205101526101c06101205101526101e061012051015261020061012051015260a0516102206101205101526101005161024061012051015260018060a01b0360e05116610260610120510152610bac610280610120510160ff60e05160a01c16611cf3565b610bc56102a0610120510160ff60e05160a81c16611cf3565b610180516102c0610120510152610160516102e06101205101526103208061030061012051015260805151809161012051015260005b818110610c2557506103406000818361012051010152610120518092601f80199101168101030190f35b8060208092608051010151610340826101205101015201610bfb565b9392919050601361014051016000526020600020936000905b808210610c7857506080519394509192909101602001610aa0610a8a565b919293946001816020925483856080510101520191019094939291610c5a565b6080805160ff199092166020928301525192151560051b929092019091019150610aa09050610a8a565b3461053a57610cd036611c32565b3360009081527fa66d454f542ee952bb34837803524bdaab2ee0a9b43cf92e7055d420c43d65de60205260409020547f9c6e3ae929b539a99db03120eac7d9f862d68479b44f1eec05ab6036fcf568309060ff1615610dfa5750610d32611f93565b816000526003602052604060002090610d4d82541515611f50565b60068201908154808211610db5577ff571bb88b0ec5dc25398fc62c69d5970d50ea313a0a6596b0ca7f0197d37383f93604093610d8c84600c94612056565b905542600b82015501610da082825461202e565b90558151908152426020820152a26001600255005b60405162461bcd60e51b815260206004820152601e60248201527f496e73756666696369656e7420616363756d756c61746564207969656c6400006044820152606490fd5b6044906040519063e2517d3f60e01b82523360048301526024820152fd5b3461053a57602036600319011261053a576001600160a01b03610e39611c48565b166000526005602052602060ff604060002054166040519015158152f35b3461053a57600036600319011261053a5760206040517f9c6e3ae929b539a99db03120eac7d9f862d68479b44f1eec05ab6036fcf568308152f35b3461053a57600036600319011261053a57602060405160008152f35b3461053a57604036600319011261053a57610ec7611c5e565b600435600052600060205260406000209060018060a01b0316600052602052602060ff604060002054166040519015158152f35b3461053a57600036600319011261053a5760206040517f5c91514091af31f62f596a314af7d5be40146b2f2355969392f055e12e0982fb8152f35b3461053a57610f4436611c32565b90610f4d611f93565b8060005260209160038352604060002092336000526007815260ff60406000205416156110c057610f8084541515611f50565b811561107c576005840193845494600a8602868104600a148715171561049a5760649004610fae818861202e565b8511159081611068575b50156110185790836010925542600782015501336bffffffffffffffffffffffff60a01b8254161790556040519384528301527f6b6d89b5e18056723397c772ee29ba7334247377e36f6c320cd89b25a6a0353d60403393a36001600255005b60405162461bcd60e51b815260048101849052602260248201527f56616c756174696f6e206368616e6765206578636565647320313025206c696d6044820152611a5d60f21b6064820152608490fd5b611073915087612056565b84101587610fb8565b6064906040519062461bcd60e51b82526004820152601a60248201527f56616c756174696f6e206d75737420626520706f7369746976650000000000006044820152fd5b6064906040519062461bcd60e51b82526004820152601060248201526f556e74727573746564206f7261636c6560801b6044820152fd5b3461053a57602036600319011261053a57600435611113611d00565b806000526003602052604060002061112d81541515611f50565b600481019081549160ff8360a81c166111b65760ff60a81b19909216600160a81b179091556010018054600960a082901c60ff16101561073c5761ffff60a01b19811660089190911b60ff60a81b1617600760a01b1790556040514281523391907fea1e1a5d9a051e736cadf98469b941e52ced1176ab2c8da75e865512a27af37890602090a3005b60405162461bcd60e51b8152602060048201526014602482015273105cdcd95d08185b1c9958591e481c185d5cd95960621b6044820152606490fd5b3461053a57602036600319011261053a5761120b611c48565b611213611d5c565b6001600160a01b031661122781151561237f565b806000526006602052604060002060ff1981541690557f573bb8749a38f435f296d3d116f34f9230aa4056e3b82ba86f7e5d2b5b41e330600080a2005b3461053a57600036600319011261053a57602060ff600154166040519015158152f35b3461053a57600036600319011261053a576020600854604051908152f35b3461053a57608036600319011261053a576004356112c1611c5e565b6001600160a01b036044358181169081900361053a576064359180831680930361053a576112ed611db8565b6112f5611f93565b846000526020906003825260406000209461131286541515611f50565b601086019182549160ff8360a01c16600981101561073c5761147157169586156114335784156113f55785156113c0576002810180546001600160a01b03199081168917909155600382018054821687179055600490910180549091168617905560ff60a01b1916600160a01b17905560408051948552908401919091528201527f9359434f26750588cf01310b29e7feaffc79cb7196bb5815a5ff4cbd575fee5e90606090a26001600255005b60405162461bcd60e51b815260048101859052600d60248201526c24b73b30b634b2103a37b5b2b760991b6044820152606490fd5b60405162461bcd60e51b8152600481018590526016602482015275125b9d985b1a59081d985d5b1d0818dbdb9d1c9858dd60521b6044820152606490fd5b60405162461bcd60e51b8152600481018590526016602482015275125b9d985b1a59081b1bd9da58c818dbdb9d1c9858dd60521b6044820152606490fd5b60405162461bcd60e51b8152600481018690526014602482015273105cdcd95d081b9bdd081c9959da5cdd195c995960621b6044820152606490fd5b3461053a57600036600319011261053a576020600454604051908152f35b3461053a57602036600319011261053a576001600160a01b036114ec611c48565b166000526006602052602060ff604060002054166040519015158152f35b3461053a57602036600319011261053a57611523611c48565b61152b611d5c565b6001600160a01b0316801561157a578060005260056020526040600020600160ff198254161790557f65c84ee842eafc291d1272a6e3d10f8c454c4288e63f5db3f7be2b3012f321a9600080a2005b60405162461bcd60e51b815260206004820152600f60248201526e496e76616c6964206164647265737360881b6044820152606490fd5b3461053a57604036600319011261053a576115ca611c5e565b336001600160a01b038216036115e6576109a590600435611eb7565b60405163334bd91960e11b8152600490fd5b3461053a57604036600319011261053a576109a5600435611617611c5e565b90806000526000602052611632600160406000200154611e13565b611e39565b3461053a57602036600319011261053a57600435611653611d00565b806000526003602052604060002061166d81541515611f50565b600481019081549060ff8260a81c16156116cf576116a09260109260ff60a81b191690550160ff815460a81c1690611f2c565b604051904282527f4fe66463e29948266fbb749b3006a73c61df8dfcfb1587609d1742d7885c27e060203393a3005b60405162461bcd60e51b815260206004820152601060248201526f105cdcd95d081b9bdd081c185d5cd95960821b6044820152606490fd5b3461053a57602036600319011261053a5760043560005260006020526020600160406000200154604051908152f35b3461053a57602036600319011261053a57600435600052600360205260ff60106040600020015460a01c16600981101561073c57602090600260405191148152f35b3461053a57600036600319011261053a576020600954604051908152f35b3461053a57602036600319011261053a576004356000526003602052602060ff600460406000206117c981541515611f50565b015460a81c166040519015158152f35b3461053a57602036600319011261053a576117f2611c48565b6117fa611d00565b6001600160a01b03168015611848578060005260076020526040600020600160ff198254161790557e47706786c922d17b39285dc59d696bafea72c0b003d3841ae1202076f4c2e4600080a2005b60405162461bcd60e51b815260206004820152600e60248201526d496e76616c6964206f7261636c6560901b6044820152606490fd5b3461053a5761188c36611c32565b3360009081527fb7d8d7fec117a8bbf0def7c66a80e921556c4d529ddd0ceaefef3c87ab95fc5260209081526040909120549091907f3d33495e820c7b42f4af3e5c6ee4fd25ea79ce9435fe48ce8a6a3343dba332409060ff1615610dfa57506118f4611f93565b8260005260038252604060002061190d81541515611f50565b60ff601082015460a01c16600981101561073c57600203611afc578115611ab75761194260ff600483015460a81c1615611fb4565b6002810190600060018060a01b03948086855416611961811515611fef565b60446040518095819363df9d58ff60e01b83528a60048401524260248401525af18015611a7757611a83575b5050606060049442600884015560068301936119aa86865461202e565b8095556000600a85015554166040519586809263137d6df160e11b82525afa938415611a77577f764254b77d55c6ba3740bc486a4755b9496831c75730518c1204ec9b6b29b2819460008092600092611a44575b50600d84015581600e840155600f830155831015611a37575b506040805192835260208301919091524290820152606090a26001600255005b6009600091015584611a17565b915050611a68915060603d8111611a70575b611a608183611cae565b81019061203b565b9091886119fe565b503d611a56565b6040513d6000823e3d90fd5b81813d8311611ab0575b611a978183611cae565b8101031261053a5760099051101561053a57858061198d565b503d611a8d565b60405162461bcd60e51b815260048101849052601860248201527f5061796d656e74206d75737420626520706f73697469766500000000000000006044820152606490fd5b60405162461bcd60e51b815260048101849052601060248201526f4173736574206e6f742061637469766560801b6044820152606490fd5b3461053a57600036600319011261053a5760206040517ffe5d884d3d6976bfc9d840dc9c3cc3a7ebf2378b0a55e04ac9ad002c8af4404a8152f35b3461053a57600036600319011261053a5760206040517fb938b4e8be78c5b3d6090a6dcee4f5257472278c0aaffb0b01bee86005dc1fee8152f35b3461053a57602036600319011261053a57611bc3611f93565b6020611bd0600435612063565b60016002556040519015158152f35b3461053a57602036600319011261053a576004359063ffffffff60e01b821680920361053a57602091637965db0b60e01b8114908115611c21575b5015158152f35b6301ffc9a760e01b14905083611c1a565b604090600319011261053a576004359060243590565b600435906001600160a01b038216820361053a57565b602435906001600160a01b038216820361053a57565b90600182811c92168015611ca4575b6020831014611c8e57565b634e487b7160e01b600052602260045260246000fd5b91607f1691611c83565b90601f8019910116810190811067ffffffffffffffff821117611cd057604052565b634e487b7160e01b600052604160045260246000fd5b90600482101561073c5752565b90600982101561073c5752565b3360009081527fac55d60145c2b1e72232130507b090ddd2cd26daa31eeab1e3e64b89140e668d60205260409020547f5c91514091af31f62f596a314af7d5be40146b2f2355969392f055e12e0982fb9060ff1615610dfa5750565b3360009081527fca440bb5b4f276d246650b92ae261b87f0f2224864f13e13edcfda2aaca5310260205260409020547fb938b4e8be78c5b3d6090a6dcee4f5257472278c0aaffb0b01bee86005dc1fee9060ff1615610dfa5750565b3360009081527e19c1b1965c934fc2bfd45c00a175e4a8c435d97704f467924b15f3224a323360205260409020547ffe5d884d3d6976bfc9d840dc9c3cc3a7ebf2378b0a55e04ac9ad002c8af4404a9060ff1615610dfa5750565b80600052600060205260406000203360005260205260ff6040600020541615610dfa5750565b9060009180835282602052604083209160018060a01b03169182845260205260ff60408420541615600014611eb257808352826020526040832082845260205260408320600160ff198254161790557f2f8788117e7eff1d82e926ec794901d17c78024a50270940304540a733656f0d339380a4600190565b505090565b9060009180835282602052604083209160018060a01b03169182845260205260ff604084205416600014611eb25780835282602052604083208284526020526040832060ff1981541690557ff6391f5c32d9c69d2a47ea670b442974b53935d1edc7fd64eb21e047a839171b339380a4600190565b90600981101561073c57815460ff60a01b191660a09190911b60ff60a01b16179055565b15611f5757565b60405162461bcd60e51b8152602060048201526014602482015273105cdcd95d08191bd95cc81b9bdd08195e1a5cdd60621b6044820152606490fd5b6002805414611fa25760028055565b604051633ee5aeb560e01b8152600490fd5b15611fbb57565b60405162461bcd60e51b815260206004820152600c60248201526b105cdcd95d081c185d5cd95960a21b6044820152606490fd5b15611ff657565b60405162461bcd60e51b815260206004820152601060248201526f131bd9da58c81b9bdd081b1a5b9ad95960821b6044820152606490fd5b9190820180921161049a57565b9081606091031261053a578051916040602083015192015190565b9190820391821161049a57565b6000908082526003602052604080832061207f81541515611f50565b60049061209560ff8383015460a81c1615611fb4565b601081019060ff825460a01c16906009918281101561236c5760028114159081612360575b506123575760028101546001600160a01b03166120d8811515611fef565b85516308c2281b60e41b815242868201529386856024818c865af191821561234d57908692918a968b936122f5575b5060609089519889809263137d6df160e11b82525afa80156122eb578a978b908c926122c5575b5088600d870155600e860155600f85015589968042116122ac575b5086600a85015560ff815460a01c16908582101561229957858710156122995786828103612289575b50506005821015612276576002821491821561226b575b50828114908115612260575b5081612257575b5061222d575b83146121ec5750506005146121b75750505090565b7fd11981c7a0981366853bd0f0cfc100f20ddbd0bb5b189ced01cfb46c91588bd19293508151908152426020820152a2600190565b015492519283525060208201524260408201529091507f474f2d8c954ca5a2715e91f77bbdaf2dab28e099e7113c1ea3d29e0b98c1e9dd90606090a2600190565b8282018054906001820180921161224457556121a2565b634e487b7160e01b8a526011835260248afd5b9050153861219c565b600591501438612195565b600314915038612189565b634e487b7160e01b8a526021835260248afd5b61229291611f2c565b3886612172565b634e487b7160e01b8b526021845260248bfd5b620151809197506122bd9042612056565b049538612149565b9150506122e191975060603d8111611a7057611a608183611cae565b909791973861212e565b88513d8c823e3d90fd5b9650925090508685813d8311612346575b6123108183611cae565b81010312612342578451948486101561233e576020015194600586101561233e579486929091906060612107565b8980fd5b8880fd5b503d612306565b87513d8b823e3d90fd5b50505050505090565b600391501415386120ba565b634e487b7160e01b885260218552602488fd5b1561238657565b60405162461bcd60e51b8152602060048201526011602482015270125b9d985b1a59081c9958da5c1a595b9d607a1b6044820152606490fdfea2646970667358221220df2d992ccf02b51a673e03dd267362daf5b233cb893bed6158b7c6520a8efd3364736f6c634300081400332f8788117e7eff1d82e926ec794901d17c78024a50270940304540a733656f0d",
  "linkReferences": {},
  "deployedLinkReferences": {}
}