{
  "_format": "hh-sol-artifact-1",
  "contractName": "InvestorShareToken",
  "sourceName": "contracts/InvestorShareToken.sol",
  "abi": [
    {
      "inputs": [
        {
          "internalType": "uint256",
          "name": "_assetId",
          "type": "uint256"
        },
        {
          "internalType": "string",
          "name": "_name",
          "type": "string"
        },
        {
          "internalType": "string",
          "name": "_symbol",
          "type": "string"
        },
        {
          "internalType": "uint256",
          "name": "_maxSupply",
          "type": "uint256"
        },
        {
          "internalType": "address",
          "name": "_registry",
          "type": "address"
        },
        {
          "internalType": "address",
          "name": "_vault",
          "type": "address"
        },
        {
          "internalType": "address",
          "name": "_admin",
          "type": "address"
        }
      ],
      "stateMutability": "nonpayable",
      "type": "constructor"
    },
    {
      "inputs": [],
      "name": "AccessControlBadConfirmation",
      "type": "error"
    },
    {
      "inputs": [
        {
          "internalType": "address",
          "name": "account",
          "type": "address"
        },
        {
          "internalType": "bytes32",
          "name": "neededRole",
          "type": "bytes32"
        }
      ],
      "name": "AccessControlUnauthorizedAccount",
      "type": "error"
    },
    {
      "inputs": [
        {
          "internalType": "address",
          "name": "spender",
          "type": "address"
        },
        {
          "internalType": "uint256",
          "name": "allowance",
          "type": "uint256"
        },
        {
          "internalType": "uint256",
          "name": "needed",
          "type": "uint256"
        }
      ],
      "name": "ERC20InsufficientAllowance",
      "type": "error"
    },
    {
      "inputs": [
        {
          "internalType": "address",
          "name": "sender",
          "type": "address"
        },
        {
          "internalType": "uint256",
          "name": "balance",
          "type": "uint256"
        },
        {
          "internalType": "uint256",
          "name": "needed",
          "type": "uint256"
        }
      ],
      "name": "ERC20InsufficientBalance",
      "type": "error"
    },
    {
      "inputs": [
        {
          "internalType": "address",
          "name": "approver",
          "type": "address"
        }
      ],
      "name": "ERC20InvalidApprover",
      "type": "error"
    },
    {
      "inputs": [
        {
          "internalType": "address",
          "name": "receiver",
          "type": "address"
        }
      ],
      "name": "ERC20InvalidReceiver",
      "type": "error"
    },
    {
      "inputs": [
        {
          "internalType": "address",
          "name": "sender",
          "type": "address"
        }
      ],
      "name": "ERC20InvalidSender",
      "type": "error"
    },
    {
      "inputs": [
        {
          "internalType": "address",
          "name": "spender",
          "type": "address"
        }
      ],
      "name": "ERC20InvalidSpender",
      "type": "error"
    },
    {
      "anonymous": false,
      "inputs": [
        {
          "indexed": true,
          "internalType": "address",
          "name": "owner",
          "type": "address"
        },
        {
          "indexed": true,
          "internalType": "address",
          "name": "spender",
          "type": "address"
        },
        {
          "indexed": false,
          "internalType": "uint256",
          "name": "value",
          "type": "uint256"
        }
      ],
      "name": "Approval",
      "type": "event"
    },
    {
      "anonymous": false,
      "inputs": [
        {
          "indexed": true,
          "internalType": "bytes32",
          "name": "role",
          "type": "bytes32"
        },
        {
          "indexed": true,
          "internalType": "bytes32",
          "name": "previousAdminRole",
          "type": "bytes32"
        },
        {
          "indexed": true,
          "internalType": "bytes32",
          "name": "newAdminRole",
          "type": "bytes32"
        }
      ],
      "name": "RoleAdminChanged",
      "type": "event"
    },
    {
      "anonymous": false,
      "inputs": [
        {
          "indexed": true,
          "internalType": "bytes32",
          "name": "role",
          "type": "bytes32"
        },
        {
          "indexed": true,
          "internalType": "address",
          "name": "account",
          "type": "address"
        },
        {
          "indexed": true,
          "internalType": "address",
          "name": "sender",
          "type": "address"
        }
      ],
      "name": "RoleGranted",
      "type": "event"
    },
    {
      "anonymous": false,
      "inputs": [
        {
          "indexed": true,
          "internalType": "bytes32",
          "name": "role",
          "type": "bytes32"
        },
        {
          "indexed": true,
          "internalType": "address",
          "name": "account",
          "type": "address"
        },
        {
          "indexed": true,
          "internalType": "address",
          "name": "sender",
          "type": "address"
        }
      ],
      "name": "RoleRevoked",
      "type": "event"
    },
    {
      "anonymous": false,
      "inputs": [
        {
          "indexed": true,
          "internalType": "address",
          "name": "from",
          "type": "address"
        },
        {
          "indexed": false,
          "internalType": "uint256",
          "name": "amount",
          "type": "uint256"
        }
      ],
      "name": "TokenBurned",
      "type": "event"
    },
    {
      "anonymous": false,
      "inputs": [
        {
          "indexed": true,
          "internalType": "address",
          "name": "to",
          "type": "address"
        },
        {
          "indexed": false,
          "internalType": "uint256",
          "name": "amount",
          "type": "uint256"
        }
      ],
      "name": "TokenMinted",
      "type": "event"
    },
    {
      "anonymous": false,
      "inputs": [
        {
          "indexed": true,
          "internalType": "address",
          "name": "from",
          "type": "address"
        },
        {
          "indexed": true,
          "internalType": "address",
          "name": "to",
          "type": "address"
        },
        {
          "indexed": false,
          "internalType": "uint256",
          "name": "value",
          "type": "uint256"
        }
      ],
      "name": "Transfer",
      "type": "event"
    },
    {
      "inputs": [],
      "name": "DEFAULT_ADMIN_ROLE",
      "outputs": [
        {
          "internalType": "bytes32",
          "name": "",
          "type": "bytes32"
        }
      ],
      "stateMutability": "view",
      "type": "function"
    },
    {
      "inputs": [],
      "name": "VAULT_ROLE",
      "outputs": [
        {
          "internalType": "bytes32",
          "name": "",
          "type": "bytes32"
        }
      ],
      "stateMutability": "view",
      "type": "function"
    },
    {
      "inputs": [
        {
          "internalType": "address",
          "name": "owner",
          "type": "address"
        },
        {
          "internalType": "address",
          "name": "spender",
          "type": "address"
        }
      ],
      "name": "allowance",
      "outputs": [
        {
          "internalType": "uint256",
          "name": "",
          "type": "uint256"
        }
      ],
      "stateMutability": "view",
      "type": "function"
    },
    {
      "inputs": [
        {
          "internalType": "address",
          "name": "spender",
          "type": "address"
        },
        {
          "internalType": "uint256",
          "name": "value",
          "type": "uint256"
        }
      ],
      "name": "approve",
      "outputs": [
        {
          "internalType": "bool",
          "name": "",
          "type": "bool"
        }
      ],
      "stateMutability": "nonpayable",
      "type": "function"
    },
    {
      "inputs": [],
      "name": "assetId",
      "outputs": [
        {
          "internalType": "uint256",
          "name": "",
          "type": "uint256"
        }
      ],
      "stateMutability": "view",
      "type": "function"
    },
    {
      "inputs": [
        {
          "internalType": "address",
          "name": "account",
          "type": "address"
        }
      ],
      "name": "balanceOf",
      "outputs": [
        {
          "internalType": "uint256",
          "name": "",
          "type": "uint256"
        }
      ],
      "stateMutability": "view",
      "type": "function"
    },
    {
      "inputs": [
        {
          "internalType": "address",
          "name": "from",
          "type": "address"
        },
        {
          "internalType": "uint256",
          "name": "amount",
          "type": "uint256"
        }
      ],
      "name": "burn",
      "outputs": [],
      "stateMutability": "nonpayable",
      "type": "function"
    },
    {
      "inputs": [],
      "name": "decimals",
      "outputs": [
        {
          "internalType": "uint8",
          "name": "",
          "type": "uint8"
        }
      ],
      "stateMutability": "view",
      "type": "function"
    },
    {
      "inputs": [
        {
          "internalType": "bytes32",
          "name": "role",
          "type": "bytes32"
        }
      ],
      "name": "getRoleAdmin",
      "outputs": [
        {
          "internalType": "bytes32",
          "name": "",
          "type": "bytes32"
        }
      ],
      "stateMutability": "view",
      "type": "function"
    },
    {
      "inputs": [
        {
          "internalType": "bytes32",
          "name": "role",
          "type": "bytes32"
        },
        {
          "internalType": "address",
          "name": "account",
          "type": "address"
        }
      ],
      "name": "grantRole",
      "outputs": [],
      "stateMutability": "nonpayable",
      "type": "function"
    },
    {
      "inputs": [
        {
          "internalType": "bytes32",
          "name": "role",
          "type": "bytes32"
        },
        {
          "internalType": "address",
          "name": "account",
          "type": "address"
        }
      ],
      "name": "hasRole",
      "outputs": [
        {
          "internalType": "bool",
          "name": "",
          "type": "bool"
        }
      ],
      "stateMutability": "view",
      "type": "function"
    },
    {
      "inputs": [],
      "name": "maxSupply",
      "outputs": [
        {
          "internalType": "uint256",
          "name": "",
          "type": "uint256"
        }
      ],
      "stateMutability": "view",
      "type": "function"
    },
    {
      "inputs": [
        {
          "internalType": "address",
          "name": "to",
          "type": "address"
        },
        {
          "internalType": "uint256",
          "name": "amount",
          "type": "uint256"
        }
      ],
      "name": "mint",
      "outputs": [],
      "stateMutability": "nonpayable",
      "type": "function"
    },
    {
      "inputs": [],
      "name": "name",
      "outputs": [
        {
          "internalType": "string",
          "name": "",
          "type": "string"
        }
      ],
      "stateMutability": "view",
      "type": "function"
    },
    {
      "inputs": [
        {
          "internalType": "address",
          "name": "investor",
          "type": "address"
        }
      ],
      "name": "ownershipBps",
      "outputs": [
        {
          "internalType": "uint256",
          "name": "",
          "type": "uint256"
        }
      ],
      "stateMutability": "view",
      "type": "function"
    },
    {
      "inputs": [],
      "name": "registry",
      "outputs": [
        {
          "internalType": "address",
          "name": "",
          "type": "address"
        }
      ],
      "stateMutability": "view",
      "type": "function"
    },
    {
      "inputs": [
        {
          "internalType": "bytes32",
          "name": "role",
          "type": "bytes32"
        },
        {
          "internalType": "address",
          "name": "callerConfirmation",
          "type": "address"
        }
      ],
      "name": "renounceRole",
      "outputs": [],
      "stateMutability": "nonpayable",
      "type": "function"
    },
    {
      "inputs": [
        {
          "internalType": "bytes32",
          "name": "role",
          "type": "bytes32"
        },
        {
          "internalType": "address",
          "name": "account",
          "type": "address"
        }
      ],
      "name": "revokeRole",
      "outputs": [],
      "stateMutability": "nonpayable",
      "type": "function"
    },
    {
      "inputs": [
        {
          "internalType": "bytes4",
          "name": "interfaceId",
          "type": "bytes4"
        }
      ],
      "name": "supportsInterface",
      "outputs": [
        {
          "internalType": "bool",
          "name": "",
          "type": "bool"
        }
      ],
      "stateMutability": "view",
      "type": "function"
    },
    {
      "inputs": [],
      "name": "symbol",
      "outputs": [
        {
          "internalType": "string",
          "name": "",
          "type": "string"
        }
      ],
      "stateMutability": "view",
      "type": "function"
    },
    {
      "inputs": [],
      "name": "totalSupply",
      "outputs": [
        {
          "internalType": "uint256",
          "name": "",
          "type": "uint256"
        }
      ],
      "stateMutability": "view",
      "type": "function"
    },
    {
      "inputs": [
        {
          "internalType": "address",
          "name": "to",
          "type": "address"
        },
        {
          "internalType": "uint256",
          "name": "value",
          "type": "uint256"
        }
      ],
      "name": "transfer",
      "outputs": [
        {
          "internalType": "bool",
          "name": "",
          "type": "bool"
        }
      ],
      "stateMutability": "nonpayable",
      "type": "function"
    },
    {
      "inputs": [
        {
          "internalType": "address",
          "name": "from",
          "type": "address"
        },
        {
          "internalType": "address",
          "name": "to",
          "type": "address"
        },
        {
          "internalType": "uint256",
          "name": "value",
          "type": "uint256"
        }
      ],
      "name": "transferFrom",
      "outputs": [
        {
          "internalType": "bool",
          "name": "",
          "type": "bool"
        }
      ],
      "stateMutability": "nonpayable",
      "type": "function"
    },
    {
      "inputs": [],
      "name": "vault",
      "outputs": [
        {
          "internalType": "address",
          "name": "",
          "type": "address"
        }
      ],
      "stateMutability": "view",
      "type": "function"
    }
  ],
  "bytecode": "0x6040610100815234620005115762001b14803803806200001f8162000516565b928339810160e082820312620005115781516020808401516001600160401b0393919290848111620005115782620000599187016200053c565b9186860151908582116200051157620000749187016200053c565b6060860151936200008860808801620005ae565b93620000a560c06200009d60a08b01620005ae565b9901620005ae565b96815181811162000411576003908154906001948583811c9316801562000506575b87841014620004f0578190601f938481116200049a575b508790848311600114620004335760009262000427575b505060001982851b1c191690851b1782555b8551928311620004115760049586548581811c9116801562000406575b87821014620003f157828111620003a6575b50859184116001146200033b579383949184926000956200032f575b50501b92600019911b1c19161782555b8215620002fb578415620002b9576001600160a01b038481161562000283578087161562000250578716156200021e5787620001ba88620001b38989898960805260a0528360c05260e052620005c3565b5062000644565b505161140c9081620006e8823960805181818161067b0152610f75015260a0518181816105fd015281816107410152610f52015260c051818181610140015281816102c2015281816106da01526110c6015260e0518181816101d2015261078b0152f35b875162461bcd60e51b815291820152600d60248201526c125b9d985b1a59081d985d5b1d609a1b604482015260649150fd5b885162461bcd60e51b8152808401839052600d60248201526c24b73b30b634b21030b236b4b760991b6044820152606490fd5b885162461bcd60e51b8152808401839052601060248201526f496e76616c696420726567697374727960801b6044820152606490fd5b875162461bcd60e51b815291820152601660248201527f4d617820737570706c79206d757374206265203e203000000000000000000000604482015260649150fd5b875162461bcd60e51b815291820152600f60248201526e125b9d985b1a5908185cdcd95d1259608a1b604482015260649150fd5b01519350388062000152565b9190601f198416928760005284876000209460005b89898383106200038e575050501062000373575b50505050811b01825562000162565b01519060f884600019921b161c191690553880808062000364565b86860151895590970196948501948893500162000350565b87600052866000208380870160051c820192898810620003e7575b0160051c019086905b828110620003da57505062000136565b60008155018690620003ca565b92508192620003c1565b602288634e487b7160e01b6000525260246000fd5b90607f169062000124565b634e487b7160e01b600052604160045260246000fd5b015190503880620000f5565b90879350601f1983169186600052896000209260005b8b8282106200048357505084116200046a575b505050811b01825562000107565b015160001983871b60f8161c191690553880806200045c565b8385015186558b9790950194938401930162000449565b90915084600052876000208480850160051c8201928a8610620004e6575b918991869594930160051c01915b828110620004d6575050620000de565b60008155859450899101620004c6565b92508192620004b8565b634e487b7160e01b600052602260045260246000fd5b92607f1692620000c7565b600080fd5b6040519190601f01601f191682016001600160401b038111838210176200041157604052565b919080601f84011215620005115782516001600160401b038111620004115760209062000572601f8201601f1916830162000516565b92818452828287010111620005115760005b8181106200059a57508260009394955001015290565b858101830151848201840152820162000584565b51906001600160a01b03821682036200051157565b6001600160a01b031660008181527f05b8ccbb9d4d8fb16ea74ce3c29a41f1b461fbdaff4714a0d9a8eb05499746bc602052604081205490919060ff16620006405781805260056020526040822081835260205260408220600160ff19825416179055339160008051602062001af48339815191528180a4600190565b5090565b6001600160a01b031660008181527f87c2ee2c36dfdcfbf8c67c09d653b243ec5dd6151f83e87090208d36e7af7e3560205260408120549091907f31e0210044b4f6757ce6aa31f9c6e8d4896d24a755014887391a926c5224d9599060ff16620006e25780835260056020526040832082845260205260408320600160ff1982541617905560008051602062001af4833981519152339380a4600190565b50509056fe608060408181526004918236101561001657600080fd5b600092833560e01c91826301ffc9a714610c815750816306fdde0314610b8c578163095ea7b314610ae257816318160ddd14610ac357816319d4872914610a9657816323b872dd1461099f578163248a9ca3146109745781632f2ff15d1461094a578163313ce5671461092e57816336568abe146108e857816340c10f191461069e57816344de240a1461066357816370a082311461062c5781637b103999146105e857816391d14854146105a157816395d89b411461049e57816398c4f1ac146104635781639dc29fac14610285578163a217fddf1461026a578163a9059cbb14610239578163d547741f146101f557508063d5abeb01146101bb578063dd62ed3e146101735763fbfa77cf1461012d57600080fd5b3461016f578160031936011261016f57517f00000000000000000000000000000000000000000000000000000000000000006001600160a01b03168152602090f35b5080fd5b503461016f578060031936011261016f5780602092610190610d1d565b610198610d38565b6001600160a01b0391821683526001865283832091168252845220549051908152f35b503461016f578160031936011261016f57602090517f00000000000000000000000000000000000000000000000000000000000000008152f35b91905034610235578060031936011261023557610231913561022c600161021a610d38565b93838752600560205286200154610dc8565b610e6e565b5080f35b8280fd5b50503461016f578060031936011261016f57602090610263610259610d1d565b6024359033610f31565b5160018152f35b50503461016f578160031936011261016f5751908152602090f35b919050346102355780600319360112610235576102a0610d1d565b906024356102ac610d4e565b815163042eaa1160e31b81526001600160a01b037f000000000000000000000000000000000000000000000000000000000000000081169560209492909190858184818b5afa908115610459579061030c918a9161042c575b50156112ec565b85169485156104165785885287855282882054908482106103e25750908388928784528387520383832055836002540360025581867fddf252ad1be2c89b69c2b068fc378daa952ba7f163c4a11628f55a4df523b3ef878651888152a3863b1561016f5760448691838551998a948593635f68f67760e01b85528401528160248401525af19485156103d8577f1af5163f80e79b5e554f61e1d052084d3a3fe1166e42a265798c4e2ddce8ffa294956103c9575b5051908152a280f35b6103d290610ee5565b386103c0565b81513d88823e3d90fd5b925163391434e360e21b81526001600160a01b03909316918301918252602082015260408101929092529081906060010390fd5b50866024925191634b637e8f60e11b8352820152fd5b61044c9150873d8911610452575b6104448183610f0f565b8101906112d4565b38610305565b503d61043a565b84513d8b823e3d90fd5b50503461016f578160031936011261016f57602090517f31e0210044b4f6757ce6aa31f9c6e8d4896d24a755014887391a926c5224d9598152f35b83833461016f578160031936011261016f57805191809380549160019083821c92828516948515610597575b6020958686108114610584578589529081156105605750600114610508575b61050487876104fa828c0383610f0f565b5191829182610cd4565b0390f35b81529295507f8a35acfbc15ff81a39ae7d344fd709f28e8600b4aa8c65c6b64bfe7fe36bd19b5b82841061054d5750505082610504946104fa928201019486806104e9565b805486850188015292860192810161052f565b60ff19168887015250505050151560051b83010192506104fa8261050486806104e9565b634e487b7160e01b845260228352602484fd5b93607f16936104ca565b9050346102355781600319360112610235578160209360ff926105c2610d38565b90358252600586528282206001600160a01b039091168252855220549151911615158152f35b50503461016f578160031936011261016f57517f00000000000000000000000000000000000000000000000000000000000000006001600160a01b03168152602090f35b50503461016f57602036600319011261016f5760209181906001600160a01b03610654610d1d565b16815280845220549051908152f35b50503461016f578160031936011261016f57602090517f00000000000000000000000000000000000000000000000000000000000000008152f35b919050346102355780600319360112610235576106b9610d1d565b6024356106c4610d4e565b825163042eaa1160e31b81526001600160a01b037f000000000000000000000000000000000000000000000000000000000000000081169590946020949092858184818b5afa9081156104595791610726879289948c916108d15750156112ec565b6024855180948193633af32abf60e01b835216998a878301527f0000000000000000000000000000000000000000000000000000000000000000165afa9081156108c7579061077c9189916108aa575b50611328565b6002546107898482611374565b7f00000000000000000000000000000000000000000000000000000000000000001061087257851561085c57906107c1848993611374565b60025585825281855282822084815401905585827fddf252ad1be2c89b69c2b068fc378daa952ba7f163c4a11628f55a4df523b3ef878651888152a3863b1561016f5760448291828551998a948593635f68f67760e01b85528401528960248401525af19485156103d8577fb9144c96c86541f6fa89c9f2f02495cccf4b08cd6643e26d34ee00aa586558a894956103c9575051908152a280f35b5086602492519163ec442f0560e01b8352820152fd5b5083606492519162461bcd60e51b8352820152601360248201527213585e081cdd5c1c1b1e48195e18d959591959606a1b6044820152fd5b6108c19150863d8811610452576104448183610f0f565b38610776565b83513d8a823e3d90fd5b61044c9150843d8611610452576104448183610f0f565b83833461016f578060031936011261016f57610902610d38565b90336001600160a01b0383160361091f5750610231919235610e6e565b5163334bd91960e11b81528390fd5b50503461016f578160031936011261016f576020905160128152f35b91905034610235578060031936011261023557610231913561096f600161021a610d38565b610dee565b9050346102355760203660031901126102355781602093600192358152600585522001549051908152f35b90508234610a93576060366003190112610a93576109bb610d1d565b6109c3610d38565b916044359360018060a01b0383168083526001602052868320338452602052868320549160001983106109ff575b602088610263898989610f31565b868310610a67578115610a50573315610a3957508252600160209081528683203384528152918690209085900390558290610263876109f1565b8751634a1406b160e11b8152908101849052602490fd5b875163e602df0560e01b8152908101849052602490fd5b8751637dc7a0d960e11b8152339181019182526020820193909352604081018790528291506060010390fd5b80fd5b50503461016f57602036600319011261016f57602090610abc610ab7610d1d565b611397565b9051908152f35b50503461016f578160031936011261016f576020906002549051908152f35b905034610235578160031936011261023557610afc610d1d565b602435903315610b75576001600160a01b0316918215610b5e57508083602095338152600187528181208582528752205582519081527f8c5be1e5ebec7d5bd14f71427d1e84f3dd0314c0f7b2291e5b200ac8c7c3b925843392a35160018152f35b8351634a1406b160e11b8152908101859052602490fd5b835163e602df0560e01b8152808401869052602490fd5b91905034610235578260031936011261023557805191836003549060019082821c928281168015610c77575b6020958686108214610c645750848852908115610c425750600114610be9575b61050486866104fa828b0383610f0f565b929550600383527fc2575a0e9e593c00f959f8c92f12db2869c3395a3b0502d05e2516446f71f85b5b828410610c2f5750505082610504946104fa928201019438610bd8565b8054868501880152928601928101610c12565b60ff191687860152505050151560051b83010192506104fa8261050438610bd8565b634e487b7160e01b845260229052602483fd5b93607f1693610bb8565b849134610235576020366003190112610235573563ffffffff60e01b81168091036102355760209250637965db0b60e01b8114908115610cc3575b5015158152f35b6301ffc9a760e01b14905083610cbc565b6020808252825181830181905290939260005b828110610d0957505060409293506000838284010152601f8019910116010190565b818101860151848201604001528501610ce7565b600435906001600160a01b0382168203610d3357565b600080fd5b602435906001600160a01b0382168203610d3357565b3360009081527f87c2ee2c36dfdcfbf8c67c09d653b243ec5dd6151f83e87090208d36e7af7e3560205260409020547f31e0210044b4f6757ce6aa31f9c6e8d4896d24a755014887391a926c5224d9599060ff1615610daa5750565b6044906040519063e2517d3f60e01b82523360048301526024820152fd5b80600052600560205260406000203360005260205260ff6040600020541615610daa5750565b906000918083526005602052604083209160018060a01b03169182845260205260ff60408420541615600014610e695780835260056020526040832082845260205260408320600160ff198254161790557f2f8788117e7eff1d82e926ec794901d17c78024a50270940304540a733656f0d339380a4600190565b505090565b906000918083526005602052604083209160018060a01b03169182845260205260ff604084205416600014610e69578083526005602052604083208284526020526040832060ff1981541690557ff6391f5c32d9c69d2a47ea670b442974b53935d1edc7fd64eb21e047a839171b339380a4600190565b67ffffffffffffffff8111610ef957604052565b634e487b7160e01b600052604160045260246000fd5b90601f8019910116810190811067ffffffffffffffff821117610ef957604052565b91906001600160a01b03908184169081156112bb5782169182156112a257807f000000000000000000000000000000000000000000000000000000000000000016907f0000000000000000000000000000000000000000000000000000000000000000604095865197631174806160e11b895260049483868b015260209360249a85818d81865afa9081156111ec57600091611285575b501561125057895190631f50b2cb60e01b82528782015284818c81855afa90811561124557600091611228575b506111f7578851633af32abf60e01b8082528782018990529085818d81865afa9081156111ec576000916111cf575b50156111945784908b8b518094819382528c8b8301525afa9081156111895790611055916000916111725750611328565b856000526000835287600020549082821061113e575086928287937fddf252ad1be2c89b69c2b068fc378daa952ba7f163c4a11628f55a4df523b3ef938560005260008452038a6000205584600052896000208181540190558951908152a38383036110c4575b505050505050565b7f00000000000000000000000000000000000000000000000000000000000000001690813b15610d33576000604492819587519889968795635f68f67760e01b87528601528401525af19081156111345750611125575b80808080806110bc565b61112e90610ee5565b3861111b565b513d6000823e3d90fd5b885163391434e360e21b81526001600160a01b03909116818701908152602081018390526040810184905281906060010390fd5b6108c19150853d8711610452576104448183610f0f565b89513d6000823e3d90fd5b895162461bcd60e51b81528088018690526016818d01527514d95b99195c881b9bdd081dda1a5d195b1a5cdd195960521b6044820152606490fd5b6111e69150863d8811610452576104448183610f0f565b38611024565b8b513d6000823e3d90fd5b885162461bcd60e51b8152808701859052600c818c01526b105cdcd95d081c185d5cd95960a21b6044820152606490fd5b61123f9150853d8711610452576104448183610f0f565b38610ff5565b8a513d6000823e3d90fd5b895162461bcd60e51b81528088018690526010818d01526f4173736574206e6f742061637469766560801b6044820152606490fd5b61129c9150863d8811610452576104448183610f0f565b38610fc8565b60405163ec442f0560e01b815260006004820152602490fd5b604051634b637e8f60e11b815260006004820152602490fd5b90816020910312610d3357518015158103610d335790565b156112f357565b60405162461bcd60e51b815260206004820152600d60248201526c14dd5c1c1b1e481b1bd8dad959609a1b6044820152606490fd5b1561132f57565b60405162461bcd60e51b815260206004820152601960248201527f526563697069656e74206e6f742077686974656c6973746564000000000000006044820152606490fd5b9190820180921161138157565b634e487b7160e01b600052601160045260246000fd5b6002549081156113cf5760018060a01b0316600052600060205260406000205461271090818102918183041490151715611381570490565b505060009056fea26469706673582212203db0db3a64d45ecfbd7dd0635731605b750982e08bc1ad0c6fbb812d1557c21a64736f6c634300081400332f8788117e7eff1d82e926ec794901d17c78024a50270940304540a733656f0d",
  "linkReferences": {},
  "deployedLinkReferences": {}
}