{
  "_format": "hh-sol-artifact-1",
  "contractName": "RWARevenueVault",
  "sourceName": "contracts/RWARevenueVault.sol",
  "abi": [
    {
      "inputs": [],
      "stateMutability": "nonpayable",
      "type": "constructor"
    },
    {
      "inputs": [],
      "name": "AccessControlBadConfirmation",
      "type": "error"
    },
    {
      "inputs": [
        {
          "internalType": "address",
          "name": "account",
          "type": "address"
        },
        {
          "internalType": "bytes32",
          "name": "neededRole",
          "type": "bytes32"
        }
      ],
      "name": "AccessControlUnauthorizedAccount",
      "type": "error"
    },
    {
      "inputs": [],
      "name": "ReentrancyGuardReentrantCall",
      "type": "error"
    },
    {
      "anonymous": false,
      "inputs": [
        {
          "indexed": false,
          "internalType": "uint256",
          "name": "amount",
          "type": "uint256"
        },
        {
          "indexed": false,
          "internalType": "string",
          "name": "strategyId",
          "type": "string"
        }
      ],
      "name": "CapitalDeployed",
      "type": "event"
    },
    {
      "anonymous": false,
      "inputs": [
        {
          "indexed": false,
          "internalType": "uint256",
          "name": "totalAmount",
          "type": "uint256"
        }
      ],
      "name": "DistributionCommitted",
      "type": "event"
    },
    {
      "anonymous": false,
      "inputs": [
        {
          "indexed": false,
          "internalType": "uint256",
          "name": "amount",
          "type": "uint256"
        }
      ],
      "name": "FeeCollected",
      "type": "event"
    },
    {
      "anonymous": false,
      "inputs": [
        {
          "indexed": false,
          "internalType": "uint256",
          "name": "amount",
          "type": "uint256"
        },
        {
          "indexed": false,
          "internalType": "uint256",
          "name": "timestamp",
          "type": "uint256"
        }
      ],
      "name": "RevenueReceived",
      "type": "event"
    },
    {
      "anonymous": false,
      "inputs": [
        {
          "indexed": true,
          "internalType": "bytes32",
          "name": "role",
          "type": "bytes32"
        },
        {
          "indexed": true,
          "internalType": "bytes32",
          "name": "previousAdminRole",
          "type": "bytes32"
        },
        {
          "indexed": true,
          "internalType": "bytes32",
          "name": "newAdminRole",
          "type": "bytes32"
        }
      ],
      "name": "RoleAdminChanged",
      "type": "event"
    },
    {
      "anonymous": false,
      "inputs": [
        {
          "indexed": true,
          "internalType": "bytes32",
          "name": "role",
          "type": "bytes32"
        },
        {
          "indexed": true,
          "internalType": "address",
          "name": "account",
          "type": "address"
        },
        {
          "indexed": true,
          "internalType": "address",
          "name": "sender",
          "type": "address"
        }
      ],
      "name": "RoleGranted",
      "type": "event"
    },
    {
      "anonymous": false,
      "inputs": [
        {
          "indexed": true,
          "internalType": "bytes32",
          "name": "role",
          "type": "bytes32"
        },
        {
          "indexed": true,
          "internalType": "address",
          "name": "account",
          "type": "address"
        },
        {
          "indexed": true,
          "internalType": "address",
          "name": "sender",
          "type": "address"
        }
      ],
      "name": "RoleRevoked",
      "type": "event"
    },
    {
      "anonymous": false,
      "inputs": [
        {
          "indexed": true,
          "internalType": "address",
          "name": "investor",
          "type": "address"
        },
        {
          "indexed": false,
          "internalType": "uint256",
          "name": "amount",
          "type": "uint256"
        },
        {
          "indexed": false,
          "internalType": "uint256",
          "name": "timestamp",
          "type": "uint256"
        }
      ],
      "name": "YieldClaimed",
      "type": "event"
    },
    {
      "inputs": [],
      "name": "DEFAULT_ADMIN_ROLE",
      "outputs": [
        {
          "internalType": "bytes32",
          "name": "",
          "type": "bytes32"
        }
      ],
      "stateMutability": "view",
      "type": "function"
    },
    {
      "inputs": [],
      "name": "PAYMENT_ROLE",
      "outputs": [
        {
          "internalType": "bytes32",
          "name": "",
          "type": "bytes32"
        }
      ],
      "stateMutability": "view",
      "type": "function"
    },
    {
      "inputs": [],
      "name": "STRATEGY_ROLE",
      "outputs": [
        {
          "internalType": "bytes32",
          "name": "",
          "type": "bytes32"
        }
      ],
      "stateMutability": "view",
      "type": "function"
    },
    {
      "inputs": [],
      "name": "accumulatedFees",
      "outputs": [
        {
          "internalType": "uint256",
          "name": "",
          "type": "uint256"
        }
      ],
      "stateMutability": "view",
      "type": "function"
    },
    {
      "inputs": [],
      "name": "assetId",
      "outputs": [
        {
          "internalType": "uint256",
          "name": "",
          "type": "uint256"
        }
      ],
      "stateMutability": "view",
      "type": "function"
    },
    {
      "inputs": [],
      "name": "claimYield",
      "outputs": [],
      "stateMutability": "nonpayable",
      "type": "function"
    },
    {
      "inputs": [
        {
          "internalType": "uint256",
          "name": "monthlyExpectedPayment",
          "type": "uint256"
        }
      ],
      "name": "commitToDistribution",
      "outputs": [],
      "stateMutability": "nonpayable",
      "type": "function"
    },
    {
      "inputs": [],
      "name": "cumulativeRewardPerToken",
      "outputs": [
        {
          "internalType": "uint256",
          "name": "",
          "type": "uint256"
        }
      ],
      "stateMutability": "view",
      "type": "function"
    },
    {
      "inputs": [
        {
          "internalType": "string",
          "name": "strategyId",
          "type": "string"
        },
        {
          "internalType": "uint256",
          "name": "amount",
          "type": "uint256"
        }
      ],
      "name": "deployCapital",
      "outputs": [],
      "stateMutability": "nonpayable",
      "type": "function"
    },
    {
      "inputs": [
        {
          "internalType": "address",
          "name": "_from",
          "type": "address"
        },
        {
          "internalType": "uint256",
          "name": "amount",
          "type": "uint256"
        }
      ],
      "name": "depositRevenue",
      "outputs": [],
      "stateMutability": "nonpayable",
      "type": "function"
    },
    {
      "inputs": [],
      "name": "distributionStarted",
      "outputs": [
        {
          "internalType": "bool",
          "name": "",
          "type": "bool"
        }
      ],
      "stateMutability": "view",
      "type": "function"
    },
    {
      "inputs": [],
      "name": "feeRecipient",
      "outputs": [
        {
          "internalType": "address",
          "name": "",
          "type": "address"
        }
      ],
      "stateMutability": "view",
      "type": "function"
    },
    {
      "inputs": [],
      "name": "getAvailableForDeployment",
      "outputs": [
        {
          "internalType": "uint256",
          "name": "",
          "type": "uint256"
        }
      ],
      "stateMutability": "view",
      "type": "function"
    },
    {
      "inputs": [],
      "name": "getAvailableForInvestors",
      "outputs": [
        {
          "internalType": "uint256",
          "name": "",
          "type": "uint256"
        }
      ],
      "stateMutability": "view",
      "type": "function"
    },
    {
      "inputs": [],
      "name": "getBalance",
      "outputs": [
        {
          "internalType": "uint256",
          "name": "",
          "type": "uint256"
        }
      ],
      "stateMutability": "view",
      "type": "function"
    },
    {
      "inputs": [
        {
          "internalType": "bytes32",
          "name": "role",
          "type": "bytes32"
        }
      ],
      "name": "getRoleAdmin",
      "outputs": [
        {
          "internalType": "bytes32",
          "name": "",
          "type": "bytes32"
        }
      ],
      "stateMutability": "view",
      "type": "function"
    },
    {
      "inputs": [
        {
          "internalType": "bytes32",
          "name": "role",
          "type": "bytes32"
        },
        {
          "internalType": "address",
          "name": "account",
          "type": "address"
        }
      ],
      "name": "grantRole",
      "outputs": [],
      "stateMutability": "nonpayable",
      "type": "function"
    },
    {
      "inputs": [
        {
          "internalType": "bytes32",
          "name": "role",
          "type": "bytes32"
        },
        {
          "internalType": "address",
          "name": "account",
          "type": "address"
        }
      ],
      "name": "hasRole",
      "outputs": [
        {
          "internalType": "bool",
          "name": "",
          "type": "bool"
        }
      ],
      "stateMutability": "view",
      "type": "function"
    },
    {
      "inputs": [
        {
          "internalType": "address",
          "name": "_admin",
          "type": "address"
        },
        {
          "internalType": "address",
          "name": "_agent",
          "type": "address"
        },
        {
          "internalType": "address",
          "name": "_logic",
          "type": "address"
        },
        {
          "internalType": "address",
          "name": "_paymentToken",
          "type": "address"
        },
        {
          "internalType": "address",
          "name": "_registry",
          "type": "address"
        },
        {
          "internalType": "uint256",
          "name": "_assetId",
          "type": "uint256"
        },
        {
          "internalType": "address",
          "name": "_feeRecipient",
          "type": "address"
        }
      ],
      "name": "initialize",
      "outputs": [],
      "stateMutability": "nonpayable",
      "type": "function"
    },
    {
      "inputs": [
        {
          "internalType": "address",
          "name": "",
          "type": "address"
        }
      ],
      "name": "lastClaimedAt",
      "outputs": [
        {
          "internalType": "uint256",
          "name": "",
          "type": "uint256"
        }
      ],
      "stateMutability": "view",
      "type": "function"
    },
    {
      "inputs": [],
      "name": "logicContract",
      "outputs": [
        {
          "internalType": "contract ICashFlowLogic",
          "name": "",
          "type": "address"
        }
      ],
      "stateMutability": "view",
      "type": "function"
    },
    {
      "inputs": [
        {
          "internalType": "address",
          "name": "to",
          "type": "address"
        },
        {
          "internalType": "uint256",
          "name": "amount",
          "type": "uint256"
        }
      ],
      "name": "mintShares",
      "outputs": [],
      "stateMutability": "nonpayable",
      "type": "function"
    },
    {
      "inputs": [
        {
          "internalType": "address",
          "name": "from",
          "type": "address"
        },
        {
          "internalType": "address",
          "name": "to",
          "type": "address"
        }
      ],
      "name": "onTokenTransfer",
      "outputs": [],
      "stateMutability": "nonpayable",
      "type": "function"
    },
    {
      "inputs": [],
      "name": "paymentToken",
      "outputs": [
        {
          "internalType": "contract IERC20",
          "name": "",
          "type": "address"
        }
      ],
      "stateMutability": "view",
      "type": "function"
    },
    {
      "inputs": [
        {
          "internalType": "address",
          "name": "",
          "type": "address"
        }
      ],
      "name": "pendingRewards",
      "outputs": [
        {
          "internalType": "uint256",
          "name": "",
          "type": "uint256"
        }
      ],
      "stateMutability": "view",
      "type": "function"
    },
    {
      "inputs": [],
      "name": "protocolFeeBps",
      "outputs": [
        {
          "internalType": "uint256",
          "name": "",
          "type": "uint256"
        }
      ],
      "stateMutability": "view",
      "type": "function"
    },
    {
      "inputs": [],
      "name": "registry",
      "outputs": [
        {
          "internalType": "contract IRWAAssetRegistryView",
          "name": "",
          "type": "address"
        }
      ],
      "stateMutability": "view",
      "type": "function"
    },
    {
      "inputs": [
        {
          "internalType": "bytes32",
          "name": "role",
          "type": "bytes32"
        },
        {
          "internalType": "address",
          "name": "callerConfirmation",
          "type": "address"
        }
      ],
      "name": "renounceRole",
      "outputs": [],
      "stateMutability": "nonpayable",
      "type": "function"
    },
    {
      "inputs": [
        {
          "internalType": "bytes32",
          "name": "role",
          "type": "bytes32"
        },
        {
          "internalType": "address",
          "name": "account",
          "type": "address"
        }
      ],
      "name": "revokeRole",
      "outputs": [],
      "stateMutability": "nonpayable",
      "type": "function"
    },
    {
      "inputs": [
        {
          "internalType": "address",
          "name": "",
          "type": "address"
        }
      ],
      "name": "rewardDebt",
      "outputs": [
        {
          "internalType": "uint256",
          "name": "",
          "type": "uint256"
        }
      ],
      "stateMutability": "view",
      "type": "function"
    },
    {
      "inputs": [
        {
          "internalType": "address",
          "name": "_token",
          "type": "address"
        }
      ],
      "name": "setTokenContracts",
      "outputs": [],
      "stateMutability": "nonpayable",
      "type": "function"
    },
    {
      "inputs": [
        {
          "internalType": "bytes4",
          "name": "interfaceId",
          "type": "bytes4"
        }
      ],
      "name": "supportsInterface",
      "outputs": [
        {
          "internalType": "bool",
          "name": "",
          "type": "bool"
        }
      ],
      "stateMutability": "view",
      "type": "function"
    },
    {
      "inputs": [],
      "name": "token",
      "outputs": [
        {
          "internalType": "contract InvestorShareToken",
          "name": "",
          "type": "address"
        }
      ],
      "stateMutability": "view",
      "type": "function"
    },
    {
      "inputs": [],
      "name": "totalDistributable",
      "outputs": [
        {
          "internalType": "uint256",
          "name": "",
          "type": "uint256"
        }
      ],
      "stateMutability": "view",
      "type": "function"
    },
    {
      "inputs": [],
      "name": "totalIdle",
      "outputs": [
        {
          "internalType": "uint256",
          "name": "",
          "type": "uint256"
        }
      ],
      "stateMutability": "view",
      "type": "function"
    },
    {
      "inputs": [],
      "name": "withdrawFees",
      "outputs": [],
      "stateMutability": "nonpayable",
      "type": "function"
    },
    {
      "inputs": [
        {
          "internalType": "address",
          "name": "",
          "type": "address"
        }
      ],
      "name": "withdrawn",
      "outputs": [
        {
          "internalType": "uint256",
          "name": "",
          "type": "uint256"
        }
      ],
      "stateMutability": "view",
      "type": "function"
    }
  ],
  "bytecode": "0x60806040523461003557600180556000600a5560fa600f5560006010556100253361003a565b50604051611c7a90816100cb8239f35b600080fd5b6001600160a01b031660008181527fad3228b676f7d3cd4284a5443f17f1962b36e491b30a40b2405849e597ba5fb5602052604081205490919060ff166100c657818052816020526040822081835260205260408220600160ff1982541617905533917f2f8788117e7eff1d82e926ec794901d17c78024a50270940304540a733656f0d8180a4600190565b509056fe608060408181526004918236101561001657600080fd5b600092833560e01c91826301ffc9a7146115d457508163022b557b146114425781630df4dc6f146109c757816312065fe0146113aa5781632175508814611383578163248a9ca31461135957816326a40c99146113215781632f2ff15d146112f75781633013ce29146112ce57816331d7a2621461129657816335659fb81461127757816336568abe14611231578163406cf22914610f1a57816344de240a14610efb5781634690484014610ed2578163476343ee14610dc757838263528c198a14610d1957508163580b7c2e14610cde5781635873eb9b14610ca6578163587f5ed714610c875781635f68f67714610a97578163651d95e514610a1e5781636ef61092146109e657816372cec034146109c75781637b1039991461099e578163855bde3e1461086557816391d14854146108205781639aa7df9414610227578163a217fddf14610805578163cc0e97c9146107dc578163d547741f146107a1578163e1391782146104d4578163eabcca1014610265578163f5fc507614610246578163f752494214610227578163fc0c546a146101fb575063fc3b624e146101be57600080fd5b346101f757816003193601126101f757602090517fe2f2c6ec490c385a19982d62c2eab738afebfd5de935a92469733daed358fe588152f35b5080fd5b9050346102235782600319360112610223575490516001600160a01b03909116815260209150f35b8280fd5b5050346101f757816003193601126101f7576020906008549051908152f35b5050346101f757816003193601126101f757602090600a549051908152f35b9050346102235760e036600319011261022357610280611627565b9061028961163d565b926001600160a01b03604480358281169392908490036104cf5760648035958287168097036104cf57608435938385168095036104cf5760c435958487168097036104cf576007549460ff861661049957808b1615610469578b161561043a57871561040b5788156103d45785156103a257861561036c578b6103688c6103588d8d8d8d8d60018e60ff1916176007556bffffffffffffffffffffffff60a01b9283600354161760035582600554161760055560a435600655816011541617601155600254161760025561172d565b50610362816117ab565b5061184b565b5080f35b90602073125b9d985b1a5908199959549958da5c1a595b9d60621b92519362461bcd60e51b855284015260146024840152820152fd5b9060206f496e76616c696420726567697374727960801b92519362461bcd60e51b855284015260106024840152820152fd5b9060207424b73b30b634b2103830bcb6b2b73a103a37b5b2b760591b92519362461bcd60e51b855284015260156024840152820152fd5b9060206c496e76616c6964206c6f67696360981b92519362461bcd60e51b8552840152600d6024840152820152fd5b9060206c125b9d985b1a59081859d95b9d609a1b92519362461bcd60e51b8552840152600d6024840152820152fd5b509060206c24b73b30b634b21030b236b4b760991b92519362461bcd60e51b8552840152600d6024840152820152fd5b5090602072105b1c9958591e481a5b9a5d1a585b1a5e9959606a1b92519362461bcd60e51b855284015260136024840152820152fd5b600080fd5b8383346101f7576020908160031936011261022357839081356104f56116ab565b6104fd611a73565b600354825163137d6df160e11b8152936001600160a01b0392916060918691829086165afa93841561079757869461075e575b506008549361054182861015611a96565b810361071b578160055416856006546024865180948193631174806160e11b83528d8301525afa9081156107115786926105888a95936105b6938b916106e4575b50611ae2565b6105b061271061059a600f5484611b21565b046105a781601054611a50565b60105582611b34565b96611b34565b6008556105c585600954611a50565b6009558254168351978880926318160ddd60e01b82525afa9586156106da5785966106ab575b5085159081156105fe575b856001805580f35b60075460ff8160081c1615610699575b50670de0b6b3a7640000918285029285840414851517156106865761067157507f69074786425c52f0a5747ada3a45a8aeff05c00e5fcd4b1c87a2a70f432218c1949561065e9104600a54611a50565b600a5551908152a18082808080806105f6565b601290634e487b7160e01b6000525260246000fd5b634e487b7160e01b875260118252602487fd5b61ff001916610100176007558761060e565b9095508381813d83116106d3575b6106c381836119c2565b810103126104cf575194866105eb565b503d6106b9565b82513d87823e3d90fd5b6107049150863d881161070a575b6106fc81836119c2565b8101906119fa565b8c610582565b503d6106f2565b84513d89823e3d90fd5b825162461bcd60e51b8152808801869052601960248201527f4578706563746564207061796d656e74206d69736d61746368000000000000006044820152606490fd5b9093506060813d821161078f575b81610779606093836119c2565b8101031261078b578401519287610530565b8580fd5b3d915061076c565b83513d88823e3d90fd5b9190503461022357806003193601126102235761036891356107d760016107c661163d565b938387528660205286200154611707565b61194d565b5050346101f757816003193601126101f75760035490516001600160a01b039091168152602090f35b5050346101f757816003193601126101f75751908152602090f35b9050346102235781600319360112610223578160209361083e61163d565b92358152808552209060018060a01b0316600052825260ff81600020541690519015158152f35b91905034610223578060031936011261022357610880611627565b6024359061088c6116ab565b610894611a73565b811561095b5760025483516323b872dd60e01b81526001600160a01b039283169581019590955230602486015260448501839052602091859160649183918991165af1928315610951577ff213ae9678e29ddf71cfd6bb58204207ac2f5a37f62a198ca6bc86737f01586893610911918691610933575b50611a12565b61091d81600854611a50565b6008558151908152426020820152a16001805580f35b61094b915060203d811161070a576106fc81836119c2565b3861090b565b82513d86823e3d90fd5b825162461bcd60e51b8152602081860152601760248201527f416d6f756e74206d75737420626520706f7369746976650000000000000000006044820152606490fd5b5050346101f757816003193601126101f75760055490516001600160a01b039091168152602090f35b5050346101f757816003193601126101f7576020906009549051908152f35b5050346101f75760203660031901126101f75760209181906001600160a01b03610a0e611627565b168152600e845220549051908152f35b9190503461022357602036600319011261022357610a3a611627565b610a42611653565b6001600160a01b0316908115610a65575081546001600160a01b03191617905580f35b5162461bcd60e51b8152602081840152600d60248201526c24b73b30b634b2103a37b5b2b760991b6044820152606490fd5b91905034610223578060031936011261022357610ab2611627565b91610abb61163d565b610ac3611a73565b81546001600160a01b03919082163303610c57578185168015159586610c48575b5081831695861515928380610c3e575b610c2f575b50610b9b575b50610b0d575b846001805580f35b815483516370a0823160e01b815292830185905260209183916024918391165afa908115610951578491610b68575b50610b53670de0b6b3a764000091600a5490611b21565b04918352600b60205282205538808080610b05565b90506020813d8211610b93575b81610b82602093836119c2565b810103126104cf5751610b53610b3c565b3d9150610b75565b60246020848654168751928380926370a0823160e01b8252868a8301525afa908115610c25578891610bf2575b50610bdf670de0b6b3a764000091600a5490611b21565b04908752600b6020528487205538610aff565b90506020813d8211610c1d575b81610c0c602093836119c2565b810103126104cf5751610bdf610bc8565b3d9150610bff565b86513d8a823e3d90fd5b610c3890611b41565b38610af9565b5082881415610af4565b610c5190611b41565b38610ae4565b835162461bcd60e51b8152602081850152600a60248201526927b7363c903a37b5b2b760b11b6044820152606490fd5b5050346101f757816003193601126101f7576020906010549051908152f35b5050346101f75760203660031901126101f75760209181906001600160a01b03610cce611627565b168152600b845220549051908152f35b5050346101f757816003193601126101f757602090517f1893e1a169e79f2fe8aa327b1bceb2fede7a1b76a54824f95ea0e737720954ae8152f35b92915034610dc35781600319360112610dc357610d34611627565b610d3c611653565b81546001600160a01b031690813b15610dbf5783516340c10f1960e01b81526001600160a01b039091168382019081526024356020820152909491859182908490829060400103925af1801561095157610d94578380f35b67ffffffffffffffff8311610dac5750523880808380f35b634e487b7160e01b845260419052602483fd5b8480fd5b5050fd5b905034610223578260031936011261022357610de1611a73565b610de9611653565b601054908115610ea5576010849055600254601154845163a9059cbb60e01b81526001600160a01b039182169381019384526020848101869052909390928492169082908890829060400103925af1908115610e985792610e75602093927fc472cb3a7a659a876494d66b3063145f279701771d6150b9329c31611ed6405c958791610e815750611a12565b51908152a16001805580f35b61094b9150853d811161070a576106fc81836119c2565b50505051903d90823e3d90fd5b606490602084519162461bcd60e51b835282015260076024820152664e6f206665657360c81b6044820152fd5b5050346101f757816003193601126101f75760115490516001600160a01b039091168152602090f35b5050346101f757816003193601126101f7576020906006549051908152f35b8383346101f757816003193601126101f757610f34611a73565b6005546006548251631174806160e11b815285810191909152602492916020916001600160a01b039182169083818781855afa9081156112275791610f82859288948a9161120a5750611ae2565b8551633af32abf60e01b8152338a82015292839182905afa9081156111af5786916111ed575b50156111b957610fb733611b41565b8382828854168551928380926370a0823160e01b8252338c8301525afa9081156111af578691611180575b50610ff9670de0b6b3a764000091600a5490611b21565b04338652600b835283862055600c82528285205493841561114a57600954851161110957508361109a95968392338952600c8452888681205561103e83600954611b34565b600955338952600e8452858920611056848254611a50565b9055338952600d845242868a2055600254169088865180998195829463a9059cbb60e01b84523390840160209093929193604081019460018060a01b031681520152565b03925af19384156106da577f10d8dedfc0745b8c25ba10b06e304138b251c18dcaadf2d71c7f3214719dc4d193946110d89187916110ec5750611a12565b815193845242908401523392a26001805580f35b6111039150833d851161070a576106fc81836119c2565b8761090b565b86601a6064928587519362461bcd60e51b85528401528201527f496e73756666696369656e742064697374726962757461626c650000000000006044820152fd5b8660126064928587519362461bcd60e51b8552840152820152714e6f2070656e64696e67207265776172647360701b6044820152fd5b90508281813d83116111a8575b61119781836119c2565b8101031261078b5751610ff9610fe2565b503d61118d565b84513d88823e3d90fd5b825162461bcd60e51b8152808701839052600f818601526e139bdd081dda1a5d195b1a5cdd1959608a1b6044820152606490fd5b6112049150833d851161070a576106fc81836119c2565b87610fa8565b6112219150843d861161070a576106fc81836119c2565b8b610582565b85513d89823e3d90fd5b8383346101f757806003193601126101f75761124b61163d565b90336001600160a01b03831603611268575061036891923561194d565b5163334bd91960e11b81528390fd5b5050346101f757816003193601126101f757602090600f549051908152f35b5050346101f75760203660031901126101f75760209181906001600160a01b036112be611627565b168152600c845220549051908152f35b5050346101f757816003193601126101f75760025490516001600160a01b039091168152602090f35b91905034610223578060031936011261022357610368913561131c60016107c661163d565b6118e6565b5050346101f75760203660031901126101f75760209181906001600160a01b03611349611627565b168152600d845220549051908152f35b90503461022357602036600319011261022357816020936001923581528085522001549051908152f35b5050346101f757816003193601126101f75760209060ff60075460081c1690519015158152f35b9190503461022357826003193601126102235760025481516370a0823160e01b81523093810193909352602090839060249082906001600160a01b03165afa918215611438578392611401575b6020838351908152f35b9091506020813d8211611430575b8161141c602093836119c2565b8101031261022357602092505190386113f7565b3d915061140f565b81513d85823e3d90fd5b90503461022357816003193601126102235767ffffffffffffffff8135818111610dbf5736602382011215610dbf5780830135918211610dbf573660248383010111610dbf57602435937f1893e1a169e79f2fe8aa327b1bceb2fede7a1b76a54824f95ea0e737720954ae93848752602094878652828820338952865260ff8389205416156115b957506114d4611a73565b600854906114e482881115611a96565b6005546006548451631174806160e11b8152928301528690829060249082906001600160a01b03165afa908882156115ae5795809461155f8a839661155a6024977fec2715248f93daa810498c051f7f418783deff1e5184eba4ccf20d57789fdbb79e9b978e60609e92611591575b5050611ae2565b611b34565b600855808051998a98895288015286015201848401378181018301869052601f01601f19168101030190a16001805580f35b6115a79250803d1061070a576106fc81836119c2565b388e611553565b8451903d90823e3d90fd5b604492519163e2517d3f60e01b835233908301526024820152fd5b849134610223576020366003190112610223573563ffffffff60e01b81168091036102235760209250637965db0b60e01b8114908115611616575b5015158152f35b6301ffc9a760e01b1490508361160f565b600435906001600160a01b03821682036104cf57565b602435906001600160a01b03821682036104cf57565b3360009081527fad3228b676f7d3cd4284a5443f17f1962b36e491b30a40b2405849e597ba5fb5602052604081205460ff161561168d5750565b6044906040519063e2517d3f60e01b82523360048301526024820152fd5b3360009081527f1f0c3aa234c717819ca003165ea9e795021a753e97c75b32bb79cc90cbbf5cfa60205260409020547fe2f2c6ec490c385a19982d62c2eab738afebfd5de935a92469733daed358fe589060ff161561168d5750565b80600052600060205260406000203360005260205260ff604060002054161561168d5750565b6001600160a01b031660008181527fad3228b676f7d3cd4284a5443f17f1962b36e491b30a40b2405849e597ba5fb5602052604081205490919060ff166117a757818052816020526040822081835260205260408220600160ff198254161790553391600080516020611c258339815191528180a4600190565b5090565b6001600160a01b031660008181527f1f0c3aa234c717819ca003165ea9e795021a753e97c75b32bb79cc90cbbf5cfa60205260408120549091907fe2f2c6ec490c385a19982d62c2eab738afebfd5de935a92469733daed358fe589060ff1661184657808352826020526040832082845260205260408320600160ff19825416179055600080516020611c25833981519152339380a4600190565b505090565b6001600160a01b031660008181527ff7a24d9db6a7a77b0ca72c680cb6234311400aad48c64d3d9b11dafd3cc5e8a860205260408120549091907f1893e1a169e79f2fe8aa327b1bceb2fede7a1b76a54824f95ea0e737720954ae9060ff1661184657808352826020526040832082845260205260408320600160ff19825416179055600080516020611c25833981519152339380a4600190565b9060009180835282602052604083209160018060a01b03169182845260205260ff6040842054161560001461184657808352826020526040832082845260205260408320600160ff19825416179055600080516020611c25833981519152339380a4600190565b9060009180835282602052604083209160018060a01b03169182845260205260ff6040842054166000146118465780835282602052604083208284526020526040832060ff1981541690557ff6391f5c32d9c69d2a47ea670b442974b53935d1edc7fd64eb21e047a839171b339380a4600190565b90601f8019910116810190811067ffffffffffffffff8211176119e457604052565b634e487b7160e01b600052604160045260246000fd5b908160209103126104cf575180151581036104cf5790565b15611a1957565b60405162461bcd60e51b815260206004820152600f60248201526e151c985b9cd9995c8819985a5b1959608a1b6044820152606490fd5b91908201809211611a5d57565b634e487b7160e01b600052601160045260246000fd5b600260015414611a84576002600155565b604051633ee5aeb560e01b8152600490fd5b15611a9d57565b60405162461bcd60e51b815260206004820152601760248201527f496e73756666696369656e742069646c652066756e64730000000000000000006044820152606490fd5b15611ae957565b60405162461bcd60e51b815260206004820152601060248201526f4173736574206e6f742061637469766560801b6044820152606490fd5b81810292918115918404141715611a5d57565b91908203918211611a5d57565b600480546040516370a0823160e01b81526001600160a01b03938416928101839052919260209291839183916024918391165afa908115611c1857600091611be6575b50611b9b670de0b6b3a764000091600a5490611b21565b049082600052600b815260406000205491828111611bba575b50505050565b600c92611bc691611b34565b9260005252611bdb6040600020918254611a50565b905538808080611bb4565b908282813d8311611c11575b611bfc81836119c2565b81010312611c0e575051611b9b611b84565b80fd5b503d611bf2565b6040513d6000823e3d90fdfe2f8788117e7eff1d82e926ec794901d17c78024a50270940304540a733656f0da2646970667358221220542a41dba54c9c2176b7bf19af0a3aa8f85f1f16a0d8cbb4e4e050f4169b1eef64736f6c63430008140033",
  "linkReferences": {},
  "deployedLinkReferences": {}
}