{
  "_format": "hh-sol-artifact-1",
  "contractName": "RentalCashFlowLogic",
  "sourceName": "contracts/RentalCashFlowLogic.sol",
  "abi": [
    {
      "anonymous": false,
      "inputs": [
        {
          "indexed": false,
          "internalType": "uint256",
          "name": "daysPastDue",
          "type": "uint256"
        },
        {
          "indexed": false,
          "internalType": "bool",
          "name": "defaultTriggered",
          "type": "bool"
        },
        {
          "indexed": false,
          "internalType": "uint256",
          "name": "timestamp",
          "type": "uint256"
        }
      ],
      "name": "CashflowDefaultEvaluated",
      "type": "event"
    },
    {
      "anonymous": false,
      "inputs": [
        {
          "indexed": false,
          "internalType": "enum CashflowHealth",
          "name": "newHealth",
          "type": "uint8"
        }
      ],
      "name": "CashflowHealthUpdated",
      "type": "event"
    },
    {
      "anonymous": false,
      "inputs": [
        {
          "indexed": true,
          "internalType": "address",
          "name": "logic",
          "type": "address"
        },
        {
          "indexed": false,
          "internalType": "bytes",
          "name": "data",
          "type": "bytes"
        }
      ],
      "name": "CashflowInitialized",
      "type": "event"
    },
    {
      "anonymous": false,
      "inputs": [
        {
          "indexed": false,
          "internalType": "uint256",
          "name": "timestamp",
          "type": "uint256"
        }
      ],
      "name": "CashflowMatured",
      "type": "event"
    },
    {
      "anonymous": false,
      "inputs": [
        {
          "indexed": false,
          "internalType": "uint256",
          "name": "amount",
          "type": "uint256"
        },
        {
          "indexed": false,
          "internalType": "uint256",
          "name": "timestamp",
          "type": "uint256"
        },
        {
          "indexed": false,
          "internalType": "enum RWACommonTypes.AssetStatus",
          "name": "newStatus",
          "type": "uint8"
        },
        {
          "indexed": false,
          "internalType": "enum CashflowHealth",
          "name": "health",
          "type": "uint8"
        }
      ],
      "name": "CashflowPaymentProcessed",
      "type": "event"
    },
    {
      "anonymous": false,
      "inputs": [
        {
          "indexed": false,
          "internalType": "enum RWACommonTypes.AssetStatus",
          "name": "oldStatus",
          "type": "uint8"
        },
        {
          "indexed": false,
          "internalType": "enum RWACommonTypes.AssetStatus",
          "name": "newStatus",
          "type": "uint8"
        },
        {
          "indexed": false,
          "internalType": "enum CashflowHealth",
          "name": "health",
          "type": "uint8"
        },
        {
          "indexed": false,
          "internalType": "uint256",
          "name": "timestamp",
          "type": "uint256"
        }
      ],
      "name": "CashflowStatusUpdated",
      "type": "event"
    },
    {
      "anonymous": false,
      "inputs": [
        {
          "indexed": false,
          "internalType": "uint256",
          "name": "rentAmount",
          "type": "uint256"
        },
        {
          "indexed": false,
          "internalType": "uint256",
          "name": "paymentInterval",
          "type": "uint256"
        },
        {
          "indexed": false,
          "internalType": "uint256",
          "name": "firstPaymentDueDate",
          "type": "uint256"
        },
        {
          "indexed": false,
          "internalType": "uint256",
          "name": "gracePeriodDays",
          "type": "uint256"
        },
        {
          "indexed": false,
          "internalType": "uint256",
          "name": "leaseEndDate",
          "type": "uint256"
        }
      ],
      "name": "LeaseInitialized",
      "type": "event"
    },
    {
      "anonymous": false,
      "inputs": [
        {
          "indexed": true,
          "internalType": "uint256",
          "name": "period",
          "type": "uint256"
        },
        {
          "indexed": false,
          "internalType": "uint256",
          "name": "amount",
          "type": "uint256"
        },
        {
          "indexed": false,
          "internalType": "uint256",
          "name": "timestamp",
          "type": "uint256"
        }
      ],
      "name": "RentPaid",
      "type": "event"
    },
    {
      "inputs": [
        {
          "internalType": "uint256",
          "name": "timestamp",
          "type": "uint256"
        }
      ],
      "name": "evaluateDefault",
      "outputs": [
        {
          "internalType": "enum RWACommonTypes.AssetStatus",
          "name": "",
          "type": "uint8"
        },
        {
          "internalType": "enum CashflowHealth",
          "name": "",
          "type": "uint8"
        }
      ],
      "stateMutability": "nonpayable",
      "type": "function"
    },
    {
      "inputs": [],
      "name": "forceDefault",
      "outputs": [
        {
          "internalType": "bool",
          "name": "",
          "type": "bool"
        }
      ],
      "stateMutability": "nonpayable",
      "type": "function"
    },
    {
      "inputs": [],
      "name": "getAssetStatus",
      "outputs": [
        {
          "internalType": "enum RWACommonTypes.AssetStatus",
          "name": "",
          "type": "uint8"
        }
      ],
      "stateMutability": "view",
      "type": "function"
    },
    {
      "inputs": [],
      "name": "getCashflowHealth",
      "outputs": [
        {
          "internalType": "enum CashflowHealth",
          "name": "",
          "type": "uint8"
        }
      ],
      "stateMutability": "view",
      "type": "function"
    },
    {
      "inputs": [
        {
          "internalType": "uint256",
          "name": "timestamp",
          "type": "uint256"
        }
      ],
      "name": "getExpectedPayment",
      "outputs": [
        {
          "components": [
            {
              "internalType": "uint256",
              "name": "expectedAmount",
              "type": "uint256"
            },
            {
              "internalType": "uint256",
              "name": "dueDate",
              "type": "uint256"
            },
            {
              "internalType": "uint256",
              "name": "gracePeriodEnd",
              "type": "uint256"
            },
            {
              "internalType": "uint256",
              "name": "amountPaidThisPeriod",
              "type": "uint256"
            },
            {
              "internalType": "uint256",
              "name": "penaltyAmount",
              "type": "uint256"
            },
            {
              "internalType": "uint256",
              "name": "daysPastDue",
              "type": "uint256"
            },
            {
              "internalType": "bool",
              "name": "isDue",
              "type": "bool"
            },
            {
              "internalType": "bool",
              "name": "isPastDue",
              "type": "bool"
            }
          ],
          "internalType": "struct PaymentStatus",
          "name": "",
          "type": "tuple"
        }
      ],
      "stateMutability": "view",
      "type": "function"
    },
    {
      "inputs": [],
      "name": "getRemainingPrincipal",
      "outputs": [
        {
          "internalType": "uint256",
          "name": "",
          "type": "uint256"
        }
      ],
      "stateMutability": "pure",
      "type": "function"
    },
    {
      "inputs": [],
      "name": "getSchedule",
      "outputs": [
        {
          "internalType": "uint256",
          "name": "nextDueDate",
          "type": "uint256"
        },
        {
          "internalType": "uint256",
          "name": "expectedPeriodicPayment",
          "type": "uint256"
        },
        {
          "internalType": "uint256",
          "name": "maturityDate",
          "type": "uint256"
        }
      ],
      "stateMutability": "view",
      "type": "function"
    },
    {
      "inputs": [],
      "name": "getTotalReceived",
      "outputs": [
        {
          "internalType": "uint256",
          "name": "",
          "type": "uint256"
        }
      ],
      "stateMutability": "view",
      "type": "function"
    },
    {
      "inputs": [],
      "name": "gracePeriodDays",
      "outputs": [
        {
          "internalType": "uint256",
          "name": "",
          "type": "uint256"
        }
      ],
      "stateMutability": "view",
      "type": "function"
    },
    {
      "inputs": [],
      "name": "health",
      "outputs": [
        {
          "internalType": "enum CashflowHealth",
          "name": "",
          "type": "uint8"
        }
      ],
      "stateMutability": "view",
      "type": "function"
    },
    {
      "inputs": [
        {
          "internalType": "bytes",
          "name": "data",
          "type": "bytes"
        }
      ],
      "name": "initialize",
      "outputs": [],
      "stateMutability": "nonpayable",
      "type": "function"
    },
    {
      "inputs": [],
      "name": "initialized",
      "outputs": [
        {
          "internalType": "bool",
          "name": "",
          "type": "bool"
        }
      ],
      "stateMutability": "view",
      "type": "function"
    },
    {
      "inputs": [],
      "name": "lastMissedPeriod",
      "outputs": [
        {
          "internalType": "uint256",
          "name": "",
          "type": "uint256"
        }
      ],
      "stateMutability": "view",
      "type": "function"
    },
    {
      "inputs": [],
      "name": "lastPaidPeriod",
      "outputs": [
        {
          "internalType": "uint256",
          "name": "",
          "type": "uint256"
        }
      ],
      "stateMutability": "view",
      "type": "function"
    },
    {
      "inputs": [],
      "name": "leaseEndDate",
      "outputs": [
        {
          "internalType": "uint256",
          "name": "",
          "type": "uint256"
        }
      ],
      "stateMutability": "view",
      "type": "function"
    },
    {
      "inputs": [
        {
          "internalType": "uint256",
          "name": "",
          "type": "uint256"
        }
      ],
      "name": "markMatured",
      "outputs": [],
      "stateMutability": "nonpayable",
      "type": "function"
    },
    {
      "inputs": [],
      "name": "missedPeriods",
      "outputs": [
        {
          "internalType": "uint256",
          "name": "",
          "type": "uint256"
        }
      ],
      "stateMutability": "view",
      "type": "function"
    },
    {
      "inputs": [],
      "name": "paymentInterval",
      "outputs": [
        {
          "internalType": "uint256",
          "name": "",
          "type": "uint256"
        }
      ],
      "stateMutability": "view",
      "type": "function"
    },
    {
      "inputs": [
        {
          "internalType": "uint256",
          "name": "",
          "type": "uint256"
        }
      ],
      "name": "periodPaid",
      "outputs": [
        {
          "internalType": "bool",
          "name": "",
          "type": "bool"
        }
      ],
      "stateMutability": "view",
      "type": "function"
    },
    {
      "inputs": [
        {
          "internalType": "uint256",
          "name": "timestamp",
          "type": "uint256"
        }
      ],
      "name": "previewDefault",
      "outputs": [
        {
          "internalType": "enum RWACommonTypes.AssetStatus",
          "name": "newStatus",
          "type": "uint8"
        },
        {
          "internalType": "enum CashflowHealth",
          "name": "newHealth",
          "type": "uint8"
        },
        {
          "internalType": "uint256",
          "name": "daysPastDue",
          "type": "uint256"
        },
        {
          "internalType": "uint256",
          "name": "period",
          "type": "uint256"
        }
      ],
      "stateMutability": "view",
      "type": "function"
    },
    {
      "inputs": [
        {
          "internalType": "uint256",
          "name": "amount",
          "type": "uint256"
        },
        {
          "internalType": "uint256",
          "name": "timestamp",
          "type": "uint256"
        }
      ],
      "name": "processPayment",
      "outputs": [
        {
          "internalType": "enum RWACommonTypes.AssetStatus",
          "name": "",
          "type": "uint8"
        }
      ],
      "stateMutability": "nonpayable",
      "type": "function"
    },
    {
      "inputs": [],
      "name": "registry",
      "outputs": [
        {
          "internalType": "address",
          "name": "",
          "type": "address"
        }
      ],
      "stateMutability": "view",
      "type": "function"
    },
    {
      "inputs": [],
      "name": "rentAmount",
      "outputs": [
        {
          "internalType": "uint256",
          "name": "",
          "type": "uint256"
        }
      ],
      "stateMutability": "view",
      "type": "function"
    },
    {
      "inputs": [],
      "name": "startTimestamp",
      "outputs": [
        {
          "internalType": "uint256",
          "name": "",
          "type": "uint256"
        }
      ],
      "stateMutability": "view",
      "type": "function"
    },
    {
      "inputs": [],
      "name": "totalAmountPaid",
      "outputs": [
        {
          "internalType": "uint256",
          "name": "",
          "type": "uint256"
        }
      ],
      "stateMutability": "view",
      "type": "function"
    }
  ],
  "bytecode": "0x6080806040523461001657610fe6908161001c8239f35b600080fdfe608060408181526004918236101561001657600080fd5b600092833560e01c9182630592a61214610c7c5750816307c47e6414610c5d5781631348ed5e14610c3e578163158ef93e14610c1a5781631cc1cf4614610bfb5781631ebf1a5514610bb157816326d3325d14610a3157816326fadbe2146109e357816338f417ca146109b6578163439fab91146106e957816345615716146106c95781634e7c13fe146106725781637633a22c1461061f5781637b103999146106455781638acdca5e1461061f5781638c2281b014610465578163b42b2da514610446578163be03250b14610427578163d2fa0a08146103ee578163df9d58ff146101cb57508063e2957dd1146101ad578063e6fd48bc1461018f578063e8c300ee14610175578063f41cb5d1146101575763f8ef1e131461013857600080fd5b34610153578160031936011261015357602091549051908152f35b5080fd5b50346101535781600319360112610153576020906008549051908152f35b503461015357816003193601126101535751908152602090f35b50346101535781600319360112610153576020906006549051908152f35b50346101535781600319360112610153576020906009549051908152f35b9050346103ea57816003193601126103ea57803560249384359061020960ff600b5461020360018060a01b038260081c163314610d6c565b16610da8565b60ff84541660058110156103d8576003146103a257600354821161037057805483106103375761023882610ead565b8082526020966005885260ff8784205416610300575091818388969487969452600586527fa62c35dfc0ff11d3713608ebcdc5c5d1952c7702620f2c46c22950f7b70d57978880842060ff19906001828254161790558360075561029e87600854610cc8565b6008558754169586885581519081528589820152a28651908152600080516020610f91833981519152958691a160035411156102ed575b82856102eb6102e2610ceb565b91518092610c98565bf35b811781558351908152a1388281806102d5565b8560136064928a8a519362461bcd60e51b85528401528201527214195c9a5bd908185b1c9958591e481c185a59606a1b6044820152fd5b845162461bcd60e51b815260208186015260148188015273125b9cdd59999a58da595b9d081c185e5b595b9d60621b6044820152606490fd5b845162461bcd60e51b8152602081860152600d818801526c1319585cd948195e1c1a5c9959609a1b6044820152606490fd5b845162461bcd60e51b815260208186015260118188015270105b1c9958591e48191959985d5b1d1959607a1b6044820152606490fd5b634e487b7160e01b8252602185528682fd5b8280fd5b919050346103ea5760203660031901126103ea57815460ff19168217825551908152600080516020610f9183398151915290602090a180f35b5050346101535781600319360112610153576020906007549051908152f35b5050346101535781600319360112610153576020906003549051908152f35b905082346105f65760203660031901126105f65781359161049460018060a01b03600b5460081c163314610d6c565b8351631ebf1a5560e01b815281810184905291608083602481305afa91821561061357819482948394610591575b5081549360ff851694600587101561057e5760ff191660ff87161783558391600287148015610571575b61055a575b505061054757600583101561054757505090806102eb9203610524575b61051a84518094610c98565b6020830190610cbb565b600080516020610f91833981519152602085516105418185610cbb565ba161050e565b634e487b7160e01b825260219052602490fd5b6105649082610efa565b600955600a5587806104f1565b50849250600387146104ec565b634e487b7160e01b855260218452602485fd5b95509250925060803d811161060c575b601f8101601f1916850167ffffffffffffffff8111868210176105f95760809186918852810103126105f65783519260098410156101535760208501519460058610156103ea576060015193949392876104c2565b80fd5b634e487b7160e01b835260418552602483fd5b503d6105a1565b508451903d90823e3d90fd5b8284346105f657806003193601126105f657506102eb60ff602093541691518092610cbb565b505034610153578160031936011261015357600b54905160089190911c6001600160a01b03168152602090f35b9050346103ea57826003193601126103ea57602092506106a060018060a01b03600b5460081c163314610d6c565b600360ff19825416179055600080516020610f9183398151915282825160038152a15160018152f35b5050346101535781600319360112610153576020906102eb6102e2610ceb565b919050346103ea57602091826003193601126109b25780359167ffffffffffffffff8084116109ae57366023850112156109ae57838301359081116109ae57830190602492368484011161097357600b549260ff8416610977578560c09103126109735783850135958760449485880135936064808a01359760848b01359960c460a48d01359c013560018060a01b0390818116810361096f578d978f91610100600160a81b039060081b16986003558d6002558a600155558d15610941576224ea00891061090d57610100600160a81b03198616871760081c16156108dc5761012c8a01808b116108ca57421161088c57898c111561084e57508c7fc20a846a45ddad517008be57a77685ca59d2c0dbde4d3782941aec592db85a0f60a08e8e8e8e8e8e8e60018f8f8f8760065560ff1981541690556affffffffffffffffffffff60a81b161717600b55825196875286015284015260608301526080820152a180f35b8391601a7f4c6561736520656e64206265666f72652066697273742064756500000000000092898c519562461bcd60e51b8752860152840152820152fd5b8391601e7f466972737420647565206461746520746f6f2066617220696e2070617374000092898c519562461bcd60e51b8752860152840152820152fd5b50634e487b7160e01b8e52601184528dfd5b839160106f496e76616c696420726567697374727960801b92898c519562461bcd60e51b8752860152840152820152fd5b508391601271125b9d195c9d985b081d1bdbc81cda1bdc9d60721b92898c519562461bcd60e51b8752860152840152820152fd5b508391600c6b125b9d985b1a59081c995b9d60a21b92898c519562461bcd60e51b8752860152840152820152fd5b8780fd5b8680fd5b5060138487606494519362461bcd60e51b855284015282015272105b1c9958591e481a5b9a5d1a585b1a5e9959606a1b6044820152fd5b8580fd5b8380fd5b9050346103ea5760203660031901126103ea578160209360ff923581526005855220541690519015158152f35b50503461015357816003193601126101535790606091610a1b610a0542610ead565b610a156006549160015490610d59565b90610cc8565b9154906003549181519384526020840152820152f35b838334610153576020366003190112610153578235908260e08251610a5581610d19565b82815282602082015282848201528260608201528260808201528260a08201528260c08201520152610a8682610ead565b610a98600654610a1560015484610d59565b908452600560205260ff8285205416938093851593848095610ba8575b610b91575b8254966002549462015180808702908782041487151715610b7e576101009a50610ae49082610cc8565b9115610b76578089945b10159687610b6e575b50825195610b0487610d19565b89875260208701918252838701928352606087019485526080870195865260e060a08801978a895260c081019915158a520198118852825198895251602089015251908701525160608601525160808501525160a084015251151560c083015251151560e0820152f35b96508a610af7565b808594610aee565b634e487b7160e01b865260118b52602486fd5b945062015180610ba18483610d4c565b0494610aba565b50838211610ab5565b905082346105f65760203660031901126105f6576080610bf184610bd58535610de6565b9391610be78396929496518097610c98565b6020860190610cbb565b8301526060820152f35b5050346101535781600319360112610153576020906001549051908152f35b50503461015357816003193601126101535760209060ff600b541690519015158152f35b5050346101535781600319360112610153576020906002549051908152f35b505034610153578160031936011261015357602090600a549051908152f35b8490346101535781600319360112610153576020906008548152f35b906009821015610ca55752565b634e487b7160e01b600052602160045260246000fd5b906005821015610ca55752565b91908201809211610cd557565b634e487b7160e01b600052601160045260246000fd5b60ff600454166005811015610ca55760038114610d1357600414610d0e57600290565b600890565b50600490565b610100810190811067ffffffffffffffff821117610d3657604052565b634e487b7160e01b600052604160045260246000fd5b91908203918211610cd557565b81810292918115918404141715610cd557565b15610d7357565b60405162461bcd60e51b815260206004820152600d60248201526c4f6e6c7920726567697374727960981b6044820152606490fd5b15610daf57565b60405162461bcd60e51b815260206004820152600f60248201526e139bdd081a5b9a5d1a585b1a5e9959608a1b6044820152606490fd5b610df460ff600b5416610da8565b600354811015610e9957610e0781610ead565b610e19600654610a1560015484610d59565b6000828152600560205260ff604082205416610e8e5781841115610e865750610e46620151809184610d4c565b04915b826002548110610e795750610e6060029183610efa565b1015610e6f5760029283929190565b6004926003929190565b9250506002926001929190565b905091610e49565b925050600292829190565b610ea290610ead565b600891600491600091565b600654808210610ee457610ec091610d4c565b600154908115610ece570490565b634e487b7160e01b600052601260045260246000fd5b5050600090565b6000198114610cd55760010190565b600254600654600154600095948692909190835b86811115610f1f5750505050505050565b808552600560205260ff604086205416610f665785610f47610f418584610d59565b84610cc8565b80861115610f8957610f5d620151809187610d4c565b045b1015610f74575b610f6f90610eeb565b610f0e565b97610f81610f6f91610eeb565b989050610f66565b5085610f5f56fe784218e19c0007f03f5c1f12e90bda7d4631acfbd176a7d385530c4b1f494b47a26469706673582212208e3a1fa1e6c81a08118128efba732939428f2d589531e8058319b8e5f239c57564736f6c63430008140033",
  "linkReferences": {},
  "deployedLinkReferences": {}
}