{
  "contracts/RentalCashFlowLogic.sol": {
    "RentalCashFlowLogic": {
      "abi": [
        {
          "anonymous": false,
          "inputs": [
            {
              "indexed": false,
              "internalType": "uint256",
              "name": "daysPastDue",
              "type": "uint256"
            },
            {
              "indexed": false,
              "internalType": "bool",
              "name": "defaultTriggered",
              "type": "bool"
            },
            {
              "indexed": false,
              "internalType": "uint256",
              "name": "timestamp",
              "type": "uint256"
            }
          ],
          "name": "CashflowDefaultEvaluated",
          "type": "event"
        },
        {
          "anonymous": false,
          "inputs": [
            {
              "indexed": false,
              "internalType": "enum CashflowHealth",
              "name": "newHealth",
              "type": "uint8"
            }
          ],
          "name": "CashflowHealthUpdated",
          "type": "event"
        },
        {
          "anonymous": false,
          "inputs": [
            {
              "indexed": true,
              "internalType": "address",
              "name": "logic",
              "type": "address"
            },
            {
              "indexed": false,
              "internalType": "bytes",
              "name": "data",
              "type": "bytes"
            }
          ],
          "name": "CashflowInitialized",
          "type": "event"
        },
        {
          "anonymous": false,
          "inputs": [
            {
              "indexed": false,
              "internalType": "uint256",
              "name": "timestamp",
              "type": "uint256"
            }
          ],
          "name": "CashflowMatured",
          "type": "event"
        },
        {
          "anonymous": false,
          "inputs": [
            {
              "indexed": false,
              "internalType": "uint256",
              "name": "amount",
              "type": "uint256"
            },
            {
              "indexed": false,
              "internalType": "uint256",
              "name": "timestamp",
              "type": "uint256"
            },
            {
              "indexed": false,
              "internalType": "enum RWACommonTypes.AssetStatus",
              "name": "newStatus",
              "type": "uint8"
            },
            {
              "indexed": false,
              "internalType": "enum CashflowHealth",
              "name": "health",
              "type": "uint8"
            }
          ],
          "name": "CashflowPaymentProcessed",
          "type": "event"
        },
        {
          "anonymous": false,
          "inputs": [
            {
              "indexed": false,
              "internalType": "enum RWACommonTypes.AssetStatus",
              "name": "oldStatus",
              "type": "uint8"
            },
            {
              "indexed": false,
              "internalType": "enum RWACommonTypes.AssetStatus",
              "name": "newStatus",
              "type": "uint8"
            },
            {
              "indexed": false,
              "internalType": "enum CashflowHealth",
              "name": "health",
              "type": "uint8"
            },
            {
              "indexed": false,
              "internalType": "uint256",
              "name": "timestamp",
              "type": "uint256"
            }
          ],
          "name": "CashflowStatusUpdated",
          "type": "event"
        },
        {
          "anonymous": false,
          "inputs": [
            {
              "indexed": false,
              "internalType": "uint256",
              "name": "rentAmount",
              "type": "uint256"
            },
            {
              "indexed": false,
              "internalType": "uint256",
              "name": "paymentInterval",
              "type": "uint256"
            },
            {
              "indexed": false,
              "internalType": "uint256",
              "name": "firstPaymentDueDate",
              "type": "uint256"
            },
            {
              "indexed": false,
              "internalType": "uint256",
              "name": "gracePeriodUnits",
              "type": "uint256"
            },
            {
              "indexed": false,
              "internalType": "uint256",
              "name": "leaseEndDate",
              "type": "uint256"
            },
            {
              "indexed": false,
              "internalType": "uint256",
              "name": "timeUnit",
              "type": "uint256"
            }
          ],
          "name": "LeaseInitialized",
          "type": "event"
        },
        {
          "anonymous": false,
          "inputs": [
            {
              "indexed": true,
              "internalType": "uint256",
              "name": "period",
              "type": "uint256"
            },
            {
              "indexed": false,
              "internalType": "uint256",
              "name": "amount",
              "type": "uint256"
            },
            {
              "indexed": false,
              "internalType": "uint256",
              "name": "timestamp",
              "type": "uint256"
            }
          ],
          "name": "RentPaid",
          "type": "event"
        },
        {
          "inputs": [
            {
              "internalType": "uint256",
              "name": "timestamp",
              "type": "uint256"
            }
          ],
          "name": "evaluateDefault",
          "outputs": [
            {
              "internalType": "enum RWACommonTypes.AssetStatus",
              "name": "",
              "type": "uint8"
            },
            {
              "internalType": "enum CashflowHealth",
              "name": "",
              "type": "uint8"
            }
          ],
          "stateMutability": "nonpayable",
          "type": "function"
        },
        {
          "inputs": [],
          "name": "forceDefault",
          "outputs": [
            {
              "internalType": "bool",
              "name": "",
              "type": "bool"
            }
          ],
          "stateMutability": "nonpayable",
          "type": "function"
        },
        {
          "inputs": [],
          "name": "getAssetStatus",
          "outputs": [
            {
              "internalType": "enum RWACommonTypes.AssetStatus",
              "name": "",
              "type": "uint8"
            }
          ],
          "stateMutability": "view",
          "type": "function"
        },
        {
          "inputs": [],
          "name": "getCashflowHealth",
          "outputs": [
            {
              "internalType": "enum CashflowHealth",
              "name": "",
              "type": "uint8"
            }
          ],
          "stateMutability": "view",
          "type": "function"
        },
        {
          "inputs": [
            {
              "internalType": "uint256",
              "name": "timestamp",
              "type": "uint256"
            }
          ],
          "name": "getExpectedPayment",
          "outputs": [
            {
              "components": [
                {
                  "internalType": "uint256",
                  "name": "expectedAmount",
                  "type": "uint256"
                },
                {
                  "internalType": "uint256",
                  "name": "dueDate",
                  "type": "uint256"
                },
                {
                  "internalType": "uint256",
                  "name": "gracePeriodEnd",
                  "type": "uint256"
                },
                {
                  "internalType": "uint256",
                  "name": "amountPaidThisPeriod",
                  "type": "uint256"
                },
                {
                  "internalType": "uint256",
                  "name": "penaltyAmount",
                  "type": "uint256"
                },
                {
                  "internalType": "uint256",
                  "name": "daysPastDue",
                  "type": "uint256"
                },
                {
                  "internalType": "bool",
                  "name": "isDue",
                  "type": "bool"
                },
                {
                  "internalType": "bool",
                  "name": "isPastDue",
                  "type": "bool"
                }
              ],
              "internalType": "struct PaymentStatus",
              "name": "",
              "type": "tuple"
            }
          ],
          "stateMutability": "view",
          "type": "function"
        },
        {
          "inputs": [],
          "name": "getRemainingPrincipal",
          "outputs": [
            {
              "internalType": "uint256",
              "name": "",
              "type": "uint256"
            }
          ],
          "stateMutability": "pure",
          "type": "function"
        },
        {
          "inputs": [],
          "name": "getSchedule",
          "outputs": [
            {
              "internalType": "uint256",
              "name": "nextDueDate",
              "type": "uint256"
            },
            {
              "internalType": "uint256",
              "name": "expectedPeriodicPayment",
              "type": "uint256"
            },
            {
              "internalType": "uint256",
              "name": "maturityDate",
              "type": "uint256"
            }
          ],
          "stateMutability": "view",
          "type": "function"
        },
        {
          "inputs": [],
          "name": "getTotalReceived",
          "outputs": [
            {
              "internalType": "uint256",
              "name": "",
              "type": "uint256"
            }
          ],
          "stateMutability": "view",
          "type": "function"
        },
        {
          "inputs": [],
          "name": "gracePeriodUnits",
          "outputs": [
            {
              "internalType": "uint256",
              "name": "",
              "type": "uint256"
            }
          ],
          "stateMutability": "view",
          "type": "function"
        },
        {
          "inputs": [],
          "name": "health",
          "outputs": [
            {
              "internalType": "enum CashflowHealth",
              "name": "",
              "type": "uint8"
            }
          ],
          "stateMutability": "view",
          "type": "function"
        },
        {
          "inputs": [
            {
              "internalType": "bytes",
              "name": "data",
              "type": "bytes"
            }
          ],
          "name": "initialize",
          "outputs": [],
          "stateMutability": "nonpayable",
          "type": "function"
        },
        {
          "inputs": [],
          "name": "initialized",
          "outputs": [
            {
              "internalType": "bool",
              "name": "",
              "type": "bool"
            }
          ],
          "stateMutability": "view",
          "type": "function"
        },
        {
          "inputs": [],
          "name": "lastMissedPeriod",
          "outputs": [
            {
              "internalType": "uint256",
              "name": "",
              "type": "uint256"
            }
          ],
          "stateMutability": "view",
          "type": "function"
        },
        {
          "inputs": [],
          "name": "lastPaidPeriod",
          "outputs": [
            {
              "internalType": "uint256",
              "name": "",
              "type": "uint256"
            }
          ],
          "stateMutability": "view",
          "type": "function"
        },
        {
          "inputs": [],
          "name": "leaseEndDate",
          "outputs": [
            {
              "internalType": "uint256",
              "name": "",
              "type": "uint256"
            }
          ],
          "stateMutability": "view",
          "type": "function"
        },
        {
          "inputs": [
            {
              "internalType": "uint256",
              "name": "",
              "type": "uint256"
            }
          ],
          "name": "markMatured",
          "outputs": [],
          "stateMutability": "nonpayable",
          "type": "function"
        },
        {
          "inputs": [],
          "name": "missedPeriods",
          "outputs": [
            {
              "internalType": "uint256",
              "name": "",
              "type": "uint256"
            }
          ],
          "stateMutability": "view",
          "type": "function"
        },
        {
          "inputs": [],
          "name": "paymentInterval",
          "outputs": [
            {
              "internalType": "uint256",
              "name": "",
              "type": "uint256"
            }
          ],
          "stateMutability": "view",
          "type": "function"
        },
        {
          "inputs": [
            {
              "internalType": "uint256",
              "name": "",
              "type": "uint256"
            }
          ],
          "name": "periodPaid",
          "outputs": [
            {
              "internalType": "bool",
              "name": "",
              "type": "bool"
            }
          ],
          "stateMutability": "view",
          "type": "function"
        },
        {
          "inputs": [
            {
              "internalType": "uint256",
              "name": "timestamp",
              "type": "uint256"
            }
          ],
          "name": "previewDefault",
          "outputs": [
            {
              "internalType": "enum RWACommonTypes.AssetStatus",
              "name": "newStatus",
              "type": "uint8"
            },
            {
              "internalType": "enum CashflowHealth",
              "name": "newHealth",
              "type": "uint8"
            },
            {
              "internalType": "uint256",
              "name": "daysPastDue",
              "type": "uint256"
            },
            {
              "internalType": "uint256",
              "name": "period",
              "type": "uint256"
            }
          ],
          "stateMutability": "view",
          "type": "function"
        },
        {
          "inputs": [
            {
              "internalType": "uint256",
              "name": "amount",
              "type": "uint256"
            },
            {
              "internalType": "uint256",
              "name": "timestamp",
              "type": "uint256"
            }
          ],
          "name": "processPayment",
          "outputs": [
            {
              "internalType": "enum RWACommonTypes.AssetStatus",
              "name": "",
              "type": "uint8"
            }
          ],
          "stateMutability": "nonpayable",
          "type": "function"
        },
        {
          "inputs": [],
          "name": "registry",
          "outputs": [
            {
              "internalType": "address",
              "name": "",
              "type": "address"
            }
          ],
          "stateMutability": "view",
          "type": "function"
        },
        {
          "inputs": [],
          "name": "rentAmount",
          "outputs": [
            {
              "internalType": "uint256",
              "name": "",
              "type": "uint256"
            }
          ],
          "stateMutability": "view",
          "type": "function"
        },
        {
          "inputs": [],
          "name": "startTimestamp",
          "outputs": [
            {
              "internalType": "uint256",
              "name": "",
              "type": "uint256"
            }
          ],
          "stateMutability": "view",
          "type": "function"
        },
        {
          "inputs": [],
          "name": "timeUnit",
          "outputs": [
            {
              "internalType": "uint256",
              "name": "",
              "type": "uint256"
            }
          ],
          "stateMutability": "view",
          "type": "function"
        },
        {
          "inputs": [],
          "name": "totalAmountPaid",
          "outputs": [
            {
              "internalType": "uint256",
              "name": "",
              "type": "uint256"
            }
          ],
          "stateMutability": "view",
          "type": "function"
        }
      ],
      "evm": {
        "bytecode": {
          "linkReferences": {},
          "object": "608080604052346100165761107e908161001c8239f35b600080fdfe608060408181526004918236101561001657600080fd5b600092833560e01c9182630592a61214610d035750816307c47e6414610ce4578163158ef93e14610cc05781631cc1cf4614610ca15781631ebf1a5514610c5757816326d3325d14610aef57816326fadbe214610aa157816338f417ca14610a745781633c6a7f9b14610a56578163439fab911461071d57816345615716146106fd5781634e7c13fe146106a55781637633a22c146106325781637b103999146106785781637e8b06c1146106595781638acdca5e146106325781638c2281b014610476578163b42b2da514610457578163be03250b14610438578163d2fa0a08146103fd578163df9d58ff146101d657508063e2957dd1146101b8578063e6fd48bc1461019a578063e8c300ee14610180578063f41cb5d1146101625763f8ef1e131461014357600080fd5b3461015e578160031936011261015e57602091549051908152f35b5080fd5b503461015e578160031936011261015e576020906009549051908152f35b503461015e578160031936011261015e5751908152602090f35b503461015e578160031936011261015e576020906007549051908152f35b503461015e578160031936011261015e57602090600a549051908152f35b9050346103f957816003193601126103f957803560249384359061021460ff600c5461020e60018060a01b038260081c163314610e13565b16610e4f565b60ff6005541660058110156103e7576003146103b157600354821161037f57805483106103465761024482610f5b565b8082526020966006885260ff878420541661030f575091818388969487969452600686527fa62c35dfc0ff11d3713608ebcdc5c5d1952c7702620f2c46c22950f7b70d57978880842060ff1990600182825416179055836008556102aa87600954610d78565b60095560055416958660055581519081528589820152a28651908152600080516020611029833981519152958691a160035411156102fb575b82856102f96102f0610d85565b91518092610d1f565bf35b81176005558351908152a1388281806102e3565b8560136064928a8a519362461bcd60e51b85528401528201527214195c9a5bd908185b1c9958591e481c185a59606a1b6044820152fd5b845162461bcd60e51b815260208186015260148188015273125b9cdd59999a58da595b9d081c185e5b595b9d60621b6044820152606490fd5b845162461bcd60e51b8152602081860152600d818801526c1319585cd948195e1c1a5c9959609a1b6044820152606490fd5b845162461bcd60e51b815260208186015260118188015270105b1c9958591e48191959985d5b1d1959607a1b6044820152606490fd5b634e487b7160e01b8252602185528682fd5b8280fd5b919050346103f95760203660031901126103f957816020916000805160206110298339815191529360ff19600554161760055551908152a180f35b50503461015e578160031936011261015e576020906008549051908152f35b50503461015e578160031936011261015e576020906003549051908152f35b90508234610609576020366003190112610609578135916104a560018060a01b03600c5460081c163314610e13565b8351631ebf1a5560e01b815281810184905291608083602481305afa918215610626578194829483946105a4575b506005549360ff85169460058710156105915760ff191660ff8716176005558391600287148015610584575b61056d575b505061055a57600583101561055a57505090806102f99203610537575b61052d84518094610d1f565b6020830190610d42565b600080516020611029833981519152602085516105548185610d42565ba1610521565b634e487b7160e01b825260219052602490fd5b6105779082610f95565b600a55600b558780610504565b50849250600387146104ff565b634e487b7160e01b855260218452602485fd5b95509250925060803d811161061f575b601f8101601f1916850167ffffffffffffffff81118682101761060c57608091869188528101031261060957835192600984101561015e5760208501519460058610156103f9576060015193949392876104d3565b80fd5b634e487b7160e01b835260418552602483fd5b503d6105b4565b508451903d90823e3d90fd5b50503461015e578160031936011261015e576020906102f960ff6005541691518092610d42565b50503461015e578160031936011261015e576020906002549051908152f35b50503461015e578160031936011261015e57600c54905160089190911c6001600160a01b03168152602090f35b50503461015e578160031936011261015e576020906106d260018060a01b03600c5460081c163314610e13565b600360ff19600554161760055560008051602061102983398151915282825160038152a15160018152f35b50503461015e578160031936011261015e576020906102f96102f0610d85565b919050346103f957602080600319360112610a125782359167ffffffffffffffff808411610a525736602385011215610a525783850135908111610a525783019060243681840111610a4e57600c549260ff8416610a16579060e086899594930312610a12578594859485948386013599866044808201359660e460c460a460846064809701359d01359d01359d01359d01359560018060a01b039081881688036106095760038e905560028d905560018a90558f905560089690961b610100600160a81b0316958e156109e4578d156109b2578d80601c0290601c82040361099f57891061096b57610100600160a81b03198616871760081c161561093a578c6005028d600582040361092857610835908b610d78565b42116108ea57898c11156108ac5750505060078790558990556005805460ff191690556001600160a81b03191617600117600c5582519788528701528501526060840152608083015260a08201527ff9942075be21ecf4573e3db2ac4f77f2d4f78f089a1b02b79062dcede6b956279060c090a180f35b8391601a7f4c6561736520656e64206265666f72652066697273742064756500000000000092898c519562461bcd60e51b8752860152840152820152fd5b8391601e7f466972737420647565206461746520746f6f2066617220696e2070617374000092898c519562461bcd60e51b8752860152840152820152fd5b50634e487b7160e01b8f52601184528efd5b839160106f496e76616c696420726567697374727960801b92898c519562461bcd60e51b8752860152840152820152fd5b508391601271125b9d195c9d985b081d1bdbc81cda1bdc9d60721b92898c519562461bcd60e51b8752860152840152820152fd5b5050634e487b7160e01b8f52601184528efd5b50839160106f125b9d985b1a59081d1a5b59555b9a5d60821b92898c519562461bcd60e51b8752860152840152820152fd5b508391600c6b125b9d985b1a59081c995b9d60a21b92898c519562461bcd60e51b8752860152840152820152fd5b8380fd5b825162461bcd60e51b815280880186905260138184015272105b1c9958591e481a5b9a5d1a585b1a5e9959606a1b6044820152606490fd5b8680fd5b8580fd5b9050346103f957826003193601126103f95760209250549051908152f35b9050346103f95760203660031901126103f9578160209360ff923581526006855220541690519015158152f35b50503461015e578160031936011261015e5790606091610ad9610ac342610f5b565b610ad36007549160015490610d4f565b90610d78565b9154906003549181519384526020840152820152f35b83833461015e57602036600319011261015e57826101009335908360e08451610b1781610db3565b82815282602082015282868201528260608201528260808201528260a08201528260c08201520152610b4882610f5b565b93610b5b600754610ad360015488610d4f565b948152600660205260ff8482205416928194841594858096610c4e575b610c31575b835497610b97610b91600254975488610d4f565b82610d78565b9115610c29578089945b10159687610c21575b50825195610bb787610db3565b89875260208701918252838701928352606087019485526080870195865260e060a08801978a895260c081019915158a520198118852825198895251602089015251908701525160608601525160808501525160a084015251151560c083015251151560e0820152f35b96508a610baa565b808594610ba1565b9550610c48610c408884610de6565b855490610df3565b95610b7d565b50878311610b78565b90508234610609576020366003190112610609576080610c9784610c7b8535610e8d565b9391610c8d8396929496518097610d1f565b6020860190610d42565b8301526060820152f35b50503461015e578160031936011261015e576020906001549051908152f35b50503461015e578160031936011261015e5760209060ff600c541690519015158152f35b50503461015e578160031936011261015e57602090600b549051908152f35b84903461015e578160031936011261015e576020906009548152f35b906009821015610d2c5752565b634e487b7160e01b600052602160045260246000fd5b906005821015610d2c5752565b81810292918115918404141715610d6257565b634e487b7160e01b600052601160045260246000fd5b91908201809211610d6257565b60ff600554166005811015610d2c5760038114610dad57600414610da857600290565b600890565b50600490565b610100810190811067ffffffffffffffff821117610dd057604052565b634e487b7160e01b600052604160045260246000fd5b91908203918211610d6257565b8115610dfd570490565b634e487b7160e01b600052601260045260246000fd5b15610e1a57565b60405162461bcd60e51b815260206004820152600d60248201526c4f6e6c7920726567697374727960981b6044820152606490fd5b15610e5657565b60405162461bcd60e51b815260206004820152600f60248201526e139bdd081a5b9a5d1a585b1a5e9959608a1b6044820152606490fd5b610e9b60ff600c5416610e4f565b600354811015610f4757610eae81610f5b565b610ec0600754610ad360015484610d4f565b6000828152600660205260ff604082205416610f3c5781841115610f345750610eec610ef59184610de6565b60045490610df3565b915b826002548110610f275750610f0e60029183610f95565b1015610f1d5760029283929190565b6004926003929190565b9250506002926001929190565b905091610ef7565b925050600292829190565b610f5090610f5b565b600891600491600091565b60075490818110610f7f57610f7c91610f7391610de6565b60015490610df3565b90565b5050600090565b6000198114610d625760010190565b600254600754600154600095948692909190835b86811115610fba5750505050505050565b808552600660205260ff604086205416610ffe5785610fe2610fdc8584610d4f565b84610d78565b8086111561102157610eec610ff79187610de6565b101561100c575b61100790610f86565b610fa9565b9761101961100791610f86565b989050610ffe565b5085610ff756fe784218e19c0007f03f5c1f12e90bda7d4631acfbd176a7d385530c4b1f494b47a2646970667358221220530025ddcb124e6ea3fa01b60b162494d260d61f842ceb03c7e2ba7b7a6a9aaa64736f6c63430008140033",
          "opcodes": "PUSH1 0x80 DUP1 PUSH1 0x40 MSTORE CALLVALUE PUSH2 0x16 JUMPI PUSH2 0x107E SWAP1 DUP2 PUSH2 0x1C DUP3 CODECOPY RETURN JUMPDEST PUSH1 0x0 DUP1 REVERT INVALID PUSH1 0x80 PUSH1 0x40 DUP2 DUP2 MSTORE PUSH1 0x4 SWAP2 DUP3 CALLDATASIZE LT ISZERO PUSH2 0x16 JUMPI PUSH1 0x0 DUP1 REVERT JUMPDEST PUSH1 0x0 SWAP3 DUP4 CALLDATALOAD PUSH1 0xE0 SHR SWAP2 DUP3 PUSH4 0x592A612 EQ PUSH2 0xD03 JUMPI POP DUP2 PUSH4 0x7C47E64 EQ PUSH2 0xCE4 JUMPI DUP2 PUSH4 0x158EF93E EQ PUSH2 0xCC0 JUMPI DUP2 PUSH4 0x1CC1CF46 EQ PUSH2 0xCA1 JUMPI DUP2 PUSH4 0x1EBF1A55 EQ PUSH2 0xC57 JUMPI DUP2 PUSH4 0x26D3325D EQ PUSH2 0xAEF JUMPI DUP2 PUSH4 0x26FADBE2 EQ PUSH2 0xAA1 JUMPI DUP2 PUSH4 0x38F417CA EQ PUSH2 0xA74 JUMPI DUP2 PUSH4 0x3C6A7F9B EQ PUSH2 0xA56 JUMPI DUP2 PUSH4 0x439FAB91 EQ PUSH2 0x71D JUMPI DUP2 PUSH4 0x45615716 EQ PUSH2 0x6FD JUMPI DUP2 PUSH4 0x4E7C13FE EQ PUSH2 0x6A5 JUMPI DUP2 PUSH4 0x7633A22C EQ PUSH2 0x632 JUMPI DUP2 PUSH4 0x7B103999 EQ PUSH2 0x678 JUMPI DUP2 PUSH4 0x7E8B06C1 EQ PUSH2 0x659 JUMPI DUP2 PUSH4 0x8ACDCA5E EQ PUSH2 0x632 JUMPI DUP2 PUSH4 0x8C2281B0 EQ PUSH2 0x476 JUMPI DUP2 PUSH4 0xB42B2DA5 EQ PUSH2 0x457 JUMPI DUP2 PUSH4 0xBE03250B EQ PUSH2 0x438 JUMPI DUP2 PUSH4 0xD2FA0A08 EQ PUSH2 0x3FD JUMPI DUP2 PUSH4 0xDF9D58FF EQ PUSH2 0x1D6 JUMPI POP DUP1 PUSH4 0xE2957DD1 EQ PUSH2 0x1B8 JUMPI DUP1 PUSH4 0xE6FD48BC EQ PUSH2 0x19A JUMPI DUP1 PUSH4 0xE8C300EE EQ PUSH2 0x180 JUMPI DUP1 PUSH4 0xF41CB5D1 EQ PUSH2 0x162 JUMPI PUSH4 0xF8EF1E13 EQ PUSH2 0x143 JUMPI PUSH1 0x0 DUP1 REVERT JUMPDEST CALLVALUE PUSH2 0x15E JUMPI DUP2 PUSH1 0x3 NOT CALLDATASIZE ADD SLT PUSH2 0x15E JUMPI PUSH1 0x20 SWAP2 SLOAD SWAP1 MLOAD SWAP1 DUP2 MSTORE RETURN JUMPDEST POP DUP1 REVERT JUMPDEST POP CALLVALUE PUSH2 0x15E JUMPI DUP2 PUSH1 0x3 NOT CALLDATASIZE ADD SLT PUSH2 0x15E JUMPI PUSH1 0x20 SWAP1 PUSH1 0x9 SLOAD SWAP1 MLOAD SWAP1 DUP2 MSTORE RETURN JUMPDEST POP CALLVALUE PUSH2 0x15E JUMPI DUP2 PUSH1 0x3 NOT CALLDATASIZE ADD SLT PUSH2 0x15E JUMPI MLOAD SWAP1 DUP2 MSTORE PUSH1 0x20 SWAP1 RETURN JUMPDEST POP CALLVALUE PUSH2 0x15E JUMPI DUP2 PUSH1 0x3 NOT CALLDATASIZE ADD SLT PUSH2 0x15E JUMPI PUSH1 0x20 SWAP1 PUSH1 0x7 SLOAD SWAP1 MLOAD SWAP1 DUP2 MSTORE RETURN JUMPDEST POP CALLVALUE PUSH2 0x15E JUMPI DUP2 PUSH1 0x3 NOT CALLDATASIZE ADD SLT PUSH2 0x15E JUMPI PUSH1 0x20 SWAP1 PUSH1 0xA SLOAD SWAP1 MLOAD SWAP1 DUP2 MSTORE RETURN JUMPDEST SWAP1 POP CALLVALUE PUSH2 0x3F9 JUMPI DUP2 PUSH1 0x3 NOT CALLDATASIZE ADD SLT PUSH2 0x3F9 JUMPI DUP1 CALLDATALOAD PUSH1 0x24 SWAP4 DUP5 CALLDATALOAD SWAP1 PUSH2 0x214 PUSH1 0xFF PUSH1 0xC SLOAD PUSH2 0x20E PUSH1 0x1 DUP1 PUSH1 0xA0 SHL SUB DUP3 PUSH1 0x8 SHR AND CALLER EQ PUSH2 0xE13 JUMP JUMPDEST AND PUSH2 0xE4F JUMP JUMPDEST PUSH1 0xFF PUSH1 0x5 SLOAD AND PUSH1 0x5 DUP2 LT ISZERO PUSH2 0x3E7 JUMPI PUSH1 0x3 EQ PUSH2 0x3B1 JUMPI PUSH1 0x3 SLOAD DUP3 GT PUSH2 0x37F JUMPI DUP1 SLOAD DUP4 LT PUSH2 0x346 JUMPI PUSH2 0x244 DUP3 PUSH2 0xF5B JUMP JUMPDEST DUP1 DUP3 MSTORE PUSH1 0x20 SWAP7 PUSH1 0x6 DUP9 MSTORE PUSH1 0xFF DUP8 DUP5 KECCAK256 SLOAD AND PUSH2 0x30F JUMPI POP SWAP2 DUP2 DUP4 DUP9 SWAP7 SWAP5 DUP8 SWAP7 SWAP5 MSTORE PUSH1 0x6 DUP7 MSTORE PUSH32 0xA62C35DFC0FF11D3713608EBCDC5C5D1952C7702620F2C46C22950F7B70D5797 DUP9 DUP1 DUP5 KECCAK256 PUSH1 0xFF NOT SWAP1 PUSH1 0x1 DUP3 DUP3 SLOAD AND OR SWAP1 SSTORE DUP4 PUSH1 0x8 SSTORE PUSH2 0x2AA DUP8 PUSH1 0x9 SLOAD PUSH2 0xD78 JUMP JUMPDEST PUSH1 0x9 SSTORE PUSH1 0x5 SLOAD AND SWAP6 DUP7 PUSH1 0x5 SSTORE DUP2 MLOAD SWAP1 DUP2 MSTORE DUP6 DUP10 DUP3 ADD MSTORE LOG2 DUP7 MLOAD SWAP1 DUP2 MSTORE PUSH1 0x0 DUP1 MLOAD PUSH1 0x20 PUSH2 0x1029 DUP4 CODECOPY DUP2 MLOAD SWAP2 MSTORE SWAP6 DUP7 SWAP2 LOG1 PUSH1 0x3 SLOAD GT ISZERO PUSH2 0x2FB JUMPI JUMPDEST DUP3 DUP6 PUSH2 0x2F9 PUSH2 0x2F0 PUSH2 0xD85 JUMP JUMPDEST SWAP2 MLOAD DUP1 SWAP3 PUSH2 0xD1F JUMP JUMPDEST RETURN JUMPDEST DUP2 OR PUSH1 0x5 SSTORE DUP4 MLOAD SWAP1 DUP2 MSTORE LOG1 CODESIZE DUP3 DUP2 DUP1 PUSH2 0x2E3 JUMP JUMPDEST DUP6 PUSH1 0x13 PUSH1 0x64 SWAP3 DUP11 DUP11 MLOAD SWAP4 PUSH3 0x461BCD PUSH1 0xE5 SHL DUP6 MSTORE DUP5 ADD MSTORE DUP3 ADD MSTORE PUSH19 0x14195C9A5BD908185B1C9958591E481C185A59 PUSH1 0x6A SHL PUSH1 0x44 DUP3 ADD MSTORE REVERT JUMPDEST DUP5 MLOAD PUSH3 0x461BCD PUSH1 0xE5 SHL DUP2 MSTORE PUSH1 0x20 DUP2 DUP7 ADD MSTORE PUSH1 0x14 DUP2 DUP9 ADD MSTORE PUSH20 0x125B9CDD59999A58DA595B9D081C185E5B595B9D PUSH1 0x62 SHL PUSH1 0x44 DUP3 ADD MSTORE PUSH1 0x64 SWAP1 REVERT JUMPDEST DUP5 MLOAD PUSH3 0x461BCD PUSH1 0xE5 SHL DUP2 MSTORE PUSH1 0x20 DUP2 DUP7 ADD MSTORE PUSH1 0xD DUP2 DUP9 ADD MSTORE PUSH13 0x1319585CD948195E1C1A5C9959 PUSH1 0x9A SHL PUSH1 0x44 DUP3 ADD MSTORE PUSH1 0x64 SWAP1 REVERT JUMPDEST DUP5 MLOAD PUSH3 0x461BCD PUSH1 0xE5 SHL DUP2 MSTORE PUSH1 0x20 DUP2 DUP7 ADD MSTORE PUSH1 0x11 DUP2 DUP9 ADD MSTORE PUSH17 0x105B1C9958591E48191959985D5B1D1959 PUSH1 0x7A SHL PUSH1 0x44 DUP3 ADD MSTORE PUSH1 0x64 SWAP1 REVERT JUMPDEST PUSH4 0x4E487B71 PUSH1 0xE0 SHL DUP3 MSTORE PUSH1 0x21 DUP6 MSTORE DUP7 DUP3 REVERT JUMPDEST DUP3 DUP1 REVERT JUMPDEST SWAP2 SWAP1 POP CALLVALUE PUSH2 0x3F9 JUMPI PUSH1 0x20 CALLDATASIZE PUSH1 0x3 NOT ADD SLT PUSH2 0x3F9 JUMPI DUP2 PUSH1 0x20 SWAP2 PUSH1 0x0 DUP1 MLOAD PUSH1 0x20 PUSH2 0x1029 DUP4 CODECOPY DUP2 MLOAD SWAP2 MSTORE SWAP4 PUSH1 0xFF NOT PUSH1 0x5 SLOAD AND OR PUSH1 0x5 SSTORE MLOAD SWAP1 DUP2 MSTORE LOG1 DUP1 RETURN JUMPDEST POP POP CALLVALUE PUSH2 0x15E JUMPI DUP2 PUSH1 0x3 NOT CALLDATASIZE ADD SLT PUSH2 0x15E JUMPI PUSH1 0x20 SWAP1 PUSH1 0x8 SLOAD SWAP1 MLOAD SWAP1 DUP2 MSTORE RETURN JUMPDEST POP POP CALLVALUE PUSH2 0x15E JUMPI DUP2 PUSH1 0x3 NOT CALLDATASIZE ADD SLT PUSH2 0x15E JUMPI PUSH1 0x20 SWAP1 PUSH1 0x3 SLOAD SWAP1 MLOAD SWAP1 DUP2 MSTORE RETURN JUMPDEST SWAP1 POP DUP3 CALLVALUE PUSH2 0x609 JUMPI PUSH1 0x20 CALLDATASIZE PUSH1 0x3 NOT ADD SLT PUSH2 0x609 JUMPI DUP2 CALLDATALOAD SWAP2 PUSH2 0x4A5 PUSH1 0x1 DUP1 PUSH1 0xA0 SHL SUB PUSH1 0xC SLOAD PUSH1 0x8 SHR AND CALLER EQ PUSH2 0xE13 JUMP JUMPDEST DUP4 MLOAD PUSH4 0x1EBF1A55 PUSH1 0xE0 SHL DUP2 MSTORE DUP2 DUP2 ADD DUP5 SWAP1 MSTORE SWAP2 PUSH1 0x80 DUP4 PUSH1 0x24 DUP2 ADDRESS GAS STATICCALL SWAP2 DUP3 ISZERO PUSH2 0x626 JUMPI DUP2 SWAP5 DUP3 SWAP5 DUP4 SWAP5 PUSH2 0x5A4 JUMPI JUMPDEST POP PUSH1 0x5 SLOAD SWAP4 PUSH1 0xFF DUP6 AND SWAP5 PUSH1 0x5 DUP8 LT ISZERO PUSH2 0x591 JUMPI PUSH1 0xFF NOT AND PUSH1 0xFF DUP8 AND OR PUSH1 0x5 SSTORE DUP4 SWAP2 PUSH1 0x2 DUP8 EQ DUP1 ISZERO PUSH2 0x584 JUMPI JUMPDEST PUSH2 0x56D JUMPI JUMPDEST POP POP PUSH2 0x55A JUMPI PUSH1 0x5 DUP4 LT ISZERO PUSH2 0x55A JUMPI POP POP SWAP1 DUP1 PUSH2 0x2F9 SWAP3 SUB PUSH2 0x537 JUMPI JUMPDEST PUSH2 0x52D DUP5 MLOAD DUP1 SWAP5 PUSH2 0xD1F JUMP JUMPDEST PUSH1 0x20 DUP4 ADD SWAP1 PUSH2 0xD42 JUMP JUMPDEST PUSH1 0x0 DUP1 MLOAD PUSH1 0x20 PUSH2 0x1029 DUP4 CODECOPY DUP2 MLOAD SWAP2 MSTORE PUSH1 0x20 DUP6 MLOAD PUSH2 0x554 DUP2 DUP6 PUSH2 0xD42 JUMP JUMPDEST LOG1 PUSH2 0x521 JUMP JUMPDEST PUSH4 0x4E487B71 PUSH1 0xE0 SHL DUP3 MSTORE PUSH1 0x21 SWAP1 MSTORE PUSH1 0x24 SWAP1 REVERT JUMPDEST PUSH2 0x577 SWAP1 DUP3 PUSH2 0xF95 JUMP JUMPDEST PUSH1 0xA SSTORE PUSH1 0xB SSTORE DUP8 DUP1 PUSH2 0x504 JUMP JUMPDEST POP DUP5 SWAP3 POP PUSH1 0x3 DUP8 EQ PUSH2 0x4FF JUMP JUMPDEST PUSH4 0x4E487B71 PUSH1 0xE0 SHL DUP6 MSTORE PUSH1 0x21 DUP5 MSTORE PUSH1 0x24 DUP6 REVERT JUMPDEST SWAP6 POP SWAP3 POP SWAP3 POP PUSH1 0x80 RETURNDATASIZE DUP2 GT PUSH2 0x61F JUMPI JUMPDEST PUSH1 0x1F DUP2 ADD PUSH1 0x1F NOT AND DUP6 ADD PUSH8 0xFFFFFFFFFFFFFFFF DUP2 GT DUP7 DUP3 LT OR PUSH2 0x60C JUMPI PUSH1 0x80 SWAP2 DUP7 SWAP2 DUP9 MSTORE DUP2 ADD SUB SLT PUSH2 0x609 JUMPI DUP4 MLOAD SWAP3 PUSH1 0x9 DUP5 LT ISZERO PUSH2 0x15E JUMPI PUSH1 0x20 DUP6 ADD MLOAD SWAP5 PUSH1 0x5 DUP7 LT ISZERO PUSH2 0x3F9 JUMPI PUSH1 0x60 ADD MLOAD SWAP4 SWAP5 SWAP4 SWAP3 DUP8 PUSH2 0x4D3 JUMP JUMPDEST DUP1 REVERT JUMPDEST PUSH4 0x4E487B71 PUSH1 0xE0 SHL DUP4 MSTORE PUSH1 0x41 DUP6 MSTORE PUSH1 0x24 DUP4 REVERT JUMPDEST POP RETURNDATASIZE PUSH2 0x5B4 JUMP JUMPDEST POP DUP5 MLOAD SWAP1 RETURNDATASIZE SWAP1 DUP3 RETURNDATACOPY RETURNDATASIZE SWAP1 REVERT JUMPDEST POP POP CALLVALUE PUSH2 0x15E JUMPI DUP2 PUSH1 0x3 NOT CALLDATASIZE ADD SLT PUSH2 0x15E JUMPI PUSH1 0x20 SWAP1 PUSH2 0x2F9 PUSH1 0xFF PUSH1 0x5 SLOAD AND SWAP2 MLOAD DUP1 SWAP3 PUSH2 0xD42 JUMP JUMPDEST POP POP CALLVALUE PUSH2 0x15E JUMPI DUP2 PUSH1 0x3 NOT CALLDATASIZE ADD SLT PUSH2 0x15E JUMPI PUSH1 0x20 SWAP1 PUSH1 0x2 SLOAD SWAP1 MLOAD SWAP1 DUP2 MSTORE RETURN JUMPDEST POP POP CALLVALUE PUSH2 0x15E JUMPI DUP2 PUSH1 0x3 NOT CALLDATASIZE ADD SLT PUSH2 0x15E JUMPI PUSH1 0xC SLOAD SWAP1 MLOAD PUSH1 0x8 SWAP2 SWAP1 SWAP2 SHR PUSH1 0x1 PUSH1 0x1 PUSH1 0xA0 SHL SUB AND DUP2 MSTORE PUSH1 0x20 SWAP1 RETURN JUMPDEST POP POP CALLVALUE PUSH2 0x15E JUMPI DUP2 PUSH1 0x3 NOT CALLDATASIZE ADD SLT PUSH2 0x15E JUMPI PUSH1 0x20 SWAP1 PUSH2 0x6D2 PUSH1 0x1 DUP1 PUSH1 0xA0 SHL SUB PUSH1 0xC SLOAD PUSH1 0x8 SHR AND CALLER EQ PUSH2 0xE13 JUMP JUMPDEST PUSH1 0x3 PUSH1 0xFF NOT PUSH1 0x5 SLOAD AND OR PUSH1 0x5 SSTORE PUSH1 0x0 DUP1 MLOAD PUSH1 0x20 PUSH2 0x1029 DUP4 CODECOPY DUP2 MLOAD SWAP2 MSTORE DUP3 DUP3 MLOAD PUSH1 0x3 DUP2 MSTORE LOG1 MLOAD PUSH1 0x1 DUP2 MSTORE RETURN JUMPDEST POP POP CALLVALUE PUSH2 0x15E JUMPI DUP2 PUSH1 0x3 NOT CALLDATASIZE ADD SLT PUSH2 0x15E JUMPI PUSH1 0x20 SWAP1 PUSH2 0x2F9 PUSH2 0x2F0 PUSH2 0xD85 JUMP JUMPDEST SWAP2 SWAP1 POP CALLVALUE PUSH2 0x3F9 JUMPI PUSH1 0x20 DUP1 PUSH1 0x3 NOT CALLDATASIZE ADD SLT PUSH2 0xA12 JUMPI DUP3 CALLDATALOAD SWAP2 PUSH8 0xFFFFFFFFFFFFFFFF DUP1 DUP5 GT PUSH2 0xA52 JUMPI CALLDATASIZE PUSH1 0x23 DUP6 ADD SLT ISZERO PUSH2 0xA52 JUMPI DUP4 DUP6 ADD CALLDATALOAD SWAP1 DUP2 GT PUSH2 0xA52 JUMPI DUP4 ADD SWAP1 PUSH1 0x24 CALLDATASIZE DUP2 DUP5 ADD GT PUSH2 0xA4E JUMPI PUSH1 0xC SLOAD SWAP3 PUSH1 0xFF DUP5 AND PUSH2 0xA16 JUMPI SWAP1 PUSH1 0xE0 DUP7 DUP10 SWAP6 SWAP5 SWAP4 SUB SLT PUSH2 0xA12 JUMPI DUP6 SWAP5 DUP6 SWAP5 DUP6 SWAP5 DUP4 DUP7 ADD CALLDATALOAD SWAP10 DUP7 PUSH1 0x44 DUP1 DUP3 ADD CALLDATALOAD SWAP7 PUSH1 0xE4 PUSH1 0xC4 PUSH1 0xA4 PUSH1 0x84 PUSH1 0x64 DUP1 SWAP8 ADD CALLDATALOAD SWAP14 ADD CALLDATALOAD SWAP14 ADD CALLDATALOAD SWAP14 ADD CALLDATALOAD SWAP14 ADD CALLDATALOAD SWAP6 PUSH1 0x1 DUP1 PUSH1 0xA0 SHL SUB SWAP1 DUP2 DUP9 AND DUP9 SUB PUSH2 0x609 JUMPI PUSH1 0x3 DUP15 SWAP1 SSTORE PUSH1 0x2 DUP14 SWAP1 SSTORE PUSH1 0x1 DUP11 SWAP1 SSTORE DUP16 SWAP1 SSTORE PUSH1 0x8 SWAP7 SWAP1 SWAP7 SHL PUSH2 0x100 PUSH1 0x1 PUSH1 0xA8 SHL SUB AND SWAP6 DUP15 ISZERO PUSH2 0x9E4 JUMPI DUP14 ISZERO PUSH2 0x9B2 JUMPI DUP14 DUP1 PUSH1 0x1C MUL SWAP1 PUSH1 0x1C DUP3 DIV SUB PUSH2 0x99F JUMPI DUP10 LT PUSH2 0x96B JUMPI PUSH2 0x100 PUSH1 0x1 PUSH1 0xA8 SHL SUB NOT DUP7 AND DUP8 OR PUSH1 0x8 SHR AND ISZERO PUSH2 0x93A JUMPI DUP13 PUSH1 0x5 MUL DUP14 PUSH1 0x5 DUP3 DIV SUB PUSH2 0x928 JUMPI PUSH2 0x835 SWAP1 DUP12 PUSH2 0xD78 JUMP JUMPDEST TIMESTAMP GT PUSH2 0x8EA JUMPI DUP10 DUP13 GT ISZERO PUSH2 0x8AC JUMPI POP POP POP PUSH1 0x7 DUP8 SWAP1 SSTORE DUP10 SWAP1 SSTORE PUSH1 0x5 DUP1 SLOAD PUSH1 0xFF NOT AND SWAP1 SSTORE PUSH1 0x1 PUSH1 0x1 PUSH1 0xA8 SHL SUB NOT AND OR PUSH1 0x1 OR PUSH1 0xC SSTORE DUP3 MLOAD SWAP8 DUP9 MSTORE DUP8 ADD MSTORE DUP6 ADD MSTORE PUSH1 0x60 DUP5 ADD MSTORE PUSH1 0x80 DUP4 ADD MSTORE PUSH1 0xA0 DUP3 ADD MSTORE PUSH32 0xF9942075BE21ECF4573E3DB2AC4F77F2D4F78F089A1B02B79062DCEDE6B95627 SWAP1 PUSH1 0xC0 SWAP1 LOG1 DUP1 RETURN JUMPDEST DUP4 SWAP2 PUSH1 0x1A PUSH32 0x4C6561736520656E64206265666F726520666972737420647565000000000000 SWAP3 DUP10 DUP13 MLOAD SWAP6 PUSH3 0x461BCD PUSH1 0xE5 SHL DUP8 MSTORE DUP7 ADD MSTORE DUP5 ADD MSTORE DUP3 ADD MSTORE REVERT JUMPDEST DUP4 SWAP2 PUSH1 0x1E PUSH32 0x466972737420647565206461746520746F6F2066617220696E20706173740000 SWAP3 DUP10 DUP13 MLOAD SWAP6 PUSH3 0x461BCD PUSH1 0xE5 SHL DUP8 MSTORE DUP7 ADD MSTORE DUP5 ADD MSTORE DUP3 ADD MSTORE REVERT JUMPDEST POP PUSH4 0x4E487B71 PUSH1 0xE0 SHL DUP16 MSTORE PUSH1 0x11 DUP5 MSTORE DUP15 REVERT JUMPDEST DUP4 SWAP2 PUSH1 0x10 PUSH16 0x496E76616C6964207265676973747279 PUSH1 0x80 SHL SWAP3 DUP10 DUP13 MLOAD SWAP6 PUSH3 0x461BCD PUSH1 0xE5 SHL DUP8 MSTORE DUP7 ADD MSTORE DUP5 ADD MSTORE DUP3 ADD MSTORE REVERT JUMPDEST POP DUP4 SWAP2 PUSH1 0x12 PUSH18 0x125B9D195C9D985B081D1BDBC81CDA1BDC9D PUSH1 0x72 SHL SWAP3 DUP10 DUP13 MLOAD SWAP6 PUSH3 0x461BCD PUSH1 0xE5 SHL DUP8 MSTORE DUP7 ADD MSTORE DUP5 ADD MSTORE DUP3 ADD MSTORE REVERT JUMPDEST POP POP PUSH4 0x4E487B71 PUSH1 0xE0 SHL DUP16 MSTORE PUSH1 0x11 DUP5 MSTORE DUP15 REVERT JUMPDEST POP DUP4 SWAP2 PUSH1 0x10 PUSH16 0x125B9D985B1A59081D1A5B59555B9A5D PUSH1 0x82 SHL SWAP3 DUP10 DUP13 MLOAD SWAP6 PUSH3 0x461BCD PUSH1 0xE5 SHL DUP8 MSTORE DUP7 ADD MSTORE DUP5 ADD MSTORE DUP3 ADD MSTORE REVERT JUMPDEST POP DUP4 SWAP2 PUSH1 0xC PUSH12 0x125B9D985B1A59081C995B9D PUSH1 0xA2 SHL SWAP3 DUP10 DUP13 MLOAD SWAP6 PUSH3 0x461BCD PUSH1 0xE5 SHL DUP8 MSTORE DUP7 ADD MSTORE DUP5 ADD MSTORE DUP3 ADD MSTORE REVERT JUMPDEST DUP4 DUP1 REVERT JUMPDEST DUP3 MLOAD PUSH3 0x461BCD PUSH1 0xE5 SHL DUP2 MSTORE DUP1 DUP9 ADD DUP7 SWAP1 MSTORE PUSH1 0x13 DUP2 DUP5 ADD MSTORE PUSH19 0x105B1C9958591E481A5B9A5D1A585B1A5E9959 PUSH1 0x6A SHL PUSH1 0x44 DUP3 ADD MSTORE PUSH1 0x64 SWAP1 REVERT JUMPDEST DUP7 DUP1 REVERT JUMPDEST DUP6 DUP1 REVERT JUMPDEST SWAP1 POP CALLVALUE PUSH2 0x3F9 JUMPI DUP3 PUSH1 0x3 NOT CALLDATASIZE ADD SLT PUSH2 0x3F9 JUMPI PUSH1 0x20 SWAP3 POP SLOAD SWAP1 MLOAD SWAP1 DUP2 MSTORE RETURN JUMPDEST SWAP1 POP CALLVALUE PUSH2 0x3F9 JUMPI PUSH1 0x20 CALLDATASIZE PUSH1 0x3 NOT ADD SLT PUSH2 0x3F9 JUMPI DUP2 PUSH1 0x20 SWAP4 PUSH1 0xFF SWAP3 CALLDATALOAD DUP2 MSTORE PUSH1 0x6 DUP6 MSTORE KECCAK256 SLOAD AND SWAP1 MLOAD SWAP1 ISZERO ISZERO DUP2 MSTORE RETURN JUMPDEST POP POP CALLVALUE PUSH2 0x15E JUMPI DUP2 PUSH1 0x3 NOT CALLDATASIZE ADD SLT PUSH2 0x15E JUMPI SWAP1 PUSH1 0x60 SWAP2 PUSH2 0xAD9 PUSH2 0xAC3 TIMESTAMP PUSH2 0xF5B JUMP JUMPDEST PUSH2 0xAD3 PUSH1 0x7 SLOAD SWAP2 PUSH1 0x1 SLOAD SWAP1 PUSH2 0xD4F JUMP JUMPDEST SWAP1 PUSH2 0xD78 JUMP JUMPDEST SWAP2 SLOAD SWAP1 PUSH1 0x3 SLOAD SWAP2 DUP2 MLOAD SWAP4 DUP5 MSTORE PUSH1 0x20 DUP5 ADD MSTORE DUP3 ADD MSTORE RETURN JUMPDEST DUP4 DUP4 CALLVALUE PUSH2 0x15E JUMPI PUSH1 0x20 CALLDATASIZE PUSH1 0x3 NOT ADD SLT PUSH2 0x15E JUMPI DUP3 PUSH2 0x100 SWAP4 CALLDATALOAD SWAP1 DUP4 PUSH1 0xE0 DUP5 MLOAD PUSH2 0xB17 DUP2 PUSH2 0xDB3 JUMP JUMPDEST DUP3 DUP2 MSTORE DUP3 PUSH1 0x20 DUP3 ADD MSTORE DUP3 DUP7 DUP3 ADD MSTORE DUP3 PUSH1 0x60 DUP3 ADD MSTORE DUP3 PUSH1 0x80 DUP3 ADD MSTORE DUP3 PUSH1 0xA0 DUP3 ADD MSTORE DUP3 PUSH1 0xC0 DUP3 ADD MSTORE ADD MSTORE PUSH2 0xB48 DUP3 PUSH2 0xF5B JUMP JUMPDEST SWAP4 PUSH2 0xB5B PUSH1 0x7 SLOAD PUSH2 0xAD3 PUSH1 0x1 SLOAD DUP9 PUSH2 0xD4F JUMP JUMPDEST SWAP5 DUP2 MSTORE PUSH1 0x6 PUSH1 0x20 MSTORE PUSH1 0xFF DUP5 DUP3 KECCAK256 SLOAD AND SWAP3 DUP2 SWAP5 DUP5 ISZERO SWAP5 DUP6 DUP1 SWAP7 PUSH2 0xC4E JUMPI JUMPDEST PUSH2 0xC31 JUMPI JUMPDEST DUP4 SLOAD SWAP8 PUSH2 0xB97 PUSH2 0xB91 PUSH1 0x2 SLOAD SWAP8 SLOAD DUP9 PUSH2 0xD4F JUMP JUMPDEST DUP3 PUSH2 0xD78 JUMP JUMPDEST SWAP2 ISZERO PUSH2 0xC29 JUMPI DUP1 DUP10 SWAP5 JUMPDEST LT ISZERO SWAP7 DUP8 PUSH2 0xC21 JUMPI JUMPDEST POP DUP3 MLOAD SWAP6 PUSH2 0xBB7 DUP8 PUSH2 0xDB3 JUMP JUMPDEST DUP10 DUP8 MSTORE PUSH1 0x20 DUP8 ADD SWAP2 DUP3 MSTORE DUP4 DUP8 ADD SWAP3 DUP4 MSTORE PUSH1 0x60 DUP8 ADD SWAP5 DUP6 MSTORE PUSH1 0x80 DUP8 ADD SWAP6 DUP7 MSTORE PUSH1 0xE0 PUSH1 0xA0 DUP9 ADD SWAP8 DUP11 DUP10 MSTORE PUSH1 0xC0 DUP2 ADD SWAP10 ISZERO ISZERO DUP11 MSTORE ADD SWAP9 GT DUP9 MSTORE DUP3 MLOAD SWAP9 DUP10 MSTORE MLOAD PUSH1 0x20 DUP10 ADD MSTORE MLOAD SWAP1 DUP8 ADD MSTORE MLOAD PUSH1 0x60 DUP7 ADD MSTORE MLOAD PUSH1 0x80 DUP6 ADD MSTORE MLOAD PUSH1 0xA0 DUP5 ADD MSTORE MLOAD ISZERO ISZERO PUSH1 0xC0 DUP4 ADD MSTORE MLOAD ISZERO ISZERO PUSH1 0xE0 DUP3 ADD MSTORE RETURN JUMPDEST SWAP7 POP DUP11 PUSH2 0xBAA JUMP JUMPDEST DUP1 DUP6 SWAP5 PUSH2 0xBA1 JUMP JUMPDEST SWAP6 POP PUSH2 0xC48 PUSH2 0xC40 DUP9 DUP5 PUSH2 0xDE6 JUMP JUMPDEST DUP6 SLOAD SWAP1 PUSH2 0xDF3 JUMP JUMPDEST SWAP6 PUSH2 0xB7D JUMP JUMPDEST POP DUP8 DUP4 GT PUSH2 0xB78 JUMP JUMPDEST SWAP1 POP DUP3 CALLVALUE PUSH2 0x609 JUMPI PUSH1 0x20 CALLDATASIZE PUSH1 0x3 NOT ADD SLT PUSH2 0x609 JUMPI PUSH1 0x80 PUSH2 0xC97 DUP5 PUSH2 0xC7B DUP6 CALLDATALOAD PUSH2 0xE8D JUMP JUMPDEST SWAP4 SWAP2 PUSH2 0xC8D DUP4 SWAP7 SWAP3 SWAP5 SWAP7 MLOAD DUP1 SWAP8 PUSH2 0xD1F JUMP JUMPDEST PUSH1 0x20 DUP7 ADD SWAP1 PUSH2 0xD42 JUMP JUMPDEST DUP4 ADD MSTORE PUSH1 0x60 DUP3 ADD MSTORE RETURN JUMPDEST POP POP CALLVALUE PUSH2 0x15E JUMPI DUP2 PUSH1 0x3 NOT CALLDATASIZE ADD SLT PUSH2 0x15E JUMPI PUSH1 0x20 SWAP1 PUSH1 0x1 SLOAD SWAP1 MLOAD SWAP1 DUP2 MSTORE RETURN JUMPDEST POP POP CALLVALUE PUSH2 0x15E JUMPI DUP2 PUSH1 0x3 NOT CALLDATASIZE ADD SLT PUSH2 0x15E JUMPI PUSH1 0x20 SWAP1 PUSH1 0xFF PUSH1 0xC SLOAD AND SWAP1 MLOAD SWAP1 ISZERO ISZERO DUP2 MSTORE RETURN JUMPDEST POP POP CALLVALUE PUSH2 0x15E JUMPI DUP2 PUSH1 0x3 NOT CALLDATASIZE ADD SLT PUSH2 0x15E JUMPI PUSH1 0x20 SWAP1 PUSH1 0xB SLOAD SWAP1 MLOAD SWAP1 DUP2 MSTORE RETURN JUMPDEST DUP5 SWAP1 CALLVALUE PUSH2 0x15E JUMPI DUP2 PUSH1 0x3 NOT CALLDATASIZE ADD SLT PUSH2 0x15E JUMPI PUSH1 0x20 SWAP1 PUSH1 0x9 SLOAD DUP2 MSTORE RETURN JUMPDEST SWAP1 PUSH1 0x9 DUP3 LT ISZERO PUSH2 0xD2C JUMPI MSTORE JUMP JUMPDEST PUSH4 0x4E487B71 PUSH1 0xE0 SHL PUSH1 0x0 MSTORE PUSH1 0x21 PUSH1 0x4 MSTORE PUSH1 0x24 PUSH1 0x0 REVERT JUMPDEST SWAP1 PUSH1 0x5 DUP3 LT ISZERO PUSH2 0xD2C JUMPI MSTORE JUMP JUMPDEST DUP2 DUP2 MUL SWAP3 SWAP2 DUP2 ISZERO SWAP2 DUP5 DIV EQ OR ISZERO PUSH2 0xD62 JUMPI JUMP JUMPDEST PUSH4 0x4E487B71 PUSH1 0xE0 SHL PUSH1 0x0 MSTORE PUSH1 0x11 PUSH1 0x4 MSTORE PUSH1 0x24 PUSH1 0x0 REVERT JUMPDEST SWAP2 SWAP1 DUP3 ADD DUP1 SWAP3 GT PUSH2 0xD62 JUMPI JUMP JUMPDEST PUSH1 0xFF PUSH1 0x5 SLOAD AND PUSH1 0x5 DUP2 LT ISZERO PUSH2 0xD2C JUMPI PUSH1 0x3 DUP2 EQ PUSH2 0xDAD JUMPI PUSH1 0x4 EQ PUSH2 0xDA8 JUMPI PUSH1 0x2 SWAP1 JUMP JUMPDEST PUSH1 0x8 SWAP1 JUMP JUMPDEST POP PUSH1 0x4 SWAP1 JUMP JUMPDEST PUSH2 0x100 DUP2 ADD SWAP1 DUP2 LT PUSH8 0xFFFFFFFFFFFFFFFF DUP3 GT OR PUSH2 0xDD0 JUMPI PUSH1 0x40 MSTORE JUMP JUMPDEST PUSH4 0x4E487B71 PUSH1 0xE0 SHL PUSH1 0x0 MSTORE PUSH1 0x41 PUSH1 0x4 MSTORE PUSH1 0x24 PUSH1 0x0 REVERT JUMPDEST SWAP2 SWAP1 DUP3 SUB SWAP2 DUP3 GT PUSH2 0xD62 JUMPI JUMP JUMPDEST DUP2 ISZERO PUSH2 0xDFD JUMPI DIV SWAP1 JUMP JUMPDEST PUSH4 0x4E487B71 PUSH1 0xE0 SHL PUSH1 0x0 MSTORE PUSH1 0x12 PUSH1 0x4 MSTORE PUSH1 0x24 PUSH1 0x0 REVERT JUMPDEST ISZERO PUSH2 0xE1A JUMPI JUMP JUMPDEST PUSH1 0x40 MLOAD PUSH3 0x461BCD PUSH1 0xE5 SHL DUP2 MSTORE PUSH1 0x20 PUSH1 0x4 DUP3 ADD MSTORE PUSH1 0xD PUSH1 0x24 DUP3 ADD MSTORE PUSH13 0x4F6E6C79207265676973747279 PUSH1 0x98 SHL PUSH1 0x44 DUP3 ADD MSTORE PUSH1 0x64 SWAP1 REVERT JUMPDEST ISZERO PUSH2 0xE56 JUMPI JUMP JUMPDEST PUSH1 0x40 MLOAD PUSH3 0x461BCD PUSH1 0xE5 SHL DUP2 MSTORE PUSH1 0x20 PUSH1 0x4 DUP3 ADD MSTORE PUSH1 0xF PUSH1 0x24 DUP3 ADD MSTORE PUSH15 0x139BDD081A5B9A5D1A585B1A5E9959 PUSH1 0x8A SHL PUSH1 0x44 DUP3 ADD MSTORE PUSH1 0x64 SWAP1 REVERT JUMPDEST PUSH2 0xE9B PUSH1 0xFF PUSH1 0xC SLOAD AND PUSH2 0xE4F JUMP JUMPDEST PUSH1 0x3 SLOAD DUP2 LT ISZERO PUSH2 0xF47 JUMPI PUSH2 0xEAE DUP2 PUSH2 0xF5B JUMP JUMPDEST PUSH2 0xEC0 PUSH1 0x7 SLOAD PUSH2 0xAD3 PUSH1 0x1 SLOAD DUP5 PUSH2 0xD4F JUMP JUMPDEST PUSH1 0x0 DUP3 DUP2 MSTORE PUSH1 0x6 PUSH1 0x20 MSTORE PUSH1 0xFF PUSH1 0x40 DUP3 KECCAK256 SLOAD AND PUSH2 0xF3C JUMPI DUP2 DUP5 GT ISZERO PUSH2 0xF34 JUMPI POP PUSH2 0xEEC PUSH2 0xEF5 SWAP2 DUP5 PUSH2 0xDE6 JUMP JUMPDEST PUSH1 0x4 SLOAD SWAP1 PUSH2 0xDF3 JUMP JUMPDEST SWAP2 JUMPDEST DUP3 PUSH1 0x2 SLOAD DUP2 LT PUSH2 0xF27 JUMPI POP PUSH2 0xF0E PUSH1 0x2 SWAP2 DUP4 PUSH2 0xF95 JUMP JUMPDEST LT ISZERO PUSH2 0xF1D JUMPI PUSH1 0x2 SWAP3 DUP4 SWAP3 SWAP2 SWAP1 JUMP JUMPDEST PUSH1 0x4 SWAP3 PUSH1 0x3 SWAP3 SWAP2 SWAP1 JUMP JUMPDEST SWAP3 POP POP PUSH1 0x2 SWAP3 PUSH1 0x1 SWAP3 SWAP2 SWAP1 JUMP JUMPDEST SWAP1 POP SWAP2 PUSH2 0xEF7 JUMP JUMPDEST SWAP3 POP POP PUSH1 0x2 SWAP3 DUP3 SWAP2 SWAP1 JUMP JUMPDEST PUSH2 0xF50 SWAP1 PUSH2 0xF5B JUMP JUMPDEST PUSH1 0x8 SWAP2 PUSH1 0x4 SWAP2 PUSH1 0x0 SWAP2 JUMP JUMPDEST PUSH1 0x7 SLOAD SWAP1 DUP2 DUP2 LT PUSH2 0xF7F JUMPI PUSH2 0xF7C SWAP2 PUSH2 0xF73 SWAP2 PUSH2 0xDE6 JUMP JUMPDEST PUSH1 0x1 SLOAD SWAP1 PUSH2 0xDF3 JUMP JUMPDEST SWAP1 JUMP JUMPDEST POP POP PUSH1 0x0 SWAP1 JUMP JUMPDEST PUSH1 0x0 NOT DUP2 EQ PUSH2 0xD62 JUMPI PUSH1 0x1 ADD SWAP1 JUMP JUMPDEST PUSH1 0x2 SLOAD PUSH1 0x7 SLOAD PUSH1 0x1 SLOAD PUSH1 0x0 SWAP6 SWAP5 DUP7 SWAP3 SWAP1 SWAP2 SWAP1 DUP4 JUMPDEST DUP7 DUP2 GT ISZERO PUSH2 0xFBA JUMPI POP POP POP POP POP POP POP JUMP JUMPDEST DUP1 DUP6 MSTORE PUSH1 0x6 PUSH1 0x20 MSTORE PUSH1 0xFF PUSH1 0x40 DUP7 KECCAK256 SLOAD AND PUSH2 0xFFE JUMPI DUP6 PUSH2 0xFE2 PUSH2 0xFDC DUP6 DUP5 PUSH2 0xD4F JUMP JUMPDEST DUP5 PUSH2 0xD78 JUMP JUMPDEST DUP1 DUP7 GT ISZERO PUSH2 0x1021 JUMPI PUSH2 0xEEC PUSH2 0xFF7 SWAP2 DUP8 PUSH2 0xDE6 JUMP JUMPDEST LT ISZERO PUSH2 0x100C JUMPI JUMPDEST PUSH2 0x1007 SWAP1 PUSH2 0xF86 JUMP JUMPDEST PUSH2 0xFA9 JUMP JUMPDEST SWAP8 PUSH2 0x1019 PUSH2 0x1007 SWAP2 PUSH2 0xF86 JUMP JUMPDEST SWAP9 SWAP1 POP PUSH2 0xFFE JUMP JUMPDEST POP DUP6 PUSH2 0xFF7 JUMP INVALID PUSH25 0x4218E19C0007F03F5C1F12E90BDA7D4631ACFBD176A7D38553 0xC 0x4B 0x1F 0x49 0x4B SELFBALANCE LOG2 PUSH5 0x6970667358 0x22 SLT KECCAK256 MSTORE8 STOP 0x25 0xDD 0xCB SLT 0x4E PUSH15 0xA3FA01B60B162494D260D61F842CEB SUB 0xC7 0xE2 0xBA PUSH28 0x7A6A9AAA64736F6C6343000814003300000000000000000000000000 "
        },
        "methodIdentifiers": {
          "evaluateDefault(uint256)": "8c2281b0",
          "forceDefault()": "4e7c13fe",
          "getAssetStatus()": "45615716",
          "getCashflowHealth()": "8acdca5e",
          "getExpectedPayment(uint256)": "26d3325d",
          "getRemainingPrincipal()": "e8c300ee",
          "getSchedule()": "26fadbe2",
          "getTotalReceived()": "0592a612",
          "gracePeriodUnits()": "7e8b06c1",
          "health()": "7633a22c",
          "initialize(bytes)": "439fab91",
          "initialized()": "158ef93e",
          "lastMissedPeriod()": "07c47e64",
          "lastPaidPeriod()": "be03250b",
          "leaseEndDate()": "b42b2da5",
          "markMatured(uint256)": "d2fa0a08",
          "missedPeriods()": "e2957dd1",
          "paymentInterval()": "1cc1cf46",
          "periodPaid(uint256)": "38f417ca",
          "previewDefault(uint256)": "1ebf1a55",
          "processPayment(uint256,uint256)": "df9d58ff",
          "registry()": "7b103999",
          "rentAmount()": "f8ef1e13",
          "startTimestamp()": "e6fd48bc",
          "timeUnit()": "3c6a7f9b",
          "totalAmountPaid()": "f41cb5d1"
        }
      }
    }
  }
}