{
  "contracts/RWARevenueVault.sol": {
    "RWARevenueVault": {
      "abi": [
        {
          "inputs": [],
          "stateMutability": "nonpayable",
          "type": "constructor"
        },
        {
          "inputs": [],
          "name": "AccessControlBadConfirmation",
          "type": "error"
        },
        {
          "inputs": [
            {
              "internalType": "address",
              "name": "account",
              "type": "address"
            },
            {
              "internalType": "bytes32",
              "name": "neededRole",
              "type": "bytes32"
            }
          ],
          "name": "AccessControlUnauthorizedAccount",
          "type": "error"
        },
        {
          "inputs": [],
          "name": "ReentrancyGuardReentrantCall",
          "type": "error"
        },
        {
          "anonymous": false,
          "inputs": [
            {
              "indexed": false,
              "internalType": "uint256",
              "name": "amount",
              "type": "uint256"
            },
            {
              "indexed": false,
              "internalType": "string",
              "name": "strategyId",
              "type": "string"
            }
          ],
          "name": "CapitalDeployed",
          "type": "event"
        },
        {
          "anonymous": false,
          "inputs": [
            {
              "indexed": false,
              "internalType": "uint256",
              "name": "totalAmount",
              "type": "uint256"
            }
          ],
          "name": "DistributionCommitted",
          "type": "event"
        },
        {
          "anonymous": false,
          "inputs": [
            {
              "indexed": false,
              "internalType": "uint256",
              "name": "amount",
              "type": "uint256"
            }
          ],
          "name": "FeeCollected",
          "type": "event"
        },
        {
          "anonymous": false,
          "inputs": [
            {
              "indexed": false,
              "internalType": "uint256",
              "name": "amount",
              "type": "uint256"
            },
            {
              "indexed": false,
              "internalType": "uint256",
              "name": "timestamp",
              "type": "uint256"
            }
          ],
          "name": "RevenueReceived",
          "type": "event"
        },
        {
          "anonymous": false,
          "inputs": [
            {
              "indexed": true,
              "internalType": "bytes32",
              "name": "role",
              "type": "bytes32"
            },
            {
              "indexed": true,
              "internalType": "bytes32",
              "name": "previousAdminRole",
              "type": "bytes32"
            },
            {
              "indexed": true,
              "internalType": "bytes32",
              "name": "newAdminRole",
              "type": "bytes32"
            }
          ],
          "name": "RoleAdminChanged",
          "type": "event"
        },
        {
          "anonymous": false,
          "inputs": [
            {
              "indexed": true,
              "internalType": "bytes32",
              "name": "role",
              "type": "bytes32"
            },
            {
              "indexed": true,
              "internalType": "address",
              "name": "account",
              "type": "address"
            },
            {
              "indexed": true,
              "internalType": "address",
              "name": "sender",
              "type": "address"
            }
          ],
          "name": "RoleGranted",
          "type": "event"
        },
        {
          "anonymous": false,
          "inputs": [
            {
              "indexed": true,
              "internalType": "bytes32",
              "name": "role",
              "type": "bytes32"
            },
            {
              "indexed": true,
              "internalType": "address",
              "name": "account",
              "type": "address"
            },
            {
              "indexed": true,
              "internalType": "address",
              "name": "sender",
              "type": "address"
            }
          ],
          "name": "RoleRevoked",
          "type": "event"
        },
        {
          "anonymous": false,
          "inputs": [
            {
              "indexed": true,
              "internalType": "address",
              "name": "investor",
              "type": "address"
            },
            {
              "indexed": false,
              "internalType": "uint256",
              "name": "amount",
              "type": "uint256"
            },
            {
              "indexed": false,
              "internalType": "uint256",
              "name": "timestamp",
              "type": "uint256"
            }
          ],
          "name": "YieldClaimed",
          "type": "event"
        },
        {
          "inputs": [],
          "name": "DEFAULT_ADMIN_ROLE",
          "outputs": [
            {
              "internalType": "bytes32",
              "name": "",
              "type": "bytes32"
            }
          ],
          "stateMutability": "view",
          "type": "function"
        },
        {
          "inputs": [],
          "name": "PAYMENT_ROLE",
          "outputs": [
            {
              "internalType": "bytes32",
              "name": "",
              "type": "bytes32"
            }
          ],
          "stateMutability": "view",
          "type": "function"
        },
        {
          "inputs": [],
          "name": "STRATEGY_ROLE",
          "outputs": [
            {
              "internalType": "bytes32",
              "name": "",
              "type": "bytes32"
            }
          ],
          "stateMutability": "view",
          "type": "function"
        },
        {
          "inputs": [],
          "name": "accumulatedFees",
          "outputs": [
            {
              "internalType": "uint256",
              "name": "",
              "type": "uint256"
            }
          ],
          "stateMutability": "view",
          "type": "function"
        },
        {
          "inputs": [],
          "name": "assetId",
          "outputs": [
            {
              "internalType": "uint256",
              "name": "",
              "type": "uint256"
            }
          ],
          "stateMutability": "view",
          "type": "function"
        },
        {
          "inputs": [],
          "name": "claimYield",
          "outputs": [],
          "stateMutability": "nonpayable",
          "type": "function"
        },
        {
          "inputs": [
            {
              "internalType": "uint256",
              "name": "monthlyExpectedPayment",
              "type": "uint256"
            }
          ],
          "name": "commitToDistribution",
          "outputs": [],
          "stateMutability": "nonpayable",
          "type": "function"
        },
        {
          "inputs": [],
          "name": "cumulativeRewardPerToken",
          "outputs": [
            {
              "internalType": "uint256",
              "name": "",
              "type": "uint256"
            }
          ],
          "stateMutability": "view",
          "type": "function"
        },
        {
          "inputs": [
            {
              "internalType": "string",
              "name": "strategyId",
              "type": "string"
            },
            {
              "internalType": "uint256",
              "name": "amount",
              "type": "uint256"
            }
          ],
          "name": "deployCapital",
          "outputs": [],
          "stateMutability": "nonpayable",
          "type": "function"
        },
        {
          "inputs": [
            {
              "internalType": "address",
              "name": "_from",
              "type": "address"
            },
            {
              "internalType": "uint256",
              "name": "amount",
              "type": "uint256"
            }
          ],
          "name": "depositRevenue",
          "outputs": [],
          "stateMutability": "nonpayable",
          "type": "function"
        },
        {
          "inputs": [],
          "name": "distributionStarted",
          "outputs": [
            {
              "internalType": "bool",
              "name": "",
              "type": "bool"
            }
          ],
          "stateMutability": "view",
          "type": "function"
        },
        {
          "inputs": [],
          "name": "feeRecipient",
          "outputs": [
            {
              "internalType": "address",
              "name": "",
              "type": "address"
            }
          ],
          "stateMutability": "view",
          "type": "function"
        },
        {
          "inputs": [],
          "name": "getAvailableForDeployment",
          "outputs": [
            {
              "internalType": "uint256",
              "name": "",
              "type": "uint256"
            }
          ],
          "stateMutability": "view",
          "type": "function"
        },
        {
          "inputs": [],
          "name": "getAvailableForInvestors",
          "outputs": [
            {
              "internalType": "uint256",
              "name": "",
              "type": "uint256"
            }
          ],
          "stateMutability": "view",
          "type": "function"
        },
        {
          "inputs": [],
          "name": "getBalance",
          "outputs": [
            {
              "internalType": "uint256",
              "name": "",
              "type": "uint256"
            }
          ],
          "stateMutability": "view",
          "type": "function"
        },
        {
          "inputs": [
            {
              "internalType": "bytes32",
              "name": "role",
              "type": "bytes32"
            }
          ],
          "name": "getRoleAdmin",
          "outputs": [
            {
              "internalType": "bytes32",
              "name": "",
              "type": "bytes32"
            }
          ],
          "stateMutability": "view",
          "type": "function"
        },
        {
          "inputs": [
            {
              "internalType": "bytes32",
              "name": "role",
              "type": "bytes32"
            },
            {
              "internalType": "address",
              "name": "account",
              "type": "address"
            }
          ],
          "name": "grantRole",
          "outputs": [],
          "stateMutability": "nonpayable",
          "type": "function"
        },
        {
          "inputs": [
            {
              "internalType": "bytes32",
              "name": "role",
              "type": "bytes32"
            },
            {
              "internalType": "address",
              "name": "account",
              "type": "address"
            }
          ],
          "name": "hasRole",
          "outputs": [
            {
              "internalType": "bool",
              "name": "",
              "type": "bool"
            }
          ],
          "stateMutability": "view",
          "type": "function"
        },
        {
          "inputs": [
            {
              "internalType": "address",
              "name": "_admin",
              "type": "address"
            },
            {
              "internalType": "address",
              "name": "_agent",
              "type": "address"
            },
            {
              "internalType": "address",
              "name": "_logic",
              "type": "address"
            },
            {
              "internalType": "address",
              "name": "_paymentToken",
              "type": "address"
            },
            {
              "internalType": "address",
              "name": "_registry",
              "type": "address"
            },
            {
              "internalType": "uint256",
              "name": "_assetId",
              "type": "uint256"
            },
            {
              "internalType": "address",
              "name": "_feeRecipient",
              "type": "address"
            }
          ],
          "name": "initialize",
          "outputs": [],
          "stateMutability": "nonpayable",
          "type": "function"
        },
        {
          "inputs": [
            {
              "internalType": "address",
              "name": "",
              "type": "address"
            }
          ],
          "name": "lastClaimedAt",
          "outputs": [
            {
              "internalType": "uint256",
              "name": "",
              "type": "uint256"
            }
          ],
          "stateMutability": "view",
          "type": "function"
        },
        {
          "inputs": [],
          "name": "logicContract",
          "outputs": [
            {
              "internalType": "contract ICashFlowLogic",
              "name": "",
              "type": "address"
            }
          ],
          "stateMutability": "view",
          "type": "function"
        },
        {
          "inputs": [
            {
              "internalType": "address",
              "name": "to",
              "type": "address"
            },
            {
              "internalType": "uint256",
              "name": "amount",
              "type": "uint256"
            }
          ],
          "name": "mintShares",
          "outputs": [],
          "stateMutability": "nonpayable",
          "type": "function"
        },
        {
          "inputs": [
            {
              "internalType": "address",
              "name": "from",
              "type": "address"
            },
            {
              "internalType": "address",
              "name": "to",
              "type": "address"
            }
          ],
          "name": "onTokenTransfer",
          "outputs": [],
          "stateMutability": "nonpayable",
          "type": "function"
        },
        {
          "inputs": [],
          "name": "paymentToken",
          "outputs": [
            {
              "internalType": "contract IERC20",
              "name": "",
              "type": "address"
            }
          ],
          "stateMutability": "view",
          "type": "function"
        },
        {
          "inputs": [
            {
              "internalType": "address",
              "name": "",
              "type": "address"
            }
          ],
          "name": "pendingRewards",
          "outputs": [
            {
              "internalType": "uint256",
              "name": "",
              "type": "uint256"
            }
          ],
          "stateMutability": "view",
          "type": "function"
        },
        {
          "inputs": [],
          "name": "protocolFeeBps",
          "outputs": [
            {
              "internalType": "uint256",
              "name": "",
              "type": "uint256"
            }
          ],
          "stateMutability": "view",
          "type": "function"
        },
        {
          "inputs": [],
          "name": "registry",
          "outputs": [
            {
              "internalType": "contract IRWAAssetRegistryView",
              "name": "",
              "type": "address"
            }
          ],
          "stateMutability": "view",
          "type": "function"
        },
        {
          "inputs": [
            {
              "internalType": "bytes32",
              "name": "role",
              "type": "bytes32"
            },
            {
              "internalType": "address",
              "name": "callerConfirmation",
              "type": "address"
            }
          ],
          "name": "renounceRole",
          "outputs": [],
          "stateMutability": "nonpayable",
          "type": "function"
        },
        {
          "inputs": [
            {
              "internalType": "bytes32",
              "name": "role",
              "type": "bytes32"
            },
            {
              "internalType": "address",
              "name": "account",
              "type": "address"
            }
          ],
          "name": "revokeRole",
          "outputs": [],
          "stateMutability": "nonpayable",
          "type": "function"
        },
        {
          "inputs": [
            {
              "internalType": "address",
              "name": "",
              "type": "address"
            }
          ],
          "name": "rewardDebt",
          "outputs": [
            {
              "internalType": "uint256",
              "name": "",
              "type": "uint256"
            }
          ],
          "stateMutability": "view",
          "type": "function"
        },
        {
          "inputs": [
            {
              "internalType": "address",
              "name": "_token",
              "type": "address"
            }
          ],
          "name": "setTokenContracts",
          "outputs": [],
          "stateMutability": "nonpayable",
          "type": "function"
        },
        {
          "inputs": [
            {
              "internalType": "bytes4",
              "name": "interfaceId",
              "type": "bytes4"
            }
          ],
          "name": "supportsInterface",
          "outputs": [
            {
              "internalType": "bool",
              "name": "",
              "type": "bool"
            }
          ],
          "stateMutability": "view",
          "type": "function"
        },
        {
          "inputs": [],
          "name": "token",
          "outputs": [
            {
              "internalType": "contract InvestorShareToken",
              "name": "",
              "type": "address"
            }
          ],
          "stateMutability": "view",
          "type": "function"
        },
        {
          "inputs": [],
          "name": "totalDistributable",
          "outputs": [
            {
              "internalType": "uint256",
              "name": "",
              "type": "uint256"
            }
          ],
          "stateMutability": "view",
          "type": "function"
        },
        {
          "inputs": [],
          "name": "totalIdle",
          "outputs": [
            {
              "internalType": "uint256",
              "name": "",
              "type": "uint256"
            }
          ],
          "stateMutability": "view",
          "type": "function"
        },
        {
          "inputs": [],
          "name": "withdrawFees",
          "outputs": [],
          "stateMutability": "nonpayable",
          "type": "function"
        },
        {
          "inputs": [
            {
              "internalType": "address",
              "name": "",
              "type": "address"
            }
          ],
          "name": "withdrawn",
          "outputs": [
            {
              "internalType": "uint256",
              "name": "",
              "type": "uint256"
            }
          ],
          "stateMutability": "view",
          "type": "function"
        }
      ],
      "evm": {
        "bytecode": {
          "linkReferences": {},
          "object": "60806040523461003557600180556000600a5560fa600f5560006010556100253361003a565b50604051611c7a90816100cb8239f35b600080fd5b6001600160a01b031660008181527fad3228b676f7d3cd4284a5443f17f1962b36e491b30a40b2405849e597ba5fb5602052604081205490919060ff166100c657818052816020526040822081835260205260408220600160ff1982541617905533917f2f8788117e7eff1d82e926ec794901d17c78024a50270940304540a733656f0d8180a4600190565b509056fe608060408181526004918236101561001657600080fd5b600092833560e01c91826301ffc9a7146115d457508163022b557b146114425781630df4dc6f146109c757816312065fe0146113aa5781632175508814611383578163248a9ca31461135957816326a40c99146113215781632f2ff15d146112f75781633013ce29146112ce57816331d7a2621461129657816335659fb81461127757816336568abe14611231578163406cf22914610f1a57816344de240a14610efb5781634690484014610ed2578163476343ee14610dc757838263528c198a14610d1957508163580b7c2e14610cde5781635873eb9b14610ca6578163587f5ed714610c875781635f68f67714610a97578163651d95e514610a1e5781636ef61092146109e657816372cec034146109c75781637b1039991461099e578163855bde3e1461086557816391d14854146108205781639aa7df9414610227578163a217fddf14610805578163cc0e97c9146107dc578163d547741f146107a1578163e1391782146104d4578163eabcca1014610265578163f5fc507614610246578163f752494214610227578163fc0c546a146101fb575063fc3b624e146101be57600080fd5b346101f757816003193601126101f757602090517fe2f2c6ec490c385a19982d62c2eab738afebfd5de935a92469733daed358fe588152f35b5080fd5b9050346102235782600319360112610223575490516001600160a01b03909116815260209150f35b8280fd5b5050346101f757816003193601126101f7576020906008549051908152f35b5050346101f757816003193601126101f757602090600a549051908152f35b9050346102235760e036600319011261022357610280611627565b9061028961163d565b926001600160a01b03604480358281169392908490036104cf5760648035958287168097036104cf57608435938385168095036104cf5760c435958487168097036104cf576007549460ff861661049957808b1615610469578b161561043a57871561040b5788156103d45785156103a257861561036c578b6103688c6103588d8d8d8d8d60018e60ff1916176007556bffffffffffffffffffffffff60a01b9283600354161760035582600554161760055560a435600655816011541617601155600254161760025561172d565b50610362816117ab565b5061184b565b5080f35b90602073125b9d985b1a5908199959549958da5c1a595b9d60621b92519362461bcd60e51b855284015260146024840152820152fd5b9060206f496e76616c696420726567697374727960801b92519362461bcd60e51b855284015260106024840152820152fd5b9060207424b73b30b634b2103830bcb6b2b73a103a37b5b2b760591b92519362461bcd60e51b855284015260156024840152820152fd5b9060206c496e76616c6964206c6f67696360981b92519362461bcd60e51b8552840152600d6024840152820152fd5b9060206c125b9d985b1a59081859d95b9d609a1b92519362461bcd60e51b8552840152600d6024840152820152fd5b509060206c24b73b30b634b21030b236b4b760991b92519362461bcd60e51b8552840152600d6024840152820152fd5b5090602072105b1c9958591e481a5b9a5d1a585b1a5e9959606a1b92519362461bcd60e51b855284015260136024840152820152fd5b600080fd5b8383346101f7576020908160031936011261022357839081356104f56116ab565b6104fd611a73565b600354825163137d6df160e11b8152936001600160a01b0392916060918691829086165afa93841561079757869461075e575b506008549361054182861015611a96565b810361071b578160055416856006546024865180948193631174806160e11b83528d8301525afa9081156107115786926105888a95936105b6938b916106e4575b50611ae2565b6105b061271061059a600f5484611b21565b046105a781601054611a50565b60105582611b34565b96611b34565b6008556105c585600954611a50565b6009558254168351978880926318160ddd60e01b82525afa9586156106da5785966106ab575b5085159081156105fe575b856001805580f35b60075460ff8160081c1615610699575b50670de0b6b3a7640000918285029285840414851517156106865761067157507f69074786425c52f0a5747ada3a45a8aeff05c00e5fcd4b1c87a2a70f432218c1949561065e9104600a54611a50565b600a5551908152a18082808080806105f6565b601290634e487b7160e01b6000525260246000fd5b634e487b7160e01b875260118252602487fd5b61ff001916610100176007558761060e565b9095508381813d83116106d3575b6106c381836119c2565b810103126104cf575194866105eb565b503d6106b9565b82513d87823e3d90fd5b6107049150863d881161070a575b6106fc81836119c2565b8101906119fa565b8c610582565b503d6106f2565b84513d89823e3d90fd5b825162461bcd60e51b8152808801869052601960248201527f4578706563746564207061796d656e74206d69736d61746368000000000000006044820152606490fd5b9093506060813d821161078f575b81610779606093836119c2565b8101031261078b578401519287610530565b8580fd5b3d915061076c565b83513d88823e3d90fd5b9190503461022357806003193601126102235761036891356107d760016107c661163d565b938387528660205286200154611707565b61194d565b5050346101f757816003193601126101f75760035490516001600160a01b039091168152602090f35b5050346101f757816003193601126101f75751908152602090f35b9050346102235781600319360112610223578160209361083e61163d565b92358152808552209060018060a01b0316600052825260ff81600020541690519015158152f35b91905034610223578060031936011261022357610880611627565b6024359061088c6116ab565b610894611a73565b811561095b5760025483516323b872dd60e01b81526001600160a01b039283169581019590955230602486015260448501839052602091859160649183918991165af1928315610951577ff213ae9678e29ddf71cfd6bb58204207ac2f5a37f62a198ca6bc86737f01586893610911918691610933575b50611a12565b61091d81600854611a50565b6008558151908152426020820152a16001805580f35b61094b915060203d811161070a576106fc81836119c2565b3861090b565b82513d86823e3d90fd5b825162461bcd60e51b8152602081860152601760248201527f416d6f756e74206d75737420626520706f7369746976650000000000000000006044820152606490fd5b5050346101f757816003193601126101f75760055490516001600160a01b039091168152602090f35b5050346101f757816003193601126101f7576020906009549051908152f35b5050346101f75760203660031901126101f75760209181906001600160a01b03610a0e611627565b168152600e845220549051908152f35b9190503461022357602036600319011261022357610a3a611627565b610a42611653565b6001600160a01b0316908115610a65575081546001600160a01b03191617905580f35b5162461bcd60e51b8152602081840152600d60248201526c24b73b30b634b2103a37b5b2b760991b6044820152606490fd5b91905034610223578060031936011261022357610ab2611627565b91610abb61163d565b610ac3611a73565b81546001600160a01b03919082163303610c57578185168015159586610c48575b5081831695861515928380610c3e575b610c2f575b50610b9b575b50610b0d575b846001805580f35b815483516370a0823160e01b815292830185905260209183916024918391165afa908115610951578491610b68575b50610b53670de0b6b3a764000091600a5490611b21565b04918352600b60205282205538808080610b05565b90506020813d8211610b93575b81610b82602093836119c2565b810103126104cf5751610b53610b3c565b3d9150610b75565b60246020848654168751928380926370a0823160e01b8252868a8301525afa908115610c25578891610bf2575b50610bdf670de0b6b3a764000091600a5490611b21565b04908752600b6020528487205538610aff565b90506020813d8211610c1d575b81610c0c602093836119c2565b810103126104cf5751610bdf610bc8565b3d9150610bff565b86513d8a823e3d90fd5b610c3890611b41565b38610af9565b5082881415610af4565b610c5190611b41565b38610ae4565b835162461bcd60e51b8152602081850152600a60248201526927b7363c903a37b5b2b760b11b6044820152606490fd5b5050346101f757816003193601126101f7576020906010549051908152f35b5050346101f75760203660031901126101f75760209181906001600160a01b03610cce611627565b168152600b845220549051908152f35b5050346101f757816003193601126101f757602090517f1893e1a169e79f2fe8aa327b1bceb2fede7a1b76a54824f95ea0e737720954ae8152f35b92915034610dc35781600319360112610dc357610d34611627565b610d3c611653565b81546001600160a01b031690813b15610dbf5783516340c10f1960e01b81526001600160a01b039091168382019081526024356020820152909491859182908490829060400103925af1801561095157610d94578380f35b67ffffffffffffffff8311610dac5750523880808380f35b634e487b7160e01b845260419052602483fd5b8480fd5b5050fd5b905034610223578260031936011261022357610de1611a73565b610de9611653565b601054908115610ea5576010849055600254601154845163a9059cbb60e01b81526001600160a01b039182169381019384526020848101869052909390928492169082908890829060400103925af1908115610e985792610e75602093927fc472cb3a7a659a876494d66b3063145f279701771d6150b9329c31611ed6405c958791610e815750611a12565b51908152a16001805580f35b61094b9150853d811161070a576106fc81836119c2565b50505051903d90823e3d90fd5b606490602084519162461bcd60e51b835282015260076024820152664e6f206665657360c81b6044820152fd5b5050346101f757816003193601126101f75760115490516001600160a01b039091168152602090f35b5050346101f757816003193601126101f7576020906006549051908152f35b8383346101f757816003193601126101f757610f34611a73565b6005546006548251631174806160e11b815285810191909152602492916020916001600160a01b039182169083818781855afa9081156112275791610f82859288948a9161120a5750611ae2565b8551633af32abf60e01b8152338a82015292839182905afa9081156111af5786916111ed575b50156111b957610fb733611b41565b8382828854168551928380926370a0823160e01b8252338c8301525afa9081156111af578691611180575b50610ff9670de0b6b3a764000091600a5490611b21565b04338652600b835283862055600c82528285205493841561114a57600954851161110957508361109a95968392338952600c8452888681205561103e83600954611b34565b600955338952600e8452858920611056848254611a50565b9055338952600d845242868a2055600254169088865180998195829463a9059cbb60e01b84523390840160209093929193604081019460018060a01b031681520152565b03925af19384156106da577f10d8dedfc0745b8c25ba10b06e304138b251c18dcaadf2d71c7f3214719dc4d193946110d89187916110ec5750611a12565b815193845242908401523392a26001805580f35b6111039150833d851161070a576106fc81836119c2565b8761090b565b86601a6064928587519362461bcd60e51b85528401528201527f496e73756666696369656e742064697374726962757461626c650000000000006044820152fd5b8660126064928587519362461bcd60e51b8552840152820152714e6f2070656e64696e67207265776172647360701b6044820152fd5b90508281813d83116111a8575b61119781836119c2565b8101031261078b5751610ff9610fe2565b503d61118d565b84513d88823e3d90fd5b825162461bcd60e51b8152808701839052600f818601526e139bdd081dda1a5d195b1a5cdd1959608a1b6044820152606490fd5b6112049150833d851161070a576106fc81836119c2565b87610fa8565b6112219150843d861161070a576106fc81836119c2565b8b610582565b85513d89823e3d90fd5b8383346101f757806003193601126101f75761124b61163d565b90336001600160a01b03831603611268575061036891923561194d565b5163334bd91960e11b81528390fd5b5050346101f757816003193601126101f757602090600f549051908152f35b5050346101f75760203660031901126101f75760209181906001600160a01b036112be611627565b168152600c845220549051908152f35b5050346101f757816003193601126101f75760025490516001600160a01b039091168152602090f35b91905034610223578060031936011261022357610368913561131c60016107c661163d565b6118e6565b5050346101f75760203660031901126101f75760209181906001600160a01b03611349611627565b168152600d845220549051908152f35b90503461022357602036600319011261022357816020936001923581528085522001549051908152f35b5050346101f757816003193601126101f75760209060ff60075460081c1690519015158152f35b9190503461022357826003193601126102235760025481516370a0823160e01b81523093810193909352602090839060249082906001600160a01b03165afa918215611438578392611401575b6020838351908152f35b9091506020813d8211611430575b8161141c602093836119c2565b8101031261022357602092505190386113f7565b3d915061140f565b81513d85823e3d90fd5b90503461022357816003193601126102235767ffffffffffffffff8135818111610dbf5736602382011215610dbf5780830135918211610dbf573660248383010111610dbf57602435937f1893e1a169e79f2fe8aa327b1bceb2fede7a1b76a54824f95ea0e737720954ae93848752602094878652828820338952865260ff8389205416156115b957506114d4611a73565b600854906114e482881115611a96565b6005546006548451631174806160e11b8152928301528690829060249082906001600160a01b03165afa908882156115ae5795809461155f8a839661155a6024977fec2715248f93daa810498c051f7f418783deff1e5184eba4ccf20d57789fdbb79e9b978e60609e92611591575b5050611ae2565b611b34565b600855808051998a98895288015286015201848401378181018301869052601f01601f19168101030190a16001805580f35b6115a79250803d1061070a576106fc81836119c2565b388e611553565b8451903d90823e3d90fd5b604492519163e2517d3f60e01b835233908301526024820152fd5b849134610223576020366003190112610223573563ffffffff60e01b81168091036102235760209250637965db0b60e01b8114908115611616575b5015158152f35b6301ffc9a760e01b1490508361160f565b600435906001600160a01b03821682036104cf57565b602435906001600160a01b03821682036104cf57565b3360009081527fad3228b676f7d3cd4284a5443f17f1962b36e491b30a40b2405849e597ba5fb5602052604081205460ff161561168d5750565b6044906040519063e2517d3f60e01b82523360048301526024820152fd5b3360009081527f1f0c3aa234c717819ca003165ea9e795021a753e97c75b32bb79cc90cbbf5cfa60205260409020547fe2f2c6ec490c385a19982d62c2eab738afebfd5de935a92469733daed358fe589060ff161561168d5750565b80600052600060205260406000203360005260205260ff604060002054161561168d5750565b6001600160a01b031660008181527fad3228b676f7d3cd4284a5443f17f1962b36e491b30a40b2405849e597ba5fb5602052604081205490919060ff166117a757818052816020526040822081835260205260408220600160ff198254161790553391600080516020611c258339815191528180a4600190565b5090565b6001600160a01b031660008181527f1f0c3aa234c717819ca003165ea9e795021a753e97c75b32bb79cc90cbbf5cfa60205260408120549091907fe2f2c6ec490c385a19982d62c2eab738afebfd5de935a92469733daed358fe589060ff1661184657808352826020526040832082845260205260408320600160ff19825416179055600080516020611c25833981519152339380a4600190565b505090565b6001600160a01b031660008181527ff7a24d9db6a7a77b0ca72c680cb6234311400aad48c64d3d9b11dafd3cc5e8a860205260408120549091907f1893e1a169e79f2fe8aa327b1bceb2fede7a1b76a54824f95ea0e737720954ae9060ff1661184657808352826020526040832082845260205260408320600160ff19825416179055600080516020611c25833981519152339380a4600190565b9060009180835282602052604083209160018060a01b03169182845260205260ff6040842054161560001461184657808352826020526040832082845260205260408320600160ff19825416179055600080516020611c25833981519152339380a4600190565b9060009180835282602052604083209160018060a01b03169182845260205260ff6040842054166000146118465780835282602052604083208284526020526040832060ff1981541690557ff6391f5c32d9c69d2a47ea670b442974b53935d1edc7fd64eb21e047a839171b339380a4600190565b90601f8019910116810190811067ffffffffffffffff8211176119e457604052565b634e487b7160e01b600052604160045260246000fd5b908160209103126104cf575180151581036104cf5790565b15611a1957565b60405162461bcd60e51b815260206004820152600f60248201526e151c985b9cd9995c8819985a5b1959608a1b6044820152606490fd5b91908201809211611a5d57565b634e487b7160e01b600052601160045260246000fd5b600260015414611a84576002600155565b604051633ee5aeb560e01b8152600490fd5b15611a9d57565b60405162461bcd60e51b815260206004820152601760248201527f496e73756666696369656e742069646c652066756e64730000000000000000006044820152606490fd5b15611ae957565b60405162461bcd60e51b815260206004820152601060248201526f4173736574206e6f742061637469766560801b6044820152606490fd5b81810292918115918404141715611a5d57565b91908203918211611a5d57565b600480546040516370a0823160e01b81526001600160a01b03938416928101839052919260209291839183916024918391165afa908115611c1857600091611be6575b50611b9b670de0b6b3a764000091600a5490611b21565b049082600052600b815260406000205491828111611bba575b50505050565b600c92611bc691611b34565b9260005252611bdb6040600020918254611a50565b905538808080611bb4565b908282813d8311611c11575b611bfc81836119c2565b81010312611c0e575051611b9b611b84565b80fd5b503d611bf2565b6040513d6000823e3d90fdfe2f8788117e7eff1d82e926ec794901d17c78024a50270940304540a733656f0da2646970667358221220542a41dba54c9c2176b7bf19af0a3aa8f85f1f16a0d8cbb4e4e050f4169b1eef64736f6c63430008140033",
          "opcodes": "PUSH1 0x80 PUSH1 0x40 MSTORE CALLVALUE PUSH2 0x35 JUMPI PUSH1 0x1 DUP1 SSTORE PUSH1 0x0 PUSH1 0xA SSTORE PUSH1 0xFA PUSH1 0xF SSTORE PUSH1 0x0 PUSH1 0x10 SSTORE PUSH2 0x25 CALLER PUSH2 0x3A JUMP JUMPDEST POP PUSH1 0x40 MLOAD PUSH2 0x1C7A SWAP1 DUP2 PUSH2 0xCB DUP3 CODECOPY RETURN JUMPDEST PUSH1 0x0 DUP1 REVERT JUMPDEST PUSH1 0x1 PUSH1 0x1 PUSH1 0xA0 SHL SUB AND PUSH1 0x0 DUP2 DUP2 MSTORE PUSH32 0xAD3228B676F7D3CD4284A5443F17F1962B36E491B30A40B2405849E597BA5FB5 PUSH1 0x20 MSTORE PUSH1 0x40 DUP2 KECCAK256 SLOAD SWAP1 SWAP2 SWAP1 PUSH1 0xFF AND PUSH2 0xC6 JUMPI DUP2 DUP1 MSTORE DUP2 PUSH1 0x20 MSTORE PUSH1 0x40 DUP3 KECCAK256 DUP2 DUP4 MSTORE PUSH1 0x20 MSTORE PUSH1 0x40 DUP3 KECCAK256 PUSH1 0x1 PUSH1 0xFF NOT DUP3 SLOAD AND OR SWAP1 SSTORE CALLER SWAP2 PUSH32 0x2F8788117E7EFF1D82E926EC794901D17C78024A50270940304540A733656F0D DUP2 DUP1 LOG4 PUSH1 0x1 SWAP1 JUMP JUMPDEST POP SWAP1 JUMP INVALID PUSH1 0x80 PUSH1 0x40 DUP2 DUP2 MSTORE PUSH1 0x4 SWAP2 DUP3 CALLDATASIZE LT ISZERO PUSH2 0x16 JUMPI PUSH1 0x0 DUP1 REVERT JUMPDEST PUSH1 0x0 SWAP3 DUP4 CALLDATALOAD PUSH1 0xE0 SHR SWAP2 DUP3 PUSH4 0x1FFC9A7 EQ PUSH2 0x15D4 JUMPI POP DUP2 PUSH4 0x22B557B EQ PUSH2 0x1442 JUMPI DUP2 PUSH4 0xDF4DC6F EQ PUSH2 0x9C7 JUMPI DUP2 PUSH4 0x12065FE0 EQ PUSH2 0x13AA JUMPI DUP2 PUSH4 0x21755088 EQ PUSH2 0x1383 JUMPI DUP2 PUSH4 0x248A9CA3 EQ PUSH2 0x1359 JUMPI DUP2 PUSH4 0x26A40C99 EQ PUSH2 0x1321 JUMPI DUP2 PUSH4 0x2F2FF15D EQ PUSH2 0x12F7 JUMPI DUP2 PUSH4 0x3013CE29 EQ PUSH2 0x12CE JUMPI DUP2 PUSH4 0x31D7A262 EQ PUSH2 0x1296 JUMPI DUP2 PUSH4 0x35659FB8 EQ PUSH2 0x1277 JUMPI DUP2 PUSH4 0x36568ABE EQ PUSH2 0x1231 JUMPI DUP2 PUSH4 0x406CF229 EQ PUSH2 0xF1A JUMPI DUP2 PUSH4 0x44DE240A EQ PUSH2 0xEFB JUMPI DUP2 PUSH4 0x46904840 EQ PUSH2 0xED2 JUMPI DUP2 PUSH4 0x476343EE EQ PUSH2 0xDC7 JUMPI DUP4 DUP3 PUSH4 0x528C198A EQ PUSH2 0xD19 JUMPI POP DUP2 PUSH4 0x580B7C2E EQ PUSH2 0xCDE JUMPI DUP2 PUSH4 0x5873EB9B EQ PUSH2 0xCA6 JUMPI DUP2 PUSH4 0x587F5ED7 EQ PUSH2 0xC87 JUMPI DUP2 PUSH4 0x5F68F677 EQ PUSH2 0xA97 JUMPI DUP2 PUSH4 0x651D95E5 EQ PUSH2 0xA1E JUMPI DUP2 PUSH4 0x6EF61092 EQ PUSH2 0x9E6 JUMPI DUP2 PUSH4 0x72CEC034 EQ PUSH2 0x9C7 JUMPI DUP2 PUSH4 0x7B103999 EQ PUSH2 0x99E JUMPI DUP2 PUSH4 0x855BDE3E EQ PUSH2 0x865 JUMPI DUP2 PUSH4 0x91D14854 EQ PUSH2 0x820 JUMPI DUP2 PUSH4 0x9AA7DF94 EQ PUSH2 0x227 JUMPI DUP2 PUSH4 0xA217FDDF EQ PUSH2 0x805 JUMPI DUP2 PUSH4 0xCC0E97C9 EQ PUSH2 0x7DC JUMPI DUP2 PUSH4 0xD547741F EQ PUSH2 0x7A1 JUMPI DUP2 PUSH4 0xE1391782 EQ PUSH2 0x4D4 JUMPI DUP2 PUSH4 0xEABCCA10 EQ PUSH2 0x265 JUMPI DUP2 PUSH4 0xF5FC5076 EQ PUSH2 0x246 JUMPI DUP2 PUSH4 0xF7524942 EQ PUSH2 0x227 JUMPI DUP2 PUSH4 0xFC0C546A EQ PUSH2 0x1FB JUMPI POP PUSH4 0xFC3B624E EQ PUSH2 0x1BE JUMPI PUSH1 0x0 DUP1 REVERT JUMPDEST CALLVALUE PUSH2 0x1F7 JUMPI DUP2 PUSH1 0x3 NOT CALLDATASIZE ADD SLT PUSH2 0x1F7 JUMPI PUSH1 0x20 SWAP1 MLOAD PUSH32 0xE2F2C6EC490C385A19982D62C2EAB738AFEBFD5DE935A92469733DAED358FE58 DUP2 MSTORE RETURN JUMPDEST POP DUP1 REVERT JUMPDEST SWAP1 POP CALLVALUE PUSH2 0x223 JUMPI DUP3 PUSH1 0x3 NOT CALLDATASIZE ADD SLT PUSH2 0x223 JUMPI SLOAD SWAP1 MLOAD PUSH1 0x1 PUSH1 0x1 PUSH1 0xA0 SHL SUB SWAP1 SWAP2 AND DUP2 MSTORE PUSH1 0x20 SWAP2 POP RETURN JUMPDEST DUP3 DUP1 REVERT JUMPDEST POP POP CALLVALUE PUSH2 0x1F7 JUMPI DUP2 PUSH1 0x3 NOT CALLDATASIZE ADD SLT PUSH2 0x1F7 JUMPI PUSH1 0x20 SWAP1 PUSH1 0x8 SLOAD SWAP1 MLOAD SWAP1 DUP2 MSTORE RETURN JUMPDEST POP POP CALLVALUE PUSH2 0x1F7 JUMPI DUP2 PUSH1 0x3 NOT CALLDATASIZE ADD SLT PUSH2 0x1F7 JUMPI PUSH1 0x20 SWAP1 PUSH1 0xA SLOAD SWAP1 MLOAD SWAP1 DUP2 MSTORE RETURN JUMPDEST SWAP1 POP CALLVALUE PUSH2 0x223 JUMPI PUSH1 0xE0 CALLDATASIZE PUSH1 0x3 NOT ADD SLT PUSH2 0x223 JUMPI PUSH2 0x280 PUSH2 0x1627 JUMP JUMPDEST SWAP1 PUSH2 0x289 PUSH2 0x163D JUMP JUMPDEST SWAP3 PUSH1 0x1 PUSH1 0x1 PUSH1 0xA0 SHL SUB PUSH1 0x44 DUP1 CALLDATALOAD DUP3 DUP2 AND SWAP4 SWAP3 SWAP1 DUP5 SWAP1 SUB PUSH2 0x4CF JUMPI PUSH1 0x64 DUP1 CALLDATALOAD SWAP6 DUP3 DUP8 AND DUP1 SWAP8 SUB PUSH2 0x4CF JUMPI PUSH1 0x84 CALLDATALOAD SWAP4 DUP4 DUP6 AND DUP1 SWAP6 SUB PUSH2 0x4CF JUMPI PUSH1 0xC4 CALLDATALOAD SWAP6 DUP5 DUP8 AND DUP1 SWAP8 SUB PUSH2 0x4CF JUMPI PUSH1 0x7 SLOAD SWAP5 PUSH1 0xFF DUP7 AND PUSH2 0x499 JUMPI DUP1 DUP12 AND ISZERO PUSH2 0x469 JUMPI DUP12 AND ISZERO PUSH2 0x43A JUMPI DUP8 ISZERO PUSH2 0x40B JUMPI DUP9 ISZERO PUSH2 0x3D4 JUMPI DUP6 ISZERO PUSH2 0x3A2 JUMPI DUP7 ISZERO PUSH2 0x36C JUMPI DUP12 PUSH2 0x368 DUP13 PUSH2 0x358 DUP14 DUP14 DUP14 DUP14 DUP14 PUSH1 0x1 DUP15 PUSH1 0xFF NOT AND OR PUSH1 0x7 SSTORE PUSH12 0xFFFFFFFFFFFFFFFFFFFFFFFF PUSH1 0xA0 SHL SWAP3 DUP4 PUSH1 0x3 SLOAD AND OR PUSH1 0x3 SSTORE DUP3 PUSH1 0x5 SLOAD AND OR PUSH1 0x5 SSTORE PUSH1 0xA4 CALLDATALOAD PUSH1 0x6 SSTORE DUP2 PUSH1 0x11 SLOAD AND OR PUSH1 0x11 SSTORE PUSH1 0x2 SLOAD AND OR PUSH1 0x2 SSTORE PUSH2 0x172D JUMP JUMPDEST POP PUSH2 0x362 DUP2 PUSH2 0x17AB JUMP JUMPDEST POP PUSH2 0x184B JUMP JUMPDEST POP DUP1 RETURN JUMPDEST SWAP1 PUSH1 0x20 PUSH20 0x125B9D985B1A5908199959549958DA5C1A595B9D PUSH1 0x62 SHL SWAP3 MLOAD SWAP4 PUSH3 0x461BCD PUSH1 0xE5 SHL DUP6 MSTORE DUP5 ADD MSTORE PUSH1 0x14 PUSH1 0x24 DUP5 ADD MSTORE DUP3 ADD MSTORE REVERT JUMPDEST SWAP1 PUSH1 0x20 PUSH16 0x496E76616C6964207265676973747279 PUSH1 0x80 SHL SWAP3 MLOAD SWAP4 PUSH3 0x461BCD PUSH1 0xE5 SHL DUP6 MSTORE DUP5 ADD MSTORE PUSH1 0x10 PUSH1 0x24 DUP5 ADD MSTORE DUP3 ADD MSTORE REVERT JUMPDEST SWAP1 PUSH1 0x20 PUSH21 0x24B73B30B634B2103830BCB6B2B73A103A37B5B2B7 PUSH1 0x59 SHL SWAP3 MLOAD SWAP4 PUSH3 0x461BCD PUSH1 0xE5 SHL DUP6 MSTORE DUP5 ADD MSTORE PUSH1 0x15 PUSH1 0x24 DUP5 ADD MSTORE DUP3 ADD MSTORE REVERT JUMPDEST SWAP1 PUSH1 0x20 PUSH13 0x496E76616C6964206C6F676963 PUSH1 0x98 SHL SWAP3 MLOAD SWAP4 PUSH3 0x461BCD PUSH1 0xE5 SHL DUP6 MSTORE DUP5 ADD MSTORE PUSH1 0xD PUSH1 0x24 DUP5 ADD MSTORE DUP3 ADD MSTORE REVERT JUMPDEST SWAP1 PUSH1 0x20 PUSH13 0x125B9D985B1A59081859D95B9D PUSH1 0x9A SHL SWAP3 MLOAD SWAP4 PUSH3 0x461BCD PUSH1 0xE5 SHL DUP6 MSTORE DUP5 ADD MSTORE PUSH1 0xD PUSH1 0x24 DUP5 ADD MSTORE DUP3 ADD MSTORE REVERT JUMPDEST POP SWAP1 PUSH1 0x20 PUSH13 0x24B73B30B634B21030B236B4B7 PUSH1 0x99 SHL SWAP3 MLOAD SWAP4 PUSH3 0x461BCD PUSH1 0xE5 SHL DUP6 MSTORE DUP5 ADD MSTORE PUSH1 0xD PUSH1 0x24 DUP5 ADD MSTORE DUP3 ADD MSTORE REVERT JUMPDEST POP SWAP1 PUSH1 0x20 PUSH19 0x105B1C9958591E481A5B9A5D1A585B1A5E9959 PUSH1 0x6A SHL SWAP3 MLOAD SWAP4 PUSH3 0x461BCD PUSH1 0xE5 SHL DUP6 MSTORE DUP5 ADD MSTORE PUSH1 0x13 PUSH1 0x24 DUP5 ADD MSTORE DUP3 ADD MSTORE REVERT JUMPDEST PUSH1 0x0 DUP1 REVERT JUMPDEST DUP4 DUP4 CALLVALUE PUSH2 0x1F7 JUMPI PUSH1 0x20 SWAP1 DUP2 PUSH1 0x3 NOT CALLDATASIZE ADD SLT PUSH2 0x223 JUMPI DUP4 SWAP1 DUP2 CALLDATALOAD PUSH2 0x4F5 PUSH2 0x16AB JUMP JUMPDEST PUSH2 0x4FD PUSH2 0x1A73 JUMP JUMPDEST PUSH1 0x3 SLOAD DUP3 MLOAD PUSH4 0x137D6DF1 PUSH1 0xE1 SHL DUP2 MSTORE SWAP4 PUSH1 0x1 PUSH1 0x1 PUSH1 0xA0 SHL SUB SWAP3 SWAP2 PUSH1 0x60 SWAP2 DUP7 SWAP2 DUP3 SWAP1 DUP7 AND GAS STATICCALL SWAP4 DUP5 ISZERO PUSH2 0x797 JUMPI DUP7 SWAP5 PUSH2 0x75E JUMPI JUMPDEST POP PUSH1 0x8 SLOAD SWAP4 PUSH2 0x541 DUP3 DUP7 LT ISZERO PUSH2 0x1A96 JUMP JUMPDEST DUP2 SUB PUSH2 0x71B JUMPI DUP2 PUSH1 0x5 SLOAD AND DUP6 PUSH1 0x6 SLOAD PUSH1 0x24 DUP7 MLOAD DUP1 SWAP5 DUP2 SWAP4 PUSH4 0x11748061 PUSH1 0xE1 SHL DUP4 MSTORE DUP14 DUP4 ADD MSTORE GAS STATICCALL SWAP1 DUP2 ISZERO PUSH2 0x711 JUMPI DUP7 SWAP3 PUSH2 0x588 DUP11 SWAP6 SWAP4 PUSH2 0x5B6 SWAP4 DUP12 SWAP2 PUSH2 0x6E4 JUMPI JUMPDEST POP PUSH2 0x1AE2 JUMP JUMPDEST PUSH2 0x5B0 PUSH2 0x2710 PUSH2 0x59A PUSH1 0xF SLOAD DUP5 PUSH2 0x1B21 JUMP JUMPDEST DIV PUSH2 0x5A7 DUP2 PUSH1 0x10 SLOAD PUSH2 0x1A50 JUMP JUMPDEST PUSH1 0x10 SSTORE DUP3 PUSH2 0x1B34 JUMP JUMPDEST SWAP7 PUSH2 0x1B34 JUMP JUMPDEST PUSH1 0x8 SSTORE PUSH2 0x5C5 DUP6 PUSH1 0x9 SLOAD PUSH2 0x1A50 JUMP JUMPDEST PUSH1 0x9 SSTORE DUP3 SLOAD AND DUP4 MLOAD SWAP8 DUP9 DUP1 SWAP3 PUSH4 0x18160DDD PUSH1 0xE0 SHL DUP3 MSTORE GAS STATICCALL SWAP6 DUP7 ISZERO PUSH2 0x6DA JUMPI DUP6 SWAP7 PUSH2 0x6AB JUMPI JUMPDEST POP DUP6 ISZERO SWAP1 DUP2 ISZERO PUSH2 0x5FE JUMPI JUMPDEST DUP6 PUSH1 0x1 DUP1 SSTORE DUP1 RETURN JUMPDEST PUSH1 0x7 SLOAD PUSH1 0xFF DUP2 PUSH1 0x8 SHR AND ISZERO PUSH2 0x699 JUMPI JUMPDEST POP PUSH8 0xDE0B6B3A7640000 SWAP2 DUP3 DUP6 MUL SWAP3 DUP6 DUP5 DIV EQ DUP6 ISZERO OR ISZERO PUSH2 0x686 JUMPI PUSH2 0x671 JUMPI POP PUSH32 0x69074786425C52F0A5747ADA3A45A8AEFF05C00E5FCD4B1C87A2A70F432218C1 SWAP5 SWAP6 PUSH2 0x65E SWAP2 DIV PUSH1 0xA SLOAD PUSH2 0x1A50 JUMP JUMPDEST PUSH1 0xA SSTORE MLOAD SWAP1 DUP2 MSTORE LOG1 DUP1 DUP3 DUP1 DUP1 DUP1 DUP1 PUSH2 0x5F6 JUMP JUMPDEST PUSH1 0x12 SWAP1 PUSH4 0x4E487B71 PUSH1 0xE0 SHL PUSH1 0x0 MSTORE MSTORE PUSH1 0x24 PUSH1 0x0 REVERT JUMPDEST PUSH4 0x4E487B71 PUSH1 0xE0 SHL DUP8 MSTORE PUSH1 0x11 DUP3 MSTORE PUSH1 0x24 DUP8 REVERT JUMPDEST PUSH2 0xFF00 NOT AND PUSH2 0x100 OR PUSH1 0x7 SSTORE DUP8 PUSH2 0x60E JUMP JUMPDEST SWAP1 SWAP6 POP DUP4 DUP2 DUP2 RETURNDATASIZE DUP4 GT PUSH2 0x6D3 JUMPI JUMPDEST PUSH2 0x6C3 DUP2 DUP4 PUSH2 0x19C2 JUMP JUMPDEST DUP2 ADD SUB SLT PUSH2 0x4CF JUMPI MLOAD SWAP5 DUP7 PUSH2 0x5EB JUMP JUMPDEST POP RETURNDATASIZE PUSH2 0x6B9 JUMP JUMPDEST DUP3 MLOAD RETURNDATASIZE DUP8 DUP3 RETURNDATACOPY RETURNDATASIZE SWAP1 REVERT JUMPDEST PUSH2 0x704 SWAP2 POP DUP7 RETURNDATASIZE DUP9 GT PUSH2 0x70A JUMPI JUMPDEST PUSH2 0x6FC DUP2 DUP4 PUSH2 0x19C2 JUMP JUMPDEST DUP2 ADD SWAP1 PUSH2 0x19FA JUMP JUMPDEST DUP13 PUSH2 0x582 JUMP JUMPDEST POP RETURNDATASIZE PUSH2 0x6F2 JUMP JUMPDEST DUP5 MLOAD RETURNDATASIZE DUP10 DUP3 RETURNDATACOPY RETURNDATASIZE SWAP1 REVERT JUMPDEST DUP3 MLOAD PUSH3 0x461BCD PUSH1 0xE5 SHL DUP2 MSTORE DUP1 DUP9 ADD DUP7 SWAP1 MSTORE PUSH1 0x19 PUSH1 0x24 DUP3 ADD MSTORE PUSH32 0x4578706563746564207061796D656E74206D69736D6174636800000000000000 PUSH1 0x44 DUP3 ADD MSTORE PUSH1 0x64 SWAP1 REVERT JUMPDEST SWAP1 SWAP4 POP PUSH1 0x60 DUP2 RETURNDATASIZE DUP3 GT PUSH2 0x78F JUMPI JUMPDEST DUP2 PUSH2 0x779 PUSH1 0x60 SWAP4 DUP4 PUSH2 0x19C2 JUMP JUMPDEST DUP2 ADD SUB SLT PUSH2 0x78B JUMPI DUP5 ADD MLOAD SWAP3 DUP8 PUSH2 0x530 JUMP JUMPDEST DUP6 DUP1 REVERT JUMPDEST RETURNDATASIZE SWAP2 POP PUSH2 0x76C JUMP JUMPDEST DUP4 MLOAD RETURNDATASIZE DUP9 DUP3 RETURNDATACOPY RETURNDATASIZE SWAP1 REVERT JUMPDEST SWAP2 SWAP1 POP CALLVALUE PUSH2 0x223 JUMPI DUP1 PUSH1 0x3 NOT CALLDATASIZE ADD SLT PUSH2 0x223 JUMPI PUSH2 0x368 SWAP2 CALLDATALOAD PUSH2 0x7D7 PUSH1 0x1 PUSH2 0x7C6 PUSH2 0x163D JUMP JUMPDEST SWAP4 DUP4 DUP8 MSTORE DUP7 PUSH1 0x20 MSTORE DUP7 KECCAK256 ADD SLOAD PUSH2 0x1707 JUMP JUMPDEST PUSH2 0x194D JUMP JUMPDEST POP POP CALLVALUE PUSH2 0x1F7 JUMPI DUP2 PUSH1 0x3 NOT CALLDATASIZE ADD SLT PUSH2 0x1F7 JUMPI PUSH1 0x3 SLOAD SWAP1 MLOAD PUSH1 0x1 PUSH1 0x1 PUSH1 0xA0 SHL SUB SWAP1 SWAP2 AND DUP2 MSTORE PUSH1 0x20 SWAP1 RETURN JUMPDEST POP POP CALLVALUE PUSH2 0x1F7 JUMPI DUP2 PUSH1 0x3 NOT CALLDATASIZE ADD SLT PUSH2 0x1F7 JUMPI MLOAD SWAP1 DUP2 MSTORE PUSH1 0x20 SWAP1 RETURN JUMPDEST SWAP1 POP CALLVALUE PUSH2 0x223 JUMPI DUP2 PUSH1 0x3 NOT CALLDATASIZE ADD SLT PUSH2 0x223 JUMPI DUP2 PUSH1 0x20 SWAP4 PUSH2 0x83E PUSH2 0x163D JUMP JUMPDEST SWAP3 CALLDATALOAD DUP2 MSTORE DUP1 DUP6 MSTORE KECCAK256 SWAP1 PUSH1 0x1 DUP1 PUSH1 0xA0 SHL SUB AND PUSH1 0x0 MSTORE DUP3 MSTORE PUSH1 0xFF DUP2 PUSH1 0x0 KECCAK256 SLOAD AND SWAP1 MLOAD SWAP1 ISZERO ISZERO DUP2 MSTORE RETURN JUMPDEST SWAP2 SWAP1 POP CALLVALUE PUSH2 0x223 JUMPI DUP1 PUSH1 0x3 NOT CALLDATASIZE ADD SLT PUSH2 0x223 JUMPI PUSH2 0x880 PUSH2 0x1627 JUMP JUMPDEST PUSH1 0x24 CALLDATALOAD SWAP1 PUSH2 0x88C PUSH2 0x16AB JUMP JUMPDEST PUSH2 0x894 PUSH2 0x1A73 JUMP JUMPDEST DUP2 ISZERO PUSH2 0x95B JUMPI PUSH1 0x2 SLOAD DUP4 MLOAD PUSH4 0x23B872DD PUSH1 0xE0 SHL DUP2 MSTORE PUSH1 0x1 PUSH1 0x1 PUSH1 0xA0 SHL SUB SWAP3 DUP4 AND SWAP6 DUP2 ADD SWAP6 SWAP1 SWAP6 MSTORE ADDRESS PUSH1 0x24 DUP7 ADD MSTORE PUSH1 0x44 DUP6 ADD DUP4 SWAP1 MSTORE PUSH1 0x20 SWAP2 DUP6 SWAP2 PUSH1 0x64 SWAP2 DUP4 SWAP2 DUP10 SWAP2 AND GAS CALL SWAP3 DUP4 ISZERO PUSH2 0x951 JUMPI PUSH32 0xF213AE9678E29DDF71CFD6BB58204207AC2F5A37F62A198CA6BC86737F015868 SWAP4 PUSH2 0x911 SWAP2 DUP7 SWAP2 PUSH2 0x933 JUMPI JUMPDEST POP PUSH2 0x1A12 JUMP JUMPDEST PUSH2 0x91D DUP2 PUSH1 0x8 SLOAD PUSH2 0x1A50 JUMP JUMPDEST PUSH1 0x8 SSTORE DUP2 MLOAD SWAP1 DUP2 MSTORE TIMESTAMP PUSH1 0x20 DUP3 ADD MSTORE LOG1 PUSH1 0x1 DUP1 SSTORE DUP1 RETURN JUMPDEST PUSH2 0x94B SWAP2 POP PUSH1 0x20 RETURNDATASIZE DUP2 GT PUSH2 0x70A JUMPI PUSH2 0x6FC DUP2 DUP4 PUSH2 0x19C2 JUMP JUMPDEST CODESIZE PUSH2 0x90B JUMP JUMPDEST DUP3 MLOAD RETURNDATASIZE DUP7 DUP3 RETURNDATACOPY RETURNDATASIZE SWAP1 REVERT JUMPDEST DUP3 MLOAD PUSH3 0x461BCD PUSH1 0xE5 SHL DUP2 MSTORE PUSH1 0x20 DUP2 DUP7 ADD MSTORE PUSH1 0x17 PUSH1 0x24 DUP3 ADD MSTORE PUSH32 0x416D6F756E74206D75737420626520706F736974697665000000000000000000 PUSH1 0x44 DUP3 ADD MSTORE PUSH1 0x64 SWAP1 REVERT JUMPDEST POP POP CALLVALUE PUSH2 0x1F7 JUMPI DUP2 PUSH1 0x3 NOT CALLDATASIZE ADD SLT PUSH2 0x1F7 JUMPI PUSH1 0x5 SLOAD SWAP1 MLOAD PUSH1 0x1 PUSH1 0x1 PUSH1 0xA0 SHL SUB SWAP1 SWAP2 AND DUP2 MSTORE PUSH1 0x20 SWAP1 RETURN JUMPDEST POP POP CALLVALUE PUSH2 0x1F7 JUMPI DUP2 PUSH1 0x3 NOT CALLDATASIZE ADD SLT PUSH2 0x1F7 JUMPI PUSH1 0x20 SWAP1 PUSH1 0x9 SLOAD SWAP1 MLOAD SWAP1 DUP2 MSTORE RETURN JUMPDEST POP POP CALLVALUE PUSH2 0x1F7 JUMPI PUSH1 0x20 CALLDATASIZE PUSH1 0x3 NOT ADD SLT PUSH2 0x1F7 JUMPI PUSH1 0x20 SWAP2 DUP2 SWAP1 PUSH1 0x1 PUSH1 0x1 PUSH1 0xA0 SHL SUB PUSH2 0xA0E PUSH2 0x1627 JUMP JUMPDEST AND DUP2 MSTORE PUSH1 0xE DUP5 MSTORE KECCAK256 SLOAD SWAP1 MLOAD SWAP1 DUP2 MSTORE RETURN JUMPDEST SWAP2 SWAP1 POP CALLVALUE PUSH2 0x223 JUMPI PUSH1 0x20 CALLDATASIZE PUSH1 0x3 NOT ADD SLT PUSH2 0x223 JUMPI PUSH2 0xA3A PUSH2 0x1627 JUMP JUMPDEST PUSH2 0xA42 PUSH2 0x1653 JUMP JUMPDEST PUSH1 0x1 PUSH1 0x1 PUSH1 0xA0 SHL SUB AND SWAP1 DUP2 ISZERO PUSH2 0xA65 JUMPI POP DUP2 SLOAD PUSH1 0x1 PUSH1 0x1 PUSH1 0xA0 SHL SUB NOT AND OR SWAP1 SSTORE DUP1 RETURN JUMPDEST MLOAD PUSH3 0x461BCD PUSH1 0xE5 SHL DUP2 MSTORE PUSH1 0x20 DUP2 DUP5 ADD MSTORE PUSH1 0xD PUSH1 0x24 DUP3 ADD MSTORE PUSH13 0x24B73B30B634B2103A37B5B2B7 PUSH1 0x99 SHL PUSH1 0x44 DUP3 ADD MSTORE PUSH1 0x64 SWAP1 REVERT JUMPDEST SWAP2 SWAP1 POP CALLVALUE PUSH2 0x223 JUMPI DUP1 PUSH1 0x3 NOT CALLDATASIZE ADD SLT PUSH2 0x223 JUMPI PUSH2 0xAB2 PUSH2 0x1627 JUMP JUMPDEST SWAP2 PUSH2 0xABB PUSH2 0x163D JUMP JUMPDEST PUSH2 0xAC3 PUSH2 0x1A73 JUMP JUMPDEST DUP2 SLOAD PUSH1 0x1 PUSH1 0x1 PUSH1 0xA0 SHL SUB SWAP2 SWAP1 DUP3 AND CALLER SUB PUSH2 0xC57 JUMPI DUP2 DUP6 AND DUP1 ISZERO ISZERO SWAP6 DUP7 PUSH2 0xC48 JUMPI JUMPDEST POP DUP2 DUP4 AND SWAP6 DUP7 ISZERO ISZERO SWAP3 DUP4 DUP1 PUSH2 0xC3E JUMPI JUMPDEST PUSH2 0xC2F JUMPI JUMPDEST POP PUSH2 0xB9B JUMPI JUMPDEST POP PUSH2 0xB0D JUMPI JUMPDEST DUP5 PUSH1 0x1 DUP1 SSTORE DUP1 RETURN JUMPDEST DUP2 SLOAD DUP4 MLOAD PUSH4 0x70A08231 PUSH1 0xE0 SHL DUP2 MSTORE SWAP3 DUP4 ADD DUP6 SWAP1 MSTORE PUSH1 0x20 SWAP2 DUP4 SWAP2 PUSH1 0x24 SWAP2 DUP4 SWAP2 AND GAS STATICCALL SWAP1 DUP2 ISZERO PUSH2 0x951 JUMPI DUP5 SWAP2 PUSH2 0xB68 JUMPI JUMPDEST POP PUSH2 0xB53 PUSH8 0xDE0B6B3A7640000 SWAP2 PUSH1 0xA SLOAD SWAP1 PUSH2 0x1B21 JUMP JUMPDEST DIV SWAP2 DUP4 MSTORE PUSH1 0xB PUSH1 0x20 MSTORE DUP3 KECCAK256 SSTORE CODESIZE DUP1 DUP1 DUP1 PUSH2 0xB05 JUMP JUMPDEST SWAP1 POP PUSH1 0x20 DUP2 RETURNDATASIZE DUP3 GT PUSH2 0xB93 JUMPI JUMPDEST DUP2 PUSH2 0xB82 PUSH1 0x20 SWAP4 DUP4 PUSH2 0x19C2 JUMP JUMPDEST DUP2 ADD SUB SLT PUSH2 0x4CF JUMPI MLOAD PUSH2 0xB53 PUSH2 0xB3C JUMP JUMPDEST RETURNDATASIZE SWAP2 POP PUSH2 0xB75 JUMP JUMPDEST PUSH1 0x24 PUSH1 0x20 DUP5 DUP7 SLOAD AND DUP8 MLOAD SWAP3 DUP4 DUP1 SWAP3 PUSH4 0x70A08231 PUSH1 0xE0 SHL DUP3 MSTORE DUP7 DUP11 DUP4 ADD MSTORE GAS STATICCALL SWAP1 DUP2 ISZERO PUSH2 0xC25 JUMPI DUP9 SWAP2 PUSH2 0xBF2 JUMPI JUMPDEST POP PUSH2 0xBDF PUSH8 0xDE0B6B3A7640000 SWAP2 PUSH1 0xA SLOAD SWAP1 PUSH2 0x1B21 JUMP JUMPDEST DIV SWAP1 DUP8 MSTORE PUSH1 0xB PUSH1 0x20 MSTORE DUP5 DUP8 KECCAK256 SSTORE CODESIZE PUSH2 0xAFF JUMP JUMPDEST SWAP1 POP PUSH1 0x20 DUP2 RETURNDATASIZE DUP3 GT PUSH2 0xC1D JUMPI JUMPDEST DUP2 PUSH2 0xC0C PUSH1 0x20 SWAP4 DUP4 PUSH2 0x19C2 JUMP JUMPDEST DUP2 ADD SUB SLT PUSH2 0x4CF JUMPI MLOAD PUSH2 0xBDF PUSH2 0xBC8 JUMP JUMPDEST RETURNDATASIZE SWAP2 POP PUSH2 0xBFF JUMP JUMPDEST DUP7 MLOAD RETURNDATASIZE DUP11 DUP3 RETURNDATACOPY RETURNDATASIZE SWAP1 REVERT JUMPDEST PUSH2 0xC38 SWAP1 PUSH2 0x1B41 JUMP JUMPDEST CODESIZE PUSH2 0xAF9 JUMP JUMPDEST POP DUP3 DUP9 EQ ISZERO PUSH2 0xAF4 JUMP JUMPDEST PUSH2 0xC51 SWAP1 PUSH2 0x1B41 JUMP JUMPDEST CODESIZE PUSH2 0xAE4 JUMP JUMPDEST DUP4 MLOAD PUSH3 0x461BCD PUSH1 0xE5 SHL DUP2 MSTORE PUSH1 0x20 DUP2 DUP6 ADD MSTORE PUSH1 0xA PUSH1 0x24 DUP3 ADD MSTORE PUSH10 0x27B7363C903A37B5B2B7 PUSH1 0xB1 SHL PUSH1 0x44 DUP3 ADD MSTORE PUSH1 0x64 SWAP1 REVERT JUMPDEST POP POP CALLVALUE PUSH2 0x1F7 JUMPI DUP2 PUSH1 0x3 NOT CALLDATASIZE ADD SLT PUSH2 0x1F7 JUMPI PUSH1 0x20 SWAP1 PUSH1 0x10 SLOAD SWAP1 MLOAD SWAP1 DUP2 MSTORE RETURN JUMPDEST POP POP CALLVALUE PUSH2 0x1F7 JUMPI PUSH1 0x20 CALLDATASIZE PUSH1 0x3 NOT ADD SLT PUSH2 0x1F7 JUMPI PUSH1 0x20 SWAP2 DUP2 SWAP1 PUSH1 0x1 PUSH1 0x1 PUSH1 0xA0 SHL SUB PUSH2 0xCCE PUSH2 0x1627 JUMP JUMPDEST AND DUP2 MSTORE PUSH1 0xB DUP5 MSTORE KECCAK256 SLOAD SWAP1 MLOAD SWAP1 DUP2 MSTORE RETURN JUMPDEST POP POP CALLVALUE PUSH2 0x1F7 JUMPI DUP2 PUSH1 0x3 NOT CALLDATASIZE ADD SLT PUSH2 0x1F7 JUMPI PUSH1 0x20 SWAP1 MLOAD PUSH32 0x1893E1A169E79F2FE8AA327B1BCEB2FEDE7A1B76A54824F95EA0E737720954AE DUP2 MSTORE RETURN JUMPDEST SWAP3 SWAP2 POP CALLVALUE PUSH2 0xDC3 JUMPI DUP2 PUSH1 0x3 NOT CALLDATASIZE ADD SLT PUSH2 0xDC3 JUMPI PUSH2 0xD34 PUSH2 0x1627 JUMP JUMPDEST PUSH2 0xD3C PUSH2 0x1653 JUMP JUMPDEST DUP2 SLOAD PUSH1 0x1 PUSH1 0x1 PUSH1 0xA0 SHL SUB AND SWAP1 DUP2 EXTCODESIZE ISZERO PUSH2 0xDBF JUMPI DUP4 MLOAD PUSH4 0x40C10F19 PUSH1 0xE0 SHL DUP2 MSTORE PUSH1 0x1 PUSH1 0x1 PUSH1 0xA0 SHL SUB SWAP1 SWAP2 AND DUP4 DUP3 ADD SWAP1 DUP2 MSTORE PUSH1 0x24 CALLDATALOAD PUSH1 0x20 DUP3 ADD MSTORE SWAP1 SWAP5 SWAP2 DUP6 SWAP2 DUP3 SWAP1 DUP5 SWAP1 DUP3 SWAP1 PUSH1 0x40 ADD SUB SWAP3 GAS CALL DUP1 ISZERO PUSH2 0x951 JUMPI PUSH2 0xD94 JUMPI DUP4 DUP1 RETURN JUMPDEST PUSH8 0xFFFFFFFFFFFFFFFF DUP4 GT PUSH2 0xDAC JUMPI POP MSTORE CODESIZE DUP1 DUP1 DUP4 DUP1 RETURN JUMPDEST PUSH4 0x4E487B71 PUSH1 0xE0 SHL DUP5 MSTORE PUSH1 0x41 SWAP1 MSTORE PUSH1 0x24 DUP4 REVERT JUMPDEST DUP5 DUP1 REVERT JUMPDEST POP POP REVERT JUMPDEST SWAP1 POP CALLVALUE PUSH2 0x223 JUMPI DUP3 PUSH1 0x3 NOT CALLDATASIZE ADD SLT PUSH2 0x223 JUMPI PUSH2 0xDE1 PUSH2 0x1A73 JUMP JUMPDEST PUSH2 0xDE9 PUSH2 0x1653 JUMP JUMPDEST PUSH1 0x10 SLOAD SWAP1 DUP2 ISZERO PUSH2 0xEA5 JUMPI PUSH1 0x10 DUP5 SWAP1 SSTORE PUSH1 0x2 SLOAD PUSH1 0x11 SLOAD DUP5 MLOAD PUSH4 0xA9059CBB PUSH1 0xE0 SHL DUP2 MSTORE PUSH1 0x1 PUSH1 0x1 PUSH1 0xA0 SHL SUB SWAP2 DUP3 AND SWAP4 DUP2 ADD SWAP4 DUP5 MSTORE PUSH1 0x20 DUP5 DUP2 ADD DUP7 SWAP1 MSTORE SWAP1 SWAP4 SWAP1 SWAP3 DUP5 SWAP3 AND SWAP1 DUP3 SWAP1 DUP9 SWAP1 DUP3 SWAP1 PUSH1 0x40 ADD SUB SWAP3 GAS CALL SWAP1 DUP2 ISZERO PUSH2 0xE98 JUMPI SWAP3 PUSH2 0xE75 PUSH1 0x20 SWAP4 SWAP3 PUSH32 0xC472CB3A7A659A876494D66B3063145F279701771D6150B9329C31611ED6405C SWAP6 DUP8 SWAP2 PUSH2 0xE81 JUMPI POP PUSH2 0x1A12 JUMP JUMPDEST MLOAD SWAP1 DUP2 MSTORE LOG1 PUSH1 0x1 DUP1 SSTORE DUP1 RETURN JUMPDEST PUSH2 0x94B SWAP2 POP DUP6 RETURNDATASIZE DUP2 GT PUSH2 0x70A JUMPI PUSH2 0x6FC DUP2 DUP4 PUSH2 0x19C2 JUMP JUMPDEST POP POP POP MLOAD SWAP1 RETURNDATASIZE SWAP1 DUP3 RETURNDATACOPY RETURNDATASIZE SWAP1 REVERT JUMPDEST PUSH1 0x64 SWAP1 PUSH1 0x20 DUP5 MLOAD SWAP2 PUSH3 0x461BCD PUSH1 0xE5 SHL DUP4 MSTORE DUP3 ADD MSTORE PUSH1 0x7 PUSH1 0x24 DUP3 ADD MSTORE PUSH7 0x4E6F2066656573 PUSH1 0xC8 SHL PUSH1 0x44 DUP3 ADD MSTORE REVERT JUMPDEST POP POP CALLVALUE PUSH2 0x1F7 JUMPI DUP2 PUSH1 0x3 NOT CALLDATASIZE ADD SLT PUSH2 0x1F7 JUMPI PUSH1 0x11 SLOAD SWAP1 MLOAD PUSH1 0x1 PUSH1 0x1 PUSH1 0xA0 SHL SUB SWAP1 SWAP2 AND DUP2 MSTORE PUSH1 0x20 SWAP1 RETURN JUMPDEST POP POP CALLVALUE PUSH2 0x1F7 JUMPI DUP2 PUSH1 0x3 NOT CALLDATASIZE ADD SLT PUSH2 0x1F7 JUMPI PUSH1 0x20 SWAP1 PUSH1 0x6 SLOAD SWAP1 MLOAD SWAP1 DUP2 MSTORE RETURN JUMPDEST DUP4 DUP4 CALLVALUE PUSH2 0x1F7 JUMPI DUP2 PUSH1 0x3 NOT CALLDATASIZE ADD SLT PUSH2 0x1F7 JUMPI PUSH2 0xF34 PUSH2 0x1A73 JUMP JUMPDEST PUSH1 0x5 SLOAD PUSH1 0x6 SLOAD DUP3 MLOAD PUSH4 0x11748061 PUSH1 0xE1 SHL DUP2 MSTORE DUP6 DUP2 ADD SWAP2 SWAP1 SWAP2 MSTORE PUSH1 0x24 SWAP3 SWAP2 PUSH1 0x20 SWAP2 PUSH1 0x1 PUSH1 0x1 PUSH1 0xA0 SHL SUB SWAP2 DUP3 AND SWAP1 DUP4 DUP2 DUP8 DUP2 DUP6 GAS STATICCALL SWAP1 DUP2 ISZERO PUSH2 0x1227 JUMPI SWAP2 PUSH2 0xF82 DUP6 SWAP3 DUP9 SWAP5 DUP11 SWAP2 PUSH2 0x120A JUMPI POP PUSH2 0x1AE2 JUMP JUMPDEST DUP6 MLOAD PUSH4 0x3AF32ABF PUSH1 0xE0 SHL DUP2 MSTORE CALLER DUP11 DUP3 ADD MSTORE SWAP3 DUP4 SWAP2 DUP3 SWAP1 GAS STATICCALL SWAP1 DUP2 ISZERO PUSH2 0x11AF JUMPI DUP7 SWAP2 PUSH2 0x11ED JUMPI JUMPDEST POP ISZERO PUSH2 0x11B9 JUMPI PUSH2 0xFB7 CALLER PUSH2 0x1B41 JUMP JUMPDEST DUP4 DUP3 DUP3 DUP9 SLOAD AND DUP6 MLOAD SWAP3 DUP4 DUP1 SWAP3 PUSH4 0x70A08231 PUSH1 0xE0 SHL DUP3 MSTORE CALLER DUP13 DUP4 ADD MSTORE GAS STATICCALL SWAP1 DUP2 ISZERO PUSH2 0x11AF JUMPI DUP7 SWAP2 PUSH2 0x1180 JUMPI JUMPDEST POP PUSH2 0xFF9 PUSH8 0xDE0B6B3A7640000 SWAP2 PUSH1 0xA SLOAD SWAP1 PUSH2 0x1B21 JUMP JUMPDEST DIV CALLER DUP7 MSTORE PUSH1 0xB DUP4 MSTORE DUP4 DUP7 KECCAK256 SSTORE PUSH1 0xC DUP3 MSTORE DUP3 DUP6 KECCAK256 SLOAD SWAP4 DUP5 ISZERO PUSH2 0x114A JUMPI PUSH1 0x9 SLOAD DUP6 GT PUSH2 0x1109 JUMPI POP DUP4 PUSH2 0x109A SWAP6 SWAP7 DUP4 SWAP3 CALLER DUP10 MSTORE PUSH1 0xC DUP5 MSTORE DUP9 DUP7 DUP2 KECCAK256 SSTORE PUSH2 0x103E DUP4 PUSH1 0x9 SLOAD PUSH2 0x1B34 JUMP JUMPDEST PUSH1 0x9 SSTORE CALLER DUP10 MSTORE PUSH1 0xE DUP5 MSTORE DUP6 DUP10 KECCAK256 PUSH2 0x1056 DUP5 DUP3 SLOAD PUSH2 0x1A50 JUMP JUMPDEST SWAP1 SSTORE CALLER DUP10 MSTORE PUSH1 0xD DUP5 MSTORE TIMESTAMP DUP7 DUP11 KECCAK256 SSTORE PUSH1 0x2 SLOAD AND SWAP1 DUP9 DUP7 MLOAD DUP1 SWAP10 DUP2 SWAP6 DUP3 SWAP5 PUSH4 0xA9059CBB PUSH1 0xE0 SHL DUP5 MSTORE CALLER SWAP1 DUP5 ADD PUSH1 0x20 SWAP1 SWAP4 SWAP3 SWAP2 SWAP4 PUSH1 0x40 DUP2 ADD SWAP5 PUSH1 0x1 DUP1 PUSH1 0xA0 SHL SUB AND DUP2 MSTORE ADD MSTORE JUMP JUMPDEST SUB SWAP3 GAS CALL SWAP4 DUP5 ISZERO PUSH2 0x6DA JUMPI PUSH32 0x10D8DEDFC0745B8C25BA10B06E304138B251C18DCAADF2D71C7F3214719DC4D1 SWAP4 SWAP5 PUSH2 0x10D8 SWAP2 DUP8 SWAP2 PUSH2 0x10EC JUMPI POP PUSH2 0x1A12 JUMP JUMPDEST DUP2 MLOAD SWAP4 DUP5 MSTORE TIMESTAMP SWAP1 DUP5 ADD MSTORE CALLER SWAP3 LOG2 PUSH1 0x1 DUP1 SSTORE DUP1 RETURN JUMPDEST PUSH2 0x1103 SWAP2 POP DUP4 RETURNDATASIZE DUP6 GT PUSH2 0x70A JUMPI PUSH2 0x6FC DUP2 DUP4 PUSH2 0x19C2 JUMP JUMPDEST DUP8 PUSH2 0x90B JUMP JUMPDEST DUP7 PUSH1 0x1A PUSH1 0x64 SWAP3 DUP6 DUP8 MLOAD SWAP4 PUSH3 0x461BCD PUSH1 0xE5 SHL DUP6 MSTORE DUP5 ADD MSTORE DUP3 ADD MSTORE PUSH32 0x496E73756666696369656E742064697374726962757461626C65000000000000 PUSH1 0x44 DUP3 ADD MSTORE REVERT JUMPDEST DUP7 PUSH1 0x12 PUSH1 0x64 SWAP3 DUP6 DUP8 MLOAD SWAP4 PUSH3 0x461BCD PUSH1 0xE5 SHL DUP6 MSTORE DUP5 ADD MSTORE DUP3 ADD MSTORE PUSH18 0x4E6F2070656E64696E672072657761726473 PUSH1 0x70 SHL PUSH1 0x44 DUP3 ADD MSTORE REVERT JUMPDEST SWAP1 POP DUP3 DUP2 DUP2 RETURNDATASIZE DUP4 GT PUSH2 0x11A8 JUMPI JUMPDEST PUSH2 0x1197 DUP2 DUP4 PUSH2 0x19C2 JUMP JUMPDEST DUP2 ADD SUB SLT PUSH2 0x78B JUMPI MLOAD PUSH2 0xFF9 PUSH2 0xFE2 JUMP JUMPDEST POP RETURNDATASIZE PUSH2 0x118D JUMP JUMPDEST DUP5 MLOAD RETURNDATASIZE DUP9 DUP3 RETURNDATACOPY RETURNDATASIZE SWAP1 REVERT JUMPDEST DUP3 MLOAD PUSH3 0x461BCD PUSH1 0xE5 SHL DUP2 MSTORE DUP1 DUP8 ADD DUP4 SWAP1 MSTORE PUSH1 0xF DUP2 DUP7 ADD MSTORE PUSH15 0x139BDD081DDA1A5D195B1A5CDD1959 PUSH1 0x8A SHL PUSH1 0x44 DUP3 ADD MSTORE PUSH1 0x64 SWAP1 REVERT JUMPDEST PUSH2 0x1204 SWAP2 POP DUP4 RETURNDATASIZE DUP6 GT PUSH2 0x70A JUMPI PUSH2 0x6FC DUP2 DUP4 PUSH2 0x19C2 JUMP JUMPDEST DUP8 PUSH2 0xFA8 JUMP JUMPDEST PUSH2 0x1221 SWAP2 POP DUP5 RETURNDATASIZE DUP7 GT PUSH2 0x70A JUMPI PUSH2 0x6FC DUP2 DUP4 PUSH2 0x19C2 JUMP JUMPDEST DUP12 PUSH2 0x582 JUMP JUMPDEST DUP6 MLOAD RETURNDATASIZE DUP10 DUP3 RETURNDATACOPY RETURNDATASIZE SWAP1 REVERT JUMPDEST DUP4 DUP4 CALLVALUE PUSH2 0x1F7 JUMPI DUP1 PUSH1 0x3 NOT CALLDATASIZE ADD SLT PUSH2 0x1F7 JUMPI PUSH2 0x124B PUSH2 0x163D JUMP JUMPDEST SWAP1 CALLER PUSH1 0x1 PUSH1 0x1 PUSH1 0xA0 SHL SUB DUP4 AND SUB PUSH2 0x1268 JUMPI POP PUSH2 0x368 SWAP2 SWAP3 CALLDATALOAD PUSH2 0x194D JUMP JUMPDEST MLOAD PUSH4 0x334BD919 PUSH1 0xE1 SHL DUP2 MSTORE DUP4 SWAP1 REVERT JUMPDEST POP POP CALLVALUE PUSH2 0x1F7 JUMPI DUP2 PUSH1 0x3 NOT CALLDATASIZE ADD SLT PUSH2 0x1F7 JUMPI PUSH1 0x20 SWAP1 PUSH1 0xF SLOAD SWAP1 MLOAD SWAP1 DUP2 MSTORE RETURN JUMPDEST POP POP CALLVALUE PUSH2 0x1F7 JUMPI PUSH1 0x20 CALLDATASIZE PUSH1 0x3 NOT ADD SLT PUSH2 0x1F7 JUMPI PUSH1 0x20 SWAP2 DUP2 SWAP1 PUSH1 0x1 PUSH1 0x1 PUSH1 0xA0 SHL SUB PUSH2 0x12BE PUSH2 0x1627 JUMP JUMPDEST AND DUP2 MSTORE PUSH1 0xC DUP5 MSTORE KECCAK256 SLOAD SWAP1 MLOAD SWAP1 DUP2 MSTORE RETURN JUMPDEST POP POP CALLVALUE PUSH2 0x1F7 JUMPI DUP2 PUSH1 0x3 NOT CALLDATASIZE ADD SLT PUSH2 0x1F7 JUMPI PUSH1 0x2 SLOAD SWAP1 MLOAD PUSH1 0x1 PUSH1 0x1 PUSH1 0xA0 SHL SUB SWAP1 SWAP2 AND DUP2 MSTORE PUSH1 0x20 SWAP1 RETURN JUMPDEST SWAP2 SWAP1 POP CALLVALUE PUSH2 0x223 JUMPI DUP1 PUSH1 0x3 NOT CALLDATASIZE ADD SLT PUSH2 0x223 JUMPI PUSH2 0x368 SWAP2 CALLDATALOAD PUSH2 0x131C PUSH1 0x1 PUSH2 0x7C6 PUSH2 0x163D JUMP JUMPDEST PUSH2 0x18E6 JUMP JUMPDEST POP POP CALLVALUE PUSH2 0x1F7 JUMPI PUSH1 0x20 CALLDATASIZE PUSH1 0x3 NOT ADD SLT PUSH2 0x1F7 JUMPI PUSH1 0x20 SWAP2 DUP2 SWAP1 PUSH1 0x1 PUSH1 0x1 PUSH1 0xA0 SHL SUB PUSH2 0x1349 PUSH2 0x1627 JUMP JUMPDEST AND DUP2 MSTORE PUSH1 0xD DUP5 MSTORE KECCAK256 SLOAD SWAP1 MLOAD SWAP1 DUP2 MSTORE RETURN JUMPDEST SWAP1 POP CALLVALUE PUSH2 0x223 JUMPI PUSH1 0x20 CALLDATASIZE PUSH1 0x3 NOT ADD SLT PUSH2 0x223 JUMPI DUP2 PUSH1 0x20 SWAP4 PUSH1 0x1 SWAP3 CALLDATALOAD DUP2 MSTORE DUP1 DUP6 MSTORE KECCAK256 ADD SLOAD SWAP1 MLOAD SWAP1 DUP2 MSTORE RETURN JUMPDEST POP POP CALLVALUE PUSH2 0x1F7 JUMPI DUP2 PUSH1 0x3 NOT CALLDATASIZE ADD SLT PUSH2 0x1F7 JUMPI PUSH1 0x20 SWAP1 PUSH1 0xFF PUSH1 0x7 SLOAD PUSH1 0x8 SHR AND SWAP1 MLOAD SWAP1 ISZERO ISZERO DUP2 MSTORE RETURN JUMPDEST SWAP2 SWAP1 POP CALLVALUE PUSH2 0x223 JUMPI DUP3 PUSH1 0x3 NOT CALLDATASIZE ADD SLT PUSH2 0x223 JUMPI PUSH1 0x2 SLOAD DUP2 MLOAD PUSH4 0x70A08231 PUSH1 0xE0 SHL DUP2 MSTORE ADDRESS SWAP4 DUP2 ADD SWAP4 SWAP1 SWAP4 MSTORE PUSH1 0x20 SWAP1 DUP4 SWAP1 PUSH1 0x24 SWAP1 DUP3 SWAP1 PUSH1 0x1 PUSH1 0x1 PUSH1 0xA0 SHL SUB AND GAS STATICCALL SWAP2 DUP3 ISZERO PUSH2 0x1438 JUMPI DUP4 SWAP3 PUSH2 0x1401 JUMPI JUMPDEST PUSH1 0x20 DUP4 DUP4 MLOAD SWAP1 DUP2 MSTORE RETURN JUMPDEST SWAP1 SWAP2 POP PUSH1 0x20 DUP2 RETURNDATASIZE DUP3 GT PUSH2 0x1430 JUMPI JUMPDEST DUP2 PUSH2 0x141C PUSH1 0x20 SWAP4 DUP4 PUSH2 0x19C2 JUMP JUMPDEST DUP2 ADD SUB SLT PUSH2 0x223 JUMPI PUSH1 0x20 SWAP3 POP MLOAD SWAP1 CODESIZE PUSH2 0x13F7 JUMP JUMPDEST RETURNDATASIZE SWAP2 POP PUSH2 0x140F JUMP JUMPDEST DUP2 MLOAD RETURNDATASIZE DUP6 DUP3 RETURNDATACOPY RETURNDATASIZE SWAP1 REVERT JUMPDEST SWAP1 POP CALLVALUE PUSH2 0x223 JUMPI DUP2 PUSH1 0x3 NOT CALLDATASIZE ADD SLT PUSH2 0x223 JUMPI PUSH8 0xFFFFFFFFFFFFFFFF DUP2 CALLDATALOAD DUP2 DUP2 GT PUSH2 0xDBF JUMPI CALLDATASIZE PUSH1 0x23 DUP3 ADD SLT ISZERO PUSH2 0xDBF JUMPI DUP1 DUP4 ADD CALLDATALOAD SWAP2 DUP3 GT PUSH2 0xDBF JUMPI CALLDATASIZE PUSH1 0x24 DUP4 DUP4 ADD ADD GT PUSH2 0xDBF JUMPI PUSH1 0x24 CALLDATALOAD SWAP4 PUSH32 0x1893E1A169E79F2FE8AA327B1BCEB2FEDE7A1B76A54824F95EA0E737720954AE SWAP4 DUP5 DUP8 MSTORE PUSH1 0x20 SWAP5 DUP8 DUP7 MSTORE DUP3 DUP9 KECCAK256 CALLER DUP10 MSTORE DUP7 MSTORE PUSH1 0xFF DUP4 DUP10 KECCAK256 SLOAD AND ISZERO PUSH2 0x15B9 JUMPI POP PUSH2 0x14D4 PUSH2 0x1A73 JUMP JUMPDEST PUSH1 0x8 SLOAD SWAP1 PUSH2 0x14E4 DUP3 DUP9 GT ISZERO PUSH2 0x1A96 JUMP JUMPDEST PUSH1 0x5 SLOAD PUSH1 0x6 SLOAD DUP5 MLOAD PUSH4 0x11748061 PUSH1 0xE1 SHL DUP2 MSTORE SWAP3 DUP4 ADD MSTORE DUP7 SWAP1 DUP3 SWAP1 PUSH1 0x24 SWAP1 DUP3 SWAP1 PUSH1 0x1 PUSH1 0x1 PUSH1 0xA0 SHL SUB AND GAS STATICCALL SWAP1 DUP9 DUP3 ISZERO PUSH2 0x15AE JUMPI SWAP6 DUP1 SWAP5 PUSH2 0x155F DUP11 DUP4 SWAP7 PUSH2 0x155A PUSH1 0x24 SWAP8 PUSH32 0xEC2715248F93DAA810498C051F7F418783DEFF1E5184EBA4CCF20D57789FDBB7 SWAP15 SWAP12 SWAP8 DUP15 PUSH1 0x60 SWAP15 SWAP3 PUSH2 0x1591 JUMPI JUMPDEST POP POP PUSH2 0x1AE2 JUMP JUMPDEST PUSH2 0x1B34 JUMP JUMPDEST PUSH1 0x8 SSTORE DUP1 DUP1 MLOAD SWAP10 DUP11 SWAP9 DUP10 MSTORE DUP9 ADD MSTORE DUP7 ADD MSTORE ADD DUP5 DUP5 ADD CALLDATACOPY DUP2 DUP2 ADD DUP4 ADD DUP7 SWAP1 MSTORE PUSH1 0x1F ADD PUSH1 0x1F NOT AND DUP2 ADD SUB ADD SWAP1 LOG1 PUSH1 0x1 DUP1 SSTORE DUP1 RETURN JUMPDEST PUSH2 0x15A7 SWAP3 POP DUP1 RETURNDATASIZE LT PUSH2 0x70A JUMPI PUSH2 0x6FC DUP2 DUP4 PUSH2 0x19C2 JUMP JUMPDEST CODESIZE DUP15 PUSH2 0x1553 JUMP JUMPDEST DUP5 MLOAD SWAP1 RETURNDATASIZE SWAP1 DUP3 RETURNDATACOPY RETURNDATASIZE SWAP1 REVERT JUMPDEST PUSH1 0x44 SWAP3 MLOAD SWAP2 PUSH4 0xE2517D3F PUSH1 0xE0 SHL DUP4 MSTORE CALLER SWAP1 DUP4 ADD MSTORE PUSH1 0x24 DUP3 ADD MSTORE REVERT JUMPDEST DUP5 SWAP2 CALLVALUE PUSH2 0x223 JUMPI PUSH1 0x20 CALLDATASIZE PUSH1 0x3 NOT ADD SLT PUSH2 0x223 JUMPI CALLDATALOAD PUSH4 0xFFFFFFFF PUSH1 0xE0 SHL DUP2 AND DUP1 SWAP2 SUB PUSH2 0x223 JUMPI PUSH1 0x20 SWAP3 POP PUSH4 0x7965DB0B PUSH1 0xE0 SHL DUP2 EQ SWAP1 DUP2 ISZERO PUSH2 0x1616 JUMPI JUMPDEST POP ISZERO ISZERO DUP2 MSTORE RETURN JUMPDEST PUSH4 0x1FFC9A7 PUSH1 0xE0 SHL EQ SWAP1 POP DUP4 PUSH2 0x160F JUMP JUMPDEST PUSH1 0x4 CALLDATALOAD SWAP1 PUSH1 0x1 PUSH1 0x1 PUSH1 0xA0 SHL SUB DUP3 AND DUP3 SUB PUSH2 0x4CF JUMPI JUMP JUMPDEST PUSH1 0x24 CALLDATALOAD SWAP1 PUSH1 0x1 PUSH1 0x1 PUSH1 0xA0 SHL SUB DUP3 AND DUP3 SUB PUSH2 0x4CF JUMPI JUMP JUMPDEST CALLER PUSH1 0x0 SWAP1 DUP2 MSTORE PUSH32 0xAD3228B676F7D3CD4284A5443F17F1962B36E491B30A40B2405849E597BA5FB5 PUSH1 0x20 MSTORE PUSH1 0x40 DUP2 KECCAK256 SLOAD PUSH1 0xFF AND ISZERO PUSH2 0x168D JUMPI POP JUMP JUMPDEST PUSH1 0x44 SWAP1 PUSH1 0x40 MLOAD SWAP1 PUSH4 0xE2517D3F PUSH1 0xE0 SHL DUP3 MSTORE CALLER PUSH1 0x4 DUP4 ADD MSTORE PUSH1 0x24 DUP3 ADD MSTORE REVERT JUMPDEST CALLER PUSH1 0x0 SWAP1 DUP2 MSTORE PUSH32 0x1F0C3AA234C717819CA003165EA9E795021A753E97C75B32BB79CC90CBBF5CFA PUSH1 0x20 MSTORE PUSH1 0x40 SWAP1 KECCAK256 SLOAD PUSH32 0xE2F2C6EC490C385A19982D62C2EAB738AFEBFD5DE935A92469733DAED358FE58 SWAP1 PUSH1 0xFF AND ISZERO PUSH2 0x168D JUMPI POP JUMP JUMPDEST DUP1 PUSH1 0x0 MSTORE PUSH1 0x0 PUSH1 0x20 MSTORE PUSH1 0x40 PUSH1 0x0 KECCAK256 CALLER PUSH1 0x0 MSTORE PUSH1 0x20 MSTORE PUSH1 0xFF PUSH1 0x40 PUSH1 0x0 KECCAK256 SLOAD AND ISZERO PUSH2 0x168D JUMPI POP JUMP JUMPDEST PUSH1 0x1 PUSH1 0x1 PUSH1 0xA0 SHL SUB AND PUSH1 0x0 DUP2 DUP2 MSTORE PUSH32 0xAD3228B676F7D3CD4284A5443F17F1962B36E491B30A40B2405849E597BA5FB5 PUSH1 0x20 MSTORE PUSH1 0x40 DUP2 KECCAK256 SLOAD SWAP1 SWAP2 SWAP1 PUSH1 0xFF AND PUSH2 0x17A7 JUMPI DUP2 DUP1 MSTORE DUP2 PUSH1 0x20 MSTORE PUSH1 0x40 DUP3 KECCAK256 DUP2 DUP4 MSTORE PUSH1 0x20 MSTORE PUSH1 0x40 DUP3 KECCAK256 PUSH1 0x1 PUSH1 0xFF NOT DUP3 SLOAD AND OR SWAP1 SSTORE CALLER SWAP2 PUSH1 0x0 DUP1 MLOAD PUSH1 0x20 PUSH2 0x1C25 DUP4 CODECOPY DUP2 MLOAD SWAP2 MSTORE DUP2 DUP1 LOG4 PUSH1 0x1 SWAP1 JUMP JUMPDEST POP SWAP1 JUMP JUMPDEST PUSH1 0x1 PUSH1 0x1 PUSH1 0xA0 SHL SUB AND PUSH1 0x0 DUP2 DUP2 MSTORE PUSH32 0x1F0C3AA234C717819CA003165EA9E795021A753E97C75B32BB79CC90CBBF5CFA PUSH1 0x20 MSTORE PUSH1 0x40 DUP2 KECCAK256 SLOAD SWAP1 SWAP2 SWAP1 PUSH32 0xE2F2C6EC490C385A19982D62C2EAB738AFEBFD5DE935A92469733DAED358FE58 SWAP1 PUSH1 0xFF AND PUSH2 0x1846 JUMPI DUP1 DUP4 MSTORE DUP3 PUSH1 0x20 MSTORE PUSH1 0x40 DUP4 KECCAK256 DUP3 DUP5 MSTORE PUSH1 0x20 MSTORE PUSH1 0x40 DUP4 KECCAK256 PUSH1 0x1 PUSH1 0xFF NOT DUP3 SLOAD AND OR SWAP1 SSTORE PUSH1 0x0 DUP1 MLOAD PUSH1 0x20 PUSH2 0x1C25 DUP4 CODECOPY DUP2 MLOAD SWAP2 MSTORE CALLER SWAP4 DUP1 LOG4 PUSH1 0x1 SWAP1 JUMP JUMPDEST POP POP SWAP1 JUMP JUMPDEST PUSH1 0x1 PUSH1 0x1 PUSH1 0xA0 SHL SUB AND PUSH1 0x0 DUP2 DUP2 MSTORE PUSH32 0xF7A24D9DB6A7A77B0CA72C680CB6234311400AAD48C64D3D9B11DAFD3CC5E8A8 PUSH1 0x20 MSTORE PUSH1 0x40 DUP2 KECCAK256 SLOAD SWAP1 SWAP2 SWAP1 PUSH32 0x1893E1A169E79F2FE8AA327B1BCEB2FEDE7A1B76A54824F95EA0E737720954AE SWAP1 PUSH1 0xFF AND PUSH2 0x1846 JUMPI DUP1 DUP4 MSTORE DUP3 PUSH1 0x20 MSTORE PUSH1 0x40 DUP4 KECCAK256 DUP3 DUP5 MSTORE PUSH1 0x20 MSTORE PUSH1 0x40 DUP4 KECCAK256 PUSH1 0x1 PUSH1 0xFF NOT DUP3 SLOAD AND OR SWAP1 SSTORE PUSH1 0x0 DUP1 MLOAD PUSH1 0x20 PUSH2 0x1C25 DUP4 CODECOPY DUP2 MLOAD SWAP2 MSTORE CALLER SWAP4 DUP1 LOG4 PUSH1 0x1 SWAP1 JUMP JUMPDEST SWAP1 PUSH1 0x0 SWAP2 DUP1 DUP4 MSTORE DUP3 PUSH1 0x20 MSTORE PUSH1 0x40 DUP4 KECCAK256 SWAP2 PUSH1 0x1 DUP1 PUSH1 0xA0 SHL SUB AND SWAP2 DUP3 DUP5 MSTORE PUSH1 0x20 MSTORE PUSH1 0xFF PUSH1 0x40 DUP5 KECCAK256 SLOAD AND ISZERO PUSH1 0x0 EQ PUSH2 0x1846 JUMPI DUP1 DUP4 MSTORE DUP3 PUSH1 0x20 MSTORE PUSH1 0x40 DUP4 KECCAK256 DUP3 DUP5 MSTORE PUSH1 0x20 MSTORE PUSH1 0x40 DUP4 KECCAK256 PUSH1 0x1 PUSH1 0xFF NOT DUP3 SLOAD AND OR SWAP1 SSTORE PUSH1 0x0 DUP1 MLOAD PUSH1 0x20 PUSH2 0x1C25 DUP4 CODECOPY DUP2 MLOAD SWAP2 MSTORE CALLER SWAP4 DUP1 LOG4 PUSH1 0x1 SWAP1 JUMP JUMPDEST SWAP1 PUSH1 0x0 SWAP2 DUP1 DUP4 MSTORE DUP3 PUSH1 0x20 MSTORE PUSH1 0x40 DUP4 KECCAK256 SWAP2 PUSH1 0x1 DUP1 PUSH1 0xA0 SHL SUB AND SWAP2 DUP3 DUP5 MSTORE PUSH1 0x20 MSTORE PUSH1 0xFF PUSH1 0x40 DUP5 KECCAK256 SLOAD AND PUSH1 0x0 EQ PUSH2 0x1846 JUMPI DUP1 DUP4 MSTORE DUP3 PUSH1 0x20 MSTORE PUSH1 0x40 DUP4 KECCAK256 DUP3 DUP5 MSTORE PUSH1 0x20 MSTORE PUSH1 0x40 DUP4 KECCAK256 PUSH1 0xFF NOT DUP2 SLOAD AND SWAP1 SSTORE PUSH32 0xF6391F5C32D9C69D2A47EA670B442974B53935D1EDC7FD64EB21E047A839171B CALLER SWAP4 DUP1 LOG4 PUSH1 0x1 SWAP1 JUMP JUMPDEST SWAP1 PUSH1 0x1F DUP1 NOT SWAP2 ADD AND DUP2 ADD SWAP1 DUP2 LT PUSH8 0xFFFFFFFFFFFFFFFF DUP3 GT OR PUSH2 0x19E4 JUMPI PUSH1 0x40 MSTORE JUMP JUMPDEST PUSH4 0x4E487B71 PUSH1 0xE0 SHL PUSH1 0x0 MSTORE PUSH1 0x41 PUSH1 0x4 MSTORE PUSH1 0x24 PUSH1 0x0 REVERT JUMPDEST SWAP1 DUP2 PUSH1 0x20 SWAP2 SUB SLT PUSH2 0x4CF JUMPI MLOAD DUP1 ISZERO ISZERO DUP2 SUB PUSH2 0x4CF JUMPI SWAP1 JUMP JUMPDEST ISZERO PUSH2 0x1A19 JUMPI JUMP JUMPDEST PUSH1 0x40 MLOAD PUSH3 0x461BCD PUSH1 0xE5 SHL DUP2 MSTORE PUSH1 0x20 PUSH1 0x4 DUP3 ADD MSTORE PUSH1 0xF PUSH1 0x24 DUP3 ADD MSTORE PUSH15 0x151C985B9CD9995C8819985A5B1959 PUSH1 0x8A SHL PUSH1 0x44 DUP3 ADD MSTORE PUSH1 0x64 SWAP1 REVERT JUMPDEST SWAP2 SWAP1 DUP3 ADD DUP1 SWAP3 GT PUSH2 0x1A5D JUMPI JUMP JUMPDEST PUSH4 0x4E487B71 PUSH1 0xE0 SHL PUSH1 0x0 MSTORE PUSH1 0x11 PUSH1 0x4 MSTORE PUSH1 0x24 PUSH1 0x0 REVERT JUMPDEST PUSH1 0x2 PUSH1 0x1 SLOAD EQ PUSH2 0x1A84 JUMPI PUSH1 0x2 PUSH1 0x1 SSTORE JUMP JUMPDEST PUSH1 0x40 MLOAD PUSH4 0x3EE5AEB5 PUSH1 0xE0 SHL DUP2 MSTORE PUSH1 0x4 SWAP1 REVERT JUMPDEST ISZERO PUSH2 0x1A9D JUMPI JUMP JUMPDEST PUSH1 0x40 MLOAD PUSH3 0x461BCD PUSH1 0xE5 SHL DUP2 MSTORE PUSH1 0x20 PUSH1 0x4 DUP3 ADD MSTORE PUSH1 0x17 PUSH1 0x24 DUP3 ADD MSTORE PUSH32 0x496E73756666696369656E742069646C652066756E6473000000000000000000 PUSH1 0x44 DUP3 ADD MSTORE PUSH1 0x64 SWAP1 REVERT JUMPDEST ISZERO PUSH2 0x1AE9 JUMPI JUMP JUMPDEST PUSH1 0x40 MLOAD PUSH3 0x461BCD PUSH1 0xE5 SHL DUP2 MSTORE PUSH1 0x20 PUSH1 0x4 DUP3 ADD MSTORE PUSH1 0x10 PUSH1 0x24 DUP3 ADD MSTORE PUSH16 0x4173736574206E6F7420616374697665 PUSH1 0x80 SHL PUSH1 0x44 DUP3 ADD MSTORE PUSH1 0x64 SWAP1 REVERT JUMPDEST DUP2 DUP2 MUL SWAP3 SWAP2 DUP2 ISZERO SWAP2 DUP5 DIV EQ OR ISZERO PUSH2 0x1A5D JUMPI JUMP JUMPDEST SWAP2 SWAP1 DUP3 SUB SWAP2 DUP3 GT PUSH2 0x1A5D JUMPI JUMP JUMPDEST PUSH1 0x4 DUP1 SLOAD PUSH1 0x40 MLOAD PUSH4 0x70A08231 PUSH1 0xE0 SHL DUP2 MSTORE PUSH1 0x1 PUSH1 0x1 PUSH1 0xA0 SHL SUB SWAP4 DUP5 AND SWAP3 DUP2 ADD DUP4 SWAP1 MSTORE SWAP2 SWAP3 PUSH1 0x20 SWAP3 SWAP2 DUP4 SWAP2 DUP4 SWAP2 PUSH1 0x24 SWAP2 DUP4 SWAP2 AND GAS STATICCALL SWAP1 DUP2 ISZERO PUSH2 0x1C18 JUMPI PUSH1 0x0 SWAP2 PUSH2 0x1BE6 JUMPI JUMPDEST POP PUSH2 0x1B9B PUSH8 0xDE0B6B3A7640000 SWAP2 PUSH1 0xA SLOAD SWAP1 PUSH2 0x1B21 JUMP JUMPDEST DIV SWAP1 DUP3 PUSH1 0x0 MSTORE PUSH1 0xB DUP2 MSTORE PUSH1 0x40 PUSH1 0x0 KECCAK256 SLOAD SWAP2 DUP3 DUP2 GT PUSH2 0x1BBA JUMPI JUMPDEST POP POP POP POP JUMP JUMPDEST PUSH1 0xC SWAP3 PUSH2 0x1BC6 SWAP2 PUSH2 0x1B34 JUMP JUMPDEST SWAP3 PUSH1 0x0 MSTORE MSTORE PUSH2 0x1BDB PUSH1 0x40 PUSH1 0x0 KECCAK256 SWAP2 DUP3 SLOAD PUSH2 0x1A50 JUMP JUMPDEST SWAP1 SSTORE CODESIZE DUP1 DUP1 DUP1 PUSH2 0x1BB4 JUMP JUMPDEST SWAP1 DUP3 DUP3 DUP2 RETURNDATASIZE DUP4 GT PUSH2 0x1C11 JUMPI JUMPDEST PUSH2 0x1BFC DUP2 DUP4 PUSH2 0x19C2 JUMP JUMPDEST DUP2 ADD SUB SLT PUSH2 0x1C0E JUMPI POP MLOAD PUSH2 0x1B9B PUSH2 0x1B84 JUMP JUMPDEST DUP1 REVERT JUMPDEST POP RETURNDATASIZE PUSH2 0x1BF2 JUMP JUMPDEST PUSH1 0x40 MLOAD RETURNDATASIZE PUSH1 0x0 DUP3 RETURNDATACOPY RETURNDATASIZE SWAP1 REVERT INVALID 0x2F DUP8 DUP9 GT PUSH31 0x7EFF1D82E926EC794901D17C78024A50270940304540A733656F0DA2646970 PUSH7 0x7358221220542A COINBASE 0xDB 0xA5 0x4C SWAP13 0x21 PUSH23 0xB7BF19AF0A3AA8F85F1F16A0D8CBB4E4E050F4169B1EEF PUSH5 0x736F6C6343 STOP ADDMOD EQ STOP CALLER "
        },
        "methodIdentifiers": {
          "DEFAULT_ADMIN_ROLE()": "a217fddf",
          "PAYMENT_ROLE()": "fc3b624e",
          "STRATEGY_ROLE()": "580b7c2e",
          "accumulatedFees()": "587f5ed7",
          "assetId()": "44de240a",
          "claimYield()": "406cf229",
          "commitToDistribution(uint256)": "e1391782",
          "cumulativeRewardPerToken()": "f5fc5076",
          "deployCapital(string,uint256)": "022b557b",
          "depositRevenue(address,uint256)": "855bde3e",
          "distributionStarted()": "21755088",
          "feeRecipient()": "46904840",
          "getAvailableForDeployment()": "f7524942",
          "getAvailableForInvestors()": "0df4dc6f",
          "getBalance()": "12065fe0",
          "getRoleAdmin(bytes32)": "248a9ca3",
          "grantRole(bytes32,address)": "2f2ff15d",
          "hasRole(bytes32,address)": "91d14854",
          "initialize(address,address,address,address,address,uint256,address)": "eabcca10",
          "lastClaimedAt(address)": "26a40c99",
          "logicContract()": "cc0e97c9",
          "mintShares(address,uint256)": "528c198a",
          "onTokenTransfer(address,address)": "5f68f677",
          "paymentToken()": "3013ce29",
          "pendingRewards(address)": "31d7a262",
          "protocolFeeBps()": "35659fb8",
          "registry()": "7b103999",
          "renounceRole(bytes32,address)": "36568abe",
          "revokeRole(bytes32,address)": "d547741f",
          "rewardDebt(address)": "5873eb9b",
          "setTokenContracts(address)": "651d95e5",
          "supportsInterface(bytes4)": "01ffc9a7",
          "token()": "fc0c546a",
          "totalDistributable()": "72cec034",
          "totalIdle()": "9aa7df94",
          "withdrawFees()": "476343ee",
          "withdrawn(address)": "6ef61092"
        }
      }
    }
  }
}