{
  "contracts/InvestorShareToken.sol": {
    "InvestorShareToken": {
      "abi": [
        {
          "inputs": [
            {
              "internalType": "uint256",
              "name": "_assetId",
              "type": "uint256"
            },
            {
              "internalType": "string",
              "name": "_name",
              "type": "string"
            },
            {
              "internalType": "string",
              "name": "_symbol",
              "type": "string"
            },
            {
              "internalType": "uint256",
              "name": "_maxSupply",
              "type": "uint256"
            },
            {
              "internalType": "address",
              "name": "_registry",
              "type": "address"
            },
            {
              "internalType": "address",
              "name": "_vault",
              "type": "address"
            },
            {
              "internalType": "address",
              "name": "_admin",
              "type": "address"
            }
          ],
          "stateMutability": "nonpayable",
          "type": "constructor"
        },
        {
          "inputs": [],
          "name": "AccessControlBadConfirmation",
          "type": "error"
        },
        {
          "inputs": [
            {
              "internalType": "address",
              "name": "account",
              "type": "address"
            },
            {
              "internalType": "bytes32",
              "name": "neededRole",
              "type": "bytes32"
            }
          ],
          "name": "AccessControlUnauthorizedAccount",
          "type": "error"
        },
        {
          "inputs": [
            {
              "internalType": "address",
              "name": "spender",
              "type": "address"
            },
            {
              "internalType": "uint256",
              "name": "allowance",
              "type": "uint256"
            },
            {
              "internalType": "uint256",
              "name": "needed",
              "type": "uint256"
            }
          ],
          "name": "ERC20InsufficientAllowance",
          "type": "error"
        },
        {
          "inputs": [
            {
              "internalType": "address",
              "name": "sender",
              "type": "address"
            },
            {
              "internalType": "uint256",
              "name": "balance",
              "type": "uint256"
            },
            {
              "internalType": "uint256",
              "name": "needed",
              "type": "uint256"
            }
          ],
          "name": "ERC20InsufficientBalance",
          "type": "error"
        },
        {
          "inputs": [
            {
              "internalType": "address",
              "name": "approver",
              "type": "address"
            }
          ],
          "name": "ERC20InvalidApprover",
          "type": "error"
        },
        {
          "inputs": [
            {
              "internalType": "address",
              "name": "receiver",
              "type": "address"
            }
          ],
          "name": "ERC20InvalidReceiver",
          "type": "error"
        },
        {
          "inputs": [
            {
              "internalType": "address",
              "name": "sender",
              "type": "address"
            }
          ],
          "name": "ERC20InvalidSender",
          "type": "error"
        },
        {
          "inputs": [
            {
              "internalType": "address",
              "name": "spender",
              "type": "address"
            }
          ],
          "name": "ERC20InvalidSpender",
          "type": "error"
        },
        {
          "anonymous": false,
          "inputs": [
            {
              "indexed": true,
              "internalType": "address",
              "name": "owner",
              "type": "address"
            },
            {
              "indexed": true,
              "internalType": "address",
              "name": "spender",
              "type": "address"
            },
            {
              "indexed": false,
              "internalType": "uint256",
              "name": "value",
              "type": "uint256"
            }
          ],
          "name": "Approval",
          "type": "event"
        },
        {
          "anonymous": false,
          "inputs": [
            {
              "indexed": true,
              "internalType": "bytes32",
              "name": "role",
              "type": "bytes32"
            },
            {
              "indexed": true,
              "internalType": "bytes32",
              "name": "previousAdminRole",
              "type": "bytes32"
            },
            {
              "indexed": true,
              "internalType": "bytes32",
              "name": "newAdminRole",
              "type": "bytes32"
            }
          ],
          "name": "RoleAdminChanged",
          "type": "event"
        },
        {
          "anonymous": false,
          "inputs": [
            {
              "indexed": true,
              "internalType": "bytes32",
              "name": "role",
              "type": "bytes32"
            },
            {
              "indexed": true,
              "internalType": "address",
              "name": "account",
              "type": "address"
            },
            {
              "indexed": true,
              "internalType": "address",
              "name": "sender",
              "type": "address"
            }
          ],
          "name": "RoleGranted",
          "type": "event"
        },
        {
          "anonymous": false,
          "inputs": [
            {
              "indexed": true,
              "internalType": "bytes32",
              "name": "role",
              "type": "bytes32"
            },
            {
              "indexed": true,
              "internalType": "address",
              "name": "account",
              "type": "address"
            },
            {
              "indexed": true,
              "internalType": "address",
              "name": "sender",
              "type": "address"
            }
          ],
          "name": "RoleRevoked",
          "type": "event"
        },
        {
          "anonymous": false,
          "inputs": [
            {
              "indexed": true,
              "internalType": "address",
              "name": "from",
              "type": "address"
            },
            {
              "indexed": false,
              "internalType": "uint256",
              "name": "amount",
              "type": "uint256"
            }
          ],
          "name": "TokenBurned",
          "type": "event"
        },
        {
          "anonymous": false,
          "inputs": [
            {
              "indexed": true,
              "internalType": "address",
              "name": "to",
              "type": "address"
            },
            {
              "indexed": false,
              "internalType": "uint256",
              "name": "amount",
              "type": "uint256"
            }
          ],
          "name": "TokenMinted",
          "type": "event"
        },
        {
          "anonymous": false,
          "inputs": [
            {
              "indexed": true,
              "internalType": "address",
              "name": "from",
              "type": "address"
            },
            {
              "indexed": true,
              "internalType": "address",
              "name": "to",
              "type": "address"
            },
            {
              "indexed": false,
              "internalType": "uint256",
              "name": "value",
              "type": "uint256"
            }
          ],
          "name": "Transfer",
          "type": "event"
        },
        {
          "inputs": [],
          "name": "DEFAULT_ADMIN_ROLE",
          "outputs": [
            {
              "internalType": "bytes32",
              "name": "",
              "type": "bytes32"
            }
          ],
          "stateMutability": "view",
          "type": "function"
        },
        {
          "inputs": [],
          "name": "VAULT_ROLE",
          "outputs": [
            {
              "internalType": "bytes32",
              "name": "",
              "type": "bytes32"
            }
          ],
          "stateMutability": "view",
          "type": "function"
        },
        {
          "inputs": [
            {
              "internalType": "address",
              "name": "owner",
              "type": "address"
            },
            {
              "internalType": "address",
              "name": "spender",
              "type": "address"
            }
          ],
          "name": "allowance",
          "outputs": [
            {
              "internalType": "uint256",
              "name": "",
              "type": "uint256"
            }
          ],
          "stateMutability": "view",
          "type": "function"
        },
        {
          "inputs": [
            {
              "internalType": "address",
              "name": "spender",
              "type": "address"
            },
            {
              "internalType": "uint256",
              "name": "value",
              "type": "uint256"
            }
          ],
          "name": "approve",
          "outputs": [
            {
              "internalType": "bool",
              "name": "",
              "type": "bool"
            }
          ],
          "stateMutability": "nonpayable",
          "type": "function"
        },
        {
          "inputs": [],
          "name": "assetId",
          "outputs": [
            {
              "internalType": "uint256",
              "name": "",
              "type": "uint256"
            }
          ],
          "stateMutability": "view",
          "type": "function"
        },
        {
          "inputs": [
            {
              "internalType": "address",
              "name": "account",
              "type": "address"
            }
          ],
          "name": "balanceOf",
          "outputs": [
            {
              "internalType": "uint256",
              "name": "",
              "type": "uint256"
            }
          ],
          "stateMutability": "view",
          "type": "function"
        },
        {
          "inputs": [
            {
              "internalType": "address",
              "name": "from",
              "type": "address"
            },
            {
              "internalType": "uint256",
              "name": "amount",
              "type": "uint256"
            }
          ],
          "name": "burn",
          "outputs": [],
          "stateMutability": "nonpayable",
          "type": "function"
        },
        {
          "inputs": [],
          "name": "decimals",
          "outputs": [
            {
              "internalType": "uint8",
              "name": "",
              "type": "uint8"
            }
          ],
          "stateMutability": "view",
          "type": "function"
        },
        {
          "inputs": [
            {
              "internalType": "bytes32",
              "name": "role",
              "type": "bytes32"
            }
          ],
          "name": "getRoleAdmin",
          "outputs": [
            {
              "internalType": "bytes32",
              "name": "",
              "type": "bytes32"
            }
          ],
          "stateMutability": "view",
          "type": "function"
        },
        {
          "inputs": [
            {
              "internalType": "bytes32",
              "name": "role",
              "type": "bytes32"
            },
            {
              "internalType": "address",
              "name": "account",
              "type": "address"
            }
          ],
          "name": "grantRole",
          "outputs": [],
          "stateMutability": "nonpayable",
          "type": "function"
        },
        {
          "inputs": [
            {
              "internalType": "bytes32",
              "name": "role",
              "type": "bytes32"
            },
            {
              "internalType": "address",
              "name": "account",
              "type": "address"
            }
          ],
          "name": "hasRole",
          "outputs": [
            {
              "internalType": "bool",
              "name": "",
              "type": "bool"
            }
          ],
          "stateMutability": "view",
          "type": "function"
        },
        {
          "inputs": [],
          "name": "maxSupply",
          "outputs": [
            {
              "internalType": "uint256",
              "name": "",
              "type": "uint256"
            }
          ],
          "stateMutability": "view",
          "type": "function"
        },
        {
          "inputs": [
            {
              "internalType": "address",
              "name": "to",
              "type": "address"
            },
            {
              "internalType": "uint256",
              "name": "amount",
              "type": "uint256"
            }
          ],
          "name": "mint",
          "outputs": [],
          "stateMutability": "nonpayable",
          "type": "function"
        },
        {
          "inputs": [],
          "name": "name",
          "outputs": [
            {
              "internalType": "string",
              "name": "",
              "type": "string"
            }
          ],
          "stateMutability": "view",
          "type": "function"
        },
        {
          "inputs": [
            {
              "internalType": "address",
              "name": "investor",
              "type": "address"
            }
          ],
          "name": "ownershipBps",
          "outputs": [
            {
              "internalType": "uint256",
              "name": "",
              "type": "uint256"
            }
          ],
          "stateMutability": "view",
          "type": "function"
        },
        {
          "inputs": [],
          "name": "registry",
          "outputs": [
            {
              "internalType": "address",
              "name": "",
              "type": "address"
            }
          ],
          "stateMutability": "view",
          "type": "function"
        },
        {
          "inputs": [
            {
              "internalType": "bytes32",
              "name": "role",
              "type": "bytes32"
            },
            {
              "internalType": "address",
              "name": "callerConfirmation",
              "type": "address"
            }
          ],
          "name": "renounceRole",
          "outputs": [],
          "stateMutability": "nonpayable",
          "type": "function"
        },
        {
          "inputs": [
            {
              "internalType": "bytes32",
              "name": "role",
              "type": "bytes32"
            },
            {
              "internalType": "address",
              "name": "account",
              "type": "address"
            }
          ],
          "name": "revokeRole",
          "outputs": [],
          "stateMutability": "nonpayable",
          "type": "function"
        },
        {
          "inputs": [
            {
              "internalType": "bytes4",
              "name": "interfaceId",
              "type": "bytes4"
            }
          ],
          "name": "supportsInterface",
          "outputs": [
            {
              "internalType": "bool",
              "name": "",
              "type": "bool"
            }
          ],
          "stateMutability": "view",
          "type": "function"
        },
        {
          "inputs": [],
          "name": "symbol",
          "outputs": [
            {
              "internalType": "string",
              "name": "",
              "type": "string"
            }
          ],
          "stateMutability": "view",
          "type": "function"
        },
        {
          "inputs": [],
          "name": "totalSupply",
          "outputs": [
            {
              "internalType": "uint256",
              "name": "",
              "type": "uint256"
            }
          ],
          "stateMutability": "view",
          "type": "function"
        },
        {
          "inputs": [
            {
              "internalType": "address",
              "name": "to",
              "type": "address"
            },
            {
              "internalType": "uint256",
              "name": "value",
              "type": "uint256"
            }
          ],
          "name": "transfer",
          "outputs": [
            {
              "internalType": "bool",
              "name": "",
              "type": "bool"
            }
          ],
          "stateMutability": "nonpayable",
          "type": "function"
        },
        {
          "inputs": [
            {
              "internalType": "address",
              "name": "from",
              "type": "address"
            },
            {
              "internalType": "address",
              "name": "to",
              "type": "address"
            },
            {
              "internalType": "uint256",
              "name": "value",
              "type": "uint256"
            }
          ],
          "name": "transferFrom",
          "outputs": [
            {
              "internalType": "bool",
              "name": "",
              "type": "bool"
            }
          ],
          "stateMutability": "nonpayable",
          "type": "function"
        },
        {
          "inputs": [],
          "name": "vault",
          "outputs": [
            {
              "internalType": "address",
              "name": "",
              "type": "address"
            }
          ],
          "stateMutability": "view",
          "type": "function"
        }
      ],
      "evm": {
        "bytecode": {
          "linkReferences": {},
          "object": "6040610100815234620005115762001b14803803806200001f8162000516565b928339810160e082820312620005115781516020808401516001600160401b0393919290848111620005115782620000599187016200053c565b9186860151908582116200051157620000749187016200053c565b6060860151936200008860808801620005ae565b93620000a560c06200009d60a08b01620005ae565b9901620005ae565b96815181811162000411576003908154906001948583811c9316801562000506575b87841014620004f0578190601f938481116200049a575b508790848311600114620004335760009262000427575b505060001982851b1c191690851b1782555b8551928311620004115760049586548581811c9116801562000406575b87821014620003f157828111620003a6575b50859184116001146200033b579383949184926000956200032f575b50501b92600019911b1c19161782555b8215620002fb578415620002b9576001600160a01b038481161562000283578087161562000250578716156200021e5787620001ba88620001b38989898960805260a0528360c05260e052620005c3565b5062000644565b505161140c9081620006e8823960805181818161067b0152610f75015260a0518181816105fd015281816107410152610f52015260c051818181610140015281816102c2015281816106da01526110c6015260e0518181816101d2015261078b0152f35b875162461bcd60e51b815291820152600d60248201526c125b9d985b1a59081d985d5b1d609a1b604482015260649150fd5b885162461bcd60e51b8152808401839052600d60248201526c24b73b30b634b21030b236b4b760991b6044820152606490fd5b885162461bcd60e51b8152808401839052601060248201526f496e76616c696420726567697374727960801b6044820152606490fd5b875162461bcd60e51b815291820152601660248201527f4d617820737570706c79206d757374206265203e203000000000000000000000604482015260649150fd5b875162461bcd60e51b815291820152600f60248201526e125b9d985b1a5908185cdcd95d1259608a1b604482015260649150fd5b01519350388062000152565b9190601f198416928760005284876000209460005b89898383106200038e575050501062000373575b50505050811b01825562000162565b01519060f884600019921b161c191690553880808062000364565b86860151895590970196948501948893500162000350565b87600052866000208380870160051c820192898810620003e7575b0160051c019086905b828110620003da57505062000136565b60008155018690620003ca565b92508192620003c1565b602288634e487b7160e01b6000525260246000fd5b90607f169062000124565b634e487b7160e01b600052604160045260246000fd5b015190503880620000f5565b90879350601f1983169186600052896000209260005b8b8282106200048357505084116200046a575b505050811b01825562000107565b015160001983871b60f8161c191690553880806200045c565b8385015186558b9790950194938401930162000449565b90915084600052876000208480850160051c8201928a8610620004e6575b918991869594930160051c01915b828110620004d6575050620000de565b60008155859450899101620004c6565b92508192620004b8565b634e487b7160e01b600052602260045260246000fd5b92607f1692620000c7565b600080fd5b6040519190601f01601f191682016001600160401b038111838210176200041157604052565b919080601f84011215620005115782516001600160401b038111620004115760209062000572601f8201601f1916830162000516565b92818452828287010111620005115760005b8181106200059a57508260009394955001015290565b858101830151848201840152820162000584565b51906001600160a01b03821682036200051157565b6001600160a01b031660008181527f05b8ccbb9d4d8fb16ea74ce3c29a41f1b461fbdaff4714a0d9a8eb05499746bc602052604081205490919060ff16620006405781805260056020526040822081835260205260408220600160ff19825416179055339160008051602062001af48339815191528180a4600190565b5090565b6001600160a01b031660008181527f87c2ee2c36dfdcfbf8c67c09d653b243ec5dd6151f83e87090208d36e7af7e3560205260408120549091907f31e0210044b4f6757ce6aa31f9c6e8d4896d24a755014887391a926c5224d9599060ff16620006e25780835260056020526040832082845260205260408320600160ff1982541617905560008051602062001af4833981519152339380a4600190565b50509056fe608060408181526004918236101561001657600080fd5b600092833560e01c91826301ffc9a714610c815750816306fdde0314610b8c578163095ea7b314610ae257816318160ddd14610ac357816319d4872914610a9657816323b872dd1461099f578163248a9ca3146109745781632f2ff15d1461094a578163313ce5671461092e57816336568abe146108e857816340c10f191461069e57816344de240a1461066357816370a082311461062c5781637b103999146105e857816391d14854146105a157816395d89b411461049e57816398c4f1ac146104635781639dc29fac14610285578163a217fddf1461026a578163a9059cbb14610239578163d547741f146101f557508063d5abeb01146101bb578063dd62ed3e146101735763fbfa77cf1461012d57600080fd5b3461016f578160031936011261016f57517f00000000000000000000000000000000000000000000000000000000000000006001600160a01b03168152602090f35b5080fd5b503461016f578060031936011261016f5780602092610190610d1d565b610198610d38565b6001600160a01b0391821683526001865283832091168252845220549051908152f35b503461016f578160031936011261016f57602090517f00000000000000000000000000000000000000000000000000000000000000008152f35b91905034610235578060031936011261023557610231913561022c600161021a610d38565b93838752600560205286200154610dc8565b610e6e565b5080f35b8280fd5b50503461016f578060031936011261016f57602090610263610259610d1d565b6024359033610f31565b5160018152f35b50503461016f578160031936011261016f5751908152602090f35b919050346102355780600319360112610235576102a0610d1d565b906024356102ac610d4e565b815163042eaa1160e31b81526001600160a01b037f000000000000000000000000000000000000000000000000000000000000000081169560209492909190858184818b5afa908115610459579061030c918a9161042c575b50156112ec565b85169485156104165785885287855282882054908482106103e25750908388928784528387520383832055836002540360025581867fddf252ad1be2c89b69c2b068fc378daa952ba7f163c4a11628f55a4df523b3ef878651888152a3863b1561016f5760448691838551998a948593635f68f67760e01b85528401528160248401525af19485156103d8577f1af5163f80e79b5e554f61e1d052084d3a3fe1166e42a265798c4e2ddce8ffa294956103c9575b5051908152a280f35b6103d290610ee5565b386103c0565b81513d88823e3d90fd5b925163391434e360e21b81526001600160a01b03909316918301918252602082015260408101929092529081906060010390fd5b50866024925191634b637e8f60e11b8352820152fd5b61044c9150873d8911610452575b6104448183610f0f565b8101906112d4565b38610305565b503d61043a565b84513d8b823e3d90fd5b50503461016f578160031936011261016f57602090517f31e0210044b4f6757ce6aa31f9c6e8d4896d24a755014887391a926c5224d9598152f35b83833461016f578160031936011261016f57805191809380549160019083821c92828516948515610597575b6020958686108114610584578589529081156105605750600114610508575b61050487876104fa828c0383610f0f565b5191829182610cd4565b0390f35b81529295507f8a35acfbc15ff81a39ae7d344fd709f28e8600b4aa8c65c6b64bfe7fe36bd19b5b82841061054d5750505082610504946104fa928201019486806104e9565b805486850188015292860192810161052f565b60ff19168887015250505050151560051b83010192506104fa8261050486806104e9565b634e487b7160e01b845260228352602484fd5b93607f16936104ca565b9050346102355781600319360112610235578160209360ff926105c2610d38565b90358252600586528282206001600160a01b039091168252855220549151911615158152f35b50503461016f578160031936011261016f57517f00000000000000000000000000000000000000000000000000000000000000006001600160a01b03168152602090f35b50503461016f57602036600319011261016f5760209181906001600160a01b03610654610d1d565b16815280845220549051908152f35b50503461016f578160031936011261016f57602090517f00000000000000000000000000000000000000000000000000000000000000008152f35b919050346102355780600319360112610235576106b9610d1d565b6024356106c4610d4e565b825163042eaa1160e31b81526001600160a01b037f000000000000000000000000000000000000000000000000000000000000000081169590946020949092858184818b5afa9081156104595791610726879289948c916108d15750156112ec565b6024855180948193633af32abf60e01b835216998a878301527f0000000000000000000000000000000000000000000000000000000000000000165afa9081156108c7579061077c9189916108aa575b50611328565b6002546107898482611374565b7f00000000000000000000000000000000000000000000000000000000000000001061087257851561085c57906107c1848993611374565b60025585825281855282822084815401905585827fddf252ad1be2c89b69c2b068fc378daa952ba7f163c4a11628f55a4df523b3ef878651888152a3863b1561016f5760448291828551998a948593635f68f67760e01b85528401528960248401525af19485156103d8577fb9144c96c86541f6fa89c9f2f02495cccf4b08cd6643e26d34ee00aa586558a894956103c9575051908152a280f35b5086602492519163ec442f0560e01b8352820152fd5b5083606492519162461bcd60e51b8352820152601360248201527213585e081cdd5c1c1b1e48195e18d959591959606a1b6044820152fd5b6108c19150863d8811610452576104448183610f0f565b38610776565b83513d8a823e3d90fd5b61044c9150843d8611610452576104448183610f0f565b83833461016f578060031936011261016f57610902610d38565b90336001600160a01b0383160361091f5750610231919235610e6e565b5163334bd91960e11b81528390fd5b50503461016f578160031936011261016f576020905160128152f35b91905034610235578060031936011261023557610231913561096f600161021a610d38565b610dee565b9050346102355760203660031901126102355781602093600192358152600585522001549051908152f35b90508234610a93576060366003190112610a93576109bb610d1d565b6109c3610d38565b916044359360018060a01b0383168083526001602052868320338452602052868320549160001983106109ff575b602088610263898989610f31565b868310610a67578115610a50573315610a3957508252600160209081528683203384528152918690209085900390558290610263876109f1565b8751634a1406b160e11b8152908101849052602490fd5b875163e602df0560e01b8152908101849052602490fd5b8751637dc7a0d960e11b8152339181019182526020820193909352604081018790528291506060010390fd5b80fd5b50503461016f57602036600319011261016f57602090610abc610ab7610d1d565b611397565b9051908152f35b50503461016f578160031936011261016f576020906002549051908152f35b905034610235578160031936011261023557610afc610d1d565b602435903315610b75576001600160a01b0316918215610b5e57508083602095338152600187528181208582528752205582519081527f8c5be1e5ebec7d5bd14f71427d1e84f3dd0314c0f7b2291e5b200ac8c7c3b925843392a35160018152f35b8351634a1406b160e11b8152908101859052602490fd5b835163e602df0560e01b8152808401869052602490fd5b91905034610235578260031936011261023557805191836003549060019082821c928281168015610c77575b6020958686108214610c645750848852908115610c425750600114610be9575b61050486866104fa828b0383610f0f565b929550600383527fc2575a0e9e593c00f959f8c92f12db2869c3395a3b0502d05e2516446f71f85b5b828410610c2f5750505082610504946104fa928201019438610bd8565b8054868501880152928601928101610c12565b60ff191687860152505050151560051b83010192506104fa8261050438610bd8565b634e487b7160e01b845260229052602483fd5b93607f1693610bb8565b849134610235576020366003190112610235573563ffffffff60e01b81168091036102355760209250637965db0b60e01b8114908115610cc3575b5015158152f35b6301ffc9a760e01b14905083610cbc565b6020808252825181830181905290939260005b828110610d0957505060409293506000838284010152601f8019910116010190565b818101860151848201604001528501610ce7565b600435906001600160a01b0382168203610d3357565b600080fd5b602435906001600160a01b0382168203610d3357565b3360009081527f87c2ee2c36dfdcfbf8c67c09d653b243ec5dd6151f83e87090208d36e7af7e3560205260409020547f31e0210044b4f6757ce6aa31f9c6e8d4896d24a755014887391a926c5224d9599060ff1615610daa5750565b6044906040519063e2517d3f60e01b82523360048301526024820152fd5b80600052600560205260406000203360005260205260ff6040600020541615610daa5750565b906000918083526005602052604083209160018060a01b03169182845260205260ff60408420541615600014610e695780835260056020526040832082845260205260408320600160ff198254161790557f2f8788117e7eff1d82e926ec794901d17c78024a50270940304540a733656f0d339380a4600190565b505090565b906000918083526005602052604083209160018060a01b03169182845260205260ff604084205416600014610e69578083526005602052604083208284526020526040832060ff1981541690557ff6391f5c32d9c69d2a47ea670b442974b53935d1edc7fd64eb21e047a839171b339380a4600190565b67ffffffffffffffff8111610ef957604052565b634e487b7160e01b600052604160045260246000fd5b90601f8019910116810190811067ffffffffffffffff821117610ef957604052565b91906001600160a01b03908184169081156112bb5782169182156112a257807f000000000000000000000000000000000000000000000000000000000000000016907f0000000000000000000000000000000000000000000000000000000000000000604095865197631174806160e11b895260049483868b015260209360249a85818d81865afa9081156111ec57600091611285575b501561125057895190631f50b2cb60e01b82528782015284818c81855afa90811561124557600091611228575b506111f7578851633af32abf60e01b8082528782018990529085818d81865afa9081156111ec576000916111cf575b50156111945784908b8b518094819382528c8b8301525afa9081156111895790611055916000916111725750611328565b856000526000835287600020549082821061113e575086928287937fddf252ad1be2c89b69c2b068fc378daa952ba7f163c4a11628f55a4df523b3ef938560005260008452038a6000205584600052896000208181540190558951908152a38383036110c4575b505050505050565b7f00000000000000000000000000000000000000000000000000000000000000001690813b15610d33576000604492819587519889968795635f68f67760e01b87528601528401525af19081156111345750611125575b80808080806110bc565b61112e90610ee5565b3861111b565b513d6000823e3d90fd5b885163391434e360e21b81526001600160a01b03909116818701908152602081018390526040810184905281906060010390fd5b6108c19150853d8711610452576104448183610f0f565b89513d6000823e3d90fd5b895162461bcd60e51b81528088018690526016818d01527514d95b99195c881b9bdd081dda1a5d195b1a5cdd195960521b6044820152606490fd5b6111e69150863d8811610452576104448183610f0f565b38611024565b8b513d6000823e3d90fd5b885162461bcd60e51b8152808701859052600c818c01526b105cdcd95d081c185d5cd95960a21b6044820152606490fd5b61123f9150853d8711610452576104448183610f0f565b38610ff5565b8a513d6000823e3d90fd5b895162461bcd60e51b81528088018690526010818d01526f4173736574206e6f742061637469766560801b6044820152606490fd5b61129c9150863d8811610452576104448183610f0f565b38610fc8565b60405163ec442f0560e01b815260006004820152602490fd5b604051634b637e8f60e11b815260006004820152602490fd5b90816020910312610d3357518015158103610d335790565b156112f357565b60405162461bcd60e51b815260206004820152600d60248201526c14dd5c1c1b1e481b1bd8dad959609a1b6044820152606490fd5b1561132f57565b60405162461bcd60e51b815260206004820152601960248201527f526563697069656e74206e6f742077686974656c6973746564000000000000006044820152606490fd5b9190820180921161138157565b634e487b7160e01b600052601160045260246000fd5b6002549081156113cf5760018060a01b0316600052600060205260406000205461271090818102918183041490151715611381570490565b505060009056fea26469706673582212203db0db3a64d45ecfbd7dd0635731605b750982e08bc1ad0c6fbb812d1557c21a64736f6c634300081400332f8788117e7eff1d82e926ec794901d17c78024a50270940304540a733656f0d",
          "opcodes": "PUSH1 0x40 PUSH2 0x100 DUP2 MSTORE CALLVALUE PUSH3 0x511 JUMPI PUSH3 0x1B14 DUP1 CODESIZE SUB DUP1 PUSH3 0x1F DUP2 PUSH3 0x516 JUMP JUMPDEST SWAP3 DUP4 CODECOPY DUP2 ADD PUSH1 0xE0 DUP3 DUP3 SUB SLT PUSH3 0x511 JUMPI DUP2 MLOAD PUSH1 0x20 DUP1 DUP5 ADD MLOAD PUSH1 0x1 PUSH1 0x1 PUSH1 0x40 SHL SUB SWAP4 SWAP2 SWAP3 SWAP1 DUP5 DUP2 GT PUSH3 0x511 JUMPI DUP3 PUSH3 0x59 SWAP2 DUP8 ADD PUSH3 0x53C JUMP JUMPDEST SWAP2 DUP7 DUP7 ADD MLOAD SWAP1 DUP6 DUP3 GT PUSH3 0x511 JUMPI PUSH3 0x74 SWAP2 DUP8 ADD PUSH3 0x53C JUMP JUMPDEST PUSH1 0x60 DUP7 ADD MLOAD SWAP4 PUSH3 0x88 PUSH1 0x80 DUP9 ADD PUSH3 0x5AE JUMP JUMPDEST SWAP4 PUSH3 0xA5 PUSH1 0xC0 PUSH3 0x9D PUSH1 0xA0 DUP12 ADD PUSH3 0x5AE JUMP JUMPDEST SWAP10 ADD PUSH3 0x5AE JUMP JUMPDEST SWAP7 DUP2 MLOAD DUP2 DUP2 GT PUSH3 0x411 JUMPI PUSH1 0x3 SWAP1 DUP2 SLOAD SWAP1 PUSH1 0x1 SWAP5 DUP6 DUP4 DUP2 SHR SWAP4 AND DUP1 ISZERO PUSH3 0x506 JUMPI JUMPDEST DUP8 DUP5 LT EQ PUSH3 0x4F0 JUMPI DUP2 SWAP1 PUSH1 0x1F SWAP4 DUP5 DUP2 GT PUSH3 0x49A JUMPI JUMPDEST POP DUP8 SWAP1 DUP5 DUP4 GT PUSH1 0x1 EQ PUSH3 0x433 JUMPI PUSH1 0x0 SWAP3 PUSH3 0x427 JUMPI JUMPDEST POP POP PUSH1 0x0 NOT DUP3 DUP6 SHL SHR NOT AND SWAP1 DUP6 SHL OR DUP3 SSTORE JUMPDEST DUP6 MLOAD SWAP3 DUP4 GT PUSH3 0x411 JUMPI PUSH1 0x4 SWAP6 DUP7 SLOAD DUP6 DUP2 DUP2 SHR SWAP2 AND DUP1 ISZERO PUSH3 0x406 JUMPI JUMPDEST DUP8 DUP3 LT EQ PUSH3 0x3F1 JUMPI DUP3 DUP2 GT PUSH3 0x3A6 JUMPI JUMPDEST POP DUP6 SWAP2 DUP5 GT PUSH1 0x1 EQ PUSH3 0x33B JUMPI SWAP4 DUP4 SWAP5 SWAP2 DUP5 SWAP3 PUSH1 0x0 SWAP6 PUSH3 0x32F JUMPI JUMPDEST POP POP SHL SWAP3 PUSH1 0x0 NOT SWAP2 SHL SHR NOT AND OR DUP3 SSTORE JUMPDEST DUP3 ISZERO PUSH3 0x2FB JUMPI DUP5 ISZERO PUSH3 0x2B9 JUMPI PUSH1 0x1 PUSH1 0x1 PUSH1 0xA0 SHL SUB DUP5 DUP2 AND ISZERO PUSH3 0x283 JUMPI DUP1 DUP8 AND ISZERO PUSH3 0x250 JUMPI DUP8 AND ISZERO PUSH3 0x21E JUMPI DUP8 PUSH3 0x1BA DUP9 PUSH3 0x1B3 DUP10 DUP10 DUP10 DUP10 PUSH1 0x80 MSTORE PUSH1 0xA0 MSTORE DUP4 PUSH1 0xC0 MSTORE PUSH1 0xE0 MSTORE PUSH3 0x5C3 JUMP JUMPDEST POP PUSH3 0x644 JUMP JUMPDEST POP MLOAD PUSH2 0x140C SWAP1 DUP2 PUSH3 0x6E8 DUP3 CODECOPY PUSH1 0x80 MLOAD DUP2 DUP2 DUP2 PUSH2 0x67B ADD MSTORE PUSH2 0xF75 ADD MSTORE PUSH1 0xA0 MLOAD DUP2 DUP2 DUP2 PUSH2 0x5FD ADD MSTORE DUP2 DUP2 PUSH2 0x741 ADD MSTORE PUSH2 0xF52 ADD MSTORE PUSH1 0xC0 MLOAD DUP2 DUP2 DUP2 PUSH2 0x140 ADD MSTORE DUP2 DUP2 PUSH2 0x2C2 ADD MSTORE DUP2 DUP2 PUSH2 0x6DA ADD MSTORE PUSH2 0x10C6 ADD MSTORE PUSH1 0xE0 MLOAD DUP2 DUP2 DUP2 PUSH2 0x1D2 ADD MSTORE PUSH2 0x78B ADD MSTORE RETURN JUMPDEST DUP8 MLOAD PUSH3 0x461BCD PUSH1 0xE5 SHL DUP2 MSTORE SWAP2 DUP3 ADD MSTORE PUSH1 0xD PUSH1 0x24 DUP3 ADD MSTORE PUSH13 0x125B9D985B1A59081D985D5B1D PUSH1 0x9A SHL PUSH1 0x44 DUP3 ADD MSTORE PUSH1 0x64 SWAP2 POP REVERT JUMPDEST DUP9 MLOAD PUSH3 0x461BCD PUSH1 0xE5 SHL DUP2 MSTORE DUP1 DUP5 ADD DUP4 SWAP1 MSTORE PUSH1 0xD PUSH1 0x24 DUP3 ADD MSTORE PUSH13 0x24B73B30B634B21030B236B4B7 PUSH1 0x99 SHL PUSH1 0x44 DUP3 ADD MSTORE PUSH1 0x64 SWAP1 REVERT JUMPDEST DUP9 MLOAD PUSH3 0x461BCD PUSH1 0xE5 SHL DUP2 MSTORE DUP1 DUP5 ADD DUP4 SWAP1 MSTORE PUSH1 0x10 PUSH1 0x24 DUP3 ADD MSTORE PUSH16 0x496E76616C6964207265676973747279 PUSH1 0x80 SHL PUSH1 0x44 DUP3 ADD MSTORE PUSH1 0x64 SWAP1 REVERT JUMPDEST DUP8 MLOAD PUSH3 0x461BCD PUSH1 0xE5 SHL DUP2 MSTORE SWAP2 DUP3 ADD MSTORE PUSH1 0x16 PUSH1 0x24 DUP3 ADD MSTORE PUSH32 0x4D617820737570706C79206D757374206265203E203000000000000000000000 PUSH1 0x44 DUP3 ADD MSTORE PUSH1 0x64 SWAP2 POP REVERT JUMPDEST DUP8 MLOAD PUSH3 0x461BCD PUSH1 0xE5 SHL DUP2 MSTORE SWAP2 DUP3 ADD MSTORE PUSH1 0xF PUSH1 0x24 DUP3 ADD MSTORE PUSH15 0x125B9D985B1A5908185CDCD95D1259 PUSH1 0x8A SHL PUSH1 0x44 DUP3 ADD MSTORE PUSH1 0x64 SWAP2 POP REVERT JUMPDEST ADD MLOAD SWAP4 POP CODESIZE DUP1 PUSH3 0x152 JUMP JUMPDEST SWAP2 SWAP1 PUSH1 0x1F NOT DUP5 AND SWAP3 DUP8 PUSH1 0x0 MSTORE DUP5 DUP8 PUSH1 0x0 KECCAK256 SWAP5 PUSH1 0x0 JUMPDEST DUP10 DUP10 DUP4 DUP4 LT PUSH3 0x38E JUMPI POP POP POP LT PUSH3 0x373 JUMPI JUMPDEST POP POP POP POP DUP2 SHL ADD DUP3 SSTORE PUSH3 0x162 JUMP JUMPDEST ADD MLOAD SWAP1 PUSH1 0xF8 DUP5 PUSH1 0x0 NOT SWAP3 SHL AND SHR NOT AND SWAP1 SSTORE CODESIZE DUP1 DUP1 DUP1 PUSH3 0x364 JUMP JUMPDEST DUP7 DUP7 ADD MLOAD DUP10 SSTORE SWAP1 SWAP8 ADD SWAP7 SWAP5 DUP6 ADD SWAP5 DUP9 SWAP4 POP ADD PUSH3 0x350 JUMP JUMPDEST DUP8 PUSH1 0x0 MSTORE DUP7 PUSH1 0x0 KECCAK256 DUP4 DUP1 DUP8 ADD PUSH1 0x5 SHR DUP3 ADD SWAP3 DUP10 DUP9 LT PUSH3 0x3E7 JUMPI JUMPDEST ADD PUSH1 0x5 SHR ADD SWAP1 DUP7 SWAP1 JUMPDEST DUP3 DUP2 LT PUSH3 0x3DA JUMPI POP POP PUSH3 0x136 JUMP JUMPDEST PUSH1 0x0 DUP2 SSTORE ADD DUP7 SWAP1 PUSH3 0x3CA JUMP JUMPDEST SWAP3 POP DUP2 SWAP3 PUSH3 0x3C1 JUMP JUMPDEST PUSH1 0x22 DUP9 PUSH4 0x4E487B71 PUSH1 0xE0 SHL PUSH1 0x0 MSTORE MSTORE PUSH1 0x24 PUSH1 0x0 REVERT JUMPDEST SWAP1 PUSH1 0x7F AND SWAP1 PUSH3 0x124 JUMP JUMPDEST PUSH4 0x4E487B71 PUSH1 0xE0 SHL PUSH1 0x0 MSTORE PUSH1 0x41 PUSH1 0x4 MSTORE PUSH1 0x24 PUSH1 0x0 REVERT JUMPDEST ADD MLOAD SWAP1 POP CODESIZE DUP1 PUSH3 0xF5 JUMP JUMPDEST SWAP1 DUP8 SWAP4 POP PUSH1 0x1F NOT DUP4 AND SWAP2 DUP7 PUSH1 0x0 MSTORE DUP10 PUSH1 0x0 KECCAK256 SWAP3 PUSH1 0x0 JUMPDEST DUP12 DUP3 DUP3 LT PUSH3 0x483 JUMPI POP POP DUP5 GT PUSH3 0x46A JUMPI JUMPDEST POP POP POP DUP2 SHL ADD DUP3 SSTORE PUSH3 0x107 JUMP JUMPDEST ADD MLOAD PUSH1 0x0 NOT DUP4 DUP8 SHL PUSH1 0xF8 AND SHR NOT AND SWAP1 SSTORE CODESIZE DUP1 DUP1 PUSH3 0x45C JUMP JUMPDEST DUP4 DUP6 ADD MLOAD DUP7 SSTORE DUP12 SWAP8 SWAP1 SWAP6 ADD SWAP5 SWAP4 DUP5 ADD SWAP4 ADD PUSH3 0x449 JUMP JUMPDEST SWAP1 SWAP2 POP DUP5 PUSH1 0x0 MSTORE DUP8 PUSH1 0x0 KECCAK256 DUP5 DUP1 DUP6 ADD PUSH1 0x5 SHR DUP3 ADD SWAP3 DUP11 DUP7 LT PUSH3 0x4E6 JUMPI JUMPDEST SWAP2 DUP10 SWAP2 DUP7 SWAP6 SWAP5 SWAP4 ADD PUSH1 0x5 SHR ADD SWAP2 JUMPDEST DUP3 DUP2 LT PUSH3 0x4D6 JUMPI POP POP PUSH3 0xDE JUMP JUMPDEST PUSH1 0x0 DUP2 SSTORE DUP6 SWAP5 POP DUP10 SWAP2 ADD PUSH3 0x4C6 JUMP JUMPDEST SWAP3 POP DUP2 SWAP3 PUSH3 0x4B8 JUMP JUMPDEST PUSH4 0x4E487B71 PUSH1 0xE0 SHL PUSH1 0x0 MSTORE PUSH1 0x22 PUSH1 0x4 MSTORE PUSH1 0x24 PUSH1 0x0 REVERT JUMPDEST SWAP3 PUSH1 0x7F AND SWAP3 PUSH3 0xC7 JUMP JUMPDEST PUSH1 0x0 DUP1 REVERT JUMPDEST PUSH1 0x40 MLOAD SWAP2 SWAP1 PUSH1 0x1F ADD PUSH1 0x1F NOT AND DUP3 ADD PUSH1 0x1 PUSH1 0x1 PUSH1 0x40 SHL SUB DUP2 GT DUP4 DUP3 LT OR PUSH3 0x411 JUMPI PUSH1 0x40 MSTORE JUMP JUMPDEST SWAP2 SWAP1 DUP1 PUSH1 0x1F DUP5 ADD SLT ISZERO PUSH3 0x511 JUMPI DUP3 MLOAD PUSH1 0x1 PUSH1 0x1 PUSH1 0x40 SHL SUB DUP2 GT PUSH3 0x411 JUMPI PUSH1 0x20 SWAP1 PUSH3 0x572 PUSH1 0x1F DUP3 ADD PUSH1 0x1F NOT AND DUP4 ADD PUSH3 0x516 JUMP JUMPDEST SWAP3 DUP2 DUP5 MSTORE DUP3 DUP3 DUP8 ADD ADD GT PUSH3 0x511 JUMPI PUSH1 0x0 JUMPDEST DUP2 DUP2 LT PUSH3 0x59A JUMPI POP DUP3 PUSH1 0x0 SWAP4 SWAP5 SWAP6 POP ADD ADD MSTORE SWAP1 JUMP JUMPDEST DUP6 DUP2 ADD DUP4 ADD MLOAD DUP5 DUP3 ADD DUP5 ADD MSTORE DUP3 ADD PUSH3 0x584 JUMP JUMPDEST MLOAD SWAP1 PUSH1 0x1 PUSH1 0x1 PUSH1 0xA0 SHL SUB DUP3 AND DUP3 SUB PUSH3 0x511 JUMPI JUMP JUMPDEST PUSH1 0x1 PUSH1 0x1 PUSH1 0xA0 SHL SUB AND PUSH1 0x0 DUP2 DUP2 MSTORE PUSH32 0x5B8CCBB9D4D8FB16EA74CE3C29A41F1B461FBDAFF4714A0D9A8EB05499746BC PUSH1 0x20 MSTORE PUSH1 0x40 DUP2 KECCAK256 SLOAD SWAP1 SWAP2 SWAP1 PUSH1 0xFF AND PUSH3 0x640 JUMPI DUP2 DUP1 MSTORE PUSH1 0x5 PUSH1 0x20 MSTORE PUSH1 0x40 DUP3 KECCAK256 DUP2 DUP4 MSTORE PUSH1 0x20 MSTORE PUSH1 0x40 DUP3 KECCAK256 PUSH1 0x1 PUSH1 0xFF NOT DUP3 SLOAD AND OR SWAP1 SSTORE CALLER SWAP2 PUSH1 0x0 DUP1 MLOAD PUSH1 0x20 PUSH3 0x1AF4 DUP4 CODECOPY DUP2 MLOAD SWAP2 MSTORE DUP2 DUP1 LOG4 PUSH1 0x1 SWAP1 JUMP JUMPDEST POP SWAP1 JUMP JUMPDEST PUSH1 0x1 PUSH1 0x1 PUSH1 0xA0 SHL SUB AND PUSH1 0x0 DUP2 DUP2 MSTORE PUSH32 0x87C2EE2C36DFDCFBF8C67C09D653B243EC5DD6151F83E87090208D36E7AF7E35 PUSH1 0x20 MSTORE PUSH1 0x40 DUP2 KECCAK256 SLOAD SWAP1 SWAP2 SWAP1 PUSH32 0x31E0210044B4F6757CE6AA31F9C6E8D4896D24A755014887391A926C5224D959 SWAP1 PUSH1 0xFF AND PUSH3 0x6E2 JUMPI DUP1 DUP4 MSTORE PUSH1 0x5 PUSH1 0x20 MSTORE PUSH1 0x40 DUP4 KECCAK256 DUP3 DUP5 MSTORE PUSH1 0x20 MSTORE PUSH1 0x40 DUP4 KECCAK256 PUSH1 0x1 PUSH1 0xFF NOT DUP3 SLOAD AND OR SWAP1 SSTORE PUSH1 0x0 DUP1 MLOAD PUSH1 0x20 PUSH3 0x1AF4 DUP4 CODECOPY DUP2 MLOAD SWAP2 MSTORE CALLER SWAP4 DUP1 LOG4 PUSH1 0x1 SWAP1 JUMP JUMPDEST POP POP SWAP1 JUMP INVALID PUSH1 0x80 PUSH1 0x40 DUP2 DUP2 MSTORE PUSH1 0x4 SWAP2 DUP3 CALLDATASIZE LT ISZERO PUSH2 0x16 JUMPI PUSH1 0x0 DUP1 REVERT JUMPDEST PUSH1 0x0 SWAP3 DUP4 CALLDATALOAD PUSH1 0xE0 SHR SWAP2 DUP3 PUSH4 0x1FFC9A7 EQ PUSH2 0xC81 JUMPI POP DUP2 PUSH4 0x6FDDE03 EQ PUSH2 0xB8C JUMPI DUP2 PUSH4 0x95EA7B3 EQ PUSH2 0xAE2 JUMPI DUP2 PUSH4 0x18160DDD EQ PUSH2 0xAC3 JUMPI DUP2 PUSH4 0x19D48729 EQ PUSH2 0xA96 JUMPI DUP2 PUSH4 0x23B872DD EQ PUSH2 0x99F JUMPI DUP2 PUSH4 0x248A9CA3 EQ PUSH2 0x974 JUMPI DUP2 PUSH4 0x2F2FF15D EQ PUSH2 0x94A JUMPI DUP2 PUSH4 0x313CE567 EQ PUSH2 0x92E JUMPI DUP2 PUSH4 0x36568ABE EQ PUSH2 0x8E8 JUMPI DUP2 PUSH4 0x40C10F19 EQ PUSH2 0x69E JUMPI DUP2 PUSH4 0x44DE240A EQ PUSH2 0x663 JUMPI DUP2 PUSH4 0x70A08231 EQ PUSH2 0x62C JUMPI DUP2 PUSH4 0x7B103999 EQ PUSH2 0x5E8 JUMPI DUP2 PUSH4 0x91D14854 EQ PUSH2 0x5A1 JUMPI DUP2 PUSH4 0x95D89B41 EQ PUSH2 0x49E JUMPI DUP2 PUSH4 0x98C4F1AC EQ PUSH2 0x463 JUMPI DUP2 PUSH4 0x9DC29FAC EQ PUSH2 0x285 JUMPI DUP2 PUSH4 0xA217FDDF EQ PUSH2 0x26A JUMPI DUP2 PUSH4 0xA9059CBB EQ PUSH2 0x239 JUMPI DUP2 PUSH4 0xD547741F EQ PUSH2 0x1F5 JUMPI POP DUP1 PUSH4 0xD5ABEB01 EQ PUSH2 0x1BB JUMPI DUP1 PUSH4 0xDD62ED3E EQ PUSH2 0x173 JUMPI PUSH4 0xFBFA77CF EQ PUSH2 0x12D JUMPI PUSH1 0x0 DUP1 REVERT JUMPDEST CALLVALUE PUSH2 0x16F JUMPI DUP2 PUSH1 0x3 NOT CALLDATASIZE ADD SLT PUSH2 0x16F JUMPI MLOAD PUSH32 0x0 PUSH1 0x1 PUSH1 0x1 PUSH1 0xA0 SHL SUB AND DUP2 MSTORE PUSH1 0x20 SWAP1 RETURN JUMPDEST POP DUP1 REVERT JUMPDEST POP CALLVALUE PUSH2 0x16F JUMPI DUP1 PUSH1 0x3 NOT CALLDATASIZE ADD SLT PUSH2 0x16F JUMPI DUP1 PUSH1 0x20 SWAP3 PUSH2 0x190 PUSH2 0xD1D JUMP JUMPDEST PUSH2 0x198 PUSH2 0xD38 JUMP JUMPDEST PUSH1 0x1 PUSH1 0x1 PUSH1 0xA0 SHL SUB SWAP2 DUP3 AND DUP4 MSTORE PUSH1 0x1 DUP7 MSTORE DUP4 DUP4 KECCAK256 SWAP2 AND DUP3 MSTORE DUP5 MSTORE KECCAK256 SLOAD SWAP1 MLOAD SWAP1 DUP2 MSTORE RETURN JUMPDEST POP CALLVALUE PUSH2 0x16F JUMPI DUP2 PUSH1 0x3 NOT CALLDATASIZE ADD SLT PUSH2 0x16F JUMPI PUSH1 0x20 SWAP1 MLOAD PUSH32 0x0 DUP2 MSTORE RETURN JUMPDEST SWAP2 SWAP1 POP CALLVALUE PUSH2 0x235 JUMPI DUP1 PUSH1 0x3 NOT CALLDATASIZE ADD SLT PUSH2 0x235 JUMPI PUSH2 0x231 SWAP2 CALLDATALOAD PUSH2 0x22C PUSH1 0x1 PUSH2 0x21A PUSH2 0xD38 JUMP JUMPDEST SWAP4 DUP4 DUP8 MSTORE PUSH1 0x5 PUSH1 0x20 MSTORE DUP7 KECCAK256 ADD SLOAD PUSH2 0xDC8 JUMP JUMPDEST PUSH2 0xE6E JUMP JUMPDEST POP DUP1 RETURN JUMPDEST DUP3 DUP1 REVERT JUMPDEST POP POP CALLVALUE PUSH2 0x16F JUMPI DUP1 PUSH1 0x3 NOT CALLDATASIZE ADD SLT PUSH2 0x16F JUMPI PUSH1 0x20 SWAP1 PUSH2 0x263 PUSH2 0x259 PUSH2 0xD1D JUMP JUMPDEST PUSH1 0x24 CALLDATALOAD SWAP1 CALLER PUSH2 0xF31 JUMP JUMPDEST MLOAD PUSH1 0x1 DUP2 MSTORE RETURN JUMPDEST POP POP CALLVALUE PUSH2 0x16F JUMPI DUP2 PUSH1 0x3 NOT CALLDATASIZE ADD SLT PUSH2 0x16F JUMPI MLOAD SWAP1 DUP2 MSTORE PUSH1 0x20 SWAP1 RETURN JUMPDEST SWAP2 SWAP1 POP CALLVALUE PUSH2 0x235 JUMPI DUP1 PUSH1 0x3 NOT CALLDATASIZE ADD SLT PUSH2 0x235 JUMPI PUSH2 0x2A0 PUSH2 0xD1D JUMP JUMPDEST SWAP1 PUSH1 0x24 CALLDATALOAD PUSH2 0x2AC PUSH2 0xD4E JUMP JUMPDEST DUP2 MLOAD PUSH4 0x42EAA11 PUSH1 0xE3 SHL DUP2 MSTORE PUSH1 0x1 PUSH1 0x1 PUSH1 0xA0 SHL SUB PUSH32 0x0 DUP2 AND SWAP6 PUSH1 0x20 SWAP5 SWAP3 SWAP1 SWAP2 SWAP1 DUP6 DUP2 DUP5 DUP2 DUP12 GAS STATICCALL SWAP1 DUP2 ISZERO PUSH2 0x459 JUMPI SWAP1 PUSH2 0x30C SWAP2 DUP11 SWAP2 PUSH2 0x42C JUMPI JUMPDEST POP ISZERO PUSH2 0x12EC JUMP JUMPDEST DUP6 AND SWAP5 DUP6 ISZERO PUSH2 0x416 JUMPI DUP6 DUP9 MSTORE DUP8 DUP6 MSTORE DUP3 DUP9 KECCAK256 SLOAD SWAP1 DUP5 DUP3 LT PUSH2 0x3E2 JUMPI POP SWAP1 DUP4 DUP9 SWAP3 DUP8 DUP5 MSTORE DUP4 DUP8 MSTORE SUB DUP4 DUP4 KECCAK256 SSTORE DUP4 PUSH1 0x2 SLOAD SUB PUSH1 0x2 SSTORE DUP2 DUP7 PUSH32 0xDDF252AD1BE2C89B69C2B068FC378DAA952BA7F163C4A11628F55A4DF523B3EF DUP8 DUP7 MLOAD DUP9 DUP2 MSTORE LOG3 DUP7 EXTCODESIZE ISZERO PUSH2 0x16F JUMPI PUSH1 0x44 DUP7 SWAP2 DUP4 DUP6 MLOAD SWAP10 DUP11 SWAP5 DUP6 SWAP4 PUSH4 0x5F68F677 PUSH1 0xE0 SHL DUP6 MSTORE DUP5 ADD MSTORE DUP2 PUSH1 0x24 DUP5 ADD MSTORE GAS CALL SWAP5 DUP6 ISZERO PUSH2 0x3D8 JUMPI PUSH32 0x1AF5163F80E79B5E554F61E1D052084D3A3FE1166E42A265798C4E2DDCE8FFA2 SWAP5 SWAP6 PUSH2 0x3C9 JUMPI JUMPDEST POP MLOAD SWAP1 DUP2 MSTORE LOG2 DUP1 RETURN JUMPDEST PUSH2 0x3D2 SWAP1 PUSH2 0xEE5 JUMP JUMPDEST CODESIZE PUSH2 0x3C0 JUMP JUMPDEST DUP2 MLOAD RETURNDATASIZE DUP9 DUP3 RETURNDATACOPY RETURNDATASIZE SWAP1 REVERT JUMPDEST SWAP3 MLOAD PUSH4 0x391434E3 PUSH1 0xE2 SHL DUP2 MSTORE PUSH1 0x1 PUSH1 0x1 PUSH1 0xA0 SHL SUB SWAP1 SWAP4 AND SWAP2 DUP4 ADD SWAP2 DUP3 MSTORE PUSH1 0x20 DUP3 ADD MSTORE PUSH1 0x40 DUP2 ADD SWAP3 SWAP1 SWAP3 MSTORE SWAP1 DUP2 SWAP1 PUSH1 0x60 ADD SUB SWAP1 REVERT JUMPDEST POP DUP7 PUSH1 0x24 SWAP3 MLOAD SWAP2 PUSH4 0x4B637E8F PUSH1 0xE1 SHL DUP4 MSTORE DUP3 ADD MSTORE REVERT JUMPDEST PUSH2 0x44C SWAP2 POP DUP8 RETURNDATASIZE DUP10 GT PUSH2 0x452 JUMPI JUMPDEST PUSH2 0x444 DUP2 DUP4 PUSH2 0xF0F JUMP JUMPDEST DUP2 ADD SWAP1 PUSH2 0x12D4 JUMP JUMPDEST CODESIZE PUSH2 0x305 JUMP JUMPDEST POP RETURNDATASIZE PUSH2 0x43A JUMP JUMPDEST DUP5 MLOAD RETURNDATASIZE DUP12 DUP3 RETURNDATACOPY RETURNDATASIZE SWAP1 REVERT JUMPDEST POP POP CALLVALUE PUSH2 0x16F JUMPI DUP2 PUSH1 0x3 NOT CALLDATASIZE ADD SLT PUSH2 0x16F JUMPI PUSH1 0x20 SWAP1 MLOAD PUSH32 0x31E0210044B4F6757CE6AA31F9C6E8D4896D24A755014887391A926C5224D959 DUP2 MSTORE RETURN JUMPDEST DUP4 DUP4 CALLVALUE PUSH2 0x16F JUMPI DUP2 PUSH1 0x3 NOT CALLDATASIZE ADD SLT PUSH2 0x16F JUMPI DUP1 MLOAD SWAP2 DUP1 SWAP4 DUP1 SLOAD SWAP2 PUSH1 0x1 SWAP1 DUP4 DUP3 SHR SWAP3 DUP3 DUP6 AND SWAP5 DUP6 ISZERO PUSH2 0x597 JUMPI JUMPDEST PUSH1 0x20 SWAP6 DUP7 DUP7 LT DUP2 EQ PUSH2 0x584 JUMPI DUP6 DUP10 MSTORE SWAP1 DUP2 ISZERO PUSH2 0x560 JUMPI POP PUSH1 0x1 EQ PUSH2 0x508 JUMPI JUMPDEST PUSH2 0x504 DUP8 DUP8 PUSH2 0x4FA DUP3 DUP13 SUB DUP4 PUSH2 0xF0F JUMP JUMPDEST MLOAD SWAP2 DUP3 SWAP2 DUP3 PUSH2 0xCD4 JUMP JUMPDEST SUB SWAP1 RETURN JUMPDEST DUP2 MSTORE SWAP3 SWAP6 POP PUSH32 0x8A35ACFBC15FF81A39AE7D344FD709F28E8600B4AA8C65C6B64BFE7FE36BD19B JUMPDEST DUP3 DUP5 LT PUSH2 0x54D JUMPI POP POP POP DUP3 PUSH2 0x504 SWAP5 PUSH2 0x4FA SWAP3 DUP3 ADD ADD SWAP5 DUP7 DUP1 PUSH2 0x4E9 JUMP JUMPDEST DUP1 SLOAD DUP7 DUP6 ADD DUP9 ADD MSTORE SWAP3 DUP7 ADD SWAP3 DUP2 ADD PUSH2 0x52F JUMP JUMPDEST PUSH1 0xFF NOT AND DUP9 DUP8 ADD MSTORE POP POP POP POP ISZERO ISZERO PUSH1 0x5 SHL DUP4 ADD ADD SWAP3 POP PUSH2 0x4FA DUP3 PUSH2 0x504 DUP7 DUP1 PUSH2 0x4E9 JUMP JUMPDEST PUSH4 0x4E487B71 PUSH1 0xE0 SHL DUP5 MSTORE PUSH1 0x22 DUP4 MSTORE PUSH1 0x24 DUP5 REVERT JUMPDEST SWAP4 PUSH1 0x7F AND SWAP4 PUSH2 0x4CA JUMP JUMPDEST SWAP1 POP CALLVALUE PUSH2 0x235 JUMPI DUP2 PUSH1 0x3 NOT CALLDATASIZE ADD SLT PUSH2 0x235 JUMPI DUP2 PUSH1 0x20 SWAP4 PUSH1 0xFF SWAP3 PUSH2 0x5C2 PUSH2 0xD38 JUMP JUMPDEST SWAP1 CALLDATALOAD DUP3 MSTORE PUSH1 0x5 DUP7 MSTORE DUP3 DUP3 KECCAK256 PUSH1 0x1 PUSH1 0x1 PUSH1 0xA0 SHL SUB SWAP1 SWAP2 AND DUP3 MSTORE DUP6 MSTORE KECCAK256 SLOAD SWAP2 MLOAD SWAP2 AND ISZERO ISZERO DUP2 MSTORE RETURN JUMPDEST POP POP CALLVALUE PUSH2 0x16F JUMPI DUP2 PUSH1 0x3 NOT CALLDATASIZE ADD SLT PUSH2 0x16F JUMPI MLOAD PUSH32 0x0 PUSH1 0x1 PUSH1 0x1 PUSH1 0xA0 SHL SUB AND DUP2 MSTORE PUSH1 0x20 SWAP1 RETURN JUMPDEST POP POP CALLVALUE PUSH2 0x16F JUMPI PUSH1 0x20 CALLDATASIZE PUSH1 0x3 NOT ADD SLT PUSH2 0x16F JUMPI PUSH1 0x20 SWAP2 DUP2 SWAP1 PUSH1 0x1 PUSH1 0x1 PUSH1 0xA0 SHL SUB PUSH2 0x654 PUSH2 0xD1D JUMP JUMPDEST AND DUP2 MSTORE DUP1 DUP5 MSTORE KECCAK256 SLOAD SWAP1 MLOAD SWAP1 DUP2 MSTORE RETURN JUMPDEST POP POP CALLVALUE PUSH2 0x16F JUMPI DUP2 PUSH1 0x3 NOT CALLDATASIZE ADD SLT PUSH2 0x16F JUMPI PUSH1 0x20 SWAP1 MLOAD PUSH32 0x0 DUP2 MSTORE RETURN JUMPDEST SWAP2 SWAP1 POP CALLVALUE PUSH2 0x235 JUMPI DUP1 PUSH1 0x3 NOT CALLDATASIZE ADD SLT PUSH2 0x235 JUMPI PUSH2 0x6B9 PUSH2 0xD1D JUMP JUMPDEST PUSH1 0x24 CALLDATALOAD PUSH2 0x6C4 PUSH2 0xD4E JUMP JUMPDEST DUP3 MLOAD PUSH4 0x42EAA11 PUSH1 0xE3 SHL DUP2 MSTORE PUSH1 0x1 PUSH1 0x1 PUSH1 0xA0 SHL SUB PUSH32 0x0 DUP2 AND SWAP6 SWAP1 SWAP5 PUSH1 0x20 SWAP5 SWAP1 SWAP3 DUP6 DUP2 DUP5 DUP2 DUP12 GAS STATICCALL SWAP1 DUP2 ISZERO PUSH2 0x459 JUMPI SWAP2 PUSH2 0x726 DUP8 SWAP3 DUP10 SWAP5 DUP13 SWAP2 PUSH2 0x8D1 JUMPI POP ISZERO PUSH2 0x12EC JUMP JUMPDEST PUSH1 0x24 DUP6 MLOAD DUP1 SWAP5 DUP2 SWAP4 PUSH4 0x3AF32ABF PUSH1 0xE0 SHL DUP4 MSTORE AND SWAP10 DUP11 DUP8 DUP4 ADD MSTORE PUSH32 0x0 AND GAS STATICCALL SWAP1 DUP2 ISZERO PUSH2 0x8C7 JUMPI SWAP1 PUSH2 0x77C SWAP2 DUP10 SWAP2 PUSH2 0x8AA JUMPI JUMPDEST POP PUSH2 0x1328 JUMP JUMPDEST PUSH1 0x2 SLOAD PUSH2 0x789 DUP5 DUP3 PUSH2 0x1374 JUMP JUMPDEST PUSH32 0x0 LT PUSH2 0x872 JUMPI DUP6 ISZERO PUSH2 0x85C JUMPI SWAP1 PUSH2 0x7C1 DUP5 DUP10 SWAP4 PUSH2 0x1374 JUMP JUMPDEST PUSH1 0x2 SSTORE DUP6 DUP3 MSTORE DUP2 DUP6 MSTORE DUP3 DUP3 KECCAK256 DUP5 DUP2 SLOAD ADD SWAP1 SSTORE DUP6 DUP3 PUSH32 0xDDF252AD1BE2C89B69C2B068FC378DAA952BA7F163C4A11628F55A4DF523B3EF DUP8 DUP7 MLOAD DUP9 DUP2 MSTORE LOG3 DUP7 EXTCODESIZE ISZERO PUSH2 0x16F JUMPI PUSH1 0x44 DUP3 SWAP2 DUP3 DUP6 MLOAD SWAP10 DUP11 SWAP5 DUP6 SWAP4 PUSH4 0x5F68F677 PUSH1 0xE0 SHL DUP6 MSTORE DUP5 ADD MSTORE DUP10 PUSH1 0x24 DUP5 ADD MSTORE GAS CALL SWAP5 DUP6 ISZERO PUSH2 0x3D8 JUMPI PUSH32 0xB9144C96C86541F6FA89C9F2F02495CCCF4B08CD6643E26D34EE00AA586558A8 SWAP5 SWAP6 PUSH2 0x3C9 JUMPI POP MLOAD SWAP1 DUP2 MSTORE LOG2 DUP1 RETURN JUMPDEST POP DUP7 PUSH1 0x24 SWAP3 MLOAD SWAP2 PUSH4 0xEC442F05 PUSH1 0xE0 SHL DUP4 MSTORE DUP3 ADD MSTORE REVERT JUMPDEST POP DUP4 PUSH1 0x64 SWAP3 MLOAD SWAP2 PUSH3 0x461BCD PUSH1 0xE5 SHL DUP4 MSTORE DUP3 ADD MSTORE PUSH1 0x13 PUSH1 0x24 DUP3 ADD MSTORE PUSH19 0x13585E081CDD5C1C1B1E48195E18D959591959 PUSH1 0x6A SHL PUSH1 0x44 DUP3 ADD MSTORE REVERT JUMPDEST PUSH2 0x8C1 SWAP2 POP DUP7 RETURNDATASIZE DUP9 GT PUSH2 0x452 JUMPI PUSH2 0x444 DUP2 DUP4 PUSH2 0xF0F JUMP JUMPDEST CODESIZE PUSH2 0x776 JUMP JUMPDEST DUP4 MLOAD RETURNDATASIZE DUP11 DUP3 RETURNDATACOPY RETURNDATASIZE SWAP1 REVERT JUMPDEST PUSH2 0x44C SWAP2 POP DUP5 RETURNDATASIZE DUP7 GT PUSH2 0x452 JUMPI PUSH2 0x444 DUP2 DUP4 PUSH2 0xF0F JUMP JUMPDEST DUP4 DUP4 CALLVALUE PUSH2 0x16F JUMPI DUP1 PUSH1 0x3 NOT CALLDATASIZE ADD SLT PUSH2 0x16F JUMPI PUSH2 0x902 PUSH2 0xD38 JUMP JUMPDEST SWAP1 CALLER PUSH1 0x1 PUSH1 0x1 PUSH1 0xA0 SHL SUB DUP4 AND SUB PUSH2 0x91F JUMPI POP PUSH2 0x231 SWAP2 SWAP3 CALLDATALOAD PUSH2 0xE6E JUMP JUMPDEST MLOAD PUSH4 0x334BD919 PUSH1 0xE1 SHL DUP2 MSTORE DUP4 SWAP1 REVERT JUMPDEST POP POP CALLVALUE PUSH2 0x16F JUMPI DUP2 PUSH1 0x3 NOT CALLDATASIZE ADD SLT PUSH2 0x16F JUMPI PUSH1 0x20 SWAP1 MLOAD PUSH1 0x12 DUP2 MSTORE RETURN JUMPDEST SWAP2 SWAP1 POP CALLVALUE PUSH2 0x235 JUMPI DUP1 PUSH1 0x3 NOT CALLDATASIZE ADD SLT PUSH2 0x235 JUMPI PUSH2 0x231 SWAP2 CALLDATALOAD PUSH2 0x96F PUSH1 0x1 PUSH2 0x21A PUSH2 0xD38 JUMP JUMPDEST PUSH2 0xDEE JUMP JUMPDEST SWAP1 POP CALLVALUE PUSH2 0x235 JUMPI PUSH1 0x20 CALLDATASIZE PUSH1 0x3 NOT ADD SLT PUSH2 0x235 JUMPI DUP2 PUSH1 0x20 SWAP4 PUSH1 0x1 SWAP3 CALLDATALOAD DUP2 MSTORE PUSH1 0x5 DUP6 MSTORE KECCAK256 ADD SLOAD SWAP1 MLOAD SWAP1 DUP2 MSTORE RETURN JUMPDEST SWAP1 POP DUP3 CALLVALUE PUSH2 0xA93 JUMPI PUSH1 0x60 CALLDATASIZE PUSH1 0x3 NOT ADD SLT PUSH2 0xA93 JUMPI PUSH2 0x9BB PUSH2 0xD1D JUMP JUMPDEST PUSH2 0x9C3 PUSH2 0xD38 JUMP JUMPDEST SWAP2 PUSH1 0x44 CALLDATALOAD SWAP4 PUSH1 0x1 DUP1 PUSH1 0xA0 SHL SUB DUP4 AND DUP1 DUP4 MSTORE PUSH1 0x1 PUSH1 0x20 MSTORE DUP7 DUP4 KECCAK256 CALLER DUP5 MSTORE PUSH1 0x20 MSTORE DUP7 DUP4 KECCAK256 SLOAD SWAP2 PUSH1 0x0 NOT DUP4 LT PUSH2 0x9FF JUMPI JUMPDEST PUSH1 0x20 DUP9 PUSH2 0x263 DUP10 DUP10 DUP10 PUSH2 0xF31 JUMP JUMPDEST DUP7 DUP4 LT PUSH2 0xA67 JUMPI DUP2 ISZERO PUSH2 0xA50 JUMPI CALLER ISZERO PUSH2 0xA39 JUMPI POP DUP3 MSTORE PUSH1 0x1 PUSH1 0x20 SWAP1 DUP2 MSTORE DUP7 DUP4 KECCAK256 CALLER DUP5 MSTORE DUP2 MSTORE SWAP2 DUP7 SWAP1 KECCAK256 SWAP1 DUP6 SWAP1 SUB SWAP1 SSTORE DUP3 SWAP1 PUSH2 0x263 DUP8 PUSH2 0x9F1 JUMP JUMPDEST DUP8 MLOAD PUSH4 0x4A1406B1 PUSH1 0xE1 SHL DUP2 MSTORE SWAP1 DUP2 ADD DUP5 SWAP1 MSTORE PUSH1 0x24 SWAP1 REVERT JUMPDEST DUP8 MLOAD PUSH4 0xE602DF05 PUSH1 0xE0 SHL DUP2 MSTORE SWAP1 DUP2 ADD DUP5 SWAP1 MSTORE PUSH1 0x24 SWAP1 REVERT JUMPDEST DUP8 MLOAD PUSH4 0x7DC7A0D9 PUSH1 0xE1 SHL DUP2 MSTORE CALLER SWAP2 DUP2 ADD SWAP2 DUP3 MSTORE PUSH1 0x20 DUP3 ADD SWAP4 SWAP1 SWAP4 MSTORE PUSH1 0x40 DUP2 ADD DUP8 SWAP1 MSTORE DUP3 SWAP2 POP PUSH1 0x60 ADD SUB SWAP1 REVERT JUMPDEST DUP1 REVERT JUMPDEST POP POP CALLVALUE PUSH2 0x16F JUMPI PUSH1 0x20 CALLDATASIZE PUSH1 0x3 NOT ADD SLT PUSH2 0x16F JUMPI PUSH1 0x20 SWAP1 PUSH2 0xABC PUSH2 0xAB7 PUSH2 0xD1D JUMP JUMPDEST PUSH2 0x1397 JUMP JUMPDEST SWAP1 MLOAD SWAP1 DUP2 MSTORE RETURN JUMPDEST POP POP CALLVALUE PUSH2 0x16F JUMPI DUP2 PUSH1 0x3 NOT CALLDATASIZE ADD SLT PUSH2 0x16F JUMPI PUSH1 0x20 SWAP1 PUSH1 0x2 SLOAD SWAP1 MLOAD SWAP1 DUP2 MSTORE RETURN JUMPDEST SWAP1 POP CALLVALUE PUSH2 0x235 JUMPI DUP2 PUSH1 0x3 NOT CALLDATASIZE ADD SLT PUSH2 0x235 JUMPI PUSH2 0xAFC PUSH2 0xD1D JUMP JUMPDEST PUSH1 0x24 CALLDATALOAD SWAP1 CALLER ISZERO PUSH2 0xB75 JUMPI PUSH1 0x1 PUSH1 0x1 PUSH1 0xA0 SHL SUB AND SWAP2 DUP3 ISZERO PUSH2 0xB5E JUMPI POP DUP1 DUP4 PUSH1 0x20 SWAP6 CALLER DUP2 MSTORE PUSH1 0x1 DUP8 MSTORE DUP2 DUP2 KECCAK256 DUP6 DUP3 MSTORE DUP8 MSTORE KECCAK256 SSTORE DUP3 MLOAD SWAP1 DUP2 MSTORE PUSH32 0x8C5BE1E5EBEC7D5BD14F71427D1E84F3DD0314C0F7B2291E5B200AC8C7C3B925 DUP5 CALLER SWAP3 LOG3 MLOAD PUSH1 0x1 DUP2 MSTORE RETURN JUMPDEST DUP4 MLOAD PUSH4 0x4A1406B1 PUSH1 0xE1 SHL DUP2 MSTORE SWAP1 DUP2 ADD DUP6 SWAP1 MSTORE PUSH1 0x24 SWAP1 REVERT JUMPDEST DUP4 MLOAD PUSH4 0xE602DF05 PUSH1 0xE0 SHL DUP2 MSTORE DUP1 DUP5 ADD DUP7 SWAP1 MSTORE PUSH1 0x24 SWAP1 REVERT JUMPDEST SWAP2 SWAP1 POP CALLVALUE PUSH2 0x235 JUMPI DUP3 PUSH1 0x3 NOT CALLDATASIZE ADD SLT PUSH2 0x235 JUMPI DUP1 MLOAD SWAP2 DUP4 PUSH1 0x3 SLOAD SWAP1 PUSH1 0x1 SWAP1 DUP3 DUP3 SHR SWAP3 DUP3 DUP2 AND DUP1 ISZERO PUSH2 0xC77 JUMPI JUMPDEST PUSH1 0x20 SWAP6 DUP7 DUP7 LT DUP3 EQ PUSH2 0xC64 JUMPI POP DUP5 DUP9 MSTORE SWAP1 DUP2 ISZERO PUSH2 0xC42 JUMPI POP PUSH1 0x1 EQ PUSH2 0xBE9 JUMPI JUMPDEST PUSH2 0x504 DUP7 DUP7 PUSH2 0x4FA DUP3 DUP12 SUB DUP4 PUSH2 0xF0F JUMP JUMPDEST SWAP3 SWAP6 POP PUSH1 0x3 DUP4 MSTORE PUSH32 0xC2575A0E9E593C00F959F8C92F12DB2869C3395A3B0502D05E2516446F71F85B JUMPDEST DUP3 DUP5 LT PUSH2 0xC2F JUMPI POP POP POP DUP3 PUSH2 0x504 SWAP5 PUSH2 0x4FA SWAP3 DUP3 ADD ADD SWAP5 CODESIZE PUSH2 0xBD8 JUMP JUMPDEST DUP1 SLOAD DUP7 DUP6 ADD DUP9 ADD MSTORE SWAP3 DUP7 ADD SWAP3 DUP2 ADD PUSH2 0xC12 JUMP JUMPDEST PUSH1 0xFF NOT AND DUP8 DUP7 ADD MSTORE POP POP POP ISZERO ISZERO PUSH1 0x5 SHL DUP4 ADD ADD SWAP3 POP PUSH2 0x4FA DUP3 PUSH2 0x504 CODESIZE PUSH2 0xBD8 JUMP JUMPDEST PUSH4 0x4E487B71 PUSH1 0xE0 SHL DUP5 MSTORE PUSH1 0x22 SWAP1 MSTORE PUSH1 0x24 DUP4 REVERT JUMPDEST SWAP4 PUSH1 0x7F AND SWAP4 PUSH2 0xBB8 JUMP JUMPDEST DUP5 SWAP2 CALLVALUE PUSH2 0x235 JUMPI PUSH1 0x20 CALLDATASIZE PUSH1 0x3 NOT ADD SLT PUSH2 0x235 JUMPI CALLDATALOAD PUSH4 0xFFFFFFFF PUSH1 0xE0 SHL DUP2 AND DUP1 SWAP2 SUB PUSH2 0x235 JUMPI PUSH1 0x20 SWAP3 POP PUSH4 0x7965DB0B PUSH1 0xE0 SHL DUP2 EQ SWAP1 DUP2 ISZERO PUSH2 0xCC3 JUMPI JUMPDEST POP ISZERO ISZERO DUP2 MSTORE RETURN JUMPDEST PUSH4 0x1FFC9A7 PUSH1 0xE0 SHL EQ SWAP1 POP DUP4 PUSH2 0xCBC JUMP JUMPDEST PUSH1 0x20 DUP1 DUP3 MSTORE DUP3 MLOAD DUP2 DUP4 ADD DUP2 SWAP1 MSTORE SWAP1 SWAP4 SWAP3 PUSH1 0x0 JUMPDEST DUP3 DUP2 LT PUSH2 0xD09 JUMPI POP POP PUSH1 0x40 SWAP3 SWAP4 POP PUSH1 0x0 DUP4 DUP3 DUP5 ADD ADD MSTORE PUSH1 0x1F DUP1 NOT SWAP2 ADD AND ADD ADD SWAP1 JUMP JUMPDEST DUP2 DUP2 ADD DUP7 ADD MLOAD DUP5 DUP3 ADD PUSH1 0x40 ADD MSTORE DUP6 ADD PUSH2 0xCE7 JUMP JUMPDEST PUSH1 0x4 CALLDATALOAD SWAP1 PUSH1 0x1 PUSH1 0x1 PUSH1 0xA0 SHL SUB DUP3 AND DUP3 SUB PUSH2 0xD33 JUMPI JUMP JUMPDEST PUSH1 0x0 DUP1 REVERT JUMPDEST PUSH1 0x24 CALLDATALOAD SWAP1 PUSH1 0x1 PUSH1 0x1 PUSH1 0xA0 SHL SUB DUP3 AND DUP3 SUB PUSH2 0xD33 JUMPI JUMP JUMPDEST CALLER PUSH1 0x0 SWAP1 DUP2 MSTORE PUSH32 0x87C2EE2C36DFDCFBF8C67C09D653B243EC5DD6151F83E87090208D36E7AF7E35 PUSH1 0x20 MSTORE PUSH1 0x40 SWAP1 KECCAK256 SLOAD PUSH32 0x31E0210044B4F6757CE6AA31F9C6E8D4896D24A755014887391A926C5224D959 SWAP1 PUSH1 0xFF AND ISZERO PUSH2 0xDAA JUMPI POP JUMP JUMPDEST PUSH1 0x44 SWAP1 PUSH1 0x40 MLOAD SWAP1 PUSH4 0xE2517D3F PUSH1 0xE0 SHL DUP3 MSTORE CALLER PUSH1 0x4 DUP4 ADD MSTORE PUSH1 0x24 DUP3 ADD MSTORE REVERT JUMPDEST DUP1 PUSH1 0x0 MSTORE PUSH1 0x5 PUSH1 0x20 MSTORE PUSH1 0x40 PUSH1 0x0 KECCAK256 CALLER PUSH1 0x0 MSTORE PUSH1 0x20 MSTORE PUSH1 0xFF PUSH1 0x40 PUSH1 0x0 KECCAK256 SLOAD AND ISZERO PUSH2 0xDAA JUMPI POP JUMP JUMPDEST SWAP1 PUSH1 0x0 SWAP2 DUP1 DUP4 MSTORE PUSH1 0x5 PUSH1 0x20 MSTORE PUSH1 0x40 DUP4 KECCAK256 SWAP2 PUSH1 0x1 DUP1 PUSH1 0xA0 SHL SUB AND SWAP2 DUP3 DUP5 MSTORE PUSH1 0x20 MSTORE PUSH1 0xFF PUSH1 0x40 DUP5 KECCAK256 SLOAD AND ISZERO PUSH1 0x0 EQ PUSH2 0xE69 JUMPI DUP1 DUP4 MSTORE PUSH1 0x5 PUSH1 0x20 MSTORE PUSH1 0x40 DUP4 KECCAK256 DUP3 DUP5 MSTORE PUSH1 0x20 MSTORE PUSH1 0x40 DUP4 KECCAK256 PUSH1 0x1 PUSH1 0xFF NOT DUP3 SLOAD AND OR SWAP1 SSTORE PUSH32 0x2F8788117E7EFF1D82E926EC794901D17C78024A50270940304540A733656F0D CALLER SWAP4 DUP1 LOG4 PUSH1 0x1 SWAP1 JUMP JUMPDEST POP POP SWAP1 JUMP JUMPDEST SWAP1 PUSH1 0x0 SWAP2 DUP1 DUP4 MSTORE PUSH1 0x5 PUSH1 0x20 MSTORE PUSH1 0x40 DUP4 KECCAK256 SWAP2 PUSH1 0x1 DUP1 PUSH1 0xA0 SHL SUB AND SWAP2 DUP3 DUP5 MSTORE PUSH1 0x20 MSTORE PUSH1 0xFF PUSH1 0x40 DUP5 KECCAK256 SLOAD AND PUSH1 0x0 EQ PUSH2 0xE69 JUMPI DUP1 DUP4 MSTORE PUSH1 0x5 PUSH1 0x20 MSTORE PUSH1 0x40 DUP4 KECCAK256 DUP3 DUP5 MSTORE PUSH1 0x20 MSTORE PUSH1 0x40 DUP4 KECCAK256 PUSH1 0xFF NOT DUP2 SLOAD AND SWAP1 SSTORE PUSH32 0xF6391F5C32D9C69D2A47EA670B442974B53935D1EDC7FD64EB21E047A839171B CALLER SWAP4 DUP1 LOG4 PUSH1 0x1 SWAP1 JUMP JUMPDEST PUSH8 0xFFFFFFFFFFFFFFFF DUP2 GT PUSH2 0xEF9 JUMPI PUSH1 0x40 MSTORE JUMP JUMPDEST PUSH4 0x4E487B71 PUSH1 0xE0 SHL PUSH1 0x0 MSTORE PUSH1 0x41 PUSH1 0x4 MSTORE PUSH1 0x24 PUSH1 0x0 REVERT JUMPDEST SWAP1 PUSH1 0x1F DUP1 NOT SWAP2 ADD AND DUP2 ADD SWAP1 DUP2 LT PUSH8 0xFFFFFFFFFFFFFFFF DUP3 GT OR PUSH2 0xEF9 JUMPI PUSH1 0x40 MSTORE JUMP JUMPDEST SWAP2 SWAP1 PUSH1 0x1 PUSH1 0x1 PUSH1 0xA0 SHL SUB SWAP1 DUP2 DUP5 AND SWAP1 DUP2 ISZERO PUSH2 0x12BB JUMPI DUP3 AND SWAP2 DUP3 ISZERO PUSH2 0x12A2 JUMPI DUP1 PUSH32 0x0 AND SWAP1 PUSH32 0x0 PUSH1 0x40 SWAP6 DUP7 MLOAD SWAP8 PUSH4 0x11748061 PUSH1 0xE1 SHL DUP10 MSTORE PUSH1 0x4 SWAP5 DUP4 DUP7 DUP12 ADD MSTORE PUSH1 0x20 SWAP4 PUSH1 0x24 SWAP11 DUP6 DUP2 DUP14 DUP2 DUP7 GAS STATICCALL SWAP1 DUP2 ISZERO PUSH2 0x11EC JUMPI PUSH1 0x0 SWAP2 PUSH2 0x1285 JUMPI JUMPDEST POP ISZERO PUSH2 0x1250 JUMPI DUP10 MLOAD SWAP1 PUSH4 0x1F50B2CB PUSH1 0xE0 SHL DUP3 MSTORE DUP8 DUP3 ADD MSTORE DUP5 DUP2 DUP13 DUP2 DUP6 GAS STATICCALL SWAP1 DUP2 ISZERO PUSH2 0x1245 JUMPI PUSH1 0x0 SWAP2 PUSH2 0x1228 JUMPI JUMPDEST POP PUSH2 0x11F7 JUMPI DUP9 MLOAD PUSH4 0x3AF32ABF PUSH1 0xE0 SHL DUP1 DUP3 MSTORE DUP8 DUP3 ADD DUP10 SWAP1 MSTORE SWAP1 DUP6 DUP2 DUP14 DUP2 DUP7 GAS STATICCALL SWAP1 DUP2 ISZERO PUSH2 0x11EC JUMPI PUSH1 0x0 SWAP2 PUSH2 0x11CF JUMPI JUMPDEST POP ISZERO PUSH2 0x1194 JUMPI DUP5 SWAP1 DUP12 DUP12 MLOAD DUP1 SWAP5 DUP2 SWAP4 DUP3 MSTORE DUP13 DUP12 DUP4 ADD MSTORE GAS STATICCALL SWAP1 DUP2 ISZERO PUSH2 0x1189 JUMPI SWAP1 PUSH2 0x1055 SWAP2 PUSH1 0x0 SWAP2 PUSH2 0x1172 JUMPI POP PUSH2 0x1328 JUMP JUMPDEST DUP6 PUSH1 0x0 MSTORE PUSH1 0x0 DUP4 MSTORE DUP8 PUSH1 0x0 KECCAK256 SLOAD SWAP1 DUP3 DUP3 LT PUSH2 0x113E JUMPI POP DUP7 SWAP3 DUP3 DUP8 SWAP4 PUSH32 0xDDF252AD1BE2C89B69C2B068FC378DAA952BA7F163C4A11628F55A4DF523B3EF SWAP4 DUP6 PUSH1 0x0 MSTORE PUSH1 0x0 DUP5 MSTORE SUB DUP11 PUSH1 0x0 KECCAK256 SSTORE DUP5 PUSH1 0x0 MSTORE DUP10 PUSH1 0x0 KECCAK256 DUP2 DUP2 SLOAD ADD SWAP1 SSTORE DUP10 MLOAD SWAP1 DUP2 MSTORE LOG3 DUP4 DUP4 SUB PUSH2 0x10C4 JUMPI JUMPDEST POP POP POP POP POP POP JUMP JUMPDEST PUSH32 0x0 AND SWAP1 DUP2 EXTCODESIZE ISZERO PUSH2 0xD33 JUMPI PUSH1 0x0 PUSH1 0x44 SWAP3 DUP2 SWAP6 DUP8 MLOAD SWAP9 DUP10 SWAP7 DUP8 SWAP6 PUSH4 0x5F68F677 PUSH1 0xE0 SHL DUP8 MSTORE DUP7 ADD MSTORE DUP5 ADD MSTORE GAS CALL SWAP1 DUP2 ISZERO PUSH2 0x1134 JUMPI POP PUSH2 0x1125 JUMPI JUMPDEST DUP1 DUP1 DUP1 DUP1 DUP1 PUSH2 0x10BC JUMP JUMPDEST PUSH2 0x112E SWAP1 PUSH2 0xEE5 JUMP JUMPDEST CODESIZE PUSH2 0x111B JUMP JUMPDEST MLOAD RETURNDATASIZE PUSH1 0x0 DUP3 RETURNDATACOPY RETURNDATASIZE SWAP1 REVERT JUMPDEST DUP9 MLOAD PUSH4 0x391434E3 PUSH1 0xE2 SHL DUP2 MSTORE PUSH1 0x1 PUSH1 0x1 PUSH1 0xA0 SHL SUB SWAP1 SWAP2 AND DUP2 DUP8 ADD SWAP1 DUP2 MSTORE PUSH1 0x20 DUP2 ADD DUP4 SWAP1 MSTORE PUSH1 0x40 DUP2 ADD DUP5 SWAP1 MSTORE DUP2 SWAP1 PUSH1 0x60 ADD SUB SWAP1 REVERT JUMPDEST PUSH2 0x8C1 SWAP2 POP DUP6 RETURNDATASIZE DUP8 GT PUSH2 0x452 JUMPI PUSH2 0x444 DUP2 DUP4 PUSH2 0xF0F JUMP JUMPDEST DUP10 MLOAD RETURNDATASIZE PUSH1 0x0 DUP3 RETURNDATACOPY RETURNDATASIZE SWAP1 REVERT JUMPDEST DUP10 MLOAD PUSH3 0x461BCD PUSH1 0xE5 SHL DUP2 MSTORE DUP1 DUP9 ADD DUP7 SWAP1 MSTORE PUSH1 0x16 DUP2 DUP14 ADD MSTORE PUSH22 0x14D95B99195C881B9BDD081DDA1A5D195B1A5CDD1959 PUSH1 0x52 SHL PUSH1 0x44 DUP3 ADD MSTORE PUSH1 0x64 SWAP1 REVERT JUMPDEST PUSH2 0x11E6 SWAP2 POP DUP7 RETURNDATASIZE DUP9 GT PUSH2 0x452 JUMPI PUSH2 0x444 DUP2 DUP4 PUSH2 0xF0F JUMP JUMPDEST CODESIZE PUSH2 0x1024 JUMP JUMPDEST DUP12 MLOAD RETURNDATASIZE PUSH1 0x0 DUP3 RETURNDATACOPY RETURNDATASIZE SWAP1 REVERT JUMPDEST DUP9 MLOAD PUSH3 0x461BCD PUSH1 0xE5 SHL DUP2 MSTORE DUP1 DUP8 ADD DUP6 SWAP1 MSTORE PUSH1 0xC DUP2 DUP13 ADD MSTORE PUSH12 0x105CDCD95D081C185D5CD959 PUSH1 0xA2 SHL PUSH1 0x44 DUP3 ADD MSTORE PUSH1 0x64 SWAP1 REVERT JUMPDEST PUSH2 0x123F SWAP2 POP DUP6 RETURNDATASIZE DUP8 GT PUSH2 0x452 JUMPI PUSH2 0x444 DUP2 DUP4 PUSH2 0xF0F JUMP JUMPDEST CODESIZE PUSH2 0xFF5 JUMP JUMPDEST DUP11 MLOAD RETURNDATASIZE PUSH1 0x0 DUP3 RETURNDATACOPY RETURNDATASIZE SWAP1 REVERT JUMPDEST DUP10 MLOAD PUSH3 0x461BCD PUSH1 0xE5 SHL DUP2 MSTORE DUP1 DUP9 ADD DUP7 SWAP1 MSTORE PUSH1 0x10 DUP2 DUP14 ADD MSTORE PUSH16 0x4173736574206E6F7420616374697665 PUSH1 0x80 SHL PUSH1 0x44 DUP3 ADD MSTORE PUSH1 0x64 SWAP1 REVERT JUMPDEST PUSH2 0x129C SWAP2 POP DUP7 RETURNDATASIZE DUP9 GT PUSH2 0x452 JUMPI PUSH2 0x444 DUP2 DUP4 PUSH2 0xF0F JUMP JUMPDEST CODESIZE PUSH2 0xFC8 JUMP JUMPDEST PUSH1 0x40 MLOAD PUSH4 0xEC442F05 PUSH1 0xE0 SHL DUP2 MSTORE PUSH1 0x0 PUSH1 0x4 DUP3 ADD MSTORE PUSH1 0x24 SWAP1 REVERT JUMPDEST PUSH1 0x40 MLOAD PUSH4 0x4B637E8F PUSH1 0xE1 SHL DUP2 MSTORE PUSH1 0x0 PUSH1 0x4 DUP3 ADD MSTORE PUSH1 0x24 SWAP1 REVERT JUMPDEST SWAP1 DUP2 PUSH1 0x20 SWAP2 SUB SLT PUSH2 0xD33 JUMPI MLOAD DUP1 ISZERO ISZERO DUP2 SUB PUSH2 0xD33 JUMPI SWAP1 JUMP JUMPDEST ISZERO PUSH2 0x12F3 JUMPI JUMP JUMPDEST PUSH1 0x40 MLOAD PUSH3 0x461BCD PUSH1 0xE5 SHL DUP2 MSTORE PUSH1 0x20 PUSH1 0x4 DUP3 ADD MSTORE PUSH1 0xD PUSH1 0x24 DUP3 ADD MSTORE PUSH13 0x14DD5C1C1B1E481B1BD8DAD959 PUSH1 0x9A SHL PUSH1 0x44 DUP3 ADD MSTORE PUSH1 0x64 SWAP1 REVERT JUMPDEST ISZERO PUSH2 0x132F JUMPI JUMP JUMPDEST PUSH1 0x40 MLOAD PUSH3 0x461BCD PUSH1 0xE5 SHL DUP2 MSTORE PUSH1 0x20 PUSH1 0x4 DUP3 ADD MSTORE PUSH1 0x19 PUSH1 0x24 DUP3 ADD MSTORE PUSH32 0x526563697069656E74206E6F742077686974656C697374656400000000000000 PUSH1 0x44 DUP3 ADD MSTORE PUSH1 0x64 SWAP1 REVERT JUMPDEST SWAP2 SWAP1 DUP3 ADD DUP1 SWAP3 GT PUSH2 0x1381 JUMPI JUMP JUMPDEST PUSH4 0x4E487B71 PUSH1 0xE0 SHL PUSH1 0x0 MSTORE PUSH1 0x11 PUSH1 0x4 MSTORE PUSH1 0x24 PUSH1 0x0 REVERT JUMPDEST PUSH1 0x2 SLOAD SWAP1 DUP2 ISZERO PUSH2 0x13CF JUMPI PUSH1 0x1 DUP1 PUSH1 0xA0 SHL SUB AND PUSH1 0x0 MSTORE PUSH1 0x0 PUSH1 0x20 MSTORE PUSH1 0x40 PUSH1 0x0 KECCAK256 SLOAD PUSH2 0x2710 SWAP1 DUP2 DUP2 MUL SWAP2 DUP2 DUP4 DIV EQ SWAP1 ISZERO OR ISZERO PUSH2 0x1381 JUMPI DIV SWAP1 JUMP JUMPDEST POP POP PUSH1 0x0 SWAP1 JUMP INVALID LOG2 PUSH5 0x6970667358 0x22 SLT KECCAK256 RETURNDATASIZE 0xB0 0xDB GASPRICE PUSH5 0xD45ECFBD7D 0xD0 PUSH4 0x5731605B PUSH22 0x982E08BC1AD0C6FBB812D1557C21A64736F6C634300 ADDMOD EQ STOP CALLER 0x2F DUP8 DUP9 GT PUSH31 0x7EFF1D82E926EC794901D17C78024A50270940304540A733656F0D00000000 "
        },
        "methodIdentifiers": {
          "DEFAULT_ADMIN_ROLE()": "a217fddf",
          "VAULT_ROLE()": "98c4f1ac",
          "allowance(address,address)": "dd62ed3e",
          "approve(address,uint256)": "095ea7b3",
          "assetId()": "44de240a",
          "balanceOf(address)": "70a08231",
          "burn(address,uint256)": "9dc29fac",
          "decimals()": "313ce567",
          "getRoleAdmin(bytes32)": "248a9ca3",
          "grantRole(bytes32,address)": "2f2ff15d",
          "hasRole(bytes32,address)": "91d14854",
          "maxSupply()": "d5abeb01",
          "mint(address,uint256)": "40c10f19",
          "name()": "06fdde03",
          "ownershipBps(address)": "19d48729",
          "registry()": "7b103999",
          "renounceRole(bytes32,address)": "36568abe",
          "revokeRole(bytes32,address)": "d547741f",
          "supportsInterface(bytes4)": "01ffc9a7",
          "symbol()": "95d89b41",
          "totalSupply()": "18160ddd",
          "transfer(address,uint256)": "a9059cbb",
          "transferFrom(address,address,uint256)": "23b872dd",
          "vault()": "fbfa77cf"
        }
      }
    }
  }
}