{
  "contracts/RentalCashFlowLogic.sol": {
    "RentalCashFlowLogic": {
      "abi": [
        {
          "anonymous": false,
          "inputs": [
            {
              "indexed": false,
              "internalType": "uint256",
              "name": "daysPastDue",
              "type": "uint256"
            },
            {
              "indexed": false,
              "internalType": "bool",
              "name": "defaultTriggered",
              "type": "bool"
            },
            {
              "indexed": false,
              "internalType": "uint256",
              "name": "timestamp",
              "type": "uint256"
            }
          ],
          "name": "CashflowDefaultEvaluated",
          "type": "event"
        },
        {
          "anonymous": false,
          "inputs": [
            {
              "indexed": false,
              "internalType": "enum CashflowHealth",
              "name": "newHealth",
              "type": "uint8"
            }
          ],
          "name": "CashflowHealthUpdated",
          "type": "event"
        },
        {
          "anonymous": false,
          "inputs": [
            {
              "indexed": true,
              "internalType": "address",
              "name": "logic",
              "type": "address"
            },
            {
              "indexed": false,
              "internalType": "bytes",
              "name": "data",
              "type": "bytes"
            }
          ],
          "name": "CashflowInitialized",
          "type": "event"
        },
        {
          "anonymous": false,
          "inputs": [
            {
              "indexed": false,
              "internalType": "uint256",
              "name": "timestamp",
              "type": "uint256"
            }
          ],
          "name": "CashflowMatured",
          "type": "event"
        },
        {
          "anonymous": false,
          "inputs": [
            {
              "indexed": false,
              "internalType": "uint256",
              "name": "amount",
              "type": "uint256"
            },
            {
              "indexed": false,
              "internalType": "uint256",
              "name": "timestamp",
              "type": "uint256"
            },
            {
              "indexed": false,
              "internalType": "enum RWACommonTypes.AssetStatus",
              "name": "newStatus",
              "type": "uint8"
            },
            {
              "indexed": false,
              "internalType": "enum CashflowHealth",
              "name": "health",
              "type": "uint8"
            }
          ],
          "name": "CashflowPaymentProcessed",
          "type": "event"
        },
        {
          "anonymous": false,
          "inputs": [
            {
              "indexed": false,
              "internalType": "enum RWACommonTypes.AssetStatus",
              "name": "oldStatus",
              "type": "uint8"
            },
            {
              "indexed": false,
              "internalType": "enum RWACommonTypes.AssetStatus",
              "name": "newStatus",
              "type": "uint8"
            },
            {
              "indexed": false,
              "internalType": "enum CashflowHealth",
              "name": "health",
              "type": "uint8"
            },
            {
              "indexed": false,
              "internalType": "uint256",
              "name": "timestamp",
              "type": "uint256"
            }
          ],
          "name": "CashflowStatusUpdated",
          "type": "event"
        },
        {
          "anonymous": false,
          "inputs": [
            {
              "indexed": false,
              "internalType": "uint256",
              "name": "rentAmount",
              "type": "uint256"
            },
            {
              "indexed": false,
              "internalType": "uint256",
              "name": "paymentInterval",
              "type": "uint256"
            },
            {
              "indexed": false,
              "internalType": "uint256",
              "name": "firstPaymentDueDate",
              "type": "uint256"
            },
            {
              "indexed": false,
              "internalType": "uint256",
              "name": "gracePeriodDays",
              "type": "uint256"
            },
            {
              "indexed": false,
              "internalType": "uint256",
              "name": "leaseEndDate",
              "type": "uint256"
            }
          ],
          "name": "LeaseInitialized",
          "type": "event"
        },
        {
          "anonymous": false,
          "inputs": [
            {
              "indexed": true,
              "internalType": "uint256",
              "name": "period",
              "type": "uint256"
            },
            {
              "indexed": false,
              "internalType": "uint256",
              "name": "amount",
              "type": "uint256"
            },
            {
              "indexed": false,
              "internalType": "uint256",
              "name": "timestamp",
              "type": "uint256"
            }
          ],
          "name": "RentPaid",
          "type": "event"
        },
        {
          "inputs": [
            {
              "internalType": "uint256",
              "name": "timestamp",
              "type": "uint256"
            }
          ],
          "name": "evaluateDefault",
          "outputs": [
            {
              "internalType": "enum RWACommonTypes.AssetStatus",
              "name": "",
              "type": "uint8"
            },
            {
              "internalType": "enum CashflowHealth",
              "name": "",
              "type": "uint8"
            }
          ],
          "stateMutability": "nonpayable",
          "type": "function"
        },
        {
          "inputs": [],
          "name": "forceDefault",
          "outputs": [
            {
              "internalType": "bool",
              "name": "",
              "type": "bool"
            }
          ],
          "stateMutability": "nonpayable",
          "type": "function"
        },
        {
          "inputs": [],
          "name": "getAssetStatus",
          "outputs": [
            {
              "internalType": "enum RWACommonTypes.AssetStatus",
              "name": "",
              "type": "uint8"
            }
          ],
          "stateMutability": "view",
          "type": "function"
        },
        {
          "inputs": [],
          "name": "getCashflowHealth",
          "outputs": [
            {
              "internalType": "enum CashflowHealth",
              "name": "",
              "type": "uint8"
            }
          ],
          "stateMutability": "view",
          "type": "function"
        },
        {
          "inputs": [
            {
              "internalType": "uint256",
              "name": "timestamp",
              "type": "uint256"
            }
          ],
          "name": "getExpectedPayment",
          "outputs": [
            {
              "components": [
                {
                  "internalType": "uint256",
                  "name": "expectedAmount",
                  "type": "uint256"
                },
                {
                  "internalType": "uint256",
                  "name": "dueDate",
                  "type": "uint256"
                },
                {
                  "internalType": "uint256",
                  "name": "gracePeriodEnd",
                  "type": "uint256"
                },
                {
                  "internalType": "uint256",
                  "name": "amountPaidThisPeriod",
                  "type": "uint256"
                },
                {
                  "internalType": "uint256",
                  "name": "penaltyAmount",
                  "type": "uint256"
                },
                {
                  "internalType": "uint256",
                  "name": "daysPastDue",
                  "type": "uint256"
                },
                {
                  "internalType": "bool",
                  "name": "isDue",
                  "type": "bool"
                },
                {
                  "internalType": "bool",
                  "name": "isPastDue",
                  "type": "bool"
                }
              ],
              "internalType": "struct PaymentStatus",
              "name": "",
              "type": "tuple"
            }
          ],
          "stateMutability": "view",
          "type": "function"
        },
        {
          "inputs": [],
          "name": "getRemainingPrincipal",
          "outputs": [
            {
              "internalType": "uint256",
              "name": "",
              "type": "uint256"
            }
          ],
          "stateMutability": "pure",
          "type": "function"
        },
        {
          "inputs": [],
          "name": "getSchedule",
          "outputs": [
            {
              "internalType": "uint256",
              "name": "nextDueDate",
              "type": "uint256"
            },
            {
              "internalType": "uint256",
              "name": "expectedPeriodicPayment",
              "type": "uint256"
            },
            {
              "internalType": "uint256",
              "name": "maturityDate",
              "type": "uint256"
            }
          ],
          "stateMutability": "view",
          "type": "function"
        },
        {
          "inputs": [],
          "name": "getTotalReceived",
          "outputs": [
            {
              "internalType": "uint256",
              "name": "",
              "type": "uint256"
            }
          ],
          "stateMutability": "view",
          "type": "function"
        },
        {
          "inputs": [],
          "name": "gracePeriodDays",
          "outputs": [
            {
              "internalType": "uint256",
              "name": "",
              "type": "uint256"
            }
          ],
          "stateMutability": "view",
          "type": "function"
        },
        {
          "inputs": [],
          "name": "health",
          "outputs": [
            {
              "internalType": "enum CashflowHealth",
              "name": "",
              "type": "uint8"
            }
          ],
          "stateMutability": "view",
          "type": "function"
        },
        {
          "inputs": [
            {
              "internalType": "bytes",
              "name": "data",
              "type": "bytes"
            }
          ],
          "name": "initialize",
          "outputs": [],
          "stateMutability": "nonpayable",
          "type": "function"
        },
        {
          "inputs": [],
          "name": "initialized",
          "outputs": [
            {
              "internalType": "bool",
              "name": "",
              "type": "bool"
            }
          ],
          "stateMutability": "view",
          "type": "function"
        },
        {
          "inputs": [],
          "name": "lastMissedPeriod",
          "outputs": [
            {
              "internalType": "uint256",
              "name": "",
              "type": "uint256"
            }
          ],
          "stateMutability": "view",
          "type": "function"
        },
        {
          "inputs": [],
          "name": "lastPaidPeriod",
          "outputs": [
            {
              "internalType": "uint256",
              "name": "",
              "type": "uint256"
            }
          ],
          "stateMutability": "view",
          "type": "function"
        },
        {
          "inputs": [],
          "name": "leaseEndDate",
          "outputs": [
            {
              "internalType": "uint256",
              "name": "",
              "type": "uint256"
            }
          ],
          "stateMutability": "view",
          "type": "function"
        },
        {
          "inputs": [
            {
              "internalType": "uint256",
              "name": "",
              "type": "uint256"
            }
          ],
          "name": "markMatured",
          "outputs": [],
          "stateMutability": "nonpayable",
          "type": "function"
        },
        {
          "inputs": [],
          "name": "missedPeriods",
          "outputs": [
            {
              "internalType": "uint256",
              "name": "",
              "type": "uint256"
            }
          ],
          "stateMutability": "view",
          "type": "function"
        },
        {
          "inputs": [],
          "name": "paymentInterval",
          "outputs": [
            {
              "internalType": "uint256",
              "name": "",
              "type": "uint256"
            }
          ],
          "stateMutability": "view",
          "type": "function"
        },
        {
          "inputs": [
            {
              "internalType": "uint256",
              "name": "",
              "type": "uint256"
            }
          ],
          "name": "periodPaid",
          "outputs": [
            {
              "internalType": "bool",
              "name": "",
              "type": "bool"
            }
          ],
          "stateMutability": "view",
          "type": "function"
        },
        {
          "inputs": [
            {
              "internalType": "uint256",
              "name": "timestamp",
              "type": "uint256"
            }
          ],
          "name": "previewDefault",
          "outputs": [
            {
              "internalType": "enum RWACommonTypes.AssetStatus",
              "name": "newStatus",
              "type": "uint8"
            },
            {
              "internalType": "enum CashflowHealth",
              "name": "newHealth",
              "type": "uint8"
            },
            {
              "internalType": "uint256",
              "name": "daysPastDue",
              "type": "uint256"
            },
            {
              "internalType": "uint256",
              "name": "period",
              "type": "uint256"
            }
          ],
          "stateMutability": "view",
          "type": "function"
        },
        {
          "inputs": [
            {
              "internalType": "uint256",
              "name": "amount",
              "type": "uint256"
            },
            {
              "internalType": "uint256",
              "name": "timestamp",
              "type": "uint256"
            }
          ],
          "name": "processPayment",
          "outputs": [
            {
              "internalType": "enum RWACommonTypes.AssetStatus",
              "name": "",
              "type": "uint8"
            }
          ],
          "stateMutability": "nonpayable",
          "type": "function"
        },
        {
          "inputs": [],
          "name": "registry",
          "outputs": [
            {
              "internalType": "address",
              "name": "",
              "type": "address"
            }
          ],
          "stateMutability": "view",
          "type": "function"
        },
        {
          "inputs": [],
          "name": "rentAmount",
          "outputs": [
            {
              "internalType": "uint256",
              "name": "",
              "type": "uint256"
            }
          ],
          "stateMutability": "view",
          "type": "function"
        },
        {
          "inputs": [],
          "name": "startTimestamp",
          "outputs": [
            {
              "internalType": "uint256",
              "name": "",
              "type": "uint256"
            }
          ],
          "stateMutability": "view",
          "type": "function"
        },
        {
          "inputs": [],
          "name": "totalAmountPaid",
          "outputs": [
            {
              "internalType": "uint256",
              "name": "",
              "type": "uint256"
            }
          ],
          "stateMutability": "view",
          "type": "function"
        }
      ],
      "evm": {
        "bytecode": {
          "linkReferences": {},
          "object": "6080806040523461001657610fe6908161001c8239f35b600080fdfe608060408181526004918236101561001657600080fd5b600092833560e01c9182630592a61214610c7c5750816307c47e6414610c5d5781631348ed5e14610c3e578163158ef93e14610c1a5781631cc1cf4614610bfb5781631ebf1a5514610bb157816326d3325d14610a3157816326fadbe2146109e357816338f417ca146109b6578163439fab91146106e957816345615716146106c95781634e7c13fe146106725781637633a22c1461061f5781637b103999146106455781638acdca5e1461061f5781638c2281b014610465578163b42b2da514610446578163be03250b14610427578163d2fa0a08146103ee578163df9d58ff146101cb57508063e2957dd1146101ad578063e6fd48bc1461018f578063e8c300ee14610175578063f41cb5d1146101575763f8ef1e131461013857600080fd5b34610153578160031936011261015357602091549051908152f35b5080fd5b50346101535781600319360112610153576020906008549051908152f35b503461015357816003193601126101535751908152602090f35b50346101535781600319360112610153576020906006549051908152f35b50346101535781600319360112610153576020906009549051908152f35b9050346103ea57816003193601126103ea57803560249384359061020960ff600b5461020360018060a01b038260081c163314610d6c565b16610da8565b60ff84541660058110156103d8576003146103a257600354821161037057805483106103375761023882610ead565b8082526020966005885260ff8784205416610300575091818388969487969452600586527fa62c35dfc0ff11d3713608ebcdc5c5d1952c7702620f2c46c22950f7b70d57978880842060ff19906001828254161790558360075561029e87600854610cc8565b6008558754169586885581519081528589820152a28651908152600080516020610f91833981519152958691a160035411156102ed575b82856102eb6102e2610ceb565b91518092610c98565bf35b811781558351908152a1388281806102d5565b8560136064928a8a519362461bcd60e51b85528401528201527214195c9a5bd908185b1c9958591e481c185a59606a1b6044820152fd5b845162461bcd60e51b815260208186015260148188015273125b9cdd59999a58da595b9d081c185e5b595b9d60621b6044820152606490fd5b845162461bcd60e51b8152602081860152600d818801526c1319585cd948195e1c1a5c9959609a1b6044820152606490fd5b845162461bcd60e51b815260208186015260118188015270105b1c9958591e48191959985d5b1d1959607a1b6044820152606490fd5b634e487b7160e01b8252602185528682fd5b8280fd5b919050346103ea5760203660031901126103ea57815460ff19168217825551908152600080516020610f9183398151915290602090a180f35b5050346101535781600319360112610153576020906007549051908152f35b5050346101535781600319360112610153576020906003549051908152f35b905082346105f65760203660031901126105f65781359161049460018060a01b03600b5460081c163314610d6c565b8351631ebf1a5560e01b815281810184905291608083602481305afa91821561061357819482948394610591575b5081549360ff851694600587101561057e5760ff191660ff87161783558391600287148015610571575b61055a575b505061054757600583101561054757505090806102eb9203610524575b61051a84518094610c98565b6020830190610cbb565b600080516020610f91833981519152602085516105418185610cbb565ba161050e565b634e487b7160e01b825260219052602490fd5b6105649082610efa565b600955600a5587806104f1565b50849250600387146104ec565b634e487b7160e01b855260218452602485fd5b95509250925060803d811161060c575b601f8101601f1916850167ffffffffffffffff8111868210176105f95760809186918852810103126105f65783519260098410156101535760208501519460058610156103ea576060015193949392876104c2565b80fd5b634e487b7160e01b835260418552602483fd5b503d6105a1565b508451903d90823e3d90fd5b8284346105f657806003193601126105f657506102eb60ff602093541691518092610cbb565b505034610153578160031936011261015357600b54905160089190911c6001600160a01b03168152602090f35b9050346103ea57826003193601126103ea57602092506106a060018060a01b03600b5460081c163314610d6c565b600360ff19825416179055600080516020610f9183398151915282825160038152a15160018152f35b5050346101535781600319360112610153576020906102eb6102e2610ceb565b919050346103ea57602091826003193601126109b25780359167ffffffffffffffff8084116109ae57366023850112156109ae57838301359081116109ae57830190602492368484011161097357600b549260ff8416610977578560c09103126109735783850135958760449485880135936064808a01359760848b01359960c460a48d01359c013560018060a01b0390818116810361096f578d978f91610100600160a81b039060081b16986003558d6002558a600155558d15610941576224ea00891061090d57610100600160a81b03198616871760081c16156108dc5761012c8a01808b116108ca57421161088c57898c111561084e57508c7fc20a846a45ddad517008be57a77685ca59d2c0dbde4d3782941aec592db85a0f60a08e8e8e8e8e8e8e60018f8f8f8760065560ff1981541690556affffffffffffffffffffff60a81b161717600b55825196875286015284015260608301526080820152a180f35b8391601a7f4c6561736520656e64206265666f72652066697273742064756500000000000092898c519562461bcd60e51b8752860152840152820152fd5b8391601e7f466972737420647565206461746520746f6f2066617220696e2070617374000092898c519562461bcd60e51b8752860152840152820152fd5b50634e487b7160e01b8e52601184528dfd5b839160106f496e76616c696420726567697374727960801b92898c519562461bcd60e51b8752860152840152820152fd5b508391601271125b9d195c9d985b081d1bdbc81cda1bdc9d60721b92898c519562461bcd60e51b8752860152840152820152fd5b508391600c6b125b9d985b1a59081c995b9d60a21b92898c519562461bcd60e51b8752860152840152820152fd5b8780fd5b8680fd5b5060138487606494519362461bcd60e51b855284015282015272105b1c9958591e481a5b9a5d1a585b1a5e9959606a1b6044820152fd5b8580fd5b8380fd5b9050346103ea5760203660031901126103ea578160209360ff923581526005855220541690519015158152f35b50503461015357816003193601126101535790606091610a1b610a0542610ead565b610a156006549160015490610d59565b90610cc8565b9154906003549181519384526020840152820152f35b838334610153576020366003190112610153578235908260e08251610a5581610d19565b82815282602082015282848201528260608201528260808201528260a08201528260c08201520152610a8682610ead565b610a98600654610a1560015484610d59565b908452600560205260ff8285205416938093851593848095610ba8575b610b91575b8254966002549462015180808702908782041487151715610b7e576101009a50610ae49082610cc8565b9115610b76578089945b10159687610b6e575b50825195610b0487610d19565b89875260208701918252838701928352606087019485526080870195865260e060a08801978a895260c081019915158a520198118852825198895251602089015251908701525160608601525160808501525160a084015251151560c083015251151560e0820152f35b96508a610af7565b808594610aee565b634e487b7160e01b865260118b52602486fd5b945062015180610ba18483610d4c565b0494610aba565b50838211610ab5565b905082346105f65760203660031901126105f6576080610bf184610bd58535610de6565b9391610be78396929496518097610c98565b6020860190610cbb565b8301526060820152f35b5050346101535781600319360112610153576020906001549051908152f35b50503461015357816003193601126101535760209060ff600b541690519015158152f35b5050346101535781600319360112610153576020906002549051908152f35b505034610153578160031936011261015357602090600a549051908152f35b8490346101535781600319360112610153576020906008548152f35b906009821015610ca55752565b634e487b7160e01b600052602160045260246000fd5b906005821015610ca55752565b91908201809211610cd557565b634e487b7160e01b600052601160045260246000fd5b60ff600454166005811015610ca55760038114610d1357600414610d0e57600290565b600890565b50600490565b610100810190811067ffffffffffffffff821117610d3657604052565b634e487b7160e01b600052604160045260246000fd5b91908203918211610cd557565b81810292918115918404141715610cd557565b15610d7357565b60405162461bcd60e51b815260206004820152600d60248201526c4f6e6c7920726567697374727960981b6044820152606490fd5b15610daf57565b60405162461bcd60e51b815260206004820152600f60248201526e139bdd081a5b9a5d1a585b1a5e9959608a1b6044820152606490fd5b610df460ff600b5416610da8565b600354811015610e9957610e0781610ead565b610e19600654610a1560015484610d59565b6000828152600560205260ff604082205416610e8e5781841115610e865750610e46620151809184610d4c565b04915b826002548110610e795750610e6060029183610efa565b1015610e6f5760029283929190565b6004926003929190565b9250506002926001929190565b905091610e49565b925050600292829190565b610ea290610ead565b600891600491600091565b600654808210610ee457610ec091610d4c565b600154908115610ece570490565b634e487b7160e01b600052601260045260246000fd5b5050600090565b6000198114610cd55760010190565b600254600654600154600095948692909190835b86811115610f1f5750505050505050565b808552600560205260ff604086205416610f665785610f47610f418584610d59565b84610cc8565b80861115610f8957610f5d620151809187610d4c565b045b1015610f74575b610f6f90610eeb565b610f0e565b97610f81610f6f91610eeb565b989050610f66565b5085610f5f56fe784218e19c0007f03f5c1f12e90bda7d4631acfbd176a7d385530c4b1f494b47a26469706673582212208e3a1fa1e6c81a08118128efba732939428f2d589531e8058319b8e5f239c57564736f6c63430008140033",
          "opcodes": "PUSH1 0x80 DUP1 PUSH1 0x40 MSTORE CALLVALUE PUSH2 0x16 JUMPI PUSH2 0xFE6 SWAP1 DUP2 PUSH2 0x1C DUP3 CODECOPY RETURN JUMPDEST PUSH1 0x0 DUP1 REVERT INVALID PUSH1 0x80 PUSH1 0x40 DUP2 DUP2 MSTORE PUSH1 0x4 SWAP2 DUP3 CALLDATASIZE LT ISZERO PUSH2 0x16 JUMPI PUSH1 0x0 DUP1 REVERT JUMPDEST PUSH1 0x0 SWAP3 DUP4 CALLDATALOAD PUSH1 0xE0 SHR SWAP2 DUP3 PUSH4 0x592A612 EQ PUSH2 0xC7C JUMPI POP DUP2 PUSH4 0x7C47E64 EQ PUSH2 0xC5D JUMPI DUP2 PUSH4 0x1348ED5E EQ PUSH2 0xC3E JUMPI DUP2 PUSH4 0x158EF93E EQ PUSH2 0xC1A JUMPI DUP2 PUSH4 0x1CC1CF46 EQ PUSH2 0xBFB JUMPI DUP2 PUSH4 0x1EBF1A55 EQ PUSH2 0xBB1 JUMPI DUP2 PUSH4 0x26D3325D EQ PUSH2 0xA31 JUMPI DUP2 PUSH4 0x26FADBE2 EQ PUSH2 0x9E3 JUMPI DUP2 PUSH4 0x38F417CA EQ PUSH2 0x9B6 JUMPI DUP2 PUSH4 0x439FAB91 EQ PUSH2 0x6E9 JUMPI DUP2 PUSH4 0x45615716 EQ PUSH2 0x6C9 JUMPI DUP2 PUSH4 0x4E7C13FE EQ PUSH2 0x672 JUMPI DUP2 PUSH4 0x7633A22C EQ PUSH2 0x61F JUMPI DUP2 PUSH4 0x7B103999 EQ PUSH2 0x645 JUMPI DUP2 PUSH4 0x8ACDCA5E EQ PUSH2 0x61F JUMPI DUP2 PUSH4 0x8C2281B0 EQ PUSH2 0x465 JUMPI DUP2 PUSH4 0xB42B2DA5 EQ PUSH2 0x446 JUMPI DUP2 PUSH4 0xBE03250B EQ PUSH2 0x427 JUMPI DUP2 PUSH4 0xD2FA0A08 EQ PUSH2 0x3EE JUMPI DUP2 PUSH4 0xDF9D58FF EQ PUSH2 0x1CB JUMPI POP DUP1 PUSH4 0xE2957DD1 EQ PUSH2 0x1AD JUMPI DUP1 PUSH4 0xE6FD48BC EQ PUSH2 0x18F JUMPI DUP1 PUSH4 0xE8C300EE EQ PUSH2 0x175 JUMPI DUP1 PUSH4 0xF41CB5D1 EQ PUSH2 0x157 JUMPI PUSH4 0xF8EF1E13 EQ PUSH2 0x138 JUMPI PUSH1 0x0 DUP1 REVERT JUMPDEST CALLVALUE PUSH2 0x153 JUMPI DUP2 PUSH1 0x3 NOT CALLDATASIZE ADD SLT PUSH2 0x153 JUMPI PUSH1 0x20 SWAP2 SLOAD SWAP1 MLOAD SWAP1 DUP2 MSTORE RETURN JUMPDEST POP DUP1 REVERT JUMPDEST POP CALLVALUE PUSH2 0x153 JUMPI DUP2 PUSH1 0x3 NOT CALLDATASIZE ADD SLT PUSH2 0x153 JUMPI PUSH1 0x20 SWAP1 PUSH1 0x8 SLOAD SWAP1 MLOAD SWAP1 DUP2 MSTORE RETURN JUMPDEST POP CALLVALUE PUSH2 0x153 JUMPI DUP2 PUSH1 0x3 NOT CALLDATASIZE ADD SLT PUSH2 0x153 JUMPI MLOAD SWAP1 DUP2 MSTORE PUSH1 0x20 SWAP1 RETURN JUMPDEST POP CALLVALUE PUSH2 0x153 JUMPI DUP2 PUSH1 0x3 NOT CALLDATASIZE ADD SLT PUSH2 0x153 JUMPI PUSH1 0x20 SWAP1 PUSH1 0x6 SLOAD SWAP1 MLOAD SWAP1 DUP2 MSTORE RETURN JUMPDEST POP CALLVALUE PUSH2 0x153 JUMPI DUP2 PUSH1 0x3 NOT CALLDATASIZE ADD SLT PUSH2 0x153 JUMPI PUSH1 0x20 SWAP1 PUSH1 0x9 SLOAD SWAP1 MLOAD SWAP1 DUP2 MSTORE RETURN JUMPDEST SWAP1 POP CALLVALUE PUSH2 0x3EA JUMPI DUP2 PUSH1 0x3 NOT CALLDATASIZE ADD SLT PUSH2 0x3EA JUMPI DUP1 CALLDATALOAD PUSH1 0x24 SWAP4 DUP5 CALLDATALOAD SWAP1 PUSH2 0x209 PUSH1 0xFF PUSH1 0xB SLOAD PUSH2 0x203 PUSH1 0x1 DUP1 PUSH1 0xA0 SHL SUB DUP3 PUSH1 0x8 SHR AND CALLER EQ PUSH2 0xD6C JUMP JUMPDEST AND PUSH2 0xDA8 JUMP JUMPDEST PUSH1 0xFF DUP5 SLOAD AND PUSH1 0x5 DUP2 LT ISZERO PUSH2 0x3D8 JUMPI PUSH1 0x3 EQ PUSH2 0x3A2 JUMPI PUSH1 0x3 SLOAD DUP3 GT PUSH2 0x370 JUMPI DUP1 SLOAD DUP4 LT PUSH2 0x337 JUMPI PUSH2 0x238 DUP3 PUSH2 0xEAD JUMP JUMPDEST DUP1 DUP3 MSTORE PUSH1 0x20 SWAP7 PUSH1 0x5 DUP9 MSTORE PUSH1 0xFF DUP8 DUP5 KECCAK256 SLOAD AND PUSH2 0x300 JUMPI POP SWAP2 DUP2 DUP4 DUP9 SWAP7 SWAP5 DUP8 SWAP7 SWAP5 MSTORE PUSH1 0x5 DUP7 MSTORE PUSH32 0xA62C35DFC0FF11D3713608EBCDC5C5D1952C7702620F2C46C22950F7B70D5797 DUP9 DUP1 DUP5 KECCAK256 PUSH1 0xFF NOT SWAP1 PUSH1 0x1 DUP3 DUP3 SLOAD AND OR SWAP1 SSTORE DUP4 PUSH1 0x7 SSTORE PUSH2 0x29E DUP8 PUSH1 0x8 SLOAD PUSH2 0xCC8 JUMP JUMPDEST PUSH1 0x8 SSTORE DUP8 SLOAD AND SWAP6 DUP7 DUP9 SSTORE DUP2 MLOAD SWAP1 DUP2 MSTORE DUP6 DUP10 DUP3 ADD MSTORE LOG2 DUP7 MLOAD SWAP1 DUP2 MSTORE PUSH1 0x0 DUP1 MLOAD PUSH1 0x20 PUSH2 0xF91 DUP4 CODECOPY DUP2 MLOAD SWAP2 MSTORE SWAP6 DUP7 SWAP2 LOG1 PUSH1 0x3 SLOAD GT ISZERO PUSH2 0x2ED JUMPI JUMPDEST DUP3 DUP6 PUSH2 0x2EB PUSH2 0x2E2 PUSH2 0xCEB JUMP JUMPDEST SWAP2 MLOAD DUP1 SWAP3 PUSH2 0xC98 JUMP JUMPDEST RETURN JUMPDEST DUP2 OR DUP2 SSTORE DUP4 MLOAD SWAP1 DUP2 MSTORE LOG1 CODESIZE DUP3 DUP2 DUP1 PUSH2 0x2D5 JUMP JUMPDEST DUP6 PUSH1 0x13 PUSH1 0x64 SWAP3 DUP11 DUP11 MLOAD SWAP4 PUSH3 0x461BCD PUSH1 0xE5 SHL DUP6 MSTORE DUP5 ADD MSTORE DUP3 ADD MSTORE PUSH19 0x14195C9A5BD908185B1C9958591E481C185A59 PUSH1 0x6A SHL PUSH1 0x44 DUP3 ADD MSTORE REVERT JUMPDEST DUP5 MLOAD PUSH3 0x461BCD PUSH1 0xE5 SHL DUP2 MSTORE PUSH1 0x20 DUP2 DUP7 ADD MSTORE PUSH1 0x14 DUP2 DUP9 ADD MSTORE PUSH20 0x125B9CDD59999A58DA595B9D081C185E5B595B9D PUSH1 0x62 SHL PUSH1 0x44 DUP3 ADD MSTORE PUSH1 0x64 SWAP1 REVERT JUMPDEST DUP5 MLOAD PUSH3 0x461BCD PUSH1 0xE5 SHL DUP2 MSTORE PUSH1 0x20 DUP2 DUP7 ADD MSTORE PUSH1 0xD DUP2 DUP9 ADD MSTORE PUSH13 0x1319585CD948195E1C1A5C9959 PUSH1 0x9A SHL PUSH1 0x44 DUP3 ADD MSTORE PUSH1 0x64 SWAP1 REVERT JUMPDEST DUP5 MLOAD PUSH3 0x461BCD PUSH1 0xE5 SHL DUP2 MSTORE PUSH1 0x20 DUP2 DUP7 ADD MSTORE PUSH1 0x11 DUP2 DUP9 ADD MSTORE PUSH17 0x105B1C9958591E48191959985D5B1D1959 PUSH1 0x7A SHL PUSH1 0x44 DUP3 ADD MSTORE PUSH1 0x64 SWAP1 REVERT JUMPDEST PUSH4 0x4E487B71 PUSH1 0xE0 SHL DUP3 MSTORE PUSH1 0x21 DUP6 MSTORE DUP7 DUP3 REVERT JUMPDEST DUP3 DUP1 REVERT JUMPDEST SWAP2 SWAP1 POP CALLVALUE PUSH2 0x3EA JUMPI PUSH1 0x20 CALLDATASIZE PUSH1 0x3 NOT ADD SLT PUSH2 0x3EA JUMPI DUP2 SLOAD PUSH1 0xFF NOT AND DUP3 OR DUP3 SSTORE MLOAD SWAP1 DUP2 MSTORE PUSH1 0x0 DUP1 MLOAD PUSH1 0x20 PUSH2 0xF91 DUP4 CODECOPY DUP2 MLOAD SWAP2 MSTORE SWAP1 PUSH1 0x20 SWAP1 LOG1 DUP1 RETURN JUMPDEST POP POP CALLVALUE PUSH2 0x153 JUMPI DUP2 PUSH1 0x3 NOT CALLDATASIZE ADD SLT PUSH2 0x153 JUMPI PUSH1 0x20 SWAP1 PUSH1 0x7 SLOAD SWAP1 MLOAD SWAP1 DUP2 MSTORE RETURN JUMPDEST POP POP CALLVALUE PUSH2 0x153 JUMPI DUP2 PUSH1 0x3 NOT CALLDATASIZE ADD SLT PUSH2 0x153 JUMPI PUSH1 0x20 SWAP1 PUSH1 0x3 SLOAD SWAP1 MLOAD SWAP1 DUP2 MSTORE RETURN JUMPDEST SWAP1 POP DUP3 CALLVALUE PUSH2 0x5F6 JUMPI PUSH1 0x20 CALLDATASIZE PUSH1 0x3 NOT ADD SLT PUSH2 0x5F6 JUMPI DUP2 CALLDATALOAD SWAP2 PUSH2 0x494 PUSH1 0x1 DUP1 PUSH1 0xA0 SHL SUB PUSH1 0xB SLOAD PUSH1 0x8 SHR AND CALLER EQ PUSH2 0xD6C JUMP JUMPDEST DUP4 MLOAD PUSH4 0x1EBF1A55 PUSH1 0xE0 SHL DUP2 MSTORE DUP2 DUP2 ADD DUP5 SWAP1 MSTORE SWAP2 PUSH1 0x80 DUP4 PUSH1 0x24 DUP2 ADDRESS GAS STATICCALL SWAP2 DUP3 ISZERO PUSH2 0x613 JUMPI DUP2 SWAP5 DUP3 SWAP5 DUP4 SWAP5 PUSH2 0x591 JUMPI JUMPDEST POP DUP2 SLOAD SWAP4 PUSH1 0xFF DUP6 AND SWAP5 PUSH1 0x5 DUP8 LT ISZERO PUSH2 0x57E JUMPI PUSH1 0xFF NOT AND PUSH1 0xFF DUP8 AND OR DUP4 SSTORE DUP4 SWAP2 PUSH1 0x2 DUP8 EQ DUP1 ISZERO PUSH2 0x571 JUMPI JUMPDEST PUSH2 0x55A JUMPI JUMPDEST POP POP PUSH2 0x547 JUMPI PUSH1 0x5 DUP4 LT ISZERO PUSH2 0x547 JUMPI POP POP SWAP1 DUP1 PUSH2 0x2EB SWAP3 SUB PUSH2 0x524 JUMPI JUMPDEST PUSH2 0x51A DUP5 MLOAD DUP1 SWAP5 PUSH2 0xC98 JUMP JUMPDEST PUSH1 0x20 DUP4 ADD SWAP1 PUSH2 0xCBB JUMP JUMPDEST PUSH1 0x0 DUP1 MLOAD PUSH1 0x20 PUSH2 0xF91 DUP4 CODECOPY DUP2 MLOAD SWAP2 MSTORE PUSH1 0x20 DUP6 MLOAD PUSH2 0x541 DUP2 DUP6 PUSH2 0xCBB JUMP JUMPDEST LOG1 PUSH2 0x50E JUMP JUMPDEST PUSH4 0x4E487B71 PUSH1 0xE0 SHL DUP3 MSTORE PUSH1 0x21 SWAP1 MSTORE PUSH1 0x24 SWAP1 REVERT JUMPDEST PUSH2 0x564 SWAP1 DUP3 PUSH2 0xEFA JUMP JUMPDEST PUSH1 0x9 SSTORE PUSH1 0xA SSTORE DUP8 DUP1 PUSH2 0x4F1 JUMP JUMPDEST POP DUP5 SWAP3 POP PUSH1 0x3 DUP8 EQ PUSH2 0x4EC JUMP JUMPDEST PUSH4 0x4E487B71 PUSH1 0xE0 SHL DUP6 MSTORE PUSH1 0x21 DUP5 MSTORE PUSH1 0x24 DUP6 REVERT JUMPDEST SWAP6 POP SWAP3 POP SWAP3 POP PUSH1 0x80 RETURNDATASIZE DUP2 GT PUSH2 0x60C JUMPI JUMPDEST PUSH1 0x1F DUP2 ADD PUSH1 0x1F NOT AND DUP6 ADD PUSH8 0xFFFFFFFFFFFFFFFF DUP2 GT DUP7 DUP3 LT OR PUSH2 0x5F9 JUMPI PUSH1 0x80 SWAP2 DUP7 SWAP2 DUP9 MSTORE DUP2 ADD SUB SLT PUSH2 0x5F6 JUMPI DUP4 MLOAD SWAP3 PUSH1 0x9 DUP5 LT ISZERO PUSH2 0x153 JUMPI PUSH1 0x20 DUP6 ADD MLOAD SWAP5 PUSH1 0x5 DUP7 LT ISZERO PUSH2 0x3EA JUMPI PUSH1 0x60 ADD MLOAD SWAP4 SWAP5 SWAP4 SWAP3 DUP8 PUSH2 0x4C2 JUMP JUMPDEST DUP1 REVERT JUMPDEST PUSH4 0x4E487B71 PUSH1 0xE0 SHL DUP4 MSTORE PUSH1 0x41 DUP6 MSTORE PUSH1 0x24 DUP4 REVERT JUMPDEST POP RETURNDATASIZE PUSH2 0x5A1 JUMP JUMPDEST POP DUP5 MLOAD SWAP1 RETURNDATASIZE SWAP1 DUP3 RETURNDATACOPY RETURNDATASIZE SWAP1 REVERT JUMPDEST DUP3 DUP5 CALLVALUE PUSH2 0x5F6 JUMPI DUP1 PUSH1 0x3 NOT CALLDATASIZE ADD SLT PUSH2 0x5F6 JUMPI POP PUSH2 0x2EB PUSH1 0xFF PUSH1 0x20 SWAP4 SLOAD AND SWAP2 MLOAD DUP1 SWAP3 PUSH2 0xCBB JUMP JUMPDEST POP POP CALLVALUE PUSH2 0x153 JUMPI DUP2 PUSH1 0x3 NOT CALLDATASIZE ADD SLT PUSH2 0x153 JUMPI PUSH1 0xB SLOAD SWAP1 MLOAD PUSH1 0x8 SWAP2 SWAP1 SWAP2 SHR PUSH1 0x1 PUSH1 0x1 PUSH1 0xA0 SHL SUB AND DUP2 MSTORE PUSH1 0x20 SWAP1 RETURN JUMPDEST SWAP1 POP CALLVALUE PUSH2 0x3EA JUMPI DUP3 PUSH1 0x3 NOT CALLDATASIZE ADD SLT PUSH2 0x3EA JUMPI PUSH1 0x20 SWAP3 POP PUSH2 0x6A0 PUSH1 0x1 DUP1 PUSH1 0xA0 SHL SUB PUSH1 0xB SLOAD PUSH1 0x8 SHR AND CALLER EQ PUSH2 0xD6C JUMP JUMPDEST PUSH1 0x3 PUSH1 0xFF NOT DUP3 SLOAD AND OR SWAP1 SSTORE PUSH1 0x0 DUP1 MLOAD PUSH1 0x20 PUSH2 0xF91 DUP4 CODECOPY DUP2 MLOAD SWAP2 MSTORE DUP3 DUP3 MLOAD PUSH1 0x3 DUP2 MSTORE LOG1 MLOAD PUSH1 0x1 DUP2 MSTORE RETURN JUMPDEST POP POP CALLVALUE PUSH2 0x153 JUMPI DUP2 PUSH1 0x3 NOT CALLDATASIZE ADD SLT PUSH2 0x153 JUMPI PUSH1 0x20 SWAP1 PUSH2 0x2EB PUSH2 0x2E2 PUSH2 0xCEB JUMP JUMPDEST SWAP2 SWAP1 POP CALLVALUE PUSH2 0x3EA JUMPI PUSH1 0x20 SWAP2 DUP3 PUSH1 0x3 NOT CALLDATASIZE ADD SLT PUSH2 0x9B2 JUMPI DUP1 CALLDATALOAD SWAP2 PUSH8 0xFFFFFFFFFFFFFFFF DUP1 DUP5 GT PUSH2 0x9AE JUMPI CALLDATASIZE PUSH1 0x23 DUP6 ADD SLT ISZERO PUSH2 0x9AE JUMPI DUP4 DUP4 ADD CALLDATALOAD SWAP1 DUP2 GT PUSH2 0x9AE JUMPI DUP4 ADD SWAP1 PUSH1 0x24 SWAP3 CALLDATASIZE DUP5 DUP5 ADD GT PUSH2 0x973 JUMPI PUSH1 0xB SLOAD SWAP3 PUSH1 0xFF DUP5 AND PUSH2 0x977 JUMPI DUP6 PUSH1 0xC0 SWAP2 SUB SLT PUSH2 0x973 JUMPI DUP4 DUP6 ADD CALLDATALOAD SWAP6 DUP8 PUSH1 0x44 SWAP5 DUP6 DUP9 ADD CALLDATALOAD SWAP4 PUSH1 0x64 DUP1 DUP11 ADD CALLDATALOAD SWAP8 PUSH1 0x84 DUP12 ADD CALLDATALOAD SWAP10 PUSH1 0xC4 PUSH1 0xA4 DUP14 ADD CALLDATALOAD SWAP13 ADD CALLDATALOAD PUSH1 0x1 DUP1 PUSH1 0xA0 SHL SUB SWAP1 DUP2 DUP2 AND DUP2 SUB PUSH2 0x96F JUMPI DUP14 SWAP8 DUP16 SWAP2 PUSH2 0x100 PUSH1 0x1 PUSH1 0xA8 SHL SUB SWAP1 PUSH1 0x8 SHL AND SWAP9 PUSH1 0x3 SSTORE DUP14 PUSH1 0x2 SSTORE DUP11 PUSH1 0x1 SSTORE SSTORE DUP14 ISZERO PUSH2 0x941 JUMPI PUSH3 0x24EA00 DUP10 LT PUSH2 0x90D JUMPI PUSH2 0x100 PUSH1 0x1 PUSH1 0xA8 SHL SUB NOT DUP7 AND DUP8 OR PUSH1 0x8 SHR AND ISZERO PUSH2 0x8DC JUMPI PUSH2 0x12C DUP11 ADD DUP1 DUP12 GT PUSH2 0x8CA JUMPI TIMESTAMP GT PUSH2 0x88C JUMPI DUP10 DUP13 GT ISZERO PUSH2 0x84E JUMPI POP DUP13 PUSH32 0xC20A846A45DDAD517008BE57A77685CA59D2C0DBDE4D3782941AEC592DB85A0F PUSH1 0xA0 DUP15 DUP15 DUP15 DUP15 DUP15 DUP15 DUP15 PUSH1 0x1 DUP16 DUP16 DUP16 DUP8 PUSH1 0x6 SSTORE PUSH1 0xFF NOT DUP2 SLOAD AND SWAP1 SSTORE PUSH11 0xFFFFFFFFFFFFFFFFFFFFFF PUSH1 0xA8 SHL AND OR OR PUSH1 0xB SSTORE DUP3 MLOAD SWAP7 DUP8 MSTORE DUP7 ADD MSTORE DUP5 ADD MSTORE PUSH1 0x60 DUP4 ADD MSTORE PUSH1 0x80 DUP3 ADD MSTORE LOG1 DUP1 RETURN JUMPDEST DUP4 SWAP2 PUSH1 0x1A PUSH32 0x4C6561736520656E64206265666F726520666972737420647565000000000000 SWAP3 DUP10 DUP13 MLOAD SWAP6 PUSH3 0x461BCD PUSH1 0xE5 SHL DUP8 MSTORE DUP7 ADD MSTORE DUP5 ADD MSTORE DUP3 ADD MSTORE REVERT JUMPDEST DUP4 SWAP2 PUSH1 0x1E PUSH32 0x466972737420647565206461746520746F6F2066617220696E20706173740000 SWAP3 DUP10 DUP13 MLOAD SWAP6 PUSH3 0x461BCD PUSH1 0xE5 SHL DUP8 MSTORE DUP7 ADD MSTORE DUP5 ADD MSTORE DUP3 ADD MSTORE REVERT JUMPDEST POP PUSH4 0x4E487B71 PUSH1 0xE0 SHL DUP15 MSTORE PUSH1 0x11 DUP5 MSTORE DUP14 REVERT JUMPDEST DUP4 SWAP2 PUSH1 0x10 PUSH16 0x496E76616C6964207265676973747279 PUSH1 0x80 SHL SWAP3 DUP10 DUP13 MLOAD SWAP6 PUSH3 0x461BCD PUSH1 0xE5 SHL DUP8 MSTORE DUP7 ADD MSTORE DUP5 ADD MSTORE DUP3 ADD MSTORE REVERT JUMPDEST POP DUP4 SWAP2 PUSH1 0x12 PUSH18 0x125B9D195C9D985B081D1BDBC81CDA1BDC9D PUSH1 0x72 SHL SWAP3 DUP10 DUP13 MLOAD SWAP6 PUSH3 0x461BCD PUSH1 0xE5 SHL DUP8 MSTORE DUP7 ADD MSTORE DUP5 ADD MSTORE DUP3 ADD MSTORE REVERT JUMPDEST POP DUP4 SWAP2 PUSH1 0xC PUSH12 0x125B9D985B1A59081C995B9D PUSH1 0xA2 SHL SWAP3 DUP10 DUP13 MLOAD SWAP6 PUSH3 0x461BCD PUSH1 0xE5 SHL DUP8 MSTORE DUP7 ADD MSTORE DUP5 ADD MSTORE DUP3 ADD MSTORE REVERT JUMPDEST DUP8 DUP1 REVERT JUMPDEST DUP7 DUP1 REVERT JUMPDEST POP PUSH1 0x13 DUP5 DUP8 PUSH1 0x64 SWAP5 MLOAD SWAP4 PUSH3 0x461BCD PUSH1 0xE5 SHL DUP6 MSTORE DUP5 ADD MSTORE DUP3 ADD MSTORE PUSH19 0x105B1C9958591E481A5B9A5D1A585B1A5E9959 PUSH1 0x6A SHL PUSH1 0x44 DUP3 ADD MSTORE REVERT JUMPDEST DUP6 DUP1 REVERT JUMPDEST DUP4 DUP1 REVERT JUMPDEST SWAP1 POP CALLVALUE PUSH2 0x3EA JUMPI PUSH1 0x20 CALLDATASIZE PUSH1 0x3 NOT ADD SLT PUSH2 0x3EA JUMPI DUP2 PUSH1 0x20 SWAP4 PUSH1 0xFF SWAP3 CALLDATALOAD DUP2 MSTORE PUSH1 0x5 DUP6 MSTORE KECCAK256 SLOAD AND SWAP1 MLOAD SWAP1 ISZERO ISZERO DUP2 MSTORE RETURN JUMPDEST POP POP CALLVALUE PUSH2 0x153 JUMPI DUP2 PUSH1 0x3 NOT CALLDATASIZE ADD SLT PUSH2 0x153 JUMPI SWAP1 PUSH1 0x60 SWAP2 PUSH2 0xA1B PUSH2 0xA05 TIMESTAMP PUSH2 0xEAD JUMP JUMPDEST PUSH2 0xA15 PUSH1 0x6 SLOAD SWAP2 PUSH1 0x1 SLOAD SWAP1 PUSH2 0xD59 JUMP JUMPDEST SWAP1 PUSH2 0xCC8 JUMP JUMPDEST SWAP2 SLOAD SWAP1 PUSH1 0x3 SLOAD SWAP2 DUP2 MLOAD SWAP4 DUP5 MSTORE PUSH1 0x20 DUP5 ADD MSTORE DUP3 ADD MSTORE RETURN JUMPDEST DUP4 DUP4 CALLVALUE PUSH2 0x153 JUMPI PUSH1 0x20 CALLDATASIZE PUSH1 0x3 NOT ADD SLT PUSH2 0x153 JUMPI DUP3 CALLDATALOAD SWAP1 DUP3 PUSH1 0xE0 DUP3 MLOAD PUSH2 0xA55 DUP2 PUSH2 0xD19 JUMP JUMPDEST DUP3 DUP2 MSTORE DUP3 PUSH1 0x20 DUP3 ADD MSTORE DUP3 DUP5 DUP3 ADD MSTORE DUP3 PUSH1 0x60 DUP3 ADD MSTORE DUP3 PUSH1 0x80 DUP3 ADD MSTORE DUP3 PUSH1 0xA0 DUP3 ADD MSTORE DUP3 PUSH1 0xC0 DUP3 ADD MSTORE ADD MSTORE PUSH2 0xA86 DUP3 PUSH2 0xEAD JUMP JUMPDEST PUSH2 0xA98 PUSH1 0x6 SLOAD PUSH2 0xA15 PUSH1 0x1 SLOAD DUP5 PUSH2 0xD59 JUMP JUMPDEST SWAP1 DUP5 MSTORE PUSH1 0x5 PUSH1 0x20 MSTORE PUSH1 0xFF DUP3 DUP6 KECCAK256 SLOAD AND SWAP4 DUP1 SWAP4 DUP6 ISZERO SWAP4 DUP5 DUP1 SWAP6 PUSH2 0xBA8 JUMPI JUMPDEST PUSH2 0xB91 JUMPI JUMPDEST DUP3 SLOAD SWAP7 PUSH1 0x2 SLOAD SWAP5 PUSH3 0x15180 DUP1 DUP8 MUL SWAP1 DUP8 DUP3 DIV EQ DUP8 ISZERO OR ISZERO PUSH2 0xB7E JUMPI PUSH2 0x100 SWAP11 POP PUSH2 0xAE4 SWAP1 DUP3 PUSH2 0xCC8 JUMP JUMPDEST SWAP2 ISZERO PUSH2 0xB76 JUMPI DUP1 DUP10 SWAP5 JUMPDEST LT ISZERO SWAP7 DUP8 PUSH2 0xB6E JUMPI JUMPDEST POP DUP3 MLOAD SWAP6 PUSH2 0xB04 DUP8 PUSH2 0xD19 JUMP JUMPDEST DUP10 DUP8 MSTORE PUSH1 0x20 DUP8 ADD SWAP2 DUP3 MSTORE DUP4 DUP8 ADD SWAP3 DUP4 MSTORE PUSH1 0x60 DUP8 ADD SWAP5 DUP6 MSTORE PUSH1 0x80 DUP8 ADD SWAP6 DUP7 MSTORE PUSH1 0xE0 PUSH1 0xA0 DUP9 ADD SWAP8 DUP11 DUP10 MSTORE PUSH1 0xC0 DUP2 ADD SWAP10 ISZERO ISZERO DUP11 MSTORE ADD SWAP9 GT DUP9 MSTORE DUP3 MLOAD SWAP9 DUP10 MSTORE MLOAD PUSH1 0x20 DUP10 ADD MSTORE MLOAD SWAP1 DUP8 ADD MSTORE MLOAD PUSH1 0x60 DUP7 ADD MSTORE MLOAD PUSH1 0x80 DUP6 ADD MSTORE MLOAD PUSH1 0xA0 DUP5 ADD MSTORE MLOAD ISZERO ISZERO PUSH1 0xC0 DUP4 ADD MSTORE MLOAD ISZERO ISZERO PUSH1 0xE0 DUP3 ADD MSTORE RETURN JUMPDEST SWAP7 POP DUP11 PUSH2 0xAF7 JUMP JUMPDEST DUP1 DUP6 SWAP5 PUSH2 0xAEE JUMP JUMPDEST PUSH4 0x4E487B71 PUSH1 0xE0 SHL DUP7 MSTORE PUSH1 0x11 DUP12 MSTORE PUSH1 0x24 DUP7 REVERT JUMPDEST SWAP5 POP PUSH3 0x15180 PUSH2 0xBA1 DUP5 DUP4 PUSH2 0xD4C JUMP JUMPDEST DIV SWAP5 PUSH2 0xABA JUMP JUMPDEST POP DUP4 DUP3 GT PUSH2 0xAB5 JUMP JUMPDEST SWAP1 POP DUP3 CALLVALUE PUSH2 0x5F6 JUMPI PUSH1 0x20 CALLDATASIZE PUSH1 0x3 NOT ADD SLT PUSH2 0x5F6 JUMPI PUSH1 0x80 PUSH2 0xBF1 DUP5 PUSH2 0xBD5 DUP6 CALLDATALOAD PUSH2 0xDE6 JUMP JUMPDEST SWAP4 SWAP2 PUSH2 0xBE7 DUP4 SWAP7 SWAP3 SWAP5 SWAP7 MLOAD DUP1 SWAP8 PUSH2 0xC98 JUMP JUMPDEST PUSH1 0x20 DUP7 ADD SWAP1 PUSH2 0xCBB JUMP JUMPDEST DUP4 ADD MSTORE PUSH1 0x60 DUP3 ADD MSTORE RETURN JUMPDEST POP POP CALLVALUE PUSH2 0x153 JUMPI DUP2 PUSH1 0x3 NOT CALLDATASIZE ADD SLT PUSH2 0x153 JUMPI PUSH1 0x20 SWAP1 PUSH1 0x1 SLOAD SWAP1 MLOAD SWAP1 DUP2 MSTORE RETURN JUMPDEST POP POP CALLVALUE PUSH2 0x153 JUMPI DUP2 PUSH1 0x3 NOT CALLDATASIZE ADD SLT PUSH2 0x153 JUMPI PUSH1 0x20 SWAP1 PUSH1 0xFF PUSH1 0xB SLOAD AND SWAP1 MLOAD SWAP1 ISZERO ISZERO DUP2 MSTORE RETURN JUMPDEST POP POP CALLVALUE PUSH2 0x153 JUMPI DUP2 PUSH1 0x3 NOT CALLDATASIZE ADD SLT PUSH2 0x153 JUMPI PUSH1 0x20 SWAP1 PUSH1 0x2 SLOAD SWAP1 MLOAD SWAP1 DUP2 MSTORE RETURN JUMPDEST POP POP CALLVALUE PUSH2 0x153 JUMPI DUP2 PUSH1 0x3 NOT CALLDATASIZE ADD SLT PUSH2 0x153 JUMPI PUSH1 0x20 SWAP1 PUSH1 0xA SLOAD SWAP1 MLOAD SWAP1 DUP2 MSTORE RETURN JUMPDEST DUP5 SWAP1 CALLVALUE PUSH2 0x153 JUMPI DUP2 PUSH1 0x3 NOT CALLDATASIZE ADD SLT PUSH2 0x153 JUMPI PUSH1 0x20 SWAP1 PUSH1 0x8 SLOAD DUP2 MSTORE RETURN JUMPDEST SWAP1 PUSH1 0x9 DUP3 LT ISZERO PUSH2 0xCA5 JUMPI MSTORE JUMP JUMPDEST PUSH4 0x4E487B71 PUSH1 0xE0 SHL PUSH1 0x0 MSTORE PUSH1 0x21 PUSH1 0x4 MSTORE PUSH1 0x24 PUSH1 0x0 REVERT JUMPDEST SWAP1 PUSH1 0x5 DUP3 LT ISZERO PUSH2 0xCA5 JUMPI MSTORE JUMP JUMPDEST SWAP2 SWAP1 DUP3 ADD DUP1 SWAP3 GT PUSH2 0xCD5 JUMPI JUMP JUMPDEST PUSH4 0x4E487B71 PUSH1 0xE0 SHL PUSH1 0x0 MSTORE PUSH1 0x11 PUSH1 0x4 MSTORE PUSH1 0x24 PUSH1 0x0 REVERT JUMPDEST PUSH1 0xFF PUSH1 0x4 SLOAD AND PUSH1 0x5 DUP2 LT ISZERO PUSH2 0xCA5 JUMPI PUSH1 0x3 DUP2 EQ PUSH2 0xD13 JUMPI PUSH1 0x4 EQ PUSH2 0xD0E JUMPI PUSH1 0x2 SWAP1 JUMP JUMPDEST PUSH1 0x8 SWAP1 JUMP JUMPDEST POP PUSH1 0x4 SWAP1 JUMP JUMPDEST PUSH2 0x100 DUP2 ADD SWAP1 DUP2 LT PUSH8 0xFFFFFFFFFFFFFFFF DUP3 GT OR PUSH2 0xD36 JUMPI PUSH1 0x40 MSTORE JUMP JUMPDEST PUSH4 0x4E487B71 PUSH1 0xE0 SHL PUSH1 0x0 MSTORE PUSH1 0x41 PUSH1 0x4 MSTORE PUSH1 0x24 PUSH1 0x0 REVERT JUMPDEST SWAP2 SWAP1 DUP3 SUB SWAP2 DUP3 GT PUSH2 0xCD5 JUMPI JUMP JUMPDEST DUP2 DUP2 MUL SWAP3 SWAP2 DUP2 ISZERO SWAP2 DUP5 DIV EQ OR ISZERO PUSH2 0xCD5 JUMPI JUMP JUMPDEST ISZERO PUSH2 0xD73 JUMPI JUMP JUMPDEST PUSH1 0x40 MLOAD PUSH3 0x461BCD PUSH1 0xE5 SHL DUP2 MSTORE PUSH1 0x20 PUSH1 0x4 DUP3 ADD MSTORE PUSH1 0xD PUSH1 0x24 DUP3 ADD MSTORE PUSH13 0x4F6E6C79207265676973747279 PUSH1 0x98 SHL PUSH1 0x44 DUP3 ADD MSTORE PUSH1 0x64 SWAP1 REVERT JUMPDEST ISZERO PUSH2 0xDAF JUMPI JUMP JUMPDEST PUSH1 0x40 MLOAD PUSH3 0x461BCD PUSH1 0xE5 SHL DUP2 MSTORE PUSH1 0x20 PUSH1 0x4 DUP3 ADD MSTORE PUSH1 0xF PUSH1 0x24 DUP3 ADD MSTORE PUSH15 0x139BDD081A5B9A5D1A585B1A5E9959 PUSH1 0x8A SHL PUSH1 0x44 DUP3 ADD MSTORE PUSH1 0x64 SWAP1 REVERT JUMPDEST PUSH2 0xDF4 PUSH1 0xFF PUSH1 0xB SLOAD AND PUSH2 0xDA8 JUMP JUMPDEST PUSH1 0x3 SLOAD DUP2 LT ISZERO PUSH2 0xE99 JUMPI PUSH2 0xE07 DUP2 PUSH2 0xEAD JUMP JUMPDEST PUSH2 0xE19 PUSH1 0x6 SLOAD PUSH2 0xA15 PUSH1 0x1 SLOAD DUP5 PUSH2 0xD59 JUMP JUMPDEST PUSH1 0x0 DUP3 DUP2 MSTORE PUSH1 0x5 PUSH1 0x20 MSTORE PUSH1 0xFF PUSH1 0x40 DUP3 KECCAK256 SLOAD AND PUSH2 0xE8E JUMPI DUP2 DUP5 GT ISZERO PUSH2 0xE86 JUMPI POP PUSH2 0xE46 PUSH3 0x15180 SWAP2 DUP5 PUSH2 0xD4C JUMP JUMPDEST DIV SWAP2 JUMPDEST DUP3 PUSH1 0x2 SLOAD DUP2 LT PUSH2 0xE79 JUMPI POP PUSH2 0xE60 PUSH1 0x2 SWAP2 DUP4 PUSH2 0xEFA JUMP JUMPDEST LT ISZERO PUSH2 0xE6F JUMPI PUSH1 0x2 SWAP3 DUP4 SWAP3 SWAP2 SWAP1 JUMP JUMPDEST PUSH1 0x4 SWAP3 PUSH1 0x3 SWAP3 SWAP2 SWAP1 JUMP JUMPDEST SWAP3 POP POP PUSH1 0x2 SWAP3 PUSH1 0x1 SWAP3 SWAP2 SWAP1 JUMP JUMPDEST SWAP1 POP SWAP2 PUSH2 0xE49 JUMP JUMPDEST SWAP3 POP POP PUSH1 0x2 SWAP3 DUP3 SWAP2 SWAP1 JUMP JUMPDEST PUSH2 0xEA2 SWAP1 PUSH2 0xEAD JUMP JUMPDEST PUSH1 0x8 SWAP2 PUSH1 0x4 SWAP2 PUSH1 0x0 SWAP2 JUMP JUMPDEST PUSH1 0x6 SLOAD DUP1 DUP3 LT PUSH2 0xEE4 JUMPI PUSH2 0xEC0 SWAP2 PUSH2 0xD4C JUMP JUMPDEST PUSH1 0x1 SLOAD SWAP1 DUP2 ISZERO PUSH2 0xECE JUMPI DIV SWAP1 JUMP JUMPDEST PUSH4 0x4E487B71 PUSH1 0xE0 SHL PUSH1 0x0 MSTORE PUSH1 0x12 PUSH1 0x4 MSTORE PUSH1 0x24 PUSH1 0x0 REVERT JUMPDEST POP POP PUSH1 0x0 SWAP1 JUMP JUMPDEST PUSH1 0x0 NOT DUP2 EQ PUSH2 0xCD5 JUMPI PUSH1 0x1 ADD SWAP1 JUMP JUMPDEST PUSH1 0x2 SLOAD PUSH1 0x6 SLOAD PUSH1 0x1 SLOAD PUSH1 0x0 SWAP6 SWAP5 DUP7 SWAP3 SWAP1 SWAP2 SWAP1 DUP4 JUMPDEST DUP7 DUP2 GT ISZERO PUSH2 0xF1F JUMPI POP POP POP POP POP POP POP JUMP JUMPDEST DUP1 DUP6 MSTORE PUSH1 0x5 PUSH1 0x20 MSTORE PUSH1 0xFF PUSH1 0x40 DUP7 KECCAK256 SLOAD AND PUSH2 0xF66 JUMPI DUP6 PUSH2 0xF47 PUSH2 0xF41 DUP6 DUP5 PUSH2 0xD59 JUMP JUMPDEST DUP5 PUSH2 0xCC8 JUMP JUMPDEST DUP1 DUP7 GT ISZERO PUSH2 0xF89 JUMPI PUSH2 0xF5D PUSH3 0x15180 SWAP2 DUP8 PUSH2 0xD4C JUMP JUMPDEST DIV JUMPDEST LT ISZERO PUSH2 0xF74 JUMPI JUMPDEST PUSH2 0xF6F SWAP1 PUSH2 0xEEB JUMP JUMPDEST PUSH2 0xF0E JUMP JUMPDEST SWAP8 PUSH2 0xF81 PUSH2 0xF6F SWAP2 PUSH2 0xEEB JUMP JUMPDEST SWAP9 SWAP1 POP PUSH2 0xF66 JUMP JUMPDEST POP DUP6 PUSH2 0xF5F JUMP INVALID PUSH25 0x4218E19C0007F03F5C1F12E90BDA7D4631ACFBD176A7D38553 0xC 0x4B 0x1F 0x49 0x4B SELFBALANCE LOG2 PUSH5 0x6970667358 0x22 SLT KECCAK256 DUP15 GASPRICE 0x1F LOG1 0xE6 0xC8 BYTE ADDMOD GT DUP2 0x28 0xEF 0xBA PUSH20 0x2939428F2D589531E8058319B8E5F239C5756473 PUSH16 0x6C634300081400330000000000000000 "
        },
        "methodIdentifiers": {
          "evaluateDefault(uint256)": "8c2281b0",
          "forceDefault()": "4e7c13fe",
          "getAssetStatus()": "45615716",
          "getCashflowHealth()": "8acdca5e",
          "getExpectedPayment(uint256)": "26d3325d",
          "getRemainingPrincipal()": "e8c300ee",
          "getSchedule()": "26fadbe2",
          "getTotalReceived()": "0592a612",
          "gracePeriodDays()": "1348ed5e",
          "health()": "7633a22c",
          "initialize(bytes)": "439fab91",
          "initialized()": "158ef93e",
          "lastMissedPeriod()": "07c47e64",
          "lastPaidPeriod()": "be03250b",
          "leaseEndDate()": "b42b2da5",
          "markMatured(uint256)": "d2fa0a08",
          "missedPeriods()": "e2957dd1",
          "paymentInterval()": "1cc1cf46",
          "periodPaid(uint256)": "38f417ca",
          "previewDefault(uint256)": "1ebf1a55",
          "processPayment(uint256,uint256)": "df9d58ff",
          "registry()": "7b103999",
          "rentAmount()": "f8ef1e13",
          "startTimestamp()": "e6fd48bc",
          "totalAmountPaid()": "f41cb5d1"
        }
      }
    }
  }
}