{
  "contracts/RWAAssetRegistry.sol": {
    "RWAAssetRegistry": {
      "abi": [
        {
          "inputs": [
            {
              "internalType": "address",
              "name": "admin",
              "type": "address"
            }
          ],
          "stateMutability": "nonpayable",
          "type": "constructor"
        },
        {
          "inputs": [],
          "name": "AccessControlBadConfirmation",
          "type": "error"
        },
        {
          "inputs": [
            {
              "internalType": "address",
              "name": "account",
              "type": "address"
            },
            {
              "internalType": "bytes32",
              "name": "neededRole",
              "type": "bytes32"
            }
          ],
          "name": "AccessControlUnauthorizedAccount",
          "type": "error"
        },
        {
          "inputs": [],
          "name": "EnforcedPause",
          "type": "error"
        },
        {
          "inputs": [],
          "name": "ExpectedPause",
          "type": "error"
        },
        {
          "inputs": [],
          "name": "ReentrancyGuardReentrantCall",
          "type": "error"
        },
        {
          "anonymous": false,
          "inputs": [
            {
              "indexed": true,
              "internalType": "uint256",
              "name": "assetId",
              "type": "uint256"
            },
            {
              "indexed": false,
              "internalType": "uint256",
              "name": "activationDate",
              "type": "uint256"
            }
          ],
          "name": "AssetActivated",
          "type": "event"
        },
        {
          "anonymous": false,
          "inputs": [
            {
              "indexed": true,
              "internalType": "uint256",
              "name": "assetId",
              "type": "uint256"
            },
            {
              "indexed": true,
              "internalType": "address",
              "name": "by",
              "type": "address"
            },
            {
              "indexed": false,
              "internalType": "uint256",
              "name": "timestamp",
              "type": "uint256"
            }
          ],
          "name": "AssetPaused",
          "type": "event"
        },
        {
          "anonymous": false,
          "inputs": [
            {
              "indexed": true,
              "internalType": "uint256",
              "name": "assetId",
              "type": "uint256"
            },
            {
              "indexed": false,
              "internalType": "enum RWACommonTypes.AssetType",
              "name": "assetType",
              "type": "uint8"
            },
            {
              "indexed": true,
              "internalType": "address",
              "name": "originator",
              "type": "address"
            },
            {
              "indexed": false,
              "internalType": "uint256",
              "name": "assetValue",
              "type": "uint256"
            }
          ],
          "name": "AssetRegistered",
          "type": "event"
        },
        {
          "anonymous": false,
          "inputs": [
            {
              "indexed": true,
              "internalType": "uint256",
              "name": "assetId",
              "type": "uint256"
            },
            {
              "indexed": true,
              "internalType": "address",
              "name": "by",
              "type": "address"
            },
            {
              "indexed": false,
              "internalType": "uint256",
              "name": "timestamp",
              "type": "uint256"
            }
          ],
          "name": "AssetUnpaused",
          "type": "event"
        },
        {
          "anonymous": false,
          "inputs": [
            {
              "indexed": true,
              "internalType": "uint256",
              "name": "assetId",
              "type": "uint256"
            },
            {
              "indexed": false,
              "internalType": "address",
              "name": "logicContract",
              "type": "address"
            },
            {
              "indexed": false,
              "internalType": "address",
              "name": "vaultContract",
              "type": "address"
            },
            {
              "indexed": false,
              "internalType": "address",
              "name": "tokenContract",
              "type": "address"
            }
          ],
          "name": "ContractsLinked",
          "type": "event"
        },
        {
          "anonymous": false,
          "inputs": [
            {
              "indexed": true,
              "internalType": "uint256",
              "name": "assetId",
              "type": "uint256"
            },
            {
              "indexed": false,
              "internalType": "uint256",
              "name": "missedPayments",
              "type": "uint256"
            },
            {
              "indexed": false,
              "internalType": "uint256",
              "name": "daysInDefault",
              "type": "uint256"
            },
            {
              "indexed": false,
              "internalType": "uint256",
              "name": "timestamp",
              "type": "uint256"
            }
          ],
          "name": "DefaultTriggered",
          "type": "event"
        },
        {
          "anonymous": false,
          "inputs": [
            {
              "indexed": true,
              "internalType": "address",
              "name": "entity",
              "type": "address"
            }
          ],
          "name": "KYCVerified",
          "type": "event"
        },
        {
          "anonymous": false,
          "inputs": [
            {
              "indexed": true,
              "internalType": "uint256",
              "name": "assetId",
              "type": "uint256"
            },
            {
              "indexed": false,
              "internalType": "uint256",
              "name": "timestamp",
              "type": "uint256"
            }
          ],
          "name": "LiquidationCompleted",
          "type": "event"
        },
        {
          "anonymous": false,
          "inputs": [
            {
              "indexed": true,
              "internalType": "uint256",
              "name": "assetId",
              "type": "uint256"
            },
            {
              "indexed": false,
              "internalType": "uint256",
              "name": "daysInDefault",
              "type": "uint256"
            },
            {
              "indexed": false,
              "internalType": "uint256",
              "name": "timestamp",
              "type": "uint256"
            }
          ],
          "name": "LiquidationInitiated",
          "type": "event"
        },
        {
          "anonymous": false,
          "inputs": [
            {
              "indexed": true,
              "internalType": "address",
              "name": "oracle",
              "type": "address"
            }
          ],
          "name": "OracleAdded",
          "type": "event"
        },
        {
          "anonymous": false,
          "inputs": [
            {
              "indexed": false,
              "internalType": "address",
              "name": "account",
              "type": "address"
            }
          ],
          "name": "Paused",
          "type": "event"
        },
        {
          "anonymous": false,
          "inputs": [
            {
              "indexed": true,
              "internalType": "uint256",
              "name": "assetId",
              "type": "uint256"
            },
            {
              "indexed": false,
              "internalType": "uint256",
              "name": "paymentAmount",
              "type": "uint256"
            },
            {
              "indexed": false,
              "internalType": "uint256",
              "name": "accumulatedYield",
              "type": "uint256"
            },
            {
              "indexed": false,
              "internalType": "uint256",
              "name": "timestamp",
              "type": "uint256"
            }
          ],
          "name": "PaymentRecorded",
          "type": "event"
        },
        {
          "anonymous": false,
          "inputs": [
            {
              "indexed": true,
              "internalType": "address",
              "name": "recipient",
              "type": "address"
            }
          ],
          "name": "RecipientUnwhitelisted",
          "type": "event"
        },
        {
          "anonymous": false,
          "inputs": [
            {
              "indexed": true,
              "internalType": "address",
              "name": "recipient",
              "type": "address"
            }
          ],
          "name": "RecipientWhitelisted",
          "type": "event"
        },
        {
          "anonymous": false,
          "inputs": [
            {
              "indexed": true,
              "internalType": "bytes32",
              "name": "role",
              "type": "bytes32"
            },
            {
              "indexed": true,
              "internalType": "bytes32",
              "name": "previousAdminRole",
              "type": "bytes32"
            },
            {
              "indexed": true,
              "internalType": "bytes32",
              "name": "newAdminRole",
              "type": "bytes32"
            }
          ],
          "name": "RoleAdminChanged",
          "type": "event"
        },
        {
          "anonymous": false,
          "inputs": [
            {
              "indexed": true,
              "internalType": "bytes32",
              "name": "role",
              "type": "bytes32"
            },
            {
              "indexed": true,
              "internalType": "address",
              "name": "account",
              "type": "address"
            },
            {
              "indexed": true,
              "internalType": "address",
              "name": "sender",
              "type": "address"
            }
          ],
          "name": "RoleGranted",
          "type": "event"
        },
        {
          "anonymous": false,
          "inputs": [
            {
              "indexed": true,
              "internalType": "bytes32",
              "name": "role",
              "type": "bytes32"
            },
            {
              "indexed": true,
              "internalType": "address",
              "name": "account",
              "type": "address"
            },
            {
              "indexed": true,
              "internalType": "address",
              "name": "sender",
              "type": "address"
            }
          ],
          "name": "RoleRevoked",
          "type": "event"
        },
        {
          "anonymous": false,
          "inputs": [
            {
              "indexed": false,
              "internalType": "address",
              "name": "account",
              "type": "address"
            }
          ],
          "name": "Unpaused",
          "type": "event"
        },
        {
          "anonymous": false,
          "inputs": [
            {
              "indexed": true,
              "internalType": "uint256",
              "name": "assetId",
              "type": "uint256"
            },
            {
              "indexed": false,
              "internalType": "uint256",
              "name": "oldValuation",
              "type": "uint256"
            },
            {
              "indexed": false,
              "internalType": "uint256",
              "name": "newValuation",
              "type": "uint256"
            },
            {
              "indexed": true,
              "internalType": "address",
              "name": "oracle",
              "type": "address"
            }
          ],
          "name": "ValuationUpdated",
          "type": "event"
        },
        {
          "anonymous": false,
          "inputs": [
            {
              "indexed": true,
              "internalType": "uint256",
              "name": "assetId",
              "type": "uint256"
            },
            {
              "indexed": false,
              "internalType": "uint256",
              "name": "yieldAmount",
              "type": "uint256"
            },
            {
              "indexed": false,
              "internalType": "uint256",
              "name": "timestamp",
              "type": "uint256"
            }
          ],
          "name": "YieldDistributed",
          "type": "event"
        },
        {
          "inputs": [],
          "name": "ASSET_FACTORY_ROLE",
          "outputs": [
            {
              "internalType": "bytes32",
              "name": "",
              "type": "bytes32"
            }
          ],
          "stateMutability": "view",
          "type": "function"
        },
        {
          "inputs": [],
          "name": "ASSET_MANAGER_ROLE",
          "outputs": [
            {
              "internalType": "bytes32",
              "name": "",
              "type": "bytes32"
            }
          ],
          "stateMutability": "view",
          "type": "function"
        },
        {
          "inputs": [],
          "name": "COMPLIANCE_ROLE",
          "outputs": [
            {
              "internalType": "bytes32",
              "name": "",
              "type": "bytes32"
            }
          ],
          "stateMutability": "view",
          "type": "function"
        },
        {
          "inputs": [],
          "name": "DEFAULT_ADMIN_ROLE",
          "outputs": [
            {
              "internalType": "bytes32",
              "name": "",
              "type": "bytes32"
            }
          ],
          "stateMutability": "view",
          "type": "function"
        },
        {
          "inputs": [],
          "name": "EMERGENCY_ADMIN_ROLE",
          "outputs": [
            {
              "internalType": "bytes32",
              "name": "",
              "type": "bytes32"
            }
          ],
          "stateMutability": "view",
          "type": "function"
        },
        {
          "inputs": [],
          "name": "PAYMENT_COLLECTOR_ROLE",
          "outputs": [
            {
              "internalType": "bytes32",
              "name": "",
              "type": "bytes32"
            }
          ],
          "stateMutability": "view",
          "type": "function"
        },
        {
          "inputs": [
            {
              "internalType": "uint256",
              "name": "_assetId",
              "type": "uint256"
            }
          ],
          "name": "activateAsset",
          "outputs": [],
          "stateMutability": "nonpayable",
          "type": "function"
        },
        {
          "inputs": [
            {
              "internalType": "address",
              "name": "_oracle",
              "type": "address"
            }
          ],
          "name": "addTrustedOracle",
          "outputs": [],
          "stateMutability": "nonpayable",
          "type": "function"
        },
        {
          "inputs": [],
          "name": "assetCounter",
          "outputs": [
            {
              "internalType": "uint256",
              "name": "",
              "type": "uint256"
            }
          ],
          "stateMutability": "view",
          "type": "function"
        },
        {
          "inputs": [
            {
              "internalType": "uint256",
              "name": "",
              "type": "uint256"
            }
          ],
          "name": "assets",
          "outputs": [
            {
              "internalType": "uint256",
              "name": "assetId",
              "type": "uint256"
            },
            {
              "internalType": "enum RWACommonTypes.AssetType",
              "name": "assetType",
              "type": "uint8"
            },
            {
              "internalType": "address",
              "name": "originator",
              "type": "address"
            },
            {
              "internalType": "address",
              "name": "logicContract",
              "type": "address"
            },
            {
              "internalType": "address",
              "name": "vaultContract",
              "type": "address"
            },
            {
              "internalType": "address",
              "name": "tokenContract",
              "type": "address"
            },
            {
              "internalType": "bool",
              "name": "isKYCVerified",
              "type": "bool"
            },
            {
              "internalType": "bool",
              "name": "isPaused",
              "type": "bool"
            },
            {
              "internalType": "uint256",
              "name": "assetValue",
              "type": "uint256"
            },
            {
              "internalType": "uint256",
              "name": "accumulatedYield",
              "type": "uint256"
            },
            {
              "internalType": "uint256",
              "name": "lastValuationDate",
              "type": "uint256"
            },
            {
              "internalType": "uint256",
              "name": "lastPaymentDate",
              "type": "uint256"
            },
            {
              "internalType": "uint256",
              "name": "missedPayments",
              "type": "uint256"
            },
            {
              "internalType": "uint256",
              "name": "daysInDefault",
              "type": "uint256"
            },
            {
              "internalType": "uint256",
              "name": "lastYieldDistributionDate",
              "type": "uint256"
            },
            {
              "internalType": "uint256",
              "name": "totalYieldDistributed",
              "type": "uint256"
            },
            {
              "internalType": "uint256",
              "name": "nextPaymentDueDate",
              "type": "uint256"
            },
            {
              "internalType": "uint256",
              "name": "expectedMonthlyPayment",
              "type": "uint256"
            },
            {
              "internalType": "uint256",
              "name": "expectedMaturityDate",
              "type": "uint256"
            },
            {
              "internalType": "address",
              "name": "valuationOracle",
              "type": "address"
            },
            {
              "internalType": "enum RWACommonTypes.AssetStatus",
              "name": "currentStatus",
              "type": "uint8"
            },
            {
              "internalType": "enum RWACommonTypes.AssetStatus",
              "name": "statusBeforePause",
              "type": "uint8"
            },
            {
              "internalType": "uint256",
              "name": "registrationDate",
              "type": "uint256"
            },
            {
              "internalType": "uint256",
              "name": "activationDate",
              "type": "uint256"
            },
            {
              "internalType": "string",
              "name": "ipfsMetadataHash",
              "type": "string"
            }
          ],
          "stateMutability": "view",
          "type": "function"
        },
        {
          "inputs": [
            {
              "internalType": "uint256",
              "name": "_assetId",
              "type": "uint256"
            }
          ],
          "name": "checkAndTriggerDefault",
          "outputs": [
            {
              "internalType": "bool",
              "name": "triggered",
              "type": "bool"
            }
          ],
          "stateMutability": "nonpayable",
          "type": "function"
        },
        {
          "inputs": [
            {
              "internalType": "uint256",
              "name": "_assetId",
              "type": "uint256"
            }
          ],
          "name": "completeLiquidation",
          "outputs": [],
          "stateMutability": "nonpayable",
          "type": "function"
        },
        {
          "inputs": [],
          "name": "defaultThresholdDays",
          "outputs": [
            {
              "internalType": "uint256",
              "name": "",
              "type": "uint256"
            }
          ],
          "stateMutability": "view",
          "type": "function"
        },
        {
          "inputs": [
            {
              "internalType": "bytes32",
              "name": "role",
              "type": "bytes32"
            }
          ],
          "name": "getRoleAdmin",
          "outputs": [
            {
              "internalType": "bytes32",
              "name": "",
              "type": "bytes32"
            }
          ],
          "stateMutability": "view",
          "type": "function"
        },
        {
          "inputs": [
            {
              "internalType": "bytes32",
              "name": "role",
              "type": "bytes32"
            },
            {
              "internalType": "address",
              "name": "account",
              "type": "address"
            }
          ],
          "name": "grantRole",
          "outputs": [],
          "stateMutability": "nonpayable",
          "type": "function"
        },
        {
          "inputs": [
            {
              "internalType": "bytes32",
              "name": "role",
              "type": "bytes32"
            },
            {
              "internalType": "address",
              "name": "account",
              "type": "address"
            }
          ],
          "name": "hasRole",
          "outputs": [
            {
              "internalType": "bool",
              "name": "",
              "type": "bool"
            }
          ],
          "stateMutability": "view",
          "type": "function"
        },
        {
          "inputs": [
            {
              "internalType": "uint256",
              "name": "_assetId",
              "type": "uint256"
            }
          ],
          "name": "isAssetActive",
          "outputs": [
            {
              "internalType": "bool",
              "name": "",
              "type": "bool"
            }
          ],
          "stateMutability": "view",
          "type": "function"
        },
        {
          "inputs": [
            {
              "internalType": "uint256",
              "name": "_assetId",
              "type": "uint256"
            }
          ],
          "name": "isAssetPaused",
          "outputs": [
            {
              "internalType": "bool",
              "name": "",
              "type": "bool"
            }
          ],
          "stateMutability": "view",
          "type": "function"
        },
        {
          "inputs": [
            {
              "internalType": "address",
              "name": "_recipient",
              "type": "address"
            }
          ],
          "name": "isWhitelisted",
          "outputs": [
            {
              "internalType": "bool",
              "name": "",
              "type": "bool"
            }
          ],
          "stateMutability": "view",
          "type": "function"
        },
        {
          "inputs": [
            {
              "internalType": "address",
              "name": "",
              "type": "address"
            }
          ],
          "name": "kycVerified",
          "outputs": [
            {
              "internalType": "bool",
              "name": "",
              "type": "bool"
            }
          ],
          "stateMutability": "view",
          "type": "function"
        },
        {
          "inputs": [
            {
              "internalType": "uint256",
              "name": "_assetId",
              "type": "uint256"
            },
            {
              "internalType": "address",
              "name": "_logicContract",
              "type": "address"
            },
            {
              "internalType": "address",
              "name": "_vaultContract",
              "type": "address"
            },
            {
              "internalType": "address",
              "name": "_token",
              "type": "address"
            }
          ],
          "name": "linkContracts",
          "outputs": [],
          "stateMutability": "nonpayable",
          "type": "function"
        },
        {
          "inputs": [],
          "name": "liquidationThresholdDays",
          "outputs": [
            {
              "internalType": "uint256",
              "name": "",
              "type": "uint256"
            }
          ],
          "stateMutability": "view",
          "type": "function"
        },
        {
          "inputs": [
            {
              "internalType": "uint256",
              "name": "_assetId",
              "type": "uint256"
            }
          ],
          "name": "pauseAsset",
          "outputs": [],
          "stateMutability": "nonpayable",
          "type": "function"
        },
        {
          "inputs": [],
          "name": "paused",
          "outputs": [
            {
              "internalType": "bool",
              "name": "",
              "type": "bool"
            }
          ],
          "stateMutability": "view",
          "type": "function"
        },
        {
          "inputs": [
            {
              "internalType": "uint256",
              "name": "_assetId",
              "type": "uint256"
            },
            {
              "internalType": "uint256",
              "name": "_paymentAmount",
              "type": "uint256"
            }
          ],
          "name": "recordPayment",
          "outputs": [],
          "stateMutability": "nonpayable",
          "type": "function"
        },
        {
          "inputs": [
            {
              "internalType": "uint256",
              "name": "_assetId",
              "type": "uint256"
            },
            {
              "internalType": "uint256",
              "name": "_yield",
              "type": "uint256"
            }
          ],
          "name": "recordYieldDistribution",
          "outputs": [],
          "stateMutability": "nonpayable",
          "type": "function"
        },
        {
          "inputs": [
            {
              "internalType": "enum RWACommonTypes.AssetType",
              "name": "_assetType",
              "type": "uint8"
            },
            {
              "internalType": "address",
              "name": "_originator",
              "type": "address"
            },
            {
              "internalType": "uint256",
              "name": "_assetValue",
              "type": "uint256"
            },
            {
              "internalType": "string",
              "name": "_ipfsMetadataHash",
              "type": "string"
            }
          ],
          "name": "registerAsset",
          "outputs": [
            {
              "internalType": "uint256",
              "name": "assetId",
              "type": "uint256"
            }
          ],
          "stateMutability": "nonpayable",
          "type": "function"
        },
        {
          "inputs": [
            {
              "internalType": "bytes32",
              "name": "role",
              "type": "bytes32"
            },
            {
              "internalType": "address",
              "name": "callerConfirmation",
              "type": "address"
            }
          ],
          "name": "renounceRole",
          "outputs": [],
          "stateMutability": "nonpayable",
          "type": "function"
        },
        {
          "inputs": [
            {
              "internalType": "bytes32",
              "name": "role",
              "type": "bytes32"
            },
            {
              "internalType": "address",
              "name": "account",
              "type": "address"
            }
          ],
          "name": "revokeRole",
          "outputs": [],
          "stateMutability": "nonpayable",
          "type": "function"
        },
        {
          "inputs": [
            {
              "internalType": "bytes4",
              "name": "interfaceId",
              "type": "bytes4"
            }
          ],
          "name": "supportsInterface",
          "outputs": [
            {
              "internalType": "bool",
              "name": "",
              "type": "bool"
            }
          ],
          "stateMutability": "view",
          "type": "function"
        },
        {
          "inputs": [
            {
              "internalType": "address",
              "name": "",
              "type": "address"
            }
          ],
          "name": "trustedOracles",
          "outputs": [
            {
              "internalType": "bool",
              "name": "",
              "type": "bool"
            }
          ],
          "stateMutability": "view",
          "type": "function"
        },
        {
          "inputs": [
            {
              "internalType": "uint256",
              "name": "_assetId",
              "type": "uint256"
            }
          ],
          "name": "unpauseAsset",
          "outputs": [],
          "stateMutability": "nonpayable",
          "type": "function"
        },
        {
          "inputs": [
            {
              "internalType": "address",
              "name": "recipient",
              "type": "address"
            }
          ],
          "name": "unwhitelistRecipient",
          "outputs": [],
          "stateMutability": "nonpayable",
          "type": "function"
        },
        {
          "inputs": [
            {
              "internalType": "uint256",
              "name": "_assetId",
              "type": "uint256"
            },
            {
              "internalType": "uint256",
              "name": "_newValuation",
              "type": "uint256"
            }
          ],
          "name": "updateValuation",
          "outputs": [],
          "stateMutability": "nonpayable",
          "type": "function"
        },
        {
          "inputs": [
            {
              "internalType": "address",
              "name": "_address",
              "type": "address"
            }
          ],
          "name": "verifyKYC",
          "outputs": [],
          "stateMutability": "nonpayable",
          "type": "function"
        },
        {
          "inputs": [
            {
              "internalType": "address",
              "name": "recipient",
              "type": "address"
            }
          ],
          "name": "whitelistRecipient",
          "outputs": [],
          "stateMutability": "nonpayable",
          "type": "function"
        },
        {
          "inputs": [
            {
              "internalType": "address",
              "name": "",
              "type": "address"
            }
          ],
          "name": "whitelistedRecipients",
          "outputs": [
            {
              "internalType": "bool",
              "name": "",
              "type": "bool"
            }
          ],
          "stateMutability": "view",
          "type": "function"
        }
      ],
      "evm": {
        "bytecode": {
          "linkReferences": {},
          "object": "608034620000c757601f620025cb38819003918201601f19168301916001600160401b03831184841017620000cc57808492602094604052833981010312620000c757516001600160a01b038116808203620000c7576001600255601e600855603c600955156200009257806200007a6200008192620000e2565b5062000162565b506040516123a69081620002058239f35b60405162461bcd60e51b815260206004820152600d60248201526c24b73b30b634b21030b236b4b760991b6044820152606490fd5b600080fd5b634e487b7160e01b600052604160045260246000fd5b6001600160a01b031660008181527fad3228b676f7d3cd4284a5443f17f1962b36e491b30a40b2405849e597ba5fb5602052604081205490919060ff166200015e57818052816020526040822081835260205260408220600160ff198254161790553391600080516020620025ab8339815191528180a4600190565b5090565b6001600160a01b031660008181527fac55d60145c2b1e72232130507b090ddd2cd26daa31eeab1e3e64b89140e668d60205260408120549091907f5c91514091af31f62f596a314af7d5be40146b2f2355969392f055e12e0982fb9060ff16620001ff57808352826020526040832082845260205260408320600160ff19825416179055600080516020620025ab833981519152339380a4600190565b50509056fe6101c080604052600436101561001457600080fd5b60003560e01c90816301ffc9a714611b9257508063041024a414611b5d578063062d3bd714611b2257806306345a0214611ae75780630b879bc21461188d57806313c5d252146114da57806317f85f85146117e85780631f50b2cb146117a557806320d138471461178757806322e900c214611745578063248a9ca31461171657806327312771146116465780632f2ff15d1461160757806336568abe146115c057806338d16011146115195780633af32abf146114da5780634b918786146114bc57806351b204ed146112b45780635847ddbe146112965780635c975abb1461127357806367125aa5146112015780636cdbf1f9146111065780636dc0fc6b14610f455780636e76fc8f14610f0a57806391d1485414610ebd578063a217fddf14610ea1578063a4b32de814610e66578063a5410a6614610e27578063b4c3dbc514610cd1578063cf35bdd0146109b1578063d547741f14610970578063db29660214610931578063f47cc9b3146108f6578063f78fe97814610825578063fa1b751c1461075c578063ffba205f146105495763ffddd9cd146101b757600080fd5b3461054457608036600319011261054457600480351015610544576101da611c11565b67ffffffffffffffff806064351161054457366023606435011215610544576064356004013511610544573660246064356004013560643501011161054457610221611d6b565b604435156104ff576001600160a01b03811660009081526005602052604090205460ff16156104ba5760045460001981146103b65760018101600455600181016000526003602052604060002091600182018355600183018054610100600160a81b038360081b169060ff60043516906affffffffffffffffffffff60a81b161717905560443560058401556102ba6013840154611c27565b601f8111610467575b506000601f60643560040135116001146103dc57600090606435600401356103cc575b506064356004013560011b906000196064356004013560031b1c19161760138401555b4260118401556010830160ff60a01b19908181541690556004840190600160a01b90825416179055426008840155426007840155600060098401556000600a84015562278d0042018042116103b657600d60209401556040519061036f82600435611c99565b604435828501526001600160a01b03169060018301907fdad99ad75033a16b370048f551c6da57e13c63c93a73343a1bfa85736cb9ee6790604090a3600160405191018152f35b634e487b7160e01b600052601160045260246000fd5b60249150606435010135386102e6565b601f196064356004013516906013850160005260206000209160005b81811061044a57506064356004013511610425575b5050600160643560040135811b016013840155610309565b602460001960f86064356004013560031b161c1991606435010135169055388061040d565b9192602060018192602487606435010135815501940192016103f8565b601384016000526020600020601f606435600401350160051c8101602060643560040135106104b3575b601f830160051c820181106104a75750506102c3565b60008155600101610491565b5080610491565b60405162461bcd60e51b815260206004820152601e60248201527f4173736574206f726967696e61746f72206d7573742070617373204b594300006044820152606490fd5b60405162461bcd60e51b815260206004820152601c60248201527f41737365742076616c7565206d75737420626520706f736974697665000000006044820152606490fd5b600080fd5b346105445760208060031936011261054457600435610566611d0f565b806000526003825260406000209161058083541515611f10565b60048301549261059660ff8560a81c1615611f74565b6010810180549460ff8660a01c1660098110156107465760010361070e5760ff8160a01c16156106d65760028301546001600160a01b03919082161561069a57816003850154161561066257161561062a577f0790c8d81a0cc3bfed1b6e0f29e489b9c93cffb85cf2164ecc769a79464370569394600160a11b9060ff60a01b1916179055601242910155604051428152a2005b60405162461bcd60e51b815260048101849052601060248201526f151bdad95b881b9bdd081b1a5b9ad95960821b6044820152606490fd5b60405162461bcd60e51b815260048101869052601060248201526f15985d5b1d081b9bdd081b1a5b9ad95960821b6044820152606490fd5b60405162461bcd60e51b815260048101869052601460248201527310dbdb9d1c9858dd1cc81b9bdd081b1a5b9ad95960621b6044820152606490fd5b60405162461bcd60e51b815260048101859052601060248201526f12d650c81b9bdd081d995c9a599a595960821b6044820152606490fd5b60405162461bcd60e51b815260048101859052601060248201526f105cdcd95d081b9bdd081b1a5b9ad95960821b6044820152606490fd5b634e487b7160e01b600052602160045260246000fd5b3461054457602036600319011261054457600435610778611cb3565b8060005260036020526010604060002061079481541515611f10565b01805460ff8160a01c166009811015610746576005036107eb5760ff60a01b1916600360a11b1790556040514281527fe7c730f80a7f2d6b0121221fd9eaff1edb01f79ded84d7b808c27bad1b7a771690602090a2005b60405162461bcd60e51b81526020600482015260126024820152712737ba1034b7103634b8bab4b230ba34b7b760711b6044820152606490fd5b346105445760203660031901126105445761083e611bfb565b610846611d0f565b6001600160a01b031661085a811515612330565b80600052600560205260ff60406000205416156108b1578060005260066020526040600020600160ff198254161790557f633dd34c2a254e3303a95404f346347f8e94d94b507ffb6d2db4b9ea051dc1e8600080a2005b60405162461bcd60e51b815260206004820152601e60248201527f526563697069656e74206d757374206265204b594320766572696669656400006044820152606490fd5b346105445760003660031901126105445760206040517f3d33495e820c7b42f4af3e5c6ee4fd25ea79ce9435fe48ce8a6a3343dba332408152f35b34610544576020366003190112610544576001600160a01b03610952611bfb565b166000526007602052602060ff604060002054166040519015158152f35b34610544576040366003190112610544576109af60043561098f611c11565b908060005260006020526109aa600160406000200154611dc6565b611e6a565b005b34610544576020366003190112610544576004356000526003602052604060002080610160528054600182015460e05260018060a01b036002830154166101405260018060a01b036003830154166004830154600584015460068501546007860154600887015491600988015493600a89015495600b8a015497600c8b015499600d8c01549b600e81015461010052600f810154608052601081015460c05260118101546101a052601281015460a0526040516101205260136000910154610a7881611c27565b90816101205152600181169081600014610ca65750600114610c4d575b5090610aac60ff9493926101205180910390611c61565b604051806101805252610ac9602061018051018460e05116611c99565b60018060a01b0360e05160081c166040610180510152610140516060610180510152608061018051015260018060a01b03811660a0610180510152818160a01c16151560c061018051015260a81c16151560e0610180510152610100610180510152610120610180510152610140610180510152610160610180510152610180805101526101a06101805101526101c06101805101526101e06101805101526102006101805101526101005161022061018051015260805161024061018051015260018060a01b0360c05116610260610180510152610bb7610280610180510160ff60c05160a01c16611ca6565b610bd06102a0610180510160ff60c05160a81c16611ca6565b6101a0516102c061018051015260a0516102e0610180510152610320806103006101805101526101205151809161018051015260005b818110610c3057506103406000818361018051010152610180518092601f80199101168101030190f35b806020809261012051010151610340826101805101015201610c06565b9392919050601361016051016000526020600020936000905b808210610c855750610120519394509192909101602001610aac610a95565b91929394600181602092548385610120510101520191019094939291610c66565b610120805160ff199092166020928301525192151560051b929092019091019150610aac9050610a95565b3461054457610cdf36611be5565b3360009081527fa66d454f542ee952bb34837803524bdaab2ee0a9b43cf92e7055d420c43d65de60205260409020547f9c6e3ae929b539a99db03120eac7d9f862d68479b44f1eec05ab6036fcf568309060ff1615610e095750610d41611f53565b816000526003602052604060002090610d5c82541515611f10565b60068201908154808211610dc4577ff571bb88b0ec5dc25398fc62c69d5970d50ea313a0a6596b0ca7f0197d37383f93604093610d9b84600c94611fee565b905542600b82015501610daf828254611f03565b90558151908152426020820152a26001600255005b60405162461bcd60e51b815260206004820152601e60248201527f496e73756666696369656e7420616363756d756c61746564207969656c6400006044820152606490fd5b6044906040519063e2517d3f60e01b82523360048301526024820152fd5b34610544576020366003190112610544576001600160a01b03610e48611bfb565b166000526005602052602060ff604060002054166040519015158152f35b346105445760003660031901126105445760206040517f9c6e3ae929b539a99db03120eac7d9f862d68479b44f1eec05ab6036fcf568308152f35b3461054457600036600319011261054457602060405160008152f35b3461054457604036600319011261054457610ed6611c11565b600435600052600060205260406000209060018060a01b0316600052602052602060ff604060002054166040519015158152f35b346105445760003660031901126105445760206040517f5c91514091af31f62f596a314af7d5be40146b2f2355969392f055e12e0982fb8152f35b3461054457610f5336611be5565b90610f5c611f53565b8060005260209160038352604060002092336000526007815260ff60406000205416156110cf57610f8f84541515611f10565b811561108b576005840193845494600a8602868104600a14871517156103b65760649004610fbd8188611f03565b8511159081611077575b50156110275790836010925542600782015501336bffffffffffffffffffffffff60a01b8254161790556040519384528301527f6b6d89b5e18056723397c772ee29ba7334247377e36f6c320cd89b25a6a0353d60403393a36001600255005b60405162461bcd60e51b815260048101849052602260248201527f56616c756174696f6e206368616e6765206578636565647320313025206c696d6044820152611a5d60f21b6064820152608490fd5b611082915087611fee565b84101587610fc7565b6064906040519062461bcd60e51b82526004820152601a60248201527f56616c756174696f6e206d75737420626520706f7369746976650000000000006044820152fd5b6064906040519062461bcd60e51b82526004820152601060248201526f556e74727573746564206f7261636c6560801b6044820152fd5b3461054457602036600319011261054457600435611122611cb3565b806000526003602052604060002061113c81541515611f10565b600481019081549160ff8360a81c166111c55760ff60a81b19909216600160a81b179091556010018054600960a082901c60ff1610156107465761ffff60a01b19811660089190911b60ff60a81b1617600760a01b1790556040514281523391907fea1e1a5d9a051e736cadf98469b941e52ced1176ab2c8da75e865512a27af37890602090a3005b60405162461bcd60e51b8152602060048201526014602482015273105cdcd95d08185b1c9958591e481c185d5cd95960621b6044820152606490fd5b346105445760203660031901126105445761121a611bfb565b611222611d0f565b6001600160a01b0316611236811515612330565b806000526006602052604060002060ff1981541690557f573bb8749a38f435f296d3d116f34f9230aa4056e3b82ba86f7e5d2b5b41e330600080a2005b3461054457600036600319011261054457602060ff600154166040519015158152f35b34610544576000366003190112610544576020600854604051908152f35b34610544576080366003190112610544576004356112d0611c11565b6001600160a01b03604435818116908190036105445760643591808316809303610544576112fc611d6b565b611304611f53565b846000526020906003825260406000209461132186541515611f10565b601086019182549160ff8360a01c1660098110156107465761148057169586156114425784156114045785156113cf576002810180546001600160a01b03199081168917909155600382018054821687179055600490910180549091168617905560ff60a01b1916600160a01b17905560408051948552908401919091528201527f9359434f26750588cf01310b29e7feaffc79cb7196bb5815a5ff4cbd575fee5e90606090a26001600255005b60405162461bcd60e51b815260048101859052600d60248201526c24b73b30b634b2103a37b5b2b760991b6044820152606490fd5b60405162461bcd60e51b8152600481018590526016602482015275125b9d985b1a59081d985d5b1d0818dbdb9d1c9858dd60521b6044820152606490fd5b60405162461bcd60e51b8152600481018590526016602482015275125b9d985b1a59081b1bd9da58c818dbdb9d1c9858dd60521b6044820152606490fd5b60405162461bcd60e51b8152600481018690526014602482015273105cdcd95d081b9bdd081c9959da5cdd195c995960621b6044820152606490fd5b34610544576000366003190112610544576020600454604051908152f35b34610544576020366003190112610544576001600160a01b036114fb611bfb565b166000526006602052602060ff604060002054166040519015158152f35b3461054457602036600319011261054457611532611bfb565b61153a611d0f565b6001600160a01b03168015611589578060005260056020526040600020600160ff198254161790557f65c84ee842eafc291d1272a6e3d10f8c454c4288e63f5db3f7be2b3012f321a9600080a2005b60405162461bcd60e51b815260206004820152600f60248201526e496e76616c6964206164647265737360881b6044820152606490fd5b34610544576040366003190112610544576115d9611c11565b336001600160a01b038216036115f5576109af90600435611e6a565b60405163334bd91960e11b8152600490fd5b34610544576040366003190112610544576109af600435611626611c11565b90806000526000602052611641600160406000200154611dc6565b611dec565b3461054457602036600319011261054457600435611662611cb3565b806000526003602052604060002061167c81541515611f10565b600481019081549060ff8260a81c16156116de576116af9260109260ff60a81b191690550160ff815460a81c1690611edf565b604051904282527f4fe66463e29948266fbb749b3006a73c61df8dfcfb1587609d1742d7885c27e060203393a3005b60405162461bcd60e51b815260206004820152601060248201526f105cdcd95d081b9bdd081c185d5cd95960821b6044820152606490fd5b346105445760203660031901126105445760043560005260006020526020600160406000200154604051908152f35b3461054457602036600319011261054457600435600052600360205260ff60106040600020015460a01c16600981101561074657602090600260405191148152f35b34610544576000366003190112610544576020600954604051908152f35b34610544576020366003190112610544576004356000526003602052602060ff600460406000206117d881541515611f10565b015460a81c166040519015158152f35b3461054457602036600319011261054457611801611bfb565b611809611cb3565b6001600160a01b03168015611857578060005260076020526040600020600160ff198254161790557e47706786c922d17b39285dc59d696bafea72c0b003d3841ae1202076f4c2e4600080a2005b60405162461bcd60e51b815260206004820152600e60248201526d496e76616c6964206f7261636c6560901b6044820152606490fd5b346105445761189b36611be5565b3360009081527fb7d8d7fec117a8bbf0def7c66a80e921556c4d529ddd0ceaefef3c87ab95fc5260209081526040909120549091907f3d33495e820c7b42f4af3e5c6ee4fd25ea79ce9435fe48ce8a6a3343dba332409060ff1615610e095750611903611f53565b826000526003825260406000209161191d83541515611f10565b60ff601084015460a01c16600981101561074657600203611ab0578115611a6c5760009061195560ff600486015460a81c1615611f74565b600284015481906001600160a01b0316611970811515611faf565b60446040518095819363df9d58ff60e01b83528860048401524260248401525af18015611a6057611a2c575b5050426008830155600682016119b3828254611f03565b8091556000600a84015562278d004201928342116103b6577f764254b77d55c6ba3740bc486a4755b9496831c75730518c1204ec9b6b29b28193600d820155600e810154831015611a1f575b506040805192835260208301919091524290820152606090a26001600255005b60096000910155846119ff565b81813d8311611a59575b611a408183611c61565b810103126105445760099051101561054457838061199c565b503d611a36565b6040513d6000823e3d90fd5b6064906040519062461bcd60e51b82526004820152601860248201527f5061796d656e74206d75737420626520706f73697469766500000000000000006044820152fd5b6064906040519062461bcd60e51b82526004820152601060248201526f4173736574206e6f742061637469766560801b6044820152fd5b346105445760003660031901126105445760206040517ffe5d884d3d6976bfc9d840dc9c3cc3a7ebf2378b0a55e04ac9ad002c8af4404a8152f35b346105445760003660031901126105445760206040517fb938b4e8be78c5b3d6090a6dcee4f5257472278c0aaffb0b01bee86005dc1fee8152f35b3461054457602036600319011261054457611b76611f53565b6020611b83600435611ffb565b60016002556040519015158152f35b34610544576020366003190112610544576004359063ffffffff60e01b821680920361054457602091637965db0b60e01b8114908115611bd4575b5015158152f35b6301ffc9a760e01b14905083611bcd565b6040906003190112610544576004359060243590565b600435906001600160a01b038216820361054457565b602435906001600160a01b038216820361054457565b90600182811c92168015611c57575b6020831014611c4157565b634e487b7160e01b600052602260045260246000fd5b91607f1691611c36565b90601f8019910116810190811067ffffffffffffffff821117611c8357604052565b634e487b7160e01b600052604160045260246000fd5b9060048210156107465752565b9060098210156107465752565b3360009081527fac55d60145c2b1e72232130507b090ddd2cd26daa31eeab1e3e64b89140e668d60205260409020547f5c91514091af31f62f596a314af7d5be40146b2f2355969392f055e12e0982fb9060ff1615610e095750565b3360009081527fca440bb5b4f276d246650b92ae261b87f0f2224864f13e13edcfda2aaca5310260205260409020547fb938b4e8be78c5b3d6090a6dcee4f5257472278c0aaffb0b01bee86005dc1fee9060ff1615610e095750565b3360009081527e19c1b1965c934fc2bfd45c00a175e4a8c435d97704f467924b15f3224a323360205260409020547ffe5d884d3d6976bfc9d840dc9c3cc3a7ebf2378b0a55e04ac9ad002c8af4404a9060ff1615610e095750565b80600052600060205260406000203360005260205260ff6040600020541615610e095750565b9060009180835282602052604083209160018060a01b03169182845260205260ff60408420541615600014611e6557808352826020526040832082845260205260408320600160ff198254161790557f2f8788117e7eff1d82e926ec794901d17c78024a50270940304540a733656f0d339380a4600190565b505090565b9060009180835282602052604083209160018060a01b03169182845260205260ff604084205416600014611e655780835282602052604083208284526020526040832060ff1981541690557ff6391f5c32d9c69d2a47ea670b442974b53935d1edc7fd64eb21e047a839171b339380a4600190565b90600981101561074657815460ff60a01b191660a09190911b60ff60a01b16179055565b919082018092116103b657565b15611f1757565b60405162461bcd60e51b8152602060048201526014602482015273105cdcd95d08191bd95cc81b9bdd08195e1a5cdd60621b6044820152606490fd5b6002805414611f625760028055565b604051633ee5aeb560e01b8152600490fd5b15611f7b57565b60405162461bcd60e51b815260206004820152600c60248201526b105cdcd95d081c185d5cd95960a21b6044820152606490fd5b15611fb657565b60405162461bcd60e51b815260206004820152601060248201526f131bd9da58c81b9bdd081b1a5b9ad95960821b6044820152606490fd5b919082039182116103b657565b6000908082526003602052604080832061201781541515611f10565b60049061202d60ff8383015460a81c1615611f74565b601081019060ff825460a01c16906009918281101561231d5760028114159081612311575b506123085760028101546001600160a01b0316612070811515611faf565b85516308c2281b60e41b815242868201529386856024818c865af19182156122fe57908692918a968b936122aa575b5060609089519889809263137d6df160e11b82525afa80156122a0578a978b908c9261225d575b5088600d870155600e860155600f8501558996804211612244575b5086600a85015560ff815460a01c16908582101561223157858710156122315786828103612221575b5050600582101561220e5760028214918215612203575b508281149081156121f8575b50816121ef575b506121c5575b831461218457505060051461214f5750505090565b7fd11981c7a0981366853bd0f0cfc100f20ddbd0bb5b189ced01cfb46c91588bd19293508151908152426020820152a2600190565b015492519283525060208201524260408201529091507f474f2d8c954ca5a2715e91f77bbdaf2dab28e099e7113c1ea3d29e0b98c1e9dd90606090a2600190565b828201805490600182018092116121dc575561213a565b634e487b7160e01b8a526011835260248afd5b90501538612134565b60059150143861212d565b600314915038612121565b634e487b7160e01b8a526021835260248afd5b61222a91611edf565b388661210a565b634e487b7160e01b8b526021845260248bfd5b620151809197506122559042611fee565b0495386120e1565b985050506060873d8211612298575b8161227960609383611c61565b810103126122945786518860208901519801519097386120c6565b8980fd5b3d915061226c565b88513d8c823e3d90fd5b9650925090508685813d83116122f7575b6122c58183611c61565b810103126122f35784519484861015612294576020015194600586101561229457948692909190606061209f565b8880fd5b503d6122bb565b87513d8b823e3d90fd5b50505050505090565b60039150141538612052565b634e487b7160e01b885260218552602488fd5b1561233757565b60405162461bcd60e51b8152602060048201526011602482015270125b9d985b1a59081c9958da5c1a595b9d607a1b6044820152606490fdfea2646970667358221220c8dba0d53238e4443052f912e1e29f069cc4f88a393132951295a453c248ed8164736f6c634300081400332f8788117e7eff1d82e926ec794901d17c78024a50270940304540a733656f0d",
          "opcodes": "PUSH1 0x80 CALLVALUE PUSH3 0xC7 JUMPI PUSH1 0x1F PUSH3 0x25CB CODESIZE DUP2 SWAP1 SUB SWAP2 DUP3 ADD PUSH1 0x1F NOT AND DUP4 ADD SWAP2 PUSH1 0x1 PUSH1 0x1 PUSH1 0x40 SHL SUB DUP4 GT DUP5 DUP5 LT OR PUSH3 0xCC JUMPI DUP1 DUP5 SWAP3 PUSH1 0x20 SWAP5 PUSH1 0x40 MSTORE DUP4 CODECOPY DUP2 ADD SUB SLT PUSH3 0xC7 JUMPI MLOAD PUSH1 0x1 PUSH1 0x1 PUSH1 0xA0 SHL SUB DUP2 AND DUP1 DUP3 SUB PUSH3 0xC7 JUMPI PUSH1 0x1 PUSH1 0x2 SSTORE PUSH1 0x1E PUSH1 0x8 SSTORE PUSH1 0x3C PUSH1 0x9 SSTORE ISZERO PUSH3 0x92 JUMPI DUP1 PUSH3 0x7A PUSH3 0x81 SWAP3 PUSH3 0xE2 JUMP JUMPDEST POP PUSH3 0x162 JUMP JUMPDEST POP PUSH1 0x40 MLOAD PUSH2 0x23A6 SWAP1 DUP2 PUSH3 0x205 DUP3 CODECOPY RETURN JUMPDEST PUSH1 0x40 MLOAD PUSH3 0x461BCD PUSH1 0xE5 SHL DUP2 MSTORE PUSH1 0x20 PUSH1 0x4 DUP3 ADD MSTORE PUSH1 0xD PUSH1 0x24 DUP3 ADD MSTORE PUSH13 0x24B73B30B634B21030B236B4B7 PUSH1 0x99 SHL PUSH1 0x44 DUP3 ADD MSTORE PUSH1 0x64 SWAP1 REVERT JUMPDEST PUSH1 0x0 DUP1 REVERT JUMPDEST PUSH4 0x4E487B71 PUSH1 0xE0 SHL PUSH1 0x0 MSTORE PUSH1 0x41 PUSH1 0x4 MSTORE PUSH1 0x24 PUSH1 0x0 REVERT JUMPDEST PUSH1 0x1 PUSH1 0x1 PUSH1 0xA0 SHL SUB AND PUSH1 0x0 DUP2 DUP2 MSTORE PUSH32 0xAD3228B676F7D3CD4284A5443F17F1962B36E491B30A40B2405849E597BA5FB5 PUSH1 0x20 MSTORE PUSH1 0x40 DUP2 KECCAK256 SLOAD SWAP1 SWAP2 SWAP1 PUSH1 0xFF AND PUSH3 0x15E JUMPI DUP2 DUP1 MSTORE DUP2 PUSH1 0x20 MSTORE PUSH1 0x40 DUP3 KECCAK256 DUP2 DUP4 MSTORE PUSH1 0x20 MSTORE PUSH1 0x40 DUP3 KECCAK256 PUSH1 0x1 PUSH1 0xFF NOT DUP3 SLOAD AND OR SWAP1 SSTORE CALLER SWAP2 PUSH1 0x0 DUP1 MLOAD PUSH1 0x20 PUSH3 0x25AB DUP4 CODECOPY DUP2 MLOAD SWAP2 MSTORE DUP2 DUP1 LOG4 PUSH1 0x1 SWAP1 JUMP JUMPDEST POP SWAP1 JUMP JUMPDEST PUSH1 0x1 PUSH1 0x1 PUSH1 0xA0 SHL SUB AND PUSH1 0x0 DUP2 DUP2 MSTORE PUSH32 0xAC55D60145C2B1E72232130507B090DDD2CD26DAA31EEAB1E3E64B89140E668D PUSH1 0x20 MSTORE PUSH1 0x40 DUP2 KECCAK256 SLOAD SWAP1 SWAP2 SWAP1 PUSH32 0x5C91514091AF31F62F596A314AF7D5BE40146B2F2355969392F055E12E0982FB SWAP1 PUSH1 0xFF AND PUSH3 0x1FF JUMPI DUP1 DUP4 MSTORE DUP3 PUSH1 0x20 MSTORE PUSH1 0x40 DUP4 KECCAK256 DUP3 DUP5 MSTORE PUSH1 0x20 MSTORE PUSH1 0x40 DUP4 KECCAK256 PUSH1 0x1 PUSH1 0xFF NOT DUP3 SLOAD AND OR SWAP1 SSTORE PUSH1 0x0 DUP1 MLOAD PUSH1 0x20 PUSH3 0x25AB DUP4 CODECOPY DUP2 MLOAD SWAP2 MSTORE CALLER SWAP4 DUP1 LOG4 PUSH1 0x1 SWAP1 JUMP JUMPDEST POP POP SWAP1 JUMP INVALID PUSH2 0x1C0 DUP1 PUSH1 0x40 MSTORE PUSH1 0x4 CALLDATASIZE LT ISZERO PUSH2 0x14 JUMPI PUSH1 0x0 DUP1 REVERT JUMPDEST PUSH1 0x0 CALLDATALOAD PUSH1 0xE0 SHR SWAP1 DUP2 PUSH4 0x1FFC9A7 EQ PUSH2 0x1B92 JUMPI POP DUP1 PUSH4 0x41024A4 EQ PUSH2 0x1B5D JUMPI DUP1 PUSH4 0x62D3BD7 EQ PUSH2 0x1B22 JUMPI DUP1 PUSH4 0x6345A02 EQ PUSH2 0x1AE7 JUMPI DUP1 PUSH4 0xB879BC2 EQ PUSH2 0x188D JUMPI DUP1 PUSH4 0x13C5D252 EQ PUSH2 0x14DA JUMPI DUP1 PUSH4 0x17F85F85 EQ PUSH2 0x17E8 JUMPI DUP1 PUSH4 0x1F50B2CB EQ PUSH2 0x17A5 JUMPI DUP1 PUSH4 0x20D13847 EQ PUSH2 0x1787 JUMPI DUP1 PUSH4 0x22E900C2 EQ PUSH2 0x1745 JUMPI DUP1 PUSH4 0x248A9CA3 EQ PUSH2 0x1716 JUMPI DUP1 PUSH4 0x27312771 EQ PUSH2 0x1646 JUMPI DUP1 PUSH4 0x2F2FF15D EQ PUSH2 0x1607 JUMPI DUP1 PUSH4 0x36568ABE EQ PUSH2 0x15C0 JUMPI DUP1 PUSH4 0x38D16011 EQ PUSH2 0x1519 JUMPI DUP1 PUSH4 0x3AF32ABF EQ PUSH2 0x14DA JUMPI DUP1 PUSH4 0x4B918786 EQ PUSH2 0x14BC JUMPI DUP1 PUSH4 0x51B204ED EQ PUSH2 0x12B4 JUMPI DUP1 PUSH4 0x5847DDBE EQ PUSH2 0x1296 JUMPI DUP1 PUSH4 0x5C975ABB EQ PUSH2 0x1273 JUMPI DUP1 PUSH4 0x67125AA5 EQ PUSH2 0x1201 JUMPI DUP1 PUSH4 0x6CDBF1F9 EQ PUSH2 0x1106 JUMPI DUP1 PUSH4 0x6DC0FC6B EQ PUSH2 0xF45 JUMPI DUP1 PUSH4 0x6E76FC8F EQ PUSH2 0xF0A JUMPI DUP1 PUSH4 0x91D14854 EQ PUSH2 0xEBD JUMPI DUP1 PUSH4 0xA217FDDF EQ PUSH2 0xEA1 JUMPI DUP1 PUSH4 0xA4B32DE8 EQ PUSH2 0xE66 JUMPI DUP1 PUSH4 0xA5410A66 EQ PUSH2 0xE27 JUMPI DUP1 PUSH4 0xB4C3DBC5 EQ PUSH2 0xCD1 JUMPI DUP1 PUSH4 0xCF35BDD0 EQ PUSH2 0x9B1 JUMPI DUP1 PUSH4 0xD547741F EQ PUSH2 0x970 JUMPI DUP1 PUSH4 0xDB296602 EQ PUSH2 0x931 JUMPI DUP1 PUSH4 0xF47CC9B3 EQ PUSH2 0x8F6 JUMPI DUP1 PUSH4 0xF78FE978 EQ PUSH2 0x825 JUMPI DUP1 PUSH4 0xFA1B751C EQ PUSH2 0x75C JUMPI DUP1 PUSH4 0xFFBA205F EQ PUSH2 0x549 JUMPI PUSH4 0xFFDDD9CD EQ PUSH2 0x1B7 JUMPI PUSH1 0x0 DUP1 REVERT JUMPDEST CALLVALUE PUSH2 0x544 JUMPI PUSH1 0x80 CALLDATASIZE PUSH1 0x3 NOT ADD SLT PUSH2 0x544 JUMPI PUSH1 0x4 DUP1 CALLDATALOAD LT ISZERO PUSH2 0x544 JUMPI PUSH2 0x1DA PUSH2 0x1C11 JUMP JUMPDEST PUSH8 0xFFFFFFFFFFFFFFFF DUP1 PUSH1 0x64 CALLDATALOAD GT PUSH2 0x544 JUMPI CALLDATASIZE PUSH1 0x23 PUSH1 0x64 CALLDATALOAD ADD SLT ISZERO PUSH2 0x544 JUMPI PUSH1 0x64 CALLDATALOAD PUSH1 0x4 ADD CALLDATALOAD GT PUSH2 0x544 JUMPI CALLDATASIZE PUSH1 0x24 PUSH1 0x64 CALLDATALOAD PUSH1 0x4 ADD CALLDATALOAD PUSH1 0x64 CALLDATALOAD ADD ADD GT PUSH2 0x544 JUMPI PUSH2 0x221 PUSH2 0x1D6B JUMP JUMPDEST PUSH1 0x44 CALLDATALOAD ISZERO PUSH2 0x4FF JUMPI PUSH1 0x1 PUSH1 0x1 PUSH1 0xA0 SHL SUB DUP2 AND PUSH1 0x0 SWAP1 DUP2 MSTORE PUSH1 0x5 PUSH1 0x20 MSTORE PUSH1 0x40 SWAP1 KECCAK256 SLOAD PUSH1 0xFF AND ISZERO PUSH2 0x4BA JUMPI PUSH1 0x4 SLOAD PUSH1 0x0 NOT DUP2 EQ PUSH2 0x3B6 JUMPI PUSH1 0x1 DUP2 ADD PUSH1 0x4 SSTORE PUSH1 0x1 DUP2 ADD PUSH1 0x0 MSTORE PUSH1 0x3 PUSH1 0x20 MSTORE PUSH1 0x40 PUSH1 0x0 KECCAK256 SWAP2 PUSH1 0x1 DUP3 ADD DUP4 SSTORE PUSH1 0x1 DUP4 ADD DUP1 SLOAD PUSH2 0x100 PUSH1 0x1 PUSH1 0xA8 SHL SUB DUP4 PUSH1 0x8 SHL AND SWAP1 PUSH1 0xFF PUSH1 0x4 CALLDATALOAD AND SWAP1 PUSH11 0xFFFFFFFFFFFFFFFFFFFFFF PUSH1 0xA8 SHL AND OR OR SWAP1 SSTORE PUSH1 0x44 CALLDATALOAD PUSH1 0x5 DUP5 ADD SSTORE PUSH2 0x2BA PUSH1 0x13 DUP5 ADD SLOAD PUSH2 0x1C27 JUMP JUMPDEST PUSH1 0x1F DUP2 GT PUSH2 0x467 JUMPI JUMPDEST POP PUSH1 0x0 PUSH1 0x1F PUSH1 0x64 CALLDATALOAD PUSH1 0x4 ADD CALLDATALOAD GT PUSH1 0x1 EQ PUSH2 0x3DC JUMPI PUSH1 0x0 SWAP1 PUSH1 0x64 CALLDATALOAD PUSH1 0x4 ADD CALLDATALOAD PUSH2 0x3CC JUMPI JUMPDEST POP PUSH1 0x64 CALLDATALOAD PUSH1 0x4 ADD CALLDATALOAD PUSH1 0x1 SHL SWAP1 PUSH1 0x0 NOT PUSH1 0x64 CALLDATALOAD PUSH1 0x4 ADD CALLDATALOAD PUSH1 0x3 SHL SHR NOT AND OR PUSH1 0x13 DUP5 ADD SSTORE JUMPDEST TIMESTAMP PUSH1 0x11 DUP5 ADD SSTORE PUSH1 0x10 DUP4 ADD PUSH1 0xFF PUSH1 0xA0 SHL NOT SWAP1 DUP2 DUP2 SLOAD AND SWAP1 SSTORE PUSH1 0x4 DUP5 ADD SWAP1 PUSH1 0x1 PUSH1 0xA0 SHL SWAP1 DUP3 SLOAD AND OR SWAP1 SSTORE TIMESTAMP PUSH1 0x8 DUP5 ADD SSTORE TIMESTAMP PUSH1 0x7 DUP5 ADD SSTORE PUSH1 0x0 PUSH1 0x9 DUP5 ADD SSTORE PUSH1 0x0 PUSH1 0xA DUP5 ADD SSTORE PUSH3 0x278D00 TIMESTAMP ADD DUP1 TIMESTAMP GT PUSH2 0x3B6 JUMPI PUSH1 0xD PUSH1 0x20 SWAP5 ADD SSTORE PUSH1 0x40 MLOAD SWAP1 PUSH2 0x36F DUP3 PUSH1 0x4 CALLDATALOAD PUSH2 0x1C99 JUMP JUMPDEST PUSH1 0x44 CALLDATALOAD DUP3 DUP6 ADD MSTORE PUSH1 0x1 PUSH1 0x1 PUSH1 0xA0 SHL SUB AND SWAP1 PUSH1 0x1 DUP4 ADD SWAP1 PUSH32 0xDAD99AD75033A16B370048F551C6DA57E13C63C93A73343A1BFA85736CB9EE67 SWAP1 PUSH1 0x40 SWAP1 LOG3 PUSH1 0x1 PUSH1 0x40 MLOAD SWAP2 ADD DUP2 MSTORE RETURN JUMPDEST PUSH4 0x4E487B71 PUSH1 0xE0 SHL PUSH1 0x0 MSTORE PUSH1 0x11 PUSH1 0x4 MSTORE PUSH1 0x24 PUSH1 0x0 REVERT JUMPDEST PUSH1 0x24 SWAP2 POP PUSH1 0x64 CALLDATALOAD ADD ADD CALLDATALOAD CODESIZE PUSH2 0x2E6 JUMP JUMPDEST PUSH1 0x1F NOT PUSH1 0x64 CALLDATALOAD PUSH1 0x4 ADD CALLDATALOAD AND SWAP1 PUSH1 0x13 DUP6 ADD PUSH1 0x0 MSTORE PUSH1 0x20 PUSH1 0x0 KECCAK256 SWAP2 PUSH1 0x0 JUMPDEST DUP2 DUP2 LT PUSH2 0x44A JUMPI POP PUSH1 0x64 CALLDATALOAD PUSH1 0x4 ADD CALLDATALOAD GT PUSH2 0x425 JUMPI JUMPDEST POP POP PUSH1 0x1 PUSH1 0x64 CALLDATALOAD PUSH1 0x4 ADD CALLDATALOAD DUP2 SHL ADD PUSH1 0x13 DUP5 ADD SSTORE PUSH2 0x309 JUMP JUMPDEST PUSH1 0x24 PUSH1 0x0 NOT PUSH1 0xF8 PUSH1 0x64 CALLDATALOAD PUSH1 0x4 ADD CALLDATALOAD PUSH1 0x3 SHL AND SHR NOT SWAP2 PUSH1 0x64 CALLDATALOAD ADD ADD CALLDATALOAD AND SWAP1 SSTORE CODESIZE DUP1 PUSH2 0x40D JUMP JUMPDEST SWAP2 SWAP3 PUSH1 0x20 PUSH1 0x1 DUP2 SWAP3 PUSH1 0x24 DUP8 PUSH1 0x64 CALLDATALOAD ADD ADD CALLDATALOAD DUP2 SSTORE ADD SWAP5 ADD SWAP3 ADD PUSH2 0x3F8 JUMP JUMPDEST PUSH1 0x13 DUP5 ADD PUSH1 0x0 MSTORE PUSH1 0x20 PUSH1 0x0 KECCAK256 PUSH1 0x1F PUSH1 0x64 CALLDATALOAD PUSH1 0x4 ADD CALLDATALOAD ADD PUSH1 0x5 SHR DUP2 ADD PUSH1 0x20 PUSH1 0x64 CALLDATALOAD PUSH1 0x4 ADD CALLDATALOAD LT PUSH2 0x4B3 JUMPI JUMPDEST PUSH1 0x1F DUP4 ADD PUSH1 0x5 SHR DUP3 ADD DUP2 LT PUSH2 0x4A7 JUMPI POP POP PUSH2 0x2C3 JUMP JUMPDEST PUSH1 0x0 DUP2 SSTORE PUSH1 0x1 ADD PUSH2 0x491 JUMP JUMPDEST POP DUP1 PUSH2 0x491 JUMP JUMPDEST PUSH1 0x40 MLOAD PUSH3 0x461BCD PUSH1 0xE5 SHL DUP2 MSTORE PUSH1 0x20 PUSH1 0x4 DUP3 ADD MSTORE PUSH1 0x1E PUSH1 0x24 DUP3 ADD MSTORE PUSH32 0x4173736574206F726967696E61746F72206D7573742070617373204B59430000 PUSH1 0x44 DUP3 ADD MSTORE PUSH1 0x64 SWAP1 REVERT JUMPDEST PUSH1 0x40 MLOAD PUSH3 0x461BCD PUSH1 0xE5 SHL DUP2 MSTORE PUSH1 0x20 PUSH1 0x4 DUP3 ADD MSTORE PUSH1 0x1C PUSH1 0x24 DUP3 ADD MSTORE PUSH32 0x41737365742076616C7565206D75737420626520706F73697469766500000000 PUSH1 0x44 DUP3 ADD MSTORE PUSH1 0x64 SWAP1 REVERT JUMPDEST PUSH1 0x0 DUP1 REVERT JUMPDEST CALLVALUE PUSH2 0x544 JUMPI PUSH1 0x20 DUP1 PUSH1 0x3 NOT CALLDATASIZE ADD SLT PUSH2 0x544 JUMPI PUSH1 0x4 CALLDATALOAD PUSH2 0x566 PUSH2 0x1D0F JUMP JUMPDEST DUP1 PUSH1 0x0 MSTORE PUSH1 0x3 DUP3 MSTORE PUSH1 0x40 PUSH1 0x0 KECCAK256 SWAP2 PUSH2 0x580 DUP4 SLOAD ISZERO ISZERO PUSH2 0x1F10 JUMP JUMPDEST PUSH1 0x4 DUP4 ADD SLOAD SWAP3 PUSH2 0x596 PUSH1 0xFF DUP6 PUSH1 0xA8 SHR AND ISZERO PUSH2 0x1F74 JUMP JUMPDEST PUSH1 0x10 DUP2 ADD DUP1 SLOAD SWAP5 PUSH1 0xFF DUP7 PUSH1 0xA0 SHR AND PUSH1 0x9 DUP2 LT ISZERO PUSH2 0x746 JUMPI PUSH1 0x1 SUB PUSH2 0x70E JUMPI PUSH1 0xFF DUP2 PUSH1 0xA0 SHR AND ISZERO PUSH2 0x6D6 JUMPI PUSH1 0x2 DUP4 ADD SLOAD PUSH1 0x1 PUSH1 0x1 PUSH1 0xA0 SHL SUB SWAP2 SWAP1 DUP3 AND ISZERO PUSH2 0x69A JUMPI DUP2 PUSH1 0x3 DUP6 ADD SLOAD AND ISZERO PUSH2 0x662 JUMPI AND ISZERO PUSH2 0x62A JUMPI PUSH32 0x790C8D81A0CC3BFED1B6E0F29E489B9C93CFFB85CF2164ECC769A7946437056 SWAP4 SWAP5 PUSH1 0x1 PUSH1 0xA1 SHL SWAP1 PUSH1 0xFF PUSH1 0xA0 SHL NOT AND OR SWAP1 SSTORE PUSH1 0x12 TIMESTAMP SWAP2 ADD SSTORE PUSH1 0x40 MLOAD TIMESTAMP DUP2 MSTORE LOG2 STOP JUMPDEST PUSH1 0x40 MLOAD PUSH3 0x461BCD PUSH1 0xE5 SHL DUP2 MSTORE PUSH1 0x4 DUP2 ADD DUP5 SWAP1 MSTORE PUSH1 0x10 PUSH1 0x24 DUP3 ADD MSTORE PUSH16 0x151BDAD95B881B9BDD081B1A5B9AD959 PUSH1 0x82 SHL PUSH1 0x44 DUP3 ADD MSTORE PUSH1 0x64 SWAP1 REVERT JUMPDEST PUSH1 0x40 MLOAD PUSH3 0x461BCD PUSH1 0xE5 SHL DUP2 MSTORE PUSH1 0x4 DUP2 ADD DUP7 SWAP1 MSTORE PUSH1 0x10 PUSH1 0x24 DUP3 ADD MSTORE PUSH16 0x15985D5B1D081B9BDD081B1A5B9AD959 PUSH1 0x82 SHL PUSH1 0x44 DUP3 ADD MSTORE PUSH1 0x64 SWAP1 REVERT JUMPDEST PUSH1 0x40 MLOAD PUSH3 0x461BCD PUSH1 0xE5 SHL DUP2 MSTORE PUSH1 0x4 DUP2 ADD DUP7 SWAP1 MSTORE PUSH1 0x14 PUSH1 0x24 DUP3 ADD MSTORE PUSH20 0x10DBDB9D1C9858DD1CC81B9BDD081B1A5B9AD959 PUSH1 0x62 SHL PUSH1 0x44 DUP3 ADD MSTORE PUSH1 0x64 SWAP1 REVERT JUMPDEST PUSH1 0x40 MLOAD PUSH3 0x461BCD PUSH1 0xE5 SHL DUP2 MSTORE PUSH1 0x4 DUP2 ADD DUP6 SWAP1 MSTORE PUSH1 0x10 PUSH1 0x24 DUP3 ADD MSTORE PUSH16 0x12D650C81B9BDD081D995C9A599A5959 PUSH1 0x82 SHL PUSH1 0x44 DUP3 ADD MSTORE PUSH1 0x64 SWAP1 REVERT JUMPDEST PUSH1 0x40 MLOAD PUSH3 0x461BCD PUSH1 0xE5 SHL DUP2 MSTORE PUSH1 0x4 DUP2 ADD DUP6 SWAP1 MSTORE PUSH1 0x10 PUSH1 0x24 DUP3 ADD MSTORE PUSH16 0x105CDCD95D081B9BDD081B1A5B9AD959 PUSH1 0x82 SHL PUSH1 0x44 DUP3 ADD MSTORE PUSH1 0x64 SWAP1 REVERT JUMPDEST PUSH4 0x4E487B71 PUSH1 0xE0 SHL PUSH1 0x0 MSTORE PUSH1 0x21 PUSH1 0x4 MSTORE PUSH1 0x24 PUSH1 0x0 REVERT JUMPDEST CALLVALUE PUSH2 0x544 JUMPI PUSH1 0x20 CALLDATASIZE PUSH1 0x3 NOT ADD SLT PUSH2 0x544 JUMPI PUSH1 0x4 CALLDATALOAD PUSH2 0x778 PUSH2 0x1CB3 JUMP JUMPDEST DUP1 PUSH1 0x0 MSTORE PUSH1 0x3 PUSH1 0x20 MSTORE PUSH1 0x10 PUSH1 0x40 PUSH1 0x0 KECCAK256 PUSH2 0x794 DUP2 SLOAD ISZERO ISZERO PUSH2 0x1F10 JUMP JUMPDEST ADD DUP1 SLOAD PUSH1 0xFF DUP2 PUSH1 0xA0 SHR AND PUSH1 0x9 DUP2 LT ISZERO PUSH2 0x746 JUMPI PUSH1 0x5 SUB PUSH2 0x7EB JUMPI PUSH1 0xFF PUSH1 0xA0 SHL NOT AND PUSH1 0x3 PUSH1 0xA1 SHL OR SWAP1 SSTORE PUSH1 0x40 MLOAD TIMESTAMP DUP2 MSTORE PUSH32 0xE7C730F80A7F2D6B0121221FD9EAFF1EDB01F79DED84D7B808C27BAD1B7A7716 SWAP1 PUSH1 0x20 SWAP1 LOG2 STOP JUMPDEST PUSH1 0x40 MLOAD PUSH3 0x461BCD PUSH1 0xE5 SHL DUP2 MSTORE PUSH1 0x20 PUSH1 0x4 DUP3 ADD MSTORE PUSH1 0x12 PUSH1 0x24 DUP3 ADD MSTORE PUSH18 0x2737BA1034B7103634B8BAB4B230BA34B7B7 PUSH1 0x71 SHL PUSH1 0x44 DUP3 ADD MSTORE PUSH1 0x64 SWAP1 REVERT JUMPDEST CALLVALUE PUSH2 0x544 JUMPI PUSH1 0x20 CALLDATASIZE PUSH1 0x3 NOT ADD SLT PUSH2 0x544 JUMPI PUSH2 0x83E PUSH2 0x1BFB JUMP JUMPDEST PUSH2 0x846 PUSH2 0x1D0F JUMP JUMPDEST PUSH1 0x1 PUSH1 0x1 PUSH1 0xA0 SHL SUB AND PUSH2 0x85A DUP2 ISZERO ISZERO PUSH2 0x2330 JUMP JUMPDEST DUP1 PUSH1 0x0 MSTORE PUSH1 0x5 PUSH1 0x20 MSTORE PUSH1 0xFF PUSH1 0x40 PUSH1 0x0 KECCAK256 SLOAD AND ISZERO PUSH2 0x8B1 JUMPI DUP1 PUSH1 0x0 MSTORE PUSH1 0x6 PUSH1 0x20 MSTORE PUSH1 0x40 PUSH1 0x0 KECCAK256 PUSH1 0x1 PUSH1 0xFF NOT DUP3 SLOAD AND OR SWAP1 SSTORE PUSH32 0x633DD34C2A254E3303A95404F346347F8E94D94B507FFB6D2DB4B9EA051DC1E8 PUSH1 0x0 DUP1 LOG2 STOP JUMPDEST PUSH1 0x40 MLOAD PUSH3 0x461BCD PUSH1 0xE5 SHL DUP2 MSTORE PUSH1 0x20 PUSH1 0x4 DUP3 ADD MSTORE PUSH1 0x1E PUSH1 0x24 DUP3 ADD MSTORE PUSH32 0x526563697069656E74206D757374206265204B59432076657269666965640000 PUSH1 0x44 DUP3 ADD MSTORE PUSH1 0x64 SWAP1 REVERT JUMPDEST CALLVALUE PUSH2 0x544 JUMPI PUSH1 0x0 CALLDATASIZE PUSH1 0x3 NOT ADD SLT PUSH2 0x544 JUMPI PUSH1 0x20 PUSH1 0x40 MLOAD PUSH32 0x3D33495E820C7B42F4AF3E5C6EE4FD25EA79CE9435FE48CE8A6A3343DBA33240 DUP2 MSTORE RETURN JUMPDEST CALLVALUE PUSH2 0x544 JUMPI PUSH1 0x20 CALLDATASIZE PUSH1 0x3 NOT ADD SLT PUSH2 0x544 JUMPI PUSH1 0x1 PUSH1 0x1 PUSH1 0xA0 SHL SUB PUSH2 0x952 PUSH2 0x1BFB JUMP JUMPDEST AND PUSH1 0x0 MSTORE PUSH1 0x7 PUSH1 0x20 MSTORE PUSH1 0x20 PUSH1 0xFF PUSH1 0x40 PUSH1 0x0 KECCAK256 SLOAD AND PUSH1 0x40 MLOAD SWAP1 ISZERO ISZERO DUP2 MSTORE RETURN JUMPDEST CALLVALUE PUSH2 0x544 JUMPI PUSH1 0x40 CALLDATASIZE PUSH1 0x3 NOT ADD SLT PUSH2 0x544 JUMPI PUSH2 0x9AF PUSH1 0x4 CALLDATALOAD PUSH2 0x98F PUSH2 0x1C11 JUMP JUMPDEST SWAP1 DUP1 PUSH1 0x0 MSTORE PUSH1 0x0 PUSH1 0x20 MSTORE PUSH2 0x9AA PUSH1 0x1 PUSH1 0x40 PUSH1 0x0 KECCAK256 ADD SLOAD PUSH2 0x1DC6 JUMP JUMPDEST PUSH2 0x1E6A JUMP JUMPDEST STOP JUMPDEST CALLVALUE PUSH2 0x544 JUMPI PUSH1 0x20 CALLDATASIZE PUSH1 0x3 NOT ADD SLT PUSH2 0x544 JUMPI PUSH1 0x4 CALLDATALOAD PUSH1 0x0 MSTORE PUSH1 0x3 PUSH1 0x20 MSTORE PUSH1 0x40 PUSH1 0x0 KECCAK256 DUP1 PUSH2 0x160 MSTORE DUP1 SLOAD PUSH1 0x1 DUP3 ADD SLOAD PUSH1 0xE0 MSTORE PUSH1 0x1 DUP1 PUSH1 0xA0 SHL SUB PUSH1 0x2 DUP4 ADD SLOAD AND PUSH2 0x140 MSTORE PUSH1 0x1 DUP1 PUSH1 0xA0 SHL SUB PUSH1 0x3 DUP4 ADD SLOAD AND PUSH1 0x4 DUP4 ADD SLOAD PUSH1 0x5 DUP5 ADD SLOAD PUSH1 0x6 DUP6 ADD SLOAD PUSH1 0x7 DUP7 ADD SLOAD PUSH1 0x8 DUP8 ADD SLOAD SWAP2 PUSH1 0x9 DUP9 ADD SLOAD SWAP4 PUSH1 0xA DUP10 ADD SLOAD SWAP6 PUSH1 0xB DUP11 ADD SLOAD SWAP8 PUSH1 0xC DUP12 ADD SLOAD SWAP10 PUSH1 0xD DUP13 ADD SLOAD SWAP12 PUSH1 0xE DUP2 ADD SLOAD PUSH2 0x100 MSTORE PUSH1 0xF DUP2 ADD SLOAD PUSH1 0x80 MSTORE PUSH1 0x10 DUP2 ADD SLOAD PUSH1 0xC0 MSTORE PUSH1 0x11 DUP2 ADD SLOAD PUSH2 0x1A0 MSTORE PUSH1 0x12 DUP2 ADD SLOAD PUSH1 0xA0 MSTORE PUSH1 0x40 MLOAD PUSH2 0x120 MSTORE PUSH1 0x13 PUSH1 0x0 SWAP2 ADD SLOAD PUSH2 0xA78 DUP2 PUSH2 0x1C27 JUMP JUMPDEST SWAP1 DUP2 PUSH2 0x120 MLOAD MSTORE PUSH1 0x1 DUP2 AND SWAP1 DUP2 PUSH1 0x0 EQ PUSH2 0xCA6 JUMPI POP PUSH1 0x1 EQ PUSH2 0xC4D JUMPI JUMPDEST POP SWAP1 PUSH2 0xAAC PUSH1 0xFF SWAP5 SWAP4 SWAP3 PUSH2 0x120 MLOAD DUP1 SWAP2 SUB SWAP1 PUSH2 0x1C61 JUMP JUMPDEST PUSH1 0x40 MLOAD DUP1 PUSH2 0x180 MSTORE MSTORE PUSH2 0xAC9 PUSH1 0x20 PUSH2 0x180 MLOAD ADD DUP5 PUSH1 0xE0 MLOAD AND PUSH2 0x1C99 JUMP JUMPDEST PUSH1 0x1 DUP1 PUSH1 0xA0 SHL SUB PUSH1 0xE0 MLOAD PUSH1 0x8 SHR AND PUSH1 0x40 PUSH2 0x180 MLOAD ADD MSTORE PUSH2 0x140 MLOAD PUSH1 0x60 PUSH2 0x180 MLOAD ADD MSTORE PUSH1 0x80 PUSH2 0x180 MLOAD ADD MSTORE PUSH1 0x1 DUP1 PUSH1 0xA0 SHL SUB DUP2 AND PUSH1 0xA0 PUSH2 0x180 MLOAD ADD MSTORE DUP2 DUP2 PUSH1 0xA0 SHR AND ISZERO ISZERO PUSH1 0xC0 PUSH2 0x180 MLOAD ADD MSTORE PUSH1 0xA8 SHR AND ISZERO ISZERO PUSH1 0xE0 PUSH2 0x180 MLOAD ADD MSTORE PUSH2 0x100 PUSH2 0x180 MLOAD ADD MSTORE PUSH2 0x120 PUSH2 0x180 MLOAD ADD MSTORE PUSH2 0x140 PUSH2 0x180 MLOAD ADD MSTORE PUSH2 0x160 PUSH2 0x180 MLOAD ADD MSTORE PUSH2 0x180 DUP1 MLOAD ADD MSTORE PUSH2 0x1A0 PUSH2 0x180 MLOAD ADD MSTORE PUSH2 0x1C0 PUSH2 0x180 MLOAD ADD MSTORE PUSH2 0x1E0 PUSH2 0x180 MLOAD ADD MSTORE PUSH2 0x200 PUSH2 0x180 MLOAD ADD MSTORE PUSH2 0x100 MLOAD PUSH2 0x220 PUSH2 0x180 MLOAD ADD MSTORE PUSH1 0x80 MLOAD PUSH2 0x240 PUSH2 0x180 MLOAD ADD MSTORE PUSH1 0x1 DUP1 PUSH1 0xA0 SHL SUB PUSH1 0xC0 MLOAD AND PUSH2 0x260 PUSH2 0x180 MLOAD ADD MSTORE PUSH2 0xBB7 PUSH2 0x280 PUSH2 0x180 MLOAD ADD PUSH1 0xFF PUSH1 0xC0 MLOAD PUSH1 0xA0 SHR AND PUSH2 0x1CA6 JUMP JUMPDEST PUSH2 0xBD0 PUSH2 0x2A0 PUSH2 0x180 MLOAD ADD PUSH1 0xFF PUSH1 0xC0 MLOAD PUSH1 0xA8 SHR AND PUSH2 0x1CA6 JUMP JUMPDEST PUSH2 0x1A0 MLOAD PUSH2 0x2C0 PUSH2 0x180 MLOAD ADD MSTORE PUSH1 0xA0 MLOAD PUSH2 0x2E0 PUSH2 0x180 MLOAD ADD MSTORE PUSH2 0x320 DUP1 PUSH2 0x300 PUSH2 0x180 MLOAD ADD MSTORE PUSH2 0x120 MLOAD MLOAD DUP1 SWAP2 PUSH2 0x180 MLOAD ADD MSTORE PUSH1 0x0 JUMPDEST DUP2 DUP2 LT PUSH2 0xC30 JUMPI POP PUSH2 0x340 PUSH1 0x0 DUP2 DUP4 PUSH2 0x180 MLOAD ADD ADD MSTORE PUSH2 0x180 MLOAD DUP1 SWAP3 PUSH1 0x1F DUP1 NOT SWAP2 ADD AND DUP2 ADD SUB ADD SWAP1 RETURN JUMPDEST DUP1 PUSH1 0x20 DUP1 SWAP3 PUSH2 0x120 MLOAD ADD ADD MLOAD PUSH2 0x340 DUP3 PUSH2 0x180 MLOAD ADD ADD MSTORE ADD PUSH2 0xC06 JUMP JUMPDEST SWAP4 SWAP3 SWAP2 SWAP1 POP PUSH1 0x13 PUSH2 0x160 MLOAD ADD PUSH1 0x0 MSTORE PUSH1 0x20 PUSH1 0x0 KECCAK256 SWAP4 PUSH1 0x0 SWAP1 JUMPDEST DUP1 DUP3 LT PUSH2 0xC85 JUMPI POP PUSH2 0x120 MLOAD SWAP4 SWAP5 POP SWAP2 SWAP3 SWAP1 SWAP2 ADD PUSH1 0x20 ADD PUSH2 0xAAC PUSH2 0xA95 JUMP JUMPDEST SWAP2 SWAP3 SWAP4 SWAP5 PUSH1 0x1 DUP2 PUSH1 0x20 SWAP3 SLOAD DUP4 DUP6 PUSH2 0x120 MLOAD ADD ADD MSTORE ADD SWAP2 ADD SWAP1 SWAP5 SWAP4 SWAP3 SWAP2 PUSH2 0xC66 JUMP JUMPDEST PUSH2 0x120 DUP1 MLOAD PUSH1 0xFF NOT SWAP1 SWAP3 AND PUSH1 0x20 SWAP3 DUP4 ADD MSTORE MLOAD SWAP3 ISZERO ISZERO PUSH1 0x5 SHL SWAP3 SWAP1 SWAP3 ADD SWAP1 SWAP2 ADD SWAP2 POP PUSH2 0xAAC SWAP1 POP PUSH2 0xA95 JUMP JUMPDEST CALLVALUE PUSH2 0x544 JUMPI PUSH2 0xCDF CALLDATASIZE PUSH2 0x1BE5 JUMP JUMPDEST CALLER PUSH1 0x0 SWAP1 DUP2 MSTORE PUSH32 0xA66D454F542EE952BB34837803524BDAAB2EE0A9B43CF92E7055D420C43D65DE PUSH1 0x20 MSTORE PUSH1 0x40 SWAP1 KECCAK256 SLOAD PUSH32 0x9C6E3AE929B539A99DB03120EAC7D9F862D68479B44F1EEC05AB6036FCF56830 SWAP1 PUSH1 0xFF AND ISZERO PUSH2 0xE09 JUMPI POP PUSH2 0xD41 PUSH2 0x1F53 JUMP JUMPDEST DUP2 PUSH1 0x0 MSTORE PUSH1 0x3 PUSH1 0x20 MSTORE PUSH1 0x40 PUSH1 0x0 KECCAK256 SWAP1 PUSH2 0xD5C DUP3 SLOAD ISZERO ISZERO PUSH2 0x1F10 JUMP JUMPDEST PUSH1 0x6 DUP3 ADD SWAP1 DUP2 SLOAD DUP1 DUP3 GT PUSH2 0xDC4 JUMPI PUSH32 0xF571BB88B0EC5DC25398FC62C69D5970D50EA313A0A6596B0CA7F0197D37383F SWAP4 PUSH1 0x40 SWAP4 PUSH2 0xD9B DUP5 PUSH1 0xC SWAP5 PUSH2 0x1FEE JUMP JUMPDEST SWAP1 SSTORE TIMESTAMP PUSH1 0xB DUP3 ADD SSTORE ADD PUSH2 0xDAF DUP3 DUP3 SLOAD PUSH2 0x1F03 JUMP JUMPDEST SWAP1 SSTORE DUP2 MLOAD SWAP1 DUP2 MSTORE TIMESTAMP PUSH1 0x20 DUP3 ADD MSTORE LOG2 PUSH1 0x1 PUSH1 0x2 SSTORE STOP JUMPDEST PUSH1 0x40 MLOAD PUSH3 0x461BCD PUSH1 0xE5 SHL DUP2 MSTORE PUSH1 0x20 PUSH1 0x4 DUP3 ADD MSTORE PUSH1 0x1E PUSH1 0x24 DUP3 ADD MSTORE PUSH32 0x496E73756666696369656E7420616363756D756C61746564207969656C640000 PUSH1 0x44 DUP3 ADD MSTORE PUSH1 0x64 SWAP1 REVERT JUMPDEST PUSH1 0x44 SWAP1 PUSH1 0x40 MLOAD SWAP1 PUSH4 0xE2517D3F PUSH1 0xE0 SHL DUP3 MSTORE CALLER PUSH1 0x4 DUP4 ADD MSTORE PUSH1 0x24 DUP3 ADD MSTORE REVERT JUMPDEST CALLVALUE PUSH2 0x544 JUMPI PUSH1 0x20 CALLDATASIZE PUSH1 0x3 NOT ADD SLT PUSH2 0x544 JUMPI PUSH1 0x1 PUSH1 0x1 PUSH1 0xA0 SHL SUB PUSH2 0xE48 PUSH2 0x1BFB JUMP JUMPDEST AND PUSH1 0x0 MSTORE PUSH1 0x5 PUSH1 0x20 MSTORE PUSH1 0x20 PUSH1 0xFF PUSH1 0x40 PUSH1 0x0 KECCAK256 SLOAD AND PUSH1 0x40 MLOAD SWAP1 ISZERO ISZERO DUP2 MSTORE RETURN JUMPDEST CALLVALUE PUSH2 0x544 JUMPI PUSH1 0x0 CALLDATASIZE PUSH1 0x3 NOT ADD SLT PUSH2 0x544 JUMPI PUSH1 0x20 PUSH1 0x40 MLOAD PUSH32 0x9C6E3AE929B539A99DB03120EAC7D9F862D68479B44F1EEC05AB6036FCF56830 DUP2 MSTORE RETURN JUMPDEST CALLVALUE PUSH2 0x544 JUMPI PUSH1 0x0 CALLDATASIZE PUSH1 0x3 NOT ADD SLT PUSH2 0x544 JUMPI PUSH1 0x20 PUSH1 0x40 MLOAD PUSH1 0x0 DUP2 MSTORE RETURN JUMPDEST CALLVALUE PUSH2 0x544 JUMPI PUSH1 0x40 CALLDATASIZE PUSH1 0x3 NOT ADD SLT PUSH2 0x544 JUMPI PUSH2 0xED6 PUSH2 0x1C11 JUMP JUMPDEST PUSH1 0x4 CALLDATALOAD PUSH1 0x0 MSTORE PUSH1 0x0 PUSH1 0x20 MSTORE PUSH1 0x40 PUSH1 0x0 KECCAK256 SWAP1 PUSH1 0x1 DUP1 PUSH1 0xA0 SHL SUB AND PUSH1 0x0 MSTORE PUSH1 0x20 MSTORE PUSH1 0x20 PUSH1 0xFF PUSH1 0x40 PUSH1 0x0 KECCAK256 SLOAD AND PUSH1 0x40 MLOAD SWAP1 ISZERO ISZERO DUP2 MSTORE RETURN JUMPDEST CALLVALUE PUSH2 0x544 JUMPI PUSH1 0x0 CALLDATASIZE PUSH1 0x3 NOT ADD SLT PUSH2 0x544 JUMPI PUSH1 0x20 PUSH1 0x40 MLOAD PUSH32 0x5C91514091AF31F62F596A314AF7D5BE40146B2F2355969392F055E12E0982FB DUP2 MSTORE RETURN JUMPDEST CALLVALUE PUSH2 0x544 JUMPI PUSH2 0xF53 CALLDATASIZE PUSH2 0x1BE5 JUMP JUMPDEST SWAP1 PUSH2 0xF5C PUSH2 0x1F53 JUMP JUMPDEST DUP1 PUSH1 0x0 MSTORE PUSH1 0x20 SWAP2 PUSH1 0x3 DUP4 MSTORE PUSH1 0x40 PUSH1 0x0 KECCAK256 SWAP3 CALLER PUSH1 0x0 MSTORE PUSH1 0x7 DUP2 MSTORE PUSH1 0xFF PUSH1 0x40 PUSH1 0x0 KECCAK256 SLOAD AND ISZERO PUSH2 0x10CF JUMPI PUSH2 0xF8F DUP5 SLOAD ISZERO ISZERO PUSH2 0x1F10 JUMP JUMPDEST DUP2 ISZERO PUSH2 0x108B JUMPI PUSH1 0x5 DUP5 ADD SWAP4 DUP5 SLOAD SWAP5 PUSH1 0xA DUP7 MUL DUP7 DUP2 DIV PUSH1 0xA EQ DUP8 ISZERO OR ISZERO PUSH2 0x3B6 JUMPI PUSH1 0x64 SWAP1 DIV PUSH2 0xFBD DUP2 DUP9 PUSH2 0x1F03 JUMP JUMPDEST DUP6 GT ISZERO SWAP1 DUP2 PUSH2 0x1077 JUMPI JUMPDEST POP ISZERO PUSH2 0x1027 JUMPI SWAP1 DUP4 PUSH1 0x10 SWAP3 SSTORE TIMESTAMP PUSH1 0x7 DUP3 ADD SSTORE ADD CALLER PUSH12 0xFFFFFFFFFFFFFFFFFFFFFFFF PUSH1 0xA0 SHL DUP3 SLOAD AND OR SWAP1 SSTORE PUSH1 0x40 MLOAD SWAP4 DUP5 MSTORE DUP4 ADD MSTORE PUSH32 0x6B6D89B5E18056723397C772EE29BA7334247377E36F6C320CD89B25A6A0353D PUSH1 0x40 CALLER SWAP4 LOG3 PUSH1 0x1 PUSH1 0x2 SSTORE STOP JUMPDEST PUSH1 0x40 MLOAD PUSH3 0x461BCD PUSH1 0xE5 SHL DUP2 MSTORE PUSH1 0x4 DUP2 ADD DUP5 SWAP1 MSTORE PUSH1 0x22 PUSH1 0x24 DUP3 ADD MSTORE PUSH32 0x56616C756174696F6E206368616E6765206578636565647320313025206C696D PUSH1 0x44 DUP3 ADD MSTORE PUSH2 0x1A5D PUSH1 0xF2 SHL PUSH1 0x64 DUP3 ADD MSTORE PUSH1 0x84 SWAP1 REVERT JUMPDEST PUSH2 0x1082 SWAP2 POP DUP8 PUSH2 0x1FEE JUMP JUMPDEST DUP5 LT ISZERO DUP8 PUSH2 0xFC7 JUMP JUMPDEST PUSH1 0x64 SWAP1 PUSH1 0x40 MLOAD SWAP1 PUSH3 0x461BCD PUSH1 0xE5 SHL DUP3 MSTORE PUSH1 0x4 DUP3 ADD MSTORE PUSH1 0x1A PUSH1 0x24 DUP3 ADD MSTORE PUSH32 0x56616C756174696F6E206D75737420626520706F736974697665000000000000 PUSH1 0x44 DUP3 ADD MSTORE REVERT JUMPDEST PUSH1 0x64 SWAP1 PUSH1 0x40 MLOAD SWAP1 PUSH3 0x461BCD PUSH1 0xE5 SHL DUP3 MSTORE PUSH1 0x4 DUP3 ADD MSTORE PUSH1 0x10 PUSH1 0x24 DUP3 ADD MSTORE PUSH16 0x556E74727573746564206F7261636C65 PUSH1 0x80 SHL PUSH1 0x44 DUP3 ADD MSTORE REVERT JUMPDEST CALLVALUE PUSH2 0x544 JUMPI PUSH1 0x20 CALLDATASIZE PUSH1 0x3 NOT ADD SLT PUSH2 0x544 JUMPI PUSH1 0x4 CALLDATALOAD PUSH2 0x1122 PUSH2 0x1CB3 JUMP JUMPDEST DUP1 PUSH1 0x0 MSTORE PUSH1 0x3 PUSH1 0x20 MSTORE PUSH1 0x40 PUSH1 0x0 KECCAK256 PUSH2 0x113C DUP2 SLOAD ISZERO ISZERO PUSH2 0x1F10 JUMP JUMPDEST PUSH1 0x4 DUP2 ADD SWAP1 DUP2 SLOAD SWAP2 PUSH1 0xFF DUP4 PUSH1 0xA8 SHR AND PUSH2 0x11C5 JUMPI PUSH1 0xFF PUSH1 0xA8 SHL NOT SWAP1 SWAP3 AND PUSH1 0x1 PUSH1 0xA8 SHL OR SWAP1 SWAP2 SSTORE PUSH1 0x10 ADD DUP1 SLOAD PUSH1 0x9 PUSH1 0xA0 DUP3 SWAP1 SHR PUSH1 0xFF AND LT ISZERO PUSH2 0x746 JUMPI PUSH2 0xFFFF PUSH1 0xA0 SHL NOT DUP2 AND PUSH1 0x8 SWAP2 SWAP1 SWAP2 SHL PUSH1 0xFF PUSH1 0xA8 SHL AND OR PUSH1 0x7 PUSH1 0xA0 SHL OR SWAP1 SSTORE PUSH1 0x40 MLOAD TIMESTAMP DUP2 MSTORE CALLER SWAP2 SWAP1 PUSH32 0xEA1E1A5D9A051E736CADF98469B941E52CED1176AB2C8DA75E865512A27AF378 SWAP1 PUSH1 0x20 SWAP1 LOG3 STOP JUMPDEST PUSH1 0x40 MLOAD PUSH3 0x461BCD PUSH1 0xE5 SHL DUP2 MSTORE PUSH1 0x20 PUSH1 0x4 DUP3 ADD MSTORE PUSH1 0x14 PUSH1 0x24 DUP3 ADD MSTORE PUSH20 0x105CDCD95D08185B1C9958591E481C185D5CD959 PUSH1 0x62 SHL PUSH1 0x44 DUP3 ADD MSTORE PUSH1 0x64 SWAP1 REVERT JUMPDEST CALLVALUE PUSH2 0x544 JUMPI PUSH1 0x20 CALLDATASIZE PUSH1 0x3 NOT ADD SLT PUSH2 0x544 JUMPI PUSH2 0x121A PUSH2 0x1BFB JUMP JUMPDEST PUSH2 0x1222 PUSH2 0x1D0F JUMP JUMPDEST PUSH1 0x1 PUSH1 0x1 PUSH1 0xA0 SHL SUB AND PUSH2 0x1236 DUP2 ISZERO ISZERO PUSH2 0x2330 JUMP JUMPDEST DUP1 PUSH1 0x0 MSTORE PUSH1 0x6 PUSH1 0x20 MSTORE PUSH1 0x40 PUSH1 0x0 KECCAK256 PUSH1 0xFF NOT DUP2 SLOAD AND SWAP1 SSTORE PUSH32 0x573BB8749A38F435F296D3D116F34F9230AA4056E3B82BA86F7E5D2B5B41E330 PUSH1 0x0 DUP1 LOG2 STOP JUMPDEST CALLVALUE PUSH2 0x544 JUMPI PUSH1 0x0 CALLDATASIZE PUSH1 0x3 NOT ADD SLT PUSH2 0x544 JUMPI PUSH1 0x20 PUSH1 0xFF PUSH1 0x1 SLOAD AND PUSH1 0x40 MLOAD SWAP1 ISZERO ISZERO DUP2 MSTORE RETURN JUMPDEST CALLVALUE PUSH2 0x544 JUMPI PUSH1 0x0 CALLDATASIZE PUSH1 0x3 NOT ADD SLT PUSH2 0x544 JUMPI PUSH1 0x20 PUSH1 0x8 SLOAD PUSH1 0x40 MLOAD SWAP1 DUP2 MSTORE RETURN JUMPDEST CALLVALUE PUSH2 0x544 JUMPI PUSH1 0x80 CALLDATASIZE PUSH1 0x3 NOT ADD SLT PUSH2 0x544 JUMPI PUSH1 0x4 CALLDATALOAD PUSH2 0x12D0 PUSH2 0x1C11 JUMP JUMPDEST PUSH1 0x1 PUSH1 0x1 PUSH1 0xA0 SHL SUB PUSH1 0x44 CALLDATALOAD DUP2 DUP2 AND SWAP1 DUP2 SWAP1 SUB PUSH2 0x544 JUMPI PUSH1 0x64 CALLDATALOAD SWAP2 DUP1 DUP4 AND DUP1 SWAP4 SUB PUSH2 0x544 JUMPI PUSH2 0x12FC PUSH2 0x1D6B JUMP JUMPDEST PUSH2 0x1304 PUSH2 0x1F53 JUMP JUMPDEST DUP5 PUSH1 0x0 MSTORE PUSH1 0x20 SWAP1 PUSH1 0x3 DUP3 MSTORE PUSH1 0x40 PUSH1 0x0 KECCAK256 SWAP5 PUSH2 0x1321 DUP7 SLOAD ISZERO ISZERO PUSH2 0x1F10 JUMP JUMPDEST PUSH1 0x10 DUP7 ADD SWAP2 DUP3 SLOAD SWAP2 PUSH1 0xFF DUP4 PUSH1 0xA0 SHR AND PUSH1 0x9 DUP2 LT ISZERO PUSH2 0x746 JUMPI PUSH2 0x1480 JUMPI AND SWAP6 DUP7 ISZERO PUSH2 0x1442 JUMPI DUP5 ISZERO PUSH2 0x1404 JUMPI DUP6 ISZERO PUSH2 0x13CF JUMPI PUSH1 0x2 DUP2 ADD DUP1 SLOAD PUSH1 0x1 PUSH1 0x1 PUSH1 0xA0 SHL SUB NOT SWAP1 DUP2 AND DUP10 OR SWAP1 SWAP2 SSTORE PUSH1 0x3 DUP3 ADD DUP1 SLOAD DUP3 AND DUP8 OR SWAP1 SSTORE PUSH1 0x4 SWAP1 SWAP2 ADD DUP1 SLOAD SWAP1 SWAP2 AND DUP7 OR SWAP1 SSTORE PUSH1 0xFF PUSH1 0xA0 SHL NOT AND PUSH1 0x1 PUSH1 0xA0 SHL OR SWAP1 SSTORE PUSH1 0x40 DUP1 MLOAD SWAP5 DUP6 MSTORE SWAP1 DUP5 ADD SWAP2 SWAP1 SWAP2 MSTORE DUP3 ADD MSTORE PUSH32 0x9359434F26750588CF01310B29E7FEAFFC79CB7196BB5815A5FF4CBD575FEE5E SWAP1 PUSH1 0x60 SWAP1 LOG2 PUSH1 0x1 PUSH1 0x2 SSTORE STOP JUMPDEST PUSH1 0x40 MLOAD PUSH3 0x461BCD PUSH1 0xE5 SHL DUP2 MSTORE PUSH1 0x4 DUP2 ADD DUP6 SWAP1 MSTORE PUSH1 0xD PUSH1 0x24 DUP3 ADD MSTORE PUSH13 0x24B73B30B634B2103A37B5B2B7 PUSH1 0x99 SHL PUSH1 0x44 DUP3 ADD MSTORE PUSH1 0x64 SWAP1 REVERT JUMPDEST PUSH1 0x40 MLOAD PUSH3 0x461BCD PUSH1 0xE5 SHL DUP2 MSTORE PUSH1 0x4 DUP2 ADD DUP6 SWAP1 MSTORE PUSH1 0x16 PUSH1 0x24 DUP3 ADD MSTORE PUSH22 0x125B9D985B1A59081D985D5B1D0818DBDB9D1C9858DD PUSH1 0x52 SHL PUSH1 0x44 DUP3 ADD MSTORE PUSH1 0x64 SWAP1 REVERT JUMPDEST PUSH1 0x40 MLOAD PUSH3 0x461BCD PUSH1 0xE5 SHL DUP2 MSTORE PUSH1 0x4 DUP2 ADD DUP6 SWAP1 MSTORE PUSH1 0x16 PUSH1 0x24 DUP3 ADD MSTORE PUSH22 0x125B9D985B1A59081B1BD9DA58C818DBDB9D1C9858DD PUSH1 0x52 SHL PUSH1 0x44 DUP3 ADD MSTORE PUSH1 0x64 SWAP1 REVERT JUMPDEST PUSH1 0x40 MLOAD PUSH3 0x461BCD PUSH1 0xE5 SHL DUP2 MSTORE PUSH1 0x4 DUP2 ADD DUP7 SWAP1 MSTORE PUSH1 0x14 PUSH1 0x24 DUP3 ADD MSTORE PUSH20 0x105CDCD95D081B9BDD081C9959DA5CDD195C9959 PUSH1 0x62 SHL PUSH1 0x44 DUP3 ADD MSTORE PUSH1 0x64 SWAP1 REVERT JUMPDEST CALLVALUE PUSH2 0x544 JUMPI PUSH1 0x0 CALLDATASIZE PUSH1 0x3 NOT ADD SLT PUSH2 0x544 JUMPI PUSH1 0x20 PUSH1 0x4 SLOAD PUSH1 0x40 MLOAD SWAP1 DUP2 MSTORE RETURN JUMPDEST CALLVALUE PUSH2 0x544 JUMPI PUSH1 0x20 CALLDATASIZE PUSH1 0x3 NOT ADD SLT PUSH2 0x544 JUMPI PUSH1 0x1 PUSH1 0x1 PUSH1 0xA0 SHL SUB PUSH2 0x14FB PUSH2 0x1BFB JUMP JUMPDEST AND PUSH1 0x0 MSTORE PUSH1 0x6 PUSH1 0x20 MSTORE PUSH1 0x20 PUSH1 0xFF PUSH1 0x40 PUSH1 0x0 KECCAK256 SLOAD AND PUSH1 0x40 MLOAD SWAP1 ISZERO ISZERO DUP2 MSTORE RETURN JUMPDEST CALLVALUE PUSH2 0x544 JUMPI PUSH1 0x20 CALLDATASIZE PUSH1 0x3 NOT ADD SLT PUSH2 0x544 JUMPI PUSH2 0x1532 PUSH2 0x1BFB JUMP JUMPDEST PUSH2 0x153A PUSH2 0x1D0F JUMP JUMPDEST PUSH1 0x1 PUSH1 0x1 PUSH1 0xA0 SHL SUB AND DUP1 ISZERO PUSH2 0x1589 JUMPI DUP1 PUSH1 0x0 MSTORE PUSH1 0x5 PUSH1 0x20 MSTORE PUSH1 0x40 PUSH1 0x0 KECCAK256 PUSH1 0x1 PUSH1 0xFF NOT DUP3 SLOAD AND OR SWAP1 SSTORE PUSH32 0x65C84EE842EAFC291D1272A6E3D10F8C454C4288E63F5DB3F7BE2B3012F321A9 PUSH1 0x0 DUP1 LOG2 STOP JUMPDEST PUSH1 0x40 MLOAD PUSH3 0x461BCD PUSH1 0xE5 SHL DUP2 MSTORE PUSH1 0x20 PUSH1 0x4 DUP3 ADD MSTORE PUSH1 0xF PUSH1 0x24 DUP3 ADD MSTORE PUSH15 0x496E76616C69642061646472657373 PUSH1 0x88 SHL PUSH1 0x44 DUP3 ADD MSTORE PUSH1 0x64 SWAP1 REVERT JUMPDEST CALLVALUE PUSH2 0x544 JUMPI PUSH1 0x40 CALLDATASIZE PUSH1 0x3 NOT ADD SLT PUSH2 0x544 JUMPI PUSH2 0x15D9 PUSH2 0x1C11 JUMP JUMPDEST CALLER PUSH1 0x1 PUSH1 0x1 PUSH1 0xA0 SHL SUB DUP3 AND SUB PUSH2 0x15F5 JUMPI PUSH2 0x9AF SWAP1 PUSH1 0x4 CALLDATALOAD PUSH2 0x1E6A JUMP JUMPDEST PUSH1 0x40 MLOAD PUSH4 0x334BD919 PUSH1 0xE1 SHL DUP2 MSTORE PUSH1 0x4 SWAP1 REVERT JUMPDEST CALLVALUE PUSH2 0x544 JUMPI PUSH1 0x40 CALLDATASIZE PUSH1 0x3 NOT ADD SLT PUSH2 0x544 JUMPI PUSH2 0x9AF PUSH1 0x4 CALLDATALOAD PUSH2 0x1626 PUSH2 0x1C11 JUMP JUMPDEST SWAP1 DUP1 PUSH1 0x0 MSTORE PUSH1 0x0 PUSH1 0x20 MSTORE PUSH2 0x1641 PUSH1 0x1 PUSH1 0x40 PUSH1 0x0 KECCAK256 ADD SLOAD PUSH2 0x1DC6 JUMP JUMPDEST PUSH2 0x1DEC JUMP JUMPDEST CALLVALUE PUSH2 0x544 JUMPI PUSH1 0x20 CALLDATASIZE PUSH1 0x3 NOT ADD SLT PUSH2 0x544 JUMPI PUSH1 0x4 CALLDATALOAD PUSH2 0x1662 PUSH2 0x1CB3 JUMP JUMPDEST DUP1 PUSH1 0x0 MSTORE PUSH1 0x3 PUSH1 0x20 MSTORE PUSH1 0x40 PUSH1 0x0 KECCAK256 PUSH2 0x167C DUP2 SLOAD ISZERO ISZERO PUSH2 0x1F10 JUMP JUMPDEST PUSH1 0x4 DUP2 ADD SWAP1 DUP2 SLOAD SWAP1 PUSH1 0xFF DUP3 PUSH1 0xA8 SHR AND ISZERO PUSH2 0x16DE JUMPI PUSH2 0x16AF SWAP3 PUSH1 0x10 SWAP3 PUSH1 0xFF PUSH1 0xA8 SHL NOT AND SWAP1 SSTORE ADD PUSH1 0xFF DUP2 SLOAD PUSH1 0xA8 SHR AND SWAP1 PUSH2 0x1EDF JUMP JUMPDEST PUSH1 0x40 MLOAD SWAP1 TIMESTAMP DUP3 MSTORE PUSH32 0x4FE66463E29948266FBB749B3006A73C61DF8DFCFB1587609D1742D7885C27E0 PUSH1 0x20 CALLER SWAP4 LOG3 STOP JUMPDEST PUSH1 0x40 MLOAD PUSH3 0x461BCD PUSH1 0xE5 SHL DUP2 MSTORE PUSH1 0x20 PUSH1 0x4 DUP3 ADD MSTORE PUSH1 0x10 PUSH1 0x24 DUP3 ADD MSTORE PUSH16 0x105CDCD95D081B9BDD081C185D5CD959 PUSH1 0x82 SHL PUSH1 0x44 DUP3 ADD MSTORE PUSH1 0x64 SWAP1 REVERT JUMPDEST CALLVALUE PUSH2 0x544 JUMPI PUSH1 0x20 CALLDATASIZE PUSH1 0x3 NOT ADD SLT PUSH2 0x544 JUMPI PUSH1 0x4 CALLDATALOAD PUSH1 0x0 MSTORE PUSH1 0x0 PUSH1 0x20 MSTORE PUSH1 0x20 PUSH1 0x1 PUSH1 0x40 PUSH1 0x0 KECCAK256 ADD SLOAD PUSH1 0x40 MLOAD SWAP1 DUP2 MSTORE RETURN JUMPDEST CALLVALUE PUSH2 0x544 JUMPI PUSH1 0x20 CALLDATASIZE PUSH1 0x3 NOT ADD SLT PUSH2 0x544 JUMPI PUSH1 0x4 CALLDATALOAD PUSH1 0x0 MSTORE PUSH1 0x3 PUSH1 0x20 MSTORE PUSH1 0xFF PUSH1 0x10 PUSH1 0x40 PUSH1 0x0 KECCAK256 ADD SLOAD PUSH1 0xA0 SHR AND PUSH1 0x9 DUP2 LT ISZERO PUSH2 0x746 JUMPI PUSH1 0x20 SWAP1 PUSH1 0x2 PUSH1 0x40 MLOAD SWAP2 EQ DUP2 MSTORE RETURN JUMPDEST CALLVALUE PUSH2 0x544 JUMPI PUSH1 0x0 CALLDATASIZE PUSH1 0x3 NOT ADD SLT PUSH2 0x544 JUMPI PUSH1 0x20 PUSH1 0x9 SLOAD PUSH1 0x40 MLOAD SWAP1 DUP2 MSTORE RETURN JUMPDEST CALLVALUE PUSH2 0x544 JUMPI PUSH1 0x20 CALLDATASIZE PUSH1 0x3 NOT ADD SLT PUSH2 0x544 JUMPI PUSH1 0x4 CALLDATALOAD PUSH1 0x0 MSTORE PUSH1 0x3 PUSH1 0x20 MSTORE PUSH1 0x20 PUSH1 0xFF PUSH1 0x4 PUSH1 0x40 PUSH1 0x0 KECCAK256 PUSH2 0x17D8 DUP2 SLOAD ISZERO ISZERO PUSH2 0x1F10 JUMP JUMPDEST ADD SLOAD PUSH1 0xA8 SHR AND PUSH1 0x40 MLOAD SWAP1 ISZERO ISZERO DUP2 MSTORE RETURN JUMPDEST CALLVALUE PUSH2 0x544 JUMPI PUSH1 0x20 CALLDATASIZE PUSH1 0x3 NOT ADD SLT PUSH2 0x544 JUMPI PUSH2 0x1801 PUSH2 0x1BFB JUMP JUMPDEST PUSH2 0x1809 PUSH2 0x1CB3 JUMP JUMPDEST PUSH1 0x1 PUSH1 0x1 PUSH1 0xA0 SHL SUB AND DUP1 ISZERO PUSH2 0x1857 JUMPI DUP1 PUSH1 0x0 MSTORE PUSH1 0x7 PUSH1 0x20 MSTORE PUSH1 0x40 PUSH1 0x0 KECCAK256 PUSH1 0x1 PUSH1 0xFF NOT DUP3 SLOAD AND OR SWAP1 SSTORE PUSH31 0x47706786C922D17B39285DC59D696BAFEA72C0B003D3841AE1202076F4C2E4 PUSH1 0x0 DUP1 LOG2 STOP JUMPDEST PUSH1 0x40 MLOAD PUSH3 0x461BCD PUSH1 0xE5 SHL DUP2 MSTORE PUSH1 0x20 PUSH1 0x4 DUP3 ADD MSTORE PUSH1 0xE PUSH1 0x24 DUP3 ADD MSTORE PUSH14 0x496E76616C6964206F7261636C65 PUSH1 0x90 SHL PUSH1 0x44 DUP3 ADD MSTORE PUSH1 0x64 SWAP1 REVERT JUMPDEST CALLVALUE PUSH2 0x544 JUMPI PUSH2 0x189B CALLDATASIZE PUSH2 0x1BE5 JUMP JUMPDEST CALLER PUSH1 0x0 SWAP1 DUP2 MSTORE PUSH32 0xB7D8D7FEC117A8BBF0DEF7C66A80E921556C4D529DDD0CEAEFEF3C87AB95FC52 PUSH1 0x20 SWAP1 DUP2 MSTORE PUSH1 0x40 SWAP1 SWAP2 KECCAK256 SLOAD SWAP1 SWAP2 SWAP1 PUSH32 0x3D33495E820C7B42F4AF3E5C6EE4FD25EA79CE9435FE48CE8A6A3343DBA33240 SWAP1 PUSH1 0xFF AND ISZERO PUSH2 0xE09 JUMPI POP PUSH2 0x1903 PUSH2 0x1F53 JUMP JUMPDEST DUP3 PUSH1 0x0 MSTORE PUSH1 0x3 DUP3 MSTORE PUSH1 0x40 PUSH1 0x0 KECCAK256 SWAP2 PUSH2 0x191D DUP4 SLOAD ISZERO ISZERO PUSH2 0x1F10 JUMP JUMPDEST PUSH1 0xFF PUSH1 0x10 DUP5 ADD SLOAD PUSH1 0xA0 SHR AND PUSH1 0x9 DUP2 LT ISZERO PUSH2 0x746 JUMPI PUSH1 0x2 SUB PUSH2 0x1AB0 JUMPI DUP2 ISZERO PUSH2 0x1A6C JUMPI PUSH1 0x0 SWAP1 PUSH2 0x1955 PUSH1 0xFF PUSH1 0x4 DUP7 ADD SLOAD PUSH1 0xA8 SHR AND ISZERO PUSH2 0x1F74 JUMP JUMPDEST PUSH1 0x2 DUP5 ADD SLOAD DUP2 SWAP1 PUSH1 0x1 PUSH1 0x1 PUSH1 0xA0 SHL SUB AND PUSH2 0x1970 DUP2 ISZERO ISZERO PUSH2 0x1FAF JUMP JUMPDEST PUSH1 0x44 PUSH1 0x40 MLOAD DUP1 SWAP6 DUP2 SWAP4 PUSH4 0xDF9D58FF PUSH1 0xE0 SHL DUP4 MSTORE DUP9 PUSH1 0x4 DUP5 ADD MSTORE TIMESTAMP PUSH1 0x24 DUP5 ADD MSTORE GAS CALL DUP1 ISZERO PUSH2 0x1A60 JUMPI PUSH2 0x1A2C JUMPI JUMPDEST POP POP TIMESTAMP PUSH1 0x8 DUP4 ADD SSTORE PUSH1 0x6 DUP3 ADD PUSH2 0x19B3 DUP3 DUP3 SLOAD PUSH2 0x1F03 JUMP JUMPDEST DUP1 SWAP2 SSTORE PUSH1 0x0 PUSH1 0xA DUP5 ADD SSTORE PUSH3 0x278D00 TIMESTAMP ADD SWAP3 DUP4 TIMESTAMP GT PUSH2 0x3B6 JUMPI PUSH32 0x764254B77D55C6BA3740BC486A4755B9496831C75730518C1204EC9B6B29B281 SWAP4 PUSH1 0xD DUP3 ADD SSTORE PUSH1 0xE DUP2 ADD SLOAD DUP4 LT ISZERO PUSH2 0x1A1F JUMPI JUMPDEST POP PUSH1 0x40 DUP1 MLOAD SWAP3 DUP4 MSTORE PUSH1 0x20 DUP4 ADD SWAP2 SWAP1 SWAP2 MSTORE TIMESTAMP SWAP1 DUP3 ADD MSTORE PUSH1 0x60 SWAP1 LOG2 PUSH1 0x1 PUSH1 0x2 SSTORE STOP JUMPDEST PUSH1 0x9 PUSH1 0x0 SWAP2 ADD SSTORE DUP5 PUSH2 0x19FF JUMP JUMPDEST DUP2 DUP2 RETURNDATASIZE DUP4 GT PUSH2 0x1A59 JUMPI JUMPDEST PUSH2 0x1A40 DUP2 DUP4 PUSH2 0x1C61 JUMP JUMPDEST DUP2 ADD SUB SLT PUSH2 0x544 JUMPI PUSH1 0x9 SWAP1 MLOAD LT ISZERO PUSH2 0x544 JUMPI DUP4 DUP1 PUSH2 0x199C JUMP JUMPDEST POP RETURNDATASIZE PUSH2 0x1A36 JUMP JUMPDEST PUSH1 0x40 MLOAD RETURNDATASIZE PUSH1 0x0 DUP3 RETURNDATACOPY RETURNDATASIZE SWAP1 REVERT JUMPDEST PUSH1 0x64 SWAP1 PUSH1 0x40 MLOAD SWAP1 PUSH3 0x461BCD PUSH1 0xE5 SHL DUP3 MSTORE PUSH1 0x4 DUP3 ADD MSTORE PUSH1 0x18 PUSH1 0x24 DUP3 ADD MSTORE PUSH32 0x5061796D656E74206D75737420626520706F7369746976650000000000000000 PUSH1 0x44 DUP3 ADD MSTORE REVERT JUMPDEST PUSH1 0x64 SWAP1 PUSH1 0x40 MLOAD SWAP1 PUSH3 0x461BCD PUSH1 0xE5 SHL DUP3 MSTORE PUSH1 0x4 DUP3 ADD MSTORE PUSH1 0x10 PUSH1 0x24 DUP3 ADD MSTORE PUSH16 0x4173736574206E6F7420616374697665 PUSH1 0x80 SHL PUSH1 0x44 DUP3 ADD MSTORE REVERT JUMPDEST CALLVALUE PUSH2 0x544 JUMPI PUSH1 0x0 CALLDATASIZE PUSH1 0x3 NOT ADD SLT PUSH2 0x544 JUMPI PUSH1 0x20 PUSH1 0x40 MLOAD PUSH32 0xFE5D884D3D6976BFC9D840DC9C3CC3A7EBF2378B0A55E04AC9AD002C8AF4404A DUP2 MSTORE RETURN JUMPDEST CALLVALUE PUSH2 0x544 JUMPI PUSH1 0x0 CALLDATASIZE PUSH1 0x3 NOT ADD SLT PUSH2 0x544 JUMPI PUSH1 0x20 PUSH1 0x40 MLOAD PUSH32 0xB938B4E8BE78C5B3D6090A6DCEE4F5257472278C0AAFFB0B01BEE86005DC1FEE DUP2 MSTORE RETURN JUMPDEST CALLVALUE PUSH2 0x544 JUMPI PUSH1 0x20 CALLDATASIZE PUSH1 0x3 NOT ADD SLT PUSH2 0x544 JUMPI PUSH2 0x1B76 PUSH2 0x1F53 JUMP JUMPDEST PUSH1 0x20 PUSH2 0x1B83 PUSH1 0x4 CALLDATALOAD PUSH2 0x1FFB JUMP JUMPDEST PUSH1 0x1 PUSH1 0x2 SSTORE PUSH1 0x40 MLOAD SWAP1 ISZERO ISZERO DUP2 MSTORE RETURN JUMPDEST CALLVALUE PUSH2 0x544 JUMPI PUSH1 0x20 CALLDATASIZE PUSH1 0x3 NOT ADD SLT PUSH2 0x544 JUMPI PUSH1 0x4 CALLDATALOAD SWAP1 PUSH4 0xFFFFFFFF PUSH1 0xE0 SHL DUP3 AND DUP1 SWAP3 SUB PUSH2 0x544 JUMPI PUSH1 0x20 SWAP2 PUSH4 0x7965DB0B PUSH1 0xE0 SHL DUP2 EQ SWAP1 DUP2 ISZERO PUSH2 0x1BD4 JUMPI JUMPDEST POP ISZERO ISZERO DUP2 MSTORE RETURN JUMPDEST PUSH4 0x1FFC9A7 PUSH1 0xE0 SHL EQ SWAP1 POP DUP4 PUSH2 0x1BCD JUMP JUMPDEST PUSH1 0x40 SWAP1 PUSH1 0x3 NOT ADD SLT PUSH2 0x544 JUMPI PUSH1 0x4 CALLDATALOAD SWAP1 PUSH1 0x24 CALLDATALOAD SWAP1 JUMP JUMPDEST PUSH1 0x4 CALLDATALOAD SWAP1 PUSH1 0x1 PUSH1 0x1 PUSH1 0xA0 SHL SUB DUP3 AND DUP3 SUB PUSH2 0x544 JUMPI JUMP JUMPDEST PUSH1 0x24 CALLDATALOAD SWAP1 PUSH1 0x1 PUSH1 0x1 PUSH1 0xA0 SHL SUB DUP3 AND DUP3 SUB PUSH2 0x544 JUMPI JUMP JUMPDEST SWAP1 PUSH1 0x1 DUP3 DUP2 SHR SWAP3 AND DUP1 ISZERO PUSH2 0x1C57 JUMPI JUMPDEST PUSH1 0x20 DUP4 LT EQ PUSH2 0x1C41 JUMPI JUMP JUMPDEST PUSH4 0x4E487B71 PUSH1 0xE0 SHL PUSH1 0x0 MSTORE PUSH1 0x22 PUSH1 0x4 MSTORE PUSH1 0x24 PUSH1 0x0 REVERT JUMPDEST SWAP2 PUSH1 0x7F AND SWAP2 PUSH2 0x1C36 JUMP JUMPDEST SWAP1 PUSH1 0x1F DUP1 NOT SWAP2 ADD AND DUP2 ADD SWAP1 DUP2 LT PUSH8 0xFFFFFFFFFFFFFFFF DUP3 GT OR PUSH2 0x1C83 JUMPI PUSH1 0x40 MSTORE JUMP JUMPDEST PUSH4 0x4E487B71 PUSH1 0xE0 SHL PUSH1 0x0 MSTORE PUSH1 0x41 PUSH1 0x4 MSTORE PUSH1 0x24 PUSH1 0x0 REVERT JUMPDEST SWAP1 PUSH1 0x4 DUP3 LT ISZERO PUSH2 0x746 JUMPI MSTORE JUMP JUMPDEST SWAP1 PUSH1 0x9 DUP3 LT ISZERO PUSH2 0x746 JUMPI MSTORE JUMP JUMPDEST CALLER PUSH1 0x0 SWAP1 DUP2 MSTORE PUSH32 0xAC55D60145C2B1E72232130507B090DDD2CD26DAA31EEAB1E3E64B89140E668D PUSH1 0x20 MSTORE PUSH1 0x40 SWAP1 KECCAK256 SLOAD PUSH32 0x5C91514091AF31F62F596A314AF7D5BE40146B2F2355969392F055E12E0982FB SWAP1 PUSH1 0xFF AND ISZERO PUSH2 0xE09 JUMPI POP JUMP JUMPDEST CALLER PUSH1 0x0 SWAP1 DUP2 MSTORE PUSH32 0xCA440BB5B4F276D246650B92AE261B87F0F2224864F13E13EDCFDA2AACA53102 PUSH1 0x20 MSTORE PUSH1 0x40 SWAP1 KECCAK256 SLOAD PUSH32 0xB938B4E8BE78C5B3D6090A6DCEE4F5257472278C0AAFFB0B01BEE86005DC1FEE SWAP1 PUSH1 0xFF AND ISZERO PUSH2 0xE09 JUMPI POP JUMP JUMPDEST CALLER PUSH1 0x0 SWAP1 DUP2 MSTORE PUSH31 0x19C1B1965C934FC2BFD45C00A175E4A8C435D97704F467924B15F3224A3233 PUSH1 0x20 MSTORE PUSH1 0x40 SWAP1 KECCAK256 SLOAD PUSH32 0xFE5D884D3D6976BFC9D840DC9C3CC3A7EBF2378B0A55E04AC9AD002C8AF4404A SWAP1 PUSH1 0xFF AND ISZERO PUSH2 0xE09 JUMPI POP JUMP JUMPDEST DUP1 PUSH1 0x0 MSTORE PUSH1 0x0 PUSH1 0x20 MSTORE PUSH1 0x40 PUSH1 0x0 KECCAK256 CALLER PUSH1 0x0 MSTORE PUSH1 0x20 MSTORE PUSH1 0xFF PUSH1 0x40 PUSH1 0x0 KECCAK256 SLOAD AND ISZERO PUSH2 0xE09 JUMPI POP JUMP JUMPDEST SWAP1 PUSH1 0x0 SWAP2 DUP1 DUP4 MSTORE DUP3 PUSH1 0x20 MSTORE PUSH1 0x40 DUP4 KECCAK256 SWAP2 PUSH1 0x1 DUP1 PUSH1 0xA0 SHL SUB AND SWAP2 DUP3 DUP5 MSTORE PUSH1 0x20 MSTORE PUSH1 0xFF PUSH1 0x40 DUP5 KECCAK256 SLOAD AND ISZERO PUSH1 0x0 EQ PUSH2 0x1E65 JUMPI DUP1 DUP4 MSTORE DUP3 PUSH1 0x20 MSTORE PUSH1 0x40 DUP4 KECCAK256 DUP3 DUP5 MSTORE PUSH1 0x20 MSTORE PUSH1 0x40 DUP4 KECCAK256 PUSH1 0x1 PUSH1 0xFF NOT DUP3 SLOAD AND OR SWAP1 SSTORE PUSH32 0x2F8788117E7EFF1D82E926EC794901D17C78024A50270940304540A733656F0D CALLER SWAP4 DUP1 LOG4 PUSH1 0x1 SWAP1 JUMP JUMPDEST POP POP SWAP1 JUMP JUMPDEST SWAP1 PUSH1 0x0 SWAP2 DUP1 DUP4 MSTORE DUP3 PUSH1 0x20 MSTORE PUSH1 0x40 DUP4 KECCAK256 SWAP2 PUSH1 0x1 DUP1 PUSH1 0xA0 SHL SUB AND SWAP2 DUP3 DUP5 MSTORE PUSH1 0x20 MSTORE PUSH1 0xFF PUSH1 0x40 DUP5 KECCAK256 SLOAD AND PUSH1 0x0 EQ PUSH2 0x1E65 JUMPI DUP1 DUP4 MSTORE DUP3 PUSH1 0x20 MSTORE PUSH1 0x40 DUP4 KECCAK256 DUP3 DUP5 MSTORE PUSH1 0x20 MSTORE PUSH1 0x40 DUP4 KECCAK256 PUSH1 0xFF NOT DUP2 SLOAD AND SWAP1 SSTORE PUSH32 0xF6391F5C32D9C69D2A47EA670B442974B53935D1EDC7FD64EB21E047A839171B CALLER SWAP4 DUP1 LOG4 PUSH1 0x1 SWAP1 JUMP JUMPDEST SWAP1 PUSH1 0x9 DUP2 LT ISZERO PUSH2 0x746 JUMPI DUP2 SLOAD PUSH1 0xFF PUSH1 0xA0 SHL NOT AND PUSH1 0xA0 SWAP2 SWAP1 SWAP2 SHL PUSH1 0xFF PUSH1 0xA0 SHL AND OR SWAP1 SSTORE JUMP JUMPDEST SWAP2 SWAP1 DUP3 ADD DUP1 SWAP3 GT PUSH2 0x3B6 JUMPI JUMP JUMPDEST ISZERO PUSH2 0x1F17 JUMPI JUMP JUMPDEST PUSH1 0x40 MLOAD PUSH3 0x461BCD PUSH1 0xE5 SHL DUP2 MSTORE PUSH1 0x20 PUSH1 0x4 DUP3 ADD MSTORE PUSH1 0x14 PUSH1 0x24 DUP3 ADD MSTORE PUSH20 0x105CDCD95D08191BD95CC81B9BDD08195E1A5CDD PUSH1 0x62 SHL PUSH1 0x44 DUP3 ADD MSTORE PUSH1 0x64 SWAP1 REVERT JUMPDEST PUSH1 0x2 DUP1 SLOAD EQ PUSH2 0x1F62 JUMPI PUSH1 0x2 DUP1 SSTORE JUMP JUMPDEST PUSH1 0x40 MLOAD PUSH4 0x3EE5AEB5 PUSH1 0xE0 SHL DUP2 MSTORE PUSH1 0x4 SWAP1 REVERT JUMPDEST ISZERO PUSH2 0x1F7B JUMPI JUMP JUMPDEST PUSH1 0x40 MLOAD PUSH3 0x461BCD PUSH1 0xE5 SHL DUP2 MSTORE PUSH1 0x20 PUSH1 0x4 DUP3 ADD MSTORE PUSH1 0xC PUSH1 0x24 DUP3 ADD MSTORE PUSH12 0x105CDCD95D081C185D5CD959 PUSH1 0xA2 SHL PUSH1 0x44 DUP3 ADD MSTORE PUSH1 0x64 SWAP1 REVERT JUMPDEST ISZERO PUSH2 0x1FB6 JUMPI JUMP JUMPDEST PUSH1 0x40 MLOAD PUSH3 0x461BCD PUSH1 0xE5 SHL DUP2 MSTORE PUSH1 0x20 PUSH1 0x4 DUP3 ADD MSTORE PUSH1 0x10 PUSH1 0x24 DUP3 ADD MSTORE PUSH16 0x131BD9DA58C81B9BDD081B1A5B9AD959 PUSH1 0x82 SHL PUSH1 0x44 DUP3 ADD MSTORE PUSH1 0x64 SWAP1 REVERT JUMPDEST SWAP2 SWAP1 DUP3 SUB SWAP2 DUP3 GT PUSH2 0x3B6 JUMPI JUMP JUMPDEST PUSH1 0x0 SWAP1 DUP1 DUP3 MSTORE PUSH1 0x3 PUSH1 0x20 MSTORE PUSH1 0x40 DUP1 DUP4 KECCAK256 PUSH2 0x2017 DUP2 SLOAD ISZERO ISZERO PUSH2 0x1F10 JUMP JUMPDEST PUSH1 0x4 SWAP1 PUSH2 0x202D PUSH1 0xFF DUP4 DUP4 ADD SLOAD PUSH1 0xA8 SHR AND ISZERO PUSH2 0x1F74 JUMP JUMPDEST PUSH1 0x10 DUP2 ADD SWAP1 PUSH1 0xFF DUP3 SLOAD PUSH1 0xA0 SHR AND SWAP1 PUSH1 0x9 SWAP2 DUP3 DUP2 LT ISZERO PUSH2 0x231D JUMPI PUSH1 0x2 DUP2 EQ ISZERO SWAP1 DUP2 PUSH2 0x2311 JUMPI JUMPDEST POP PUSH2 0x2308 JUMPI PUSH1 0x2 DUP2 ADD SLOAD PUSH1 0x1 PUSH1 0x1 PUSH1 0xA0 SHL SUB AND PUSH2 0x2070 DUP2 ISZERO ISZERO PUSH2 0x1FAF JUMP JUMPDEST DUP6 MLOAD PUSH4 0x8C2281B PUSH1 0xE4 SHL DUP2 MSTORE TIMESTAMP DUP7 DUP3 ADD MSTORE SWAP4 DUP7 DUP6 PUSH1 0x24 DUP2 DUP13 DUP7 GAS CALL SWAP2 DUP3 ISZERO PUSH2 0x22FE JUMPI SWAP1 DUP7 SWAP3 SWAP2 DUP11 SWAP7 DUP12 SWAP4 PUSH2 0x22AA JUMPI JUMPDEST POP PUSH1 0x60 SWAP1 DUP10 MLOAD SWAP9 DUP10 DUP1 SWAP3 PUSH4 0x137D6DF1 PUSH1 0xE1 SHL DUP3 MSTORE GAS STATICCALL DUP1 ISZERO PUSH2 0x22A0 JUMPI DUP11 SWAP8 DUP12 SWAP1 DUP13 SWAP3 PUSH2 0x225D JUMPI JUMPDEST POP DUP9 PUSH1 0xD DUP8 ADD SSTORE PUSH1 0xE DUP7 ADD SSTORE PUSH1 0xF DUP6 ADD SSTORE DUP10 SWAP7 DUP1 TIMESTAMP GT PUSH2 0x2244 JUMPI JUMPDEST POP DUP7 PUSH1 0xA DUP6 ADD SSTORE PUSH1 0xFF DUP2 SLOAD PUSH1 0xA0 SHR AND SWAP1 DUP6 DUP3 LT ISZERO PUSH2 0x2231 JUMPI DUP6 DUP8 LT ISZERO PUSH2 0x2231 JUMPI DUP7 DUP3 DUP2 SUB PUSH2 0x2221 JUMPI JUMPDEST POP POP PUSH1 0x5 DUP3 LT ISZERO PUSH2 0x220E JUMPI PUSH1 0x2 DUP3 EQ SWAP2 DUP3 ISZERO PUSH2 0x2203 JUMPI JUMPDEST POP DUP3 DUP2 EQ SWAP1 DUP2 ISZERO PUSH2 0x21F8 JUMPI JUMPDEST POP DUP2 PUSH2 0x21EF JUMPI JUMPDEST POP PUSH2 0x21C5 JUMPI JUMPDEST DUP4 EQ PUSH2 0x2184 JUMPI POP POP PUSH1 0x5 EQ PUSH2 0x214F JUMPI POP POP POP SWAP1 JUMP JUMPDEST PUSH32 0xD11981C7A0981366853BD0F0CFC100F20DDBD0BB5B189CED01CFB46C91588BD1 SWAP3 SWAP4 POP DUP2 MLOAD SWAP1 DUP2 MSTORE TIMESTAMP PUSH1 0x20 DUP3 ADD MSTORE LOG2 PUSH1 0x1 SWAP1 JUMP JUMPDEST ADD SLOAD SWAP3 MLOAD SWAP3 DUP4 MSTORE POP PUSH1 0x20 DUP3 ADD MSTORE TIMESTAMP PUSH1 0x40 DUP3 ADD MSTORE SWAP1 SWAP2 POP PUSH32 0x474F2D8C954CA5A2715E91F77BBDAF2DAB28E099E7113C1EA3D29E0B98C1E9DD SWAP1 PUSH1 0x60 SWAP1 LOG2 PUSH1 0x1 SWAP1 JUMP JUMPDEST DUP3 DUP3 ADD DUP1 SLOAD SWAP1 PUSH1 0x1 DUP3 ADD DUP1 SWAP3 GT PUSH2 0x21DC JUMPI SSTORE PUSH2 0x213A JUMP JUMPDEST PUSH4 0x4E487B71 PUSH1 0xE0 SHL DUP11 MSTORE PUSH1 0x11 DUP4 MSTORE PUSH1 0x24 DUP11 REVERT JUMPDEST SWAP1 POP ISZERO CODESIZE PUSH2 0x2134 JUMP JUMPDEST PUSH1 0x5 SWAP2 POP EQ CODESIZE PUSH2 0x212D JUMP JUMPDEST PUSH1 0x3 EQ SWAP2 POP CODESIZE PUSH2 0x2121 JUMP JUMPDEST PUSH4 0x4E487B71 PUSH1 0xE0 SHL DUP11 MSTORE PUSH1 0x21 DUP4 MSTORE PUSH1 0x24 DUP11 REVERT JUMPDEST PUSH2 0x222A SWAP2 PUSH2 0x1EDF JUMP JUMPDEST CODESIZE DUP7 PUSH2 0x210A JUMP JUMPDEST PUSH4 0x4E487B71 PUSH1 0xE0 SHL DUP12 MSTORE PUSH1 0x21 DUP5 MSTORE PUSH1 0x24 DUP12 REVERT JUMPDEST PUSH3 0x15180 SWAP2 SWAP8 POP PUSH2 0x2255 SWAP1 TIMESTAMP PUSH2 0x1FEE JUMP JUMPDEST DIV SWAP6 CODESIZE PUSH2 0x20E1 JUMP JUMPDEST SWAP9 POP POP POP PUSH1 0x60 DUP8 RETURNDATASIZE DUP3 GT PUSH2 0x2298 JUMPI JUMPDEST DUP2 PUSH2 0x2279 PUSH1 0x60 SWAP4 DUP4 PUSH2 0x1C61 JUMP JUMPDEST DUP2 ADD SUB SLT PUSH2 0x2294 JUMPI DUP7 MLOAD DUP9 PUSH1 0x20 DUP10 ADD MLOAD SWAP9 ADD MLOAD SWAP1 SWAP8 CODESIZE PUSH2 0x20C6 JUMP JUMPDEST DUP10 DUP1 REVERT JUMPDEST RETURNDATASIZE SWAP2 POP PUSH2 0x226C JUMP JUMPDEST DUP9 MLOAD RETURNDATASIZE DUP13 DUP3 RETURNDATACOPY RETURNDATASIZE SWAP1 REVERT JUMPDEST SWAP7 POP SWAP3 POP SWAP1 POP DUP7 DUP6 DUP2 RETURNDATASIZE DUP4 GT PUSH2 0x22F7 JUMPI JUMPDEST PUSH2 0x22C5 DUP2 DUP4 PUSH2 0x1C61 JUMP JUMPDEST DUP2 ADD SUB SLT PUSH2 0x22F3 JUMPI DUP5 MLOAD SWAP5 DUP5 DUP7 LT ISZERO PUSH2 0x2294 JUMPI PUSH1 0x20 ADD MLOAD SWAP5 PUSH1 0x5 DUP7 LT ISZERO PUSH2 0x2294 JUMPI SWAP5 DUP7 SWAP3 SWAP1 SWAP2 SWAP1 PUSH1 0x60 PUSH2 0x209F JUMP JUMPDEST DUP9 DUP1 REVERT JUMPDEST POP RETURNDATASIZE PUSH2 0x22BB JUMP JUMPDEST DUP8 MLOAD RETURNDATASIZE DUP12 DUP3 RETURNDATACOPY RETURNDATASIZE SWAP1 REVERT JUMPDEST POP POP POP POP POP POP SWAP1 JUMP JUMPDEST PUSH1 0x3 SWAP2 POP EQ ISZERO CODESIZE PUSH2 0x2052 JUMP JUMPDEST PUSH4 0x4E487B71 PUSH1 0xE0 SHL DUP9 MSTORE PUSH1 0x21 DUP6 MSTORE PUSH1 0x24 DUP9 REVERT JUMPDEST ISZERO PUSH2 0x2337 JUMPI JUMP JUMPDEST PUSH1 0x40 MLOAD PUSH3 0x461BCD PUSH1 0xE5 SHL DUP2 MSTORE PUSH1 0x20 PUSH1 0x4 DUP3 ADD MSTORE PUSH1 0x11 PUSH1 0x24 DUP3 ADD MSTORE PUSH17 0x125B9D985B1A59081C9958DA5C1A595B9D PUSH1 0x7A SHL PUSH1 0x44 DUP3 ADD MSTORE PUSH1 0x64 SWAP1 REVERT INVALID LOG2 PUSH5 0x6970667358 0x22 SLT KECCAK256 0xC8 0xDB LOG0 0xD5 ORIGIN CODESIZE 0xE4 PREVRANDAO ADDRESS MSTORE 0xF9 SLT 0xE1 0xE2 SWAP16 MOD SWAP13 0xC4 0xF8 DUP11 CODECOPY BALANCE ORIGIN SWAP6 SLT SWAP6 LOG4 MSTORE8 0xC2 BASEFEE 0xED DUP2 PUSH5 0x736F6C6343 STOP ADDMOD EQ STOP CALLER 0x2F DUP8 DUP9 GT PUSH31 0x7EFF1D82E926EC794901D17C78024A50270940304540A733656F0D00000000 "
        },
        "methodIdentifiers": {
          "ASSET_FACTORY_ROLE()": "06345a02",
          "ASSET_MANAGER_ROLE()": "a4b32de8",
          "COMPLIANCE_ROLE()": "062d3bd7",
          "DEFAULT_ADMIN_ROLE()": "a217fddf",
          "EMERGENCY_ADMIN_ROLE()": "6e76fc8f",
          "PAYMENT_COLLECTOR_ROLE()": "f47cc9b3",
          "activateAsset(uint256)": "ffba205f",
          "addTrustedOracle(address)": "17f85f85",
          "assetCounter()": "4b918786",
          "assets(uint256)": "cf35bdd0",
          "checkAndTriggerDefault(uint256)": "041024a4",
          "completeLiquidation(uint256)": "fa1b751c",
          "defaultThresholdDays()": "5847ddbe",
          "getRoleAdmin(bytes32)": "248a9ca3",
          "grantRole(bytes32,address)": "2f2ff15d",
          "hasRole(bytes32,address)": "91d14854",
          "isAssetActive(uint256)": "22e900c2",
          "isAssetPaused(uint256)": "1f50b2cb",
          "isWhitelisted(address)": "3af32abf",
          "kycVerified(address)": "a5410a66",
          "linkContracts(uint256,address,address,address)": "51b204ed",
          "liquidationThresholdDays()": "20d13847",
          "pauseAsset(uint256)": "6cdbf1f9",
          "paused()": "5c975abb",
          "recordPayment(uint256,uint256)": "0b879bc2",
          "recordYieldDistribution(uint256,uint256)": "b4c3dbc5",
          "registerAsset(uint8,address,uint256,string)": "ffddd9cd",
          "renounceRole(bytes32,address)": "36568abe",
          "revokeRole(bytes32,address)": "d547741f",
          "supportsInterface(bytes4)": "01ffc9a7",
          "trustedOracles(address)": "db296602",
          "unpauseAsset(uint256)": "27312771",
          "unwhitelistRecipient(address)": "67125aa5",
          "updateValuation(uint256,uint256)": "6dc0fc6b",
          "verifyKYC(address)": "38d16011",
          "whitelistRecipient(address)": "f78fe978",
          "whitelistedRecipients(address)": "13c5d252"
        }
      }
    }
  }
}